{
	"data": {
		"bytecode": {
			"linkReferences": {},
			"object": "608060405260006002553480156200001657600080fd5b506040516200173e3803806200173e83398181016040528101906200003c9190620000a1565b336000806101000a81548173ffffffffffffffffffffffffffffffffffffffff021916908373ffffffffffffffffffffffffffffffffffffffff1602179055508060018190555050620000fc565b6000815190506200009b81620000e2565b92915050565b600060208284031215620000ba57620000b9620000dd565b5b6000620000ca848285016200008a565b91505092915050565b6000819050919050565b600080fd5b620000ed81620000d3565b8114620000f957600080fd5b50565b611632806200010c6000396000f3fe6080604052600436106100555760003560e01c8063143319301461005a57806346ac2b99146100835780635f7d2669146100b3578063a6f9dae1146100dc578063ac95267114610105578063c642ccfa14610121575b600080fd5b34801561006657600080fd5b50610081600480360381019061007c9190610d55565b61013d565b005b61009d60048036038101906100989190610d95565b6102bd565b6040516100aa91906110fe565b60405180910390f35b3480156100bf57600080fd5b506100da60048036038101906100d59190610cb6565b6104a8565b005b3480156100e857600080fd5b5061010360048036038101906100fe9190610c1c565b61059b565b005b61011f600480360381019061011a9190610c76565b61066e565b005b61013b60048036038101906101369190610c49565b6107ef565b005b6000600360008481526020019081526020016000209050600281600901541461016557600080fd5b60005b81600101805490508110156102b7573373ffffffffffffffffffffffffffffffffffffffff168260010182815481106101a4576101a36113c9565b5b9060005260206000200160009054906101000a900473ffffffffffffffffffffffffffffffffffffffff1673ffffffffffffffffffffffffffffffffffffffff1614156102a457826040516020016101fc9190610fb5565b60405160208183030381529060405280519060200120826002018281548110610228576102276113c9565b5b90600052602060002001541461023d57600080fd5b8282600301600082825461025191906111c7565b92505081905550600182600801600082825461026d91906111c7565b9250508190555060028260080154141561029f5760008260070181905550428260040181905550600382600901819055505b6102b7565b80806102af9061133d565b915050610168565b50505050565b6000828460026102cd919061121d565b11156102d857600080fd5b8360036102e5919061121d565b6001546102f291906111c7565b3414610333576040517f08c379a000000000000000000000000000000000000000000000000000000000815260040161032a906110be565b60405180910390fd5b600260008154809291906103469061133d565b91905055905060608060006040518061014001604052803373ffffffffffffffffffffffffffffffffffffffff1681526020018481526020018381526020016000815260200160008152602001888152602001878152602001600081526020016000815260200160018152509050806003600086815260200190815260200160002060008201518160000160006101000a81548173ffffffffffffffffffffffffffffffffffffffff021916908373ffffffffffffffffffffffffffffffffffffffff160217905550602082015181600101908051906020019061042b9291906109ec565b506040820151816002019080519060200190610448929190610a76565b50606082015181600301556080820151816004015560a0820151816005015560c0820151816006015560e082015181600701556101008201518160080155610120820151816009015590505061049e848661066e565b5050509392505050565b60006104d9836040516020016104be9190610f78565b6040516020818303038152906040528051906020012061091b565b90507ff267cce77f3bd2e7a78a01bda14ff1e05d8d75f1f7dac44b8db865c0aea4d91881610507838761094b565b604051610515929190610fd0565b60405180910390a18173ffffffffffffffffffffffffffffffffffffffff1661053e828661094b565b73ffffffffffffffffffffffffffffffffffffffff1614610594576040517f08c379a000000000000000000000000000000000000000000000000000000000815260040161058b906110de565b60405180910390fd5b5050505050565b60008054906101000a900473ffffffffffffffffffffffffffffffffffffffff168073ffffffffffffffffffffffffffffffffffffffff163373ffffffffffffffffffffffffffffffffffffffff161461062a576040517f08c379a00000000000000000000000000000000000000000000000000000000081526004016106219061105e565b60405180910390fd5b816000806101000a81548173ffffffffffffffffffffffffffffffffffffffff021916908373ffffffffffffffffffffffffffffffffffffffff1602179055505050565b6000600360008481526020019081526020016000209050600181600901541461069657600080fd5b806005015460036106a7919061121d565b6001546106b491906111c7565b34146106f5576040517f08c379a00000000000000000000000000000000000000000000000000000000081526004016106ec9061103e565b60405180910390fd5b600281600101805490501061073f576040517f08c379a00000000000000000000000000000000000000000000000000000000081526004016107369061107e565b60405180910390fd5b80600101339080600181540180825580915050600190039060005260206000200160009091909190916101000a81548173ffffffffffffffffffffffffffffffffffffffff021916908373ffffffffffffffffffffffffffffffffffffffff160217905550806002018290806001815401808255809150506001900390600052602060002001600090919091909150556002816001018054905014156107ea57600281600901819055505b505050565b6000600360008381526020019081526020016000209050600181600901541461084d576040517f08c379a00000000000000000000000000000000000000000000000000000000081526004016108449061109e565b60405180910390fd5b3373ffffffffffffffffffffffffffffffffffffffff168160000160009054906101000a900473ffffffffffffffffffffffffffffffffffffffff1673ffffffffffffffffffffffffffffffffffffffff16146108a957600080fd5b3373ffffffffffffffffffffffffffffffffffffffff166108fc826005015460036108d4919061121d565b6001546108e191906111c7565b9081150290604051600060405180830381858888f1935050505015801561090c573d6000803e3d6000fd5b50600481600901819055505050565b60008160405160200161092e9190610f8f565b604051602081830303815290604052805190602001209050919050565b60008060008061095a856109ba565b925092509250600186848484604051600081526020016040526040516109839493929190610ff9565b6020604051602081039080840390855afa1580156109a5573d6000803e3d6000fd5b50505060206040510351935050505092915050565b600080600060418451146109cd57600080fd5b6020840151915060408401519050606084015160001a92509193909250565b828054828255906000526020600020908101928215610a65579160200282015b82811115610a645782518260006101000a81548173ffffffffffffffffffffffffffffffffffffffff021916908373ffffffffffffffffffffffffffffffffffffffff16021790555091602001919060010190610a0c565b5b509050610a729190610ac3565b5090565b828054828255906000526020600020908101928215610ab2579160200282015b82811115610ab1578251825591602001919060010190610a96565b5b509050610abf9190610ae0565b5090565b5b80821115610adc576000816000905550600101610ac4565b5090565b5b80821115610af9576000816000905550600101610ae1565b5090565b6000610b10610b0b8461113e565b611119565b905082815260208101848484011115610b2c57610b2b61142c565b5b610b378482856112ca565b509392505050565b6000610b52610b4d8461116f565b611119565b905082815260208101848484011115610b6e57610b6d61142c565b5b610b798482856112ca565b509392505050565b600081359050610b90816115b7565b92915050565b600081359050610ba5816115ce565b92915050565b600082601f830112610bc057610bbf611427565b5b8135610bd0848260208601610afd565b91505092915050565b600082601f830112610bee57610bed611427565b5b8135610bfe848260208601610b3f565b91505092915050565b600081359050610c16816115e5565b92915050565b600060208284031215610c3257610c31611436565b5b6000610c4084828501610b81565b91505092915050565b600060208284031215610c5f57610c5e611436565b5b6000610c6d84828501610c07565b91505092915050565b60008060408385031215610c8d57610c8c611436565b5b6000610c9b85828601610c07565b9250506020610cac85828601610b96565b9150509250929050565b60008060008060808587031215610cd057610ccf611436565b5b6000610cde87828801610c07565b945050602085013567ffffffffffffffff811115610cff57610cfe611431565b5b610d0b87828801610bab565b935050604085013567ffffffffffffffff811115610d2c57610d2b611431565b5b610d3887828801610bd9565b9250506060610d4987828801610b81565b91505092959194509250565b60008060408385031215610d6c57610d6b611436565b5b6000610d7a85828601610c07565b9250506020610d8b85828601610c07565b9150509250929050565b600080600060608486031215610dae57610dad611436565b5b6000610dbc86828701610c07565b9350506020610dcd86828701610c07565b9250506040610dde86828701610b96565b9150509250925092565b610df181611277565b82525050565b610e0081611289565b82525050565b610e17610e1282611289565b611386565b82525050565b6000610e28826111a0565b610e3281856111bc565b9350610e428185602086016112d9565b80840191505092915050565b6000610e5b602a836111ab565b9150610e668261144c565b604082019050919050565b6000610e7e601c836111bc565b9150610e898261149b565b601c82019050919050565b6000610ea16013836111ab565b9150610eac826114c4565b602082019050919050565b6000610ec46018836111ab565b9150610ecf826114ed565b602082019050919050565b6000610ee7601e836111ab565b9150610ef282611516565b602082019050919050565b6000610f0a602b836111ab565b9150610f158261153f565b604082019050919050565b6000610f2d600a836111ab565b9150610f388261158e565b602082019050919050565b610f4c816112b3565b82525050565b610f63610f5e826112b3565b611390565b82525050565b610f72816112bd565b82525050565b6000610f848284610e1d565b915081905092915050565b6000610f9a82610e71565b9150610fa68284610e06565b60208201915081905092915050565b6000610fc18284610f52565b60208201915081905092915050565b6000604082019050610fe56000830185610df7565b610ff26020830184610de8565b9392505050565b600060808201905061100e6000830187610df7565b61101b6020830186610f69565b6110286040830185610df7565b6110356060830184610df7565b95945050505050565b6000602082019050818103600083015261105781610e4e565b9050919050565b6000602082019050818103600083015261107781610e94565b9050919050565b6000602082019050818103600083015261109781610eb7565b9050919050565b600060208201905081810360008301526110b781610eda565b9050919050565b600060208201905081810360008301526110d781610efd565b9050919050565b600060208201905081810360008301526110f781610f20565b9050919050565b60006020820190506111136000830184610f43565b92915050565b6000611123611134565b905061112f828261130c565b919050565b6000604051905090565b600067ffffffffffffffff821115611159576111586113f8565b5b6111628261143b565b9050602081019050919050565b600067ffffffffffffffff82111561118a576111896113f8565b5b6111938261143b565b9050602081019050919050565b600081519050919050565b600082825260208201905092915050565b600081905092915050565b60006111d2826112b3565b91506111dd836112b3565b9250827fffffffffffffffffffffffffffffffffffffffffffffffffffffffffffffffff038211156112125761121161139a565b5b828201905092915050565b6000611228826112b3565b9150611233836112b3565b9250817fffffffffffffffffffffffffffffffffffffffffffffffffffffffffffffffff048311821515161561126c5761126b61139a565b5b828202905092915050565b600061128282611293565b9050919050565b6000819050919050565b600073ffffffffffffffffffffffffffffffffffffffff82169050919050565b6000819050919050565b600060ff82169050919050565b82818337600083830152505050565b60005b838110156112f75780820151818401526020810190506112dc565b83811115611306576000848401525b50505050565b6113158261143b565b810181811067ffffffffffffffff82111715611334576113336113f8565b5b80604052505050565b6000611348826112b3565b91507fffffffffffffffffffffffffffffffffffffffffffffffffffffffffffffffff82141561137b5761137a61139a565b5b600182019050919050565b6000819050919050565b6000819050919050565b7f4e487b7100000000000000000000000000000000000000000000000000000000600052601160045260246000fd5b7f4e487b7100000000000000000000000000000000000000000000000000000000600052603260045260246000fd5b7f4e487b7100000000000000000000000000000000000000000000000000000000600052604160045260246000fd5b600080fd5b600080fd5b600080fd5b600080fd5b6000601f19601f8301169050919050565b7f72657175697265206465706f736974206174206c6561737420626967202b207360008201527f6d616c6c20626c696e6400000000000000000000000000000000000000000000602082015250565b7f19457468657265756d205369676e6564204d6573736167653a0a333200000000600082015250565b7f43616c6c6572206973206e6f74206f776e657200000000000000000000000000600082015250565b7f63616e2774206a6f696e20746f2066756c6c207461626c650000000000000000600082015250565b7f63616e2774206573636170652066726f6d20737461727465642067616d650000600082015250565b7f72657175697265206465706f73697420657175616c7320746f20626967202b2060008201527f736d616c6c20626c696e64000000000000000000000000000000000000000000602082015250565b7f6261642073656e64657200000000000000000000000000000000000000000000600082015250565b6115c081611277565b81146115cb57600080fd5b50565b6115d781611289565b81146115e257600080fd5b50565b6115ee816112b3565b81146115f957600080fd5b5056fea26469706673582212200b1507072a8dea9b0813722c32a59318a812d2158e56d50f1782eeb46792167c64736f6c63430008070033",
			"opcodes": "PUSH1 0x80 PUSH1 0x40 MSTORE PUSH1 0x0 PUSH1 0x2 SSTORE CALLVALUE DUP1 ISZERO PUSH3 0x16 JUMPI PUSH1 0x0 DUP1 REVERT JUMPDEST POP PUSH1 0x40 MLOAD PUSH3 0x173E CODESIZE SUB DUP1 PUSH3 0x173E DUP4 CODECOPY DUP2 DUP2 ADD PUSH1 0x40 MSTORE DUP2 ADD SWAP1 PUSH3 0x3C SWAP2 SWAP1 PUSH3 0xA1 JUMP JUMPDEST CALLER PUSH1 0x0 DUP1 PUSH2 0x100 EXP DUP2 SLOAD DUP2 PUSH20 0xFFFFFFFFFFFFFFFFFFFFFFFFFFFFFFFFFFFFFFFF MUL NOT AND SWAP1 DUP4 PUSH20 0xFFFFFFFFFFFFFFFFFFFFFFFFFFFFFFFFFFFFFFFF AND MUL OR SWAP1 SSTORE POP DUP1 PUSH1 0x1 DUP2 SWAP1 SSTORE POP POP PUSH3 0xFC JUMP JUMPDEST PUSH1 0x0 DUP2 MLOAD SWAP1 POP PUSH3 0x9B DUP2 PUSH3 0xE2 JUMP JUMPDEST SWAP3 SWAP2 POP POP JUMP JUMPDEST PUSH1 0x0 PUSH1 0x20 DUP3 DUP5 SUB SLT ISZERO PUSH3 0xBA JUMPI PUSH3 0xB9 PUSH3 0xDD JUMP JUMPDEST JUMPDEST PUSH1 0x0 PUSH3 0xCA DUP5 DUP3 DUP6 ADD PUSH3 0x8A JUMP JUMPDEST SWAP2 POP POP SWAP3 SWAP2 POP POP JUMP JUMPDEST PUSH1 0x0 DUP2 SWAP1 POP SWAP2 SWAP1 POP JUMP JUMPDEST PUSH1 0x0 DUP1 REVERT JUMPDEST PUSH3 0xED DUP2 PUSH3 0xD3 JUMP JUMPDEST DUP2 EQ PUSH3 0xF9 JUMPI PUSH1 0x0 DUP1 REVERT JUMPDEST POP JUMP JUMPDEST PUSH2 0x1632 DUP1 PUSH3 0x10C PUSH1 0x0 CODECOPY PUSH1 0x0 RETURN INVALID PUSH1 0x80 PUSH1 0x40 MSTORE PUSH1 0x4 CALLDATASIZE LT PUSH2 0x55 JUMPI PUSH1 0x0 CALLDATALOAD PUSH1 0xE0 SHR DUP1 PUSH4 0x14331930 EQ PUSH2 0x5A JUMPI DUP1 PUSH4 0x46AC2B99 EQ PUSH2 0x83 JUMPI DUP1 PUSH4 0x5F7D2669 EQ PUSH2 0xB3 JUMPI DUP1 PUSH4 0xA6F9DAE1 EQ PUSH2 0xDC JUMPI DUP1 PUSH4 0xAC952671 EQ PUSH2 0x105 JUMPI DUP1 PUSH4 0xC642CCFA EQ PUSH2 0x121 JUMPI JUMPDEST PUSH1 0x0 DUP1 REVERT JUMPDEST CALLVALUE DUP1 ISZERO PUSH2 0x66 JUMPI PUSH1 0x0 DUP1 REVERT JUMPDEST POP PUSH2 0x81 PUSH1 0x4 DUP1 CALLDATASIZE SUB DUP2 ADD SWAP1 PUSH2 0x7C SWAP2 SWAP1 PUSH2 0xD55 JUMP JUMPDEST PUSH2 0x13D JUMP JUMPDEST STOP JUMPDEST PUSH2 0x9D PUSH1 0x4 DUP1 CALLDATASIZE SUB DUP2 ADD SWAP1 PUSH2 0x98 SWAP2 SWAP1 PUSH2 0xD95 JUMP JUMPDEST PUSH2 0x2BD JUMP JUMPDEST PUSH1 0x40 MLOAD PUSH2 0xAA SWAP2 SWAP1 PUSH2 0x10FE JUMP JUMPDEST PUSH1 0x40 MLOAD DUP1 SWAP2 SUB SWAP1 RETURN JUMPDEST CALLVALUE DUP1 ISZERO PUSH2 0xBF JUMPI PUSH1 0x0 DUP1 REVERT JUMPDEST POP PUSH2 0xDA PUSH1 0x4 DUP1 CALLDATASIZE SUB DUP2 ADD SWAP1 PUSH2 0xD5 SWAP2 SWAP1 PUSH2 0xCB6 JUMP JUMPDEST PUSH2 0x4A8 JUMP JUMPDEST STOP JUMPDEST CALLVALUE DUP1 ISZERO PUSH2 0xE8 JUMPI PUSH1 0x0 DUP1 REVERT JUMPDEST POP PUSH2 0x103 PUSH1 0x4 DUP1 CALLDATASIZE SUB DUP2 ADD SWAP1 PUSH2 0xFE SWAP2 SWAP1 PUSH2 0xC1C JUMP JUMPDEST PUSH2 0x59B JUMP JUMPDEST STOP JUMPDEST PUSH2 0x11F PUSH1 0x4 DUP1 CALLDATASIZE SUB DUP2 ADD SWAP1 PUSH2 0x11A SWAP2 SWAP1 PUSH2 0xC76 JUMP JUMPDEST PUSH2 0x66E JUMP JUMPDEST STOP JUMPDEST PUSH2 0x13B PUSH1 0x4 DUP1 CALLDATASIZE SUB DUP2 ADD SWAP1 PUSH2 0x136 SWAP2 SWAP1 PUSH2 0xC49 JUMP JUMPDEST PUSH2 0x7EF JUMP JUMPDEST STOP JUMPDEST PUSH1 0x0 PUSH1 0x3 PUSH1 0x0 DUP5 DUP2 MSTORE PUSH1 0x20 ADD SWAP1 DUP2 MSTORE PUSH1 0x20 ADD PUSH1 0x0 KECCAK256 SWAP1 POP PUSH1 0x2 DUP2 PUSH1 0x9 ADD SLOAD EQ PUSH2 0x165 JUMPI PUSH1 0x0 DUP1 REVERT JUMPDEST PUSH1 0x0 JUMPDEST DUP2 PUSH1 0x1 ADD DUP1 SLOAD SWAP1 POP DUP2 LT ISZERO PUSH2 0x2B7 JUMPI CALLER PUSH20 0xFFFFFFFFFFFFFFFFFFFFFFFFFFFFFFFFFFFFFFFF AND DUP3 PUSH1 0x1 ADD DUP3 DUP2 SLOAD DUP2 LT PUSH2 0x1A4 JUMPI PUSH2 0x1A3 PUSH2 0x13C9 JUMP JUMPDEST JUMPDEST SWAP1 PUSH1 0x0 MSTORE PUSH1 0x20 PUSH1 0x0 KECCAK256 ADD PUSH1 0x0 SWAP1 SLOAD SWAP1 PUSH2 0x100 EXP SWAP1 DIV PUSH20 0xFFFFFFFFFFFFFFFFFFFFFFFFFFFFFFFFFFFFFFFF AND PUSH20 0xFFFFFFFFFFFFFFFFFFFFFFFFFFFFFFFFFFFFFFFF AND EQ ISZERO PUSH2 0x2A4 JUMPI DUP3 PUSH1 0x40 MLOAD PUSH1 0x20 ADD PUSH2 0x1FC SWAP2 SWAP1 PUSH2 0xFB5 JUMP JUMPDEST PUSH1 0x40 MLOAD PUSH1 0x20 DUP2 DUP4 SUB SUB DUP2 MSTORE SWAP1 PUSH1 0x40 MSTORE DUP1 MLOAD SWAP1 PUSH1 0x20 ADD KECCAK256 DUP3 PUSH1 0x2 ADD DUP3 DUP2 SLOAD DUP2 LT PUSH2 0x228 JUMPI PUSH2 0x227 PUSH2 0x13C9 JUMP JUMPDEST JUMPDEST SWAP1 PUSH1 0x0 MSTORE PUSH1 0x20 PUSH1 0x0 KECCAK256 ADD SLOAD EQ PUSH2 0x23D JUMPI PUSH1 0x0 DUP1 REVERT JUMPDEST DUP3 DUP3 PUSH1 0x3 ADD PUSH1 0x0 DUP3 DUP3 SLOAD PUSH2 0x251 SWAP2 SWAP1 PUSH2 0x11C7 JUMP JUMPDEST SWAP3 POP POP DUP2 SWAP1 SSTORE POP PUSH1 0x1 DUP3 PUSH1 0x8 ADD PUSH1 0x0 DUP3 DUP3 SLOAD PUSH2 0x26D SWAP2 SWAP1 PUSH2 0x11C7 JUMP JUMPDEST SWAP3 POP POP DUP2 SWAP1 SSTORE POP PUSH1 0x2 DUP3 PUSH1 0x8 ADD SLOAD EQ ISZERO PUSH2 0x29F JUMPI PUSH1 0x0 DUP3 PUSH1 0x7 ADD DUP2 SWAP1 SSTORE POP TIMESTAMP DUP3 PUSH1 0x4 ADD DUP2 SWAP1 SSTORE POP PUSH1 0x3 DUP3 PUSH1 0x9 ADD DUP2 SWAP1 SSTORE POP JUMPDEST PUSH2 0x2B7 JUMP JUMPDEST DUP1 DUP1 PUSH2 0x2AF SWAP1 PUSH2 0x133D JUMP JUMPDEST SWAP2 POP POP PUSH2 0x168 JUMP JUMPDEST POP POP POP POP JUMP JUMPDEST PUSH1 0x0 DUP3 DUP5 PUSH1 0x2 PUSH2 0x2CD SWAP2 SWAP1 PUSH2 0x121D JUMP JUMPDEST GT ISZERO PUSH2 0x2D8 JUMPI PUSH1 0x0 DUP1 REVERT JUMPDEST DUP4 PUSH1 0x3 PUSH2 0x2E5 SWAP2 SWAP1 PUSH2 0x121D JUMP JUMPDEST PUSH1 0x1 SLOAD PUSH2 0x2F2 SWAP2 SWAP1 PUSH2 0x11C7 JUMP JUMPDEST CALLVALUE EQ PUSH2 0x333 JUMPI PUSH1 0x40 MLOAD PUSH32 0x8C379A000000000000000000000000000000000000000000000000000000000 DUP2 MSTORE PUSH1 0x4 ADD PUSH2 0x32A SWAP1 PUSH2 0x10BE JUMP JUMPDEST PUSH1 0x40 MLOAD DUP1 SWAP2 SUB SWAP1 REVERT JUMPDEST PUSH1 0x2 PUSH1 0x0 DUP2 SLOAD DUP1 SWAP3 SWAP2 SWAP1 PUSH2 0x346 SWAP1 PUSH2 0x133D JUMP JUMPDEST SWAP2 SWAP1 POP SSTORE SWAP1 POP PUSH1 0x60 DUP1 PUSH1 0x0 PUSH1 0x40 MLOAD DUP1 PUSH2 0x140 ADD PUSH1 0x40 MSTORE DUP1 CALLER PUSH20 0xFFFFFFFFFFFFFFFFFFFFFFFFFFFFFFFFFFFFFFFF AND DUP2 MSTORE PUSH1 0x20 ADD DUP5 DUP2 MSTORE PUSH1 0x20 ADD DUP4 DUP2 MSTORE PUSH1 0x20 ADD PUSH1 0x0 DUP2 MSTORE PUSH1 0x20 ADD PUSH1 0x0 DUP2 MSTORE PUSH1 0x20 ADD DUP9 DUP2 MSTORE PUSH1 0x20 ADD DUP8 DUP2 MSTORE PUSH1 0x20 ADD PUSH1 0x0 DUP2 MSTORE PUSH1 0x20 ADD PUSH1 0x0 DUP2 MSTORE PUSH1 0x20 ADD PUSH1 0x1 DUP2 MSTORE POP SWAP1 POP DUP1 PUSH1 0x3 PUSH1 0x0 DUP7 DUP2 MSTORE PUSH1 0x20 ADD SWAP1 DUP2 MSTORE PUSH1 0x20 ADD PUSH1 0x0 KECCAK256 PUSH1 0x0 DUP3 ADD MLOAD DUP2 PUSH1 0x0 ADD PUSH1 0x0 PUSH2 0x100 EXP DUP2 SLOAD DUP2 PUSH20 0xFFFFFFFFFFFFFFFFFFFFFFFFFFFFFFFFFFFFFFFF MUL NOT AND SWAP1 DUP4 PUSH20 0xFFFFFFFFFFFFFFFFFFFFFFFFFFFFFFFFFFFFFFFF AND MUL OR SWAP1 SSTORE POP PUSH1 0x20 DUP3 ADD MLOAD DUP2 PUSH1 0x1 ADD SWAP1 DUP1 MLOAD SWAP1 PUSH1 0x20 ADD SWAP1 PUSH2 0x42B SWAP3 SWAP2 SWAP1 PUSH2 0x9EC JUMP JUMPDEST POP PUSH1 0x40 DUP3 ADD MLOAD DUP2 PUSH1 0x2 ADD SWAP1 DUP1 MLOAD SWAP1 PUSH1 0x20 ADD SWAP1 PUSH2 0x448 SWAP3 SWAP2 SWAP1 PUSH2 0xA76 JUMP JUMPDEST POP PUSH1 0x60 DUP3 ADD MLOAD DUP2 PUSH1 0x3 ADD SSTORE PUSH1 0x80 DUP3 ADD MLOAD DUP2 PUSH1 0x4 ADD SSTORE PUSH1 0xA0 DUP3 ADD MLOAD DUP2 PUSH1 0x5 ADD SSTORE PUSH1 0xC0 DUP3 ADD MLOAD DUP2 PUSH1 0x6 ADD SSTORE PUSH1 0xE0 DUP3 ADD MLOAD DUP2 PUSH1 0x7 ADD SSTORE PUSH2 0x100 DUP3 ADD MLOAD DUP2 PUSH1 0x8 ADD SSTORE PUSH2 0x120 DUP3 ADD MLOAD DUP2 PUSH1 0x9 ADD SSTORE SWAP1 POP POP PUSH2 0x49E DUP5 DUP7 PUSH2 0x66E JUMP JUMPDEST POP POP POP SWAP4 SWAP3 POP POP POP JUMP JUMPDEST PUSH1 0x0 PUSH2 0x4D9 DUP4 PUSH1 0x40 MLOAD PUSH1 0x20 ADD PUSH2 0x4BE SWAP2 SWAP1 PUSH2 0xF78 JUMP JUMPDEST PUSH1 0x40 MLOAD PUSH1 0x20 DUP2 DUP4 SUB SUB DUP2 MSTORE SWAP1 PUSH1 0x40 MSTORE DUP1 MLOAD SWAP1 PUSH1 0x20 ADD KECCAK256 PUSH2 0x91B JUMP JUMPDEST SWAP1 POP PUSH32 0xF267CCE77F3BD2E7A78A01BDA14FF1E05D8D75F1F7DAC44B8DB865C0AEA4D918 DUP2 PUSH2 0x507 DUP4 DUP8 PUSH2 0x94B JUMP JUMPDEST PUSH1 0x40 MLOAD PUSH2 0x515 SWAP3 SWAP2 SWAP1 PUSH2 0xFD0 JUMP JUMPDEST PUSH1 0x40 MLOAD DUP1 SWAP2 SUB SWAP1 LOG1 DUP2 PUSH20 0xFFFFFFFFFFFFFFFFFFFFFFFFFFFFFFFFFFFFFFFF AND PUSH2 0x53E DUP3 DUP7 PUSH2 0x94B JUMP JUMPDEST PUSH20 0xFFFFFFFFFFFFFFFFFFFFFFFFFFFFFFFFFFFFFFFF AND EQ PUSH2 0x594 JUMPI PUSH1 0x40 MLOAD PUSH32 0x8C379A000000000000000000000000000000000000000000000000000000000 DUP2 MSTORE PUSH1 0x4 ADD PUSH2 0x58B SWAP1 PUSH2 0x10DE JUMP JUMPDEST PUSH1 0x40 MLOAD DUP1 SWAP2 SUB SWAP1 REVERT JUMPDEST POP POP POP POP POP JUMP JUMPDEST PUSH1 0x0 DUP1 SLOAD SWAP1 PUSH2 0x100 EXP SWAP1 DIV PUSH20 0xFFFFFFFFFFFFFFFFFFFFFFFFFFFFFFFFFFFFFFFF AND DUP1 PUSH20 0xFFFFFFFFFFFFFFFFFFFFFFFFFFFFFFFFFFFFFFFF AND CALLER PUSH20 0xFFFFFFFFFFFFFFFFFFFFFFFFFFFFFFFFFFFFFFFF AND EQ PUSH2 0x62A JUMPI PUSH1 0x40 MLOAD PUSH32 0x8C379A000000000000000000000000000000000000000000000000000000000 DUP2 MSTORE PUSH1 0x4 ADD PUSH2 0x621 SWAP1 PUSH2 0x105E JUMP JUMPDEST PUSH1 0x40 MLOAD DUP1 SWAP2 SUB SWAP1 REVERT JUMPDEST DUP2 PUSH1 0x0 DUP1 PUSH2 0x100 EXP DUP2 SLOAD DUP2 PUSH20 0xFFFFFFFFFFFFFFFFFFFFFFFFFFFFFFFFFFFFFFFF MUL NOT AND SWAP1 DUP4 PUSH20 0xFFFFFFFFFFFFFFFFFFFFFFFFFFFFFFFFFFFFFFFF AND MUL OR SWAP1 SSTORE POP POP POP JUMP JUMPDEST PUSH1 0x0 PUSH1 0x3 PUSH1 0x0 DUP5 DUP2 MSTORE PUSH1 0x20 ADD SWAP1 DUP2 MSTORE PUSH1 0x20 ADD PUSH1 0x0 KECCAK256 SWAP1 POP PUSH1 0x1 DUP2 PUSH1 0x9 ADD SLOAD EQ PUSH2 0x696 JUMPI PUSH1 0x0 DUP1 REVERT JUMPDEST DUP1 PUSH1 0x5 ADD SLOAD PUSH1 0x3 PUSH2 0x6A7 SWAP2 SWAP1 PUSH2 0x121D JUMP JUMPDEST PUSH1 0x1 SLOAD PUSH2 0x6B4 SWAP2 SWAP1 PUSH2 0x11C7 JUMP JUMPDEST CALLVALUE EQ PUSH2 0x6F5 JUMPI PUSH1 0x40 MLOAD PUSH32 0x8C379A000000000000000000000000000000000000000000000000000000000 DUP2 MSTORE PUSH1 0x4 ADD PUSH2 0x6EC SWAP1 PUSH2 0x103E JUMP JUMPDEST PUSH1 0x40 MLOAD DUP1 SWAP2 SUB SWAP1 REVERT JUMPDEST PUSH1 0x2 DUP2 PUSH1 0x1 ADD DUP1 SLOAD SWAP1 POP LT PUSH2 0x73F JUMPI PUSH1 0x40 MLOAD PUSH32 0x8C379A000000000000000000000000000000000000000000000000000000000 DUP2 MSTORE PUSH1 0x4 ADD PUSH2 0x736 SWAP1 PUSH2 0x107E JUMP JUMPDEST PUSH1 0x40 MLOAD DUP1 SWAP2 SUB SWAP1 REVERT JUMPDEST DUP1 PUSH1 0x1 ADD CALLER SWAP1 DUP1 PUSH1 0x1 DUP2 SLOAD ADD DUP1 DUP3 SSTORE DUP1 SWAP2 POP POP PUSH1 0x1 SWAP1 SUB SWAP1 PUSH1 0x0 MSTORE PUSH1 0x20 PUSH1 0x0 KECCAK256 ADD PUSH1 0x0 SWAP1 SWAP2 SWAP1 SWAP2 SWAP1 SWAP2 PUSH2 0x100 EXP DUP2 SLOAD DUP2 PUSH20 0xFFFFFFFFFFFFFFFFFFFFFFFFFFFFFFFFFFFFFFFF MUL NOT AND SWAP1 DUP4 PUSH20 0xFFFFFFFFFFFFFFFFFFFFFFFFFFFFFFFFFFFFFFFF AND MUL OR SWAP1 SSTORE POP DUP1 PUSH1 0x2 ADD DUP3 SWAP1 DUP1 PUSH1 0x1 DUP2 SLOAD ADD DUP1 DUP3 SSTORE DUP1 SWAP2 POP POP PUSH1 0x1 SWAP1 SUB SWAP1 PUSH1 0x0 MSTORE PUSH1 0x20 PUSH1 0x0 KECCAK256 ADD PUSH1 0x0 SWAP1 SWAP2 SWAP1 SWAP2 SWAP1 SWAP2 POP SSTORE PUSH1 0x2 DUP2 PUSH1 0x1 ADD DUP1 SLOAD SWAP1 POP EQ ISZERO PUSH2 0x7EA JUMPI PUSH1 0x2 DUP2 PUSH1 0x9 ADD DUP2 SWAP1 SSTORE POP JUMPDEST POP POP POP JUMP JUMPDEST PUSH1 0x0 PUSH1 0x3 PUSH1 0x0 DUP4 DUP2 MSTORE PUSH1 0x20 ADD SWAP1 DUP2 MSTORE PUSH1 0x20 ADD PUSH1 0x0 KECCAK256 SWAP1 POP PUSH1 0x1 DUP2 PUSH1 0x9 ADD SLOAD EQ PUSH2 0x84D JUMPI PUSH1 0x40 MLOAD PUSH32 0x8C379A000000000000000000000000000000000000000000000000000000000 DUP2 MSTORE PUSH1 0x4 ADD PUSH2 0x844 SWAP1 PUSH2 0x109E JUMP JUMPDEST PUSH1 0x40 MLOAD DUP1 SWAP2 SUB SWAP1 REVERT JUMPDEST CALLER PUSH20 0xFFFFFFFFFFFFFFFFFFFFFFFFFFFFFFFFFFFFFFFF AND DUP2 PUSH1 0x0 ADD PUSH1 0x0 SWAP1 SLOAD SWAP1 PUSH2 0x100 EXP SWAP1 DIV PUSH20 0xFFFFFFFFFFFFFFFFFFFFFFFFFFFFFFFFFFFFFFFF AND PUSH20 0xFFFFFFFFFFFFFFFFFFFFFFFFFFFFFFFFFFFFFFFF AND EQ PUSH2 0x8A9 JUMPI PUSH1 0x0 DUP1 REVERT JUMPDEST CALLER PUSH20 0xFFFFFFFFFFFFFFFFFFFFFFFFFFFFFFFFFFFFFFFF AND PUSH2 0x8FC DUP3 PUSH1 0x5 ADD SLOAD PUSH1 0x3 PUSH2 0x8D4 SWAP2 SWAP1 PUSH2 0x121D JUMP JUMPDEST PUSH1 0x1 SLOAD PUSH2 0x8E1 SWAP2 SWAP1 PUSH2 0x11C7 JUMP JUMPDEST SWAP1 DUP2 ISZERO MUL SWAP1 PUSH1 0x40 MLOAD PUSH1 0x0 PUSH1 0x40 MLOAD DUP1 DUP4 SUB DUP2 DUP6 DUP9 DUP9 CALL SWAP4 POP POP POP POP ISZERO DUP1 ISZERO PUSH2 0x90C JUMPI RETURNDATASIZE PUSH1 0x0 DUP1 RETURNDATACOPY RETURNDATASIZE PUSH1 0x0 REVERT JUMPDEST POP PUSH1 0x4 DUP2 PUSH1 0x9 ADD DUP2 SWAP1 SSTORE POP POP POP JUMP JUMPDEST PUSH1 0x0 DUP2 PUSH1 0x40 MLOAD PUSH1 0x20 ADD PUSH2 0x92E SWAP2 SWAP1 PUSH2 0xF8F JUMP JUMPDEST PUSH1 0x40 MLOAD PUSH1 0x20 DUP2 DUP4 SUB SUB DUP2 MSTORE SWAP1 PUSH1 0x40 MSTORE DUP1 MLOAD SWAP1 PUSH1 0x20 ADD KECCAK256 SWAP1 POP SWAP2 SWAP1 POP JUMP JUMPDEST PUSH1 0x0 DUP1 PUSH1 0x0 DUP1 PUSH2 0x95A DUP6 PUSH2 0x9BA JUMP JUMPDEST SWAP3 POP SWAP3 POP SWAP3 POP PUSH1 0x1 DUP7 DUP5 DUP5 DUP5 PUSH1 0x40 MLOAD PUSH1 0x0 DUP2 MSTORE PUSH1 0x20 ADD PUSH1 0x40 MSTORE PUSH1 0x40 MLOAD PUSH2 0x983 SWAP5 SWAP4 SWAP3 SWAP2 SWAP1 PUSH2 0xFF9 JUMP JUMPDEST PUSH1 0x20 PUSH1 0x40 MLOAD PUSH1 0x20 DUP2 SUB SWAP1 DUP1 DUP5 SUB SWAP1 DUP6 GAS STATICCALL ISZERO DUP1 ISZERO PUSH2 0x9A5 JUMPI RETURNDATASIZE PUSH1 0x0 DUP1 RETURNDATACOPY RETURNDATASIZE PUSH1 0x0 REVERT JUMPDEST POP POP POP PUSH1 0x20 PUSH1 0x40 MLOAD SUB MLOAD SWAP4 POP POP POP POP SWAP3 SWAP2 POP POP JUMP JUMPDEST PUSH1 0x0 DUP1 PUSH1 0x0 PUSH1 0x41 DUP5 MLOAD EQ PUSH2 0x9CD JUMPI PUSH1 0x0 DUP1 REVERT JUMPDEST PUSH1 0x20 DUP5 ADD MLOAD SWAP2 POP PUSH1 0x40 DUP5 ADD MLOAD SWAP1 POP PUSH1 0x60 DUP5 ADD MLOAD PUSH1 0x0 BYTE SWAP3 POP SWAP2 SWAP4 SWAP1 SWAP3 POP JUMP JUMPDEST DUP3 DUP1 SLOAD DUP3 DUP3 SSTORE SWAP1 PUSH1 0x0 MSTORE PUSH1 0x20 PUSH1 0x0 KECCAK256 SWAP1 DUP2 ADD SWAP3 DUP3 ISZERO PUSH2 0xA65 JUMPI SWAP2 PUSH1 0x20 MUL DUP3 ADD JUMPDEST DUP3 DUP2 GT ISZERO PUSH2 0xA64 JUMPI DUP3 MLOAD DUP3 PUSH1 0x0 PUSH2 0x100 EXP DUP2 SLOAD DUP2 PUSH20 0xFFFFFFFFFFFFFFFFFFFFFFFFFFFFFFFFFFFFFFFF MUL NOT AND SWAP1 DUP4 PUSH20 0xFFFFFFFFFFFFFFFFFFFFFFFFFFFFFFFFFFFFFFFF AND MUL OR SWAP1 SSTORE POP SWAP2 PUSH1 0x20 ADD SWAP2 SWAP1 PUSH1 0x1 ADD SWAP1 PUSH2 0xA0C JUMP JUMPDEST JUMPDEST POP SWAP1 POP PUSH2 0xA72 SWAP2 SWAP1 PUSH2 0xAC3 JUMP JUMPDEST POP SWAP1 JUMP JUMPDEST DUP3 DUP1 SLOAD DUP3 DUP3 SSTORE SWAP1 PUSH1 0x0 MSTORE PUSH1 0x20 PUSH1 0x0 KECCAK256 SWAP1 DUP2 ADD SWAP3 DUP3 ISZERO PUSH2 0xAB2 JUMPI SWAP2 PUSH1 0x20 MUL DUP3 ADD JUMPDEST DUP3 DUP2 GT ISZERO PUSH2 0xAB1 JUMPI DUP3 MLOAD DUP3 SSTORE SWAP2 PUSH1 0x20 ADD SWAP2 SWAP1 PUSH1 0x1 ADD SWAP1 PUSH2 0xA96 JUMP JUMPDEST JUMPDEST POP SWAP1 POP PUSH2 0xABF SWAP2 SWAP1 PUSH2 0xAE0 JUMP JUMPDEST POP SWAP1 JUMP JUMPDEST JUMPDEST DUP1 DUP3 GT ISZERO PUSH2 0xADC JUMPI PUSH1 0x0 DUP2 PUSH1 0x0 SWAP1 SSTORE POP PUSH1 0x1 ADD PUSH2 0xAC4 JUMP JUMPDEST POP SWAP1 JUMP JUMPDEST JUMPDEST DUP1 DUP3 GT ISZERO PUSH2 0xAF9 JUMPI PUSH1 0x0 DUP2 PUSH1 0x0 SWAP1 SSTORE POP PUSH1 0x1 ADD PUSH2 0xAE1 JUMP JUMPDEST POP SWAP1 JUMP JUMPDEST PUSH1 0x0 PUSH2 0xB10 PUSH2 0xB0B DUP5 PUSH2 0x113E JUMP JUMPDEST PUSH2 0x1119 JUMP JUMPDEST SWAP1 POP DUP3 DUP2 MSTORE PUSH1 0x20 DUP2 ADD DUP5 DUP5 DUP5 ADD GT ISZERO PUSH2 0xB2C JUMPI PUSH2 0xB2B PUSH2 0x142C JUMP JUMPDEST JUMPDEST PUSH2 0xB37 DUP5 DUP3 DUP6 PUSH2 0x12CA JUMP JUMPDEST POP SWAP4 SWAP3 POP POP POP JUMP JUMPDEST PUSH1 0x0 PUSH2 0xB52 PUSH2 0xB4D DUP5 PUSH2 0x116F JUMP JUMPDEST PUSH2 0x1119 JUMP JUMPDEST SWAP1 POP DUP3 DUP2 MSTORE PUSH1 0x20 DUP2 ADD DUP5 DUP5 DUP5 ADD GT ISZERO PUSH2 0xB6E JUMPI PUSH2 0xB6D PUSH2 0x142C JUMP JUMPDEST JUMPDEST PUSH2 0xB79 DUP5 DUP3 DUP6 PUSH2 0x12CA JUMP JUMPDEST POP SWAP4 SWAP3 POP POP POP JUMP JUMPDEST PUSH1 0x0 DUP2 CALLDATALOAD SWAP1 POP PUSH2 0xB90 DUP2 PUSH2 0x15B7 JUMP JUMPDEST SWAP3 SWAP2 POP POP JUMP JUMPDEST PUSH1 0x0 DUP2 CALLDATALOAD SWAP1 POP PUSH2 0xBA5 DUP2 PUSH2 0x15CE JUMP JUMPDEST SWAP3 SWAP2 POP POP JUMP JUMPDEST PUSH1 0x0 DUP3 PUSH1 0x1F DUP4 ADD SLT PUSH2 0xBC0 JUMPI PUSH2 0xBBF PUSH2 0x1427 JUMP JUMPDEST JUMPDEST DUP2 CALLDATALOAD PUSH2 0xBD0 DUP5 DUP3 PUSH1 0x20 DUP7 ADD PUSH2 0xAFD JUMP JUMPDEST SWAP2 POP POP SWAP3 SWAP2 POP POP JUMP JUMPDEST PUSH1 0x0 DUP3 PUSH1 0x1F DUP4 ADD SLT PUSH2 0xBEE JUMPI PUSH2 0xBED PUSH2 0x1427 JUMP JUMPDEST JUMPDEST DUP2 CALLDATALOAD PUSH2 0xBFE DUP5 DUP3 PUSH1 0x20 DUP7 ADD PUSH2 0xB3F JUMP JUMPDEST SWAP2 POP POP SWAP3 SWAP2 POP POP JUMP JUMPDEST PUSH1 0x0 DUP2 CALLDATALOAD SWAP1 POP PUSH2 0xC16 DUP2 PUSH2 0x15E5 JUMP JUMPDEST SWAP3 SWAP2 POP POP JUMP JUMPDEST PUSH1 0x0 PUSH1 0x20 DUP3 DUP5 SUB SLT ISZERO PUSH2 0xC32 JUMPI PUSH2 0xC31 PUSH2 0x1436 JUMP JUMPDEST JUMPDEST PUSH1 0x0 PUSH2 0xC40 DUP5 DUP3 DUP6 ADD PUSH2 0xB81 JUMP JUMPDEST SWAP2 POP POP SWAP3 SWAP2 POP POP JUMP JUMPDEST PUSH1 0x0 PUSH1 0x20 DUP3 DUP5 SUB SLT ISZERO PUSH2 0xC5F JUMPI PUSH2 0xC5E PUSH2 0x1436 JUMP JUMPDEST JUMPDEST PUSH1 0x0 PUSH2 0xC6D DUP5 DUP3 DUP6 ADD PUSH2 0xC07 JUMP JUMPDEST SWAP2 POP POP SWAP3 SWAP2 POP POP JUMP JUMPDEST PUSH1 0x0 DUP1 PUSH1 0x40 DUP4 DUP6 SUB SLT ISZERO PUSH2 0xC8D JUMPI PUSH2 0xC8C PUSH2 0x1436 JUMP JUMPDEST JUMPDEST PUSH1 0x0 PUSH2 0xC9B DUP6 DUP3 DUP7 ADD PUSH2 0xC07 JUMP JUMPDEST SWAP3 POP POP PUSH1 0x20 PUSH2 0xCAC DUP6 DUP3 DUP7 ADD PUSH2 0xB96 JUMP JUMPDEST SWAP2 POP POP SWAP3 POP SWAP3 SWAP1 POP JUMP JUMPDEST PUSH1 0x0 DUP1 PUSH1 0x0 DUP1 PUSH1 0x80 DUP6 DUP8 SUB SLT ISZERO PUSH2 0xCD0 JUMPI PUSH2 0xCCF PUSH2 0x1436 JUMP JUMPDEST JUMPDEST PUSH1 0x0 PUSH2 0xCDE DUP8 DUP3 DUP9 ADD PUSH2 0xC07 JUMP JUMPDEST SWAP5 POP POP PUSH1 0x20 DUP6 ADD CALLDATALOAD PUSH8 0xFFFFFFFFFFFFFFFF DUP2 GT ISZERO PUSH2 0xCFF JUMPI PUSH2 0xCFE PUSH2 0x1431 JUMP JUMPDEST JUMPDEST PUSH2 0xD0B DUP8 DUP3 DUP9 ADD PUSH2 0xBAB JUMP JUMPDEST SWAP4 POP POP PUSH1 0x40 DUP6 ADD CALLDATALOAD PUSH8 0xFFFFFFFFFFFFFFFF DUP2 GT ISZERO PUSH2 0xD2C JUMPI PUSH2 0xD2B PUSH2 0x1431 JUMP JUMPDEST JUMPDEST PUSH2 0xD38 DUP8 DUP3 DUP9 ADD PUSH2 0xBD9 JUMP JUMPDEST SWAP3 POP POP PUSH1 0x60 PUSH2 0xD49 DUP8 DUP3 DUP9 ADD PUSH2 0xB81 JUMP JUMPDEST SWAP2 POP POP SWAP3 SWAP6 SWAP2 SWAP5 POP SWAP3 POP JUMP JUMPDEST PUSH1 0x0 DUP1 PUSH1 0x40 DUP4 DUP6 SUB SLT ISZERO PUSH2 0xD6C JUMPI PUSH2 0xD6B PUSH2 0x1436 JUMP JUMPDEST JUMPDEST PUSH1 0x0 PUSH2 0xD7A DUP6 DUP3 DUP7 ADD PUSH2 0xC07 JUMP JUMPDEST SWAP3 POP POP PUSH1 0x20 PUSH2 0xD8B DUP6 DUP3 DUP7 ADD PUSH2 0xC07 JUMP JUMPDEST SWAP2 POP POP SWAP3 POP SWAP3 SWAP1 POP JUMP JUMPDEST PUSH1 0x0 DUP1 PUSH1 0x0 PUSH1 0x60 DUP5 DUP7 SUB SLT ISZERO PUSH2 0xDAE JUMPI PUSH2 0xDAD PUSH2 0x1436 JUMP JUMPDEST JUMPDEST PUSH1 0x0 PUSH2 0xDBC DUP7 DUP3 DUP8 ADD PUSH2 0xC07 JUMP JUMPDEST SWAP4 POP POP PUSH1 0x20 PUSH2 0xDCD DUP7 DUP3 DUP8 ADD PUSH2 0xC07 JUMP JUMPDEST SWAP3 POP POP PUSH1 0x40 PUSH2 0xDDE DUP7 DUP3 DUP8 ADD PUSH2 0xB96 JUMP JUMPDEST SWAP2 POP POP SWAP3 POP SWAP3 POP SWAP3 JUMP JUMPDEST PUSH2 0xDF1 DUP2 PUSH2 0x1277 JUMP JUMPDEST DUP3 MSTORE POP POP JUMP JUMPDEST PUSH2 0xE00 DUP2 PUSH2 0x1289 JUMP JUMPDEST DUP3 MSTORE POP POP JUMP JUMPDEST PUSH2 0xE17 PUSH2 0xE12 DUP3 PUSH2 0x1289 JUMP JUMPDEST PUSH2 0x1386 JUMP JUMPDEST DUP3 MSTORE POP POP JUMP JUMPDEST PUSH1 0x0 PUSH2 0xE28 DUP3 PUSH2 0x11A0 JUMP JUMPDEST PUSH2 0xE32 DUP2 DUP6 PUSH2 0x11BC JUMP JUMPDEST SWAP4 POP PUSH2 0xE42 DUP2 DUP6 PUSH1 0x20 DUP7 ADD PUSH2 0x12D9 JUMP JUMPDEST DUP1 DUP5 ADD SWAP2 POP POP SWAP3 SWAP2 POP POP JUMP JUMPDEST PUSH1 0x0 PUSH2 0xE5B PUSH1 0x2A DUP4 PUSH2 0x11AB JUMP JUMPDEST SWAP2 POP PUSH2 0xE66 DUP3 PUSH2 0x144C JUMP JUMPDEST PUSH1 0x40 DUP3 ADD SWAP1 POP SWAP2 SWAP1 POP JUMP JUMPDEST PUSH1 0x0 PUSH2 0xE7E PUSH1 0x1C DUP4 PUSH2 0x11BC JUMP JUMPDEST SWAP2 POP PUSH2 0xE89 DUP3 PUSH2 0x149B JUMP JUMPDEST PUSH1 0x1C DUP3 ADD SWAP1 POP SWAP2 SWAP1 POP JUMP JUMPDEST PUSH1 0x0 PUSH2 0xEA1 PUSH1 0x13 DUP4 PUSH2 0x11AB JUMP JUMPDEST SWAP2 POP PUSH2 0xEAC DUP3 PUSH2 0x14C4 JUMP JUMPDEST PUSH1 0x20 DUP3 ADD SWAP1 POP SWAP2 SWAP1 POP JUMP JUMPDEST PUSH1 0x0 PUSH2 0xEC4 PUSH1 0x18 DUP4 PUSH2 0x11AB JUMP JUMPDEST SWAP2 POP PUSH2 0xECF DUP3 PUSH2 0x14ED JUMP JUMPDEST PUSH1 0x20 DUP3 ADD SWAP1 POP SWAP2 SWAP1 POP JUMP JUMPDEST PUSH1 0x0 PUSH2 0xEE7 PUSH1 0x1E DUP4 PUSH2 0x11AB JUMP JUMPDEST SWAP2 POP PUSH2 0xEF2 DUP3 PUSH2 0x1516 JUMP JUMPDEST PUSH1 0x20 DUP3 ADD SWAP1 POP SWAP2 SWAP1 POP JUMP JUMPDEST PUSH1 0x0 PUSH2 0xF0A PUSH1 0x2B DUP4 PUSH2 0x11AB JUMP JUMPDEST SWAP2 POP PUSH2 0xF15 DUP3 PUSH2 0x153F JUMP JUMPDEST PUSH1 0x40 DUP3 ADD SWAP1 POP SWAP2 SWAP1 POP JUMP JUMPDEST PUSH1 0x0 PUSH2 0xF2D PUSH1 0xA DUP4 PUSH2 0x11AB JUMP JUMPDEST SWAP2 POP PUSH2 0xF38 DUP3 PUSH2 0x158E JUMP JUMPDEST PUSH1 0x20 DUP3 ADD SWAP1 POP SWAP2 SWAP1 POP JUMP JUMPDEST PUSH2 0xF4C DUP2 PUSH2 0x12B3 JUMP JUMPDEST DUP3 MSTORE POP POP JUMP JUMPDEST PUSH2 0xF63 PUSH2 0xF5E DUP3 PUSH2 0x12B3 JUMP JUMPDEST PUSH2 0x1390 JUMP JUMPDEST DUP3 MSTORE POP POP JUMP JUMPDEST PUSH2 0xF72 DUP2 PUSH2 0x12BD JUMP JUMPDEST DUP3 MSTORE POP POP JUMP JUMPDEST PUSH1 0x0 PUSH2 0xF84 DUP3 DUP5 PUSH2 0xE1D JUMP JUMPDEST SWAP2 POP DUP2 SWAP1 POP SWAP3 SWAP2 POP POP JUMP JUMPDEST PUSH1 0x0 PUSH2 0xF9A DUP3 PUSH2 0xE71 JUMP JUMPDEST SWAP2 POP PUSH2 0xFA6 DUP3 DUP5 PUSH2 0xE06 JUMP JUMPDEST PUSH1 0x20 DUP3 ADD SWAP2 POP DUP2 SWAP1 POP SWAP3 SWAP2 POP POP JUMP JUMPDEST PUSH1 0x0 PUSH2 0xFC1 DUP3 DUP5 PUSH2 0xF52 JUMP JUMPDEST PUSH1 0x20 DUP3 ADD SWAP2 POP DUP2 SWAP1 POP SWAP3 SWAP2 POP POP JUMP JUMPDEST PUSH1 0x0 PUSH1 0x40 DUP3 ADD SWAP1 POP PUSH2 0xFE5 PUSH1 0x0 DUP4 ADD DUP6 PUSH2 0xDF7 JUMP JUMPDEST PUSH2 0xFF2 PUSH1 0x20 DUP4 ADD DUP5 PUSH2 0xDE8 JUMP JUMPDEST SWAP4 SWAP3 POP POP POP JUMP JUMPDEST PUSH1 0x0 PUSH1 0x80 DUP3 ADD SWAP1 POP PUSH2 0x100E PUSH1 0x0 DUP4 ADD DUP8 PUSH2 0xDF7 JUMP JUMPDEST PUSH2 0x101B PUSH1 0x20 DUP4 ADD DUP7 PUSH2 0xF69 JUMP JUMPDEST PUSH2 0x1028 PUSH1 0x40 DUP4 ADD DUP6 PUSH2 0xDF7 JUMP JUMPDEST PUSH2 0x1035 PUSH1 0x60 DUP4 ADD DUP5 PUSH2 0xDF7 JUMP JUMPDEST SWAP6 SWAP5 POP POP POP POP POP JUMP JUMPDEST PUSH1 0x0 PUSH1 0x20 DUP3 ADD SWAP1 POP DUP2 DUP2 SUB PUSH1 0x0 DUP4 ADD MSTORE PUSH2 0x1057 DUP2 PUSH2 0xE4E JUMP JUMPDEST SWAP1 POP SWAP2 SWAP1 POP JUMP JUMPDEST PUSH1 0x0 PUSH1 0x20 DUP3 ADD SWAP1 POP DUP2 DUP2 SUB PUSH1 0x0 DUP4 ADD MSTORE PUSH2 0x1077 DUP2 PUSH2 0xE94 JUMP JUMPDEST SWAP1 POP SWAP2 SWAP1 POP JUMP JUMPDEST PUSH1 0x0 PUSH1 0x20 DUP3 ADD SWAP1 POP DUP2 DUP2 SUB PUSH1 0x0 DUP4 ADD MSTORE PUSH2 0x1097 DUP2 PUSH2 0xEB7 JUMP JUMPDEST SWAP1 POP SWAP2 SWAP1 POP JUMP JUMPDEST PUSH1 0x0 PUSH1 0x20 DUP3 ADD SWAP1 POP DUP2 DUP2 SUB PUSH1 0x0 DUP4 ADD MSTORE PUSH2 0x10B7 DUP2 PUSH2 0xEDA JUMP JUMPDEST SWAP1 POP SWAP2 SWAP1 POP JUMP JUMPDEST PUSH1 0x0 PUSH1 0x20 DUP3 ADD SWAP1 POP DUP2 DUP2 SUB PUSH1 0x0 DUP4 ADD MSTORE PUSH2 0x10D7 DUP2 PUSH2 0xEFD JUMP JUMPDEST SWAP1 POP SWAP2 SWAP1 POP JUMP JUMPDEST PUSH1 0x0 PUSH1 0x20 DUP3 ADD SWAP1 POP DUP2 DUP2 SUB PUSH1 0x0 DUP4 ADD MSTORE PUSH2 0x10F7 DUP2 PUSH2 0xF20 JUMP JUMPDEST SWAP1 POP SWAP2 SWAP1 POP JUMP JUMPDEST PUSH1 0x0 PUSH1 0x20 DUP3 ADD SWAP1 POP PUSH2 0x1113 PUSH1 0x0 DUP4 ADD DUP5 PUSH2 0xF43 JUMP JUMPDEST SWAP3 SWAP2 POP POP JUMP JUMPDEST PUSH1 0x0 PUSH2 0x1123 PUSH2 0x1134 JUMP JUMPDEST SWAP1 POP PUSH2 0x112F DUP3 DUP3 PUSH2 0x130C JUMP JUMPDEST SWAP2 SWAP1 POP JUMP JUMPDEST PUSH1 0x0 PUSH1 0x40 MLOAD SWAP1 POP SWAP1 JUMP JUMPDEST PUSH1 0x0 PUSH8 0xFFFFFFFFFFFFFFFF DUP3 GT ISZERO PUSH2 0x1159 JUMPI PUSH2 0x1158 PUSH2 0x13F8 JUMP JUMPDEST JUMPDEST PUSH2 0x1162 DUP3 PUSH2 0x143B JUMP JUMPDEST SWAP1 POP PUSH1 0x20 DUP2 ADD SWAP1 POP SWAP2 SWAP1 POP JUMP JUMPDEST PUSH1 0x0 PUSH8 0xFFFFFFFFFFFFFFFF DUP3 GT ISZERO PUSH2 0x118A JUMPI PUSH2 0x1189 PUSH2 0x13F8 JUMP JUMPDEST JUMPDEST PUSH2 0x1193 DUP3 PUSH2 0x143B JUMP JUMPDEST SWAP1 POP PUSH1 0x20 DUP2 ADD SWAP1 POP SWAP2 SWAP1 POP JUMP JUMPDEST PUSH1 0x0 DUP2 MLOAD SWAP1 POP SWAP2 SWAP1 POP JUMP JUMPDEST PUSH1 0x0 DUP3 DUP3 MSTORE PUSH1 0x20 DUP3 ADD SWAP1 POP SWAP3 SWAP2 POP POP JUMP JUMPDEST PUSH1 0x0 DUP2 SWAP1 POP SWAP3 SWAP2 POP POP JUMP JUMPDEST PUSH1 0x0 PUSH2 0x11D2 DUP3 PUSH2 0x12B3 JUMP JUMPDEST SWAP2 POP PUSH2 0x11DD DUP4 PUSH2 0x12B3 JUMP JUMPDEST SWAP3 POP DUP3 PUSH32 0xFFFFFFFFFFFFFFFFFFFFFFFFFFFFFFFFFFFFFFFFFFFFFFFFFFFFFFFFFFFFFFFF SUB DUP3 GT ISZERO PUSH2 0x1212 JUMPI PUSH2 0x1211 PUSH2 0x139A JUMP JUMPDEST JUMPDEST DUP3 DUP3 ADD SWAP1 POP SWAP3 SWAP2 POP POP JUMP JUMPDEST PUSH1 0x0 PUSH2 0x1228 DUP3 PUSH2 0x12B3 JUMP JUMPDEST SWAP2 POP PUSH2 0x1233 DUP4 PUSH2 0x12B3 JUMP JUMPDEST SWAP3 POP DUP2 PUSH32 0xFFFFFFFFFFFFFFFFFFFFFFFFFFFFFFFFFFFFFFFFFFFFFFFFFFFFFFFFFFFFFFFF DIV DUP4 GT DUP3 ISZERO ISZERO AND ISZERO PUSH2 0x126C JUMPI PUSH2 0x126B PUSH2 0x139A JUMP JUMPDEST JUMPDEST DUP3 DUP3 MUL SWAP1 POP SWAP3 SWAP2 POP POP JUMP JUMPDEST PUSH1 0x0 PUSH2 0x1282 DUP3 PUSH2 0x1293 JUMP JUMPDEST SWAP1 POP SWAP2 SWAP1 POP JUMP JUMPDEST PUSH1 0x0 DUP2 SWAP1 POP SWAP2 SWAP1 POP JUMP JUMPDEST PUSH1 0x0 PUSH20 0xFFFFFFFFFFFFFFFFFFFFFFFFFFFFFFFFFFFFFFFF DUP3 AND SWAP1 POP SWAP2 SWAP1 POP JUMP JUMPDEST PUSH1 0x0 DUP2 SWAP1 POP SWAP2 SWAP1 POP JUMP JUMPDEST PUSH1 0x0 PUSH1 0xFF DUP3 AND SWAP1 POP SWAP2 SWAP1 POP JUMP JUMPDEST DUP3 DUP2 DUP4 CALLDATACOPY PUSH1 0x0 DUP4 DUP4 ADD MSTORE POP POP POP JUMP JUMPDEST PUSH1 0x0 JUMPDEST DUP4 DUP2 LT ISZERO PUSH2 0x12F7 JUMPI DUP1 DUP3 ADD MLOAD DUP2 DUP5 ADD MSTORE PUSH1 0x20 DUP2 ADD SWAP1 POP PUSH2 0x12DC JUMP JUMPDEST DUP4 DUP2 GT ISZERO PUSH2 0x1306 JUMPI PUSH1 0x0 DUP5 DUP5 ADD MSTORE JUMPDEST POP POP POP POP JUMP JUMPDEST PUSH2 0x1315 DUP3 PUSH2 0x143B JUMP JUMPDEST DUP2 ADD DUP2 DUP2 LT PUSH8 0xFFFFFFFFFFFFFFFF DUP3 GT OR ISZERO PUSH2 0x1334 JUMPI PUSH2 0x1333 PUSH2 0x13F8 JUMP JUMPDEST JUMPDEST DUP1 PUSH1 0x40 MSTORE POP POP POP JUMP JUMPDEST PUSH1 0x0 PUSH2 0x1348 DUP3 PUSH2 0x12B3 JUMP JUMPDEST SWAP2 POP PUSH32 0xFFFFFFFFFFFFFFFFFFFFFFFFFFFFFFFFFFFFFFFFFFFFFFFFFFFFFFFFFFFFFFFF DUP3 EQ ISZERO PUSH2 0x137B JUMPI PUSH2 0x137A PUSH2 0x139A JUMP JUMPDEST JUMPDEST PUSH1 0x1 DUP3 ADD SWAP1 POP SWAP2 SWAP1 POP JUMP JUMPDEST PUSH1 0x0 DUP2 SWAP1 POP SWAP2 SWAP1 POP JUMP JUMPDEST PUSH1 0x0 DUP2 SWAP1 POP SWAP2 SWAP1 POP JUMP JUMPDEST PUSH32 0x4E487B7100000000000000000000000000000000000000000000000000000000 PUSH1 0x0 MSTORE PUSH1 0x11 PUSH1 0x4 MSTORE PUSH1 0x24 PUSH1 0x0 REVERT JUMPDEST PUSH32 0x4E487B7100000000000000000000000000000000000000000000000000000000 PUSH1 0x0 MSTORE PUSH1 0x32 PUSH1 0x4 MSTORE PUSH1 0x24 PUSH1 0x0 REVERT JUMPDEST PUSH32 0x4E487B7100000000000000000000000000000000000000000000000000000000 PUSH1 0x0 MSTORE PUSH1 0x41 PUSH1 0x4 MSTORE PUSH1 0x24 PUSH1 0x0 REVERT JUMPDEST PUSH1 0x0 DUP1 REVERT JUMPDEST PUSH1 0x0 DUP1 REVERT JUMPDEST PUSH1 0x0 DUP1 REVERT JUMPDEST PUSH1 0x0 DUP1 REVERT JUMPDEST PUSH1 0x0 PUSH1 0x1F NOT PUSH1 0x1F DUP4 ADD AND SWAP1 POP SWAP2 SWAP1 POP JUMP JUMPDEST PUSH32 0x72657175697265206465706F736974206174206C6561737420626967202B2073 PUSH1 0x0 DUP3 ADD MSTORE PUSH32 0x6D616C6C20626C696E6400000000000000000000000000000000000000000000 PUSH1 0x20 DUP3 ADD MSTORE POP JUMP JUMPDEST PUSH32 0x19457468657265756D205369676E6564204D6573736167653A0A333200000000 PUSH1 0x0 DUP3 ADD MSTORE POP JUMP JUMPDEST PUSH32 0x43616C6C6572206973206E6F74206F776E657200000000000000000000000000 PUSH1 0x0 DUP3 ADD MSTORE POP JUMP JUMPDEST PUSH32 0x63616E2774206A6F696E20746F2066756C6C207461626C650000000000000000 PUSH1 0x0 DUP3 ADD MSTORE POP JUMP JUMPDEST PUSH32 0x63616E2774206573636170652066726F6D20737461727465642067616D650000 PUSH1 0x0 DUP3 ADD MSTORE POP JUMP JUMPDEST PUSH32 0x72657175697265206465706F73697420657175616C7320746F20626967202B20 PUSH1 0x0 DUP3 ADD MSTORE PUSH32 0x736D616C6C20626C696E64000000000000000000000000000000000000000000 PUSH1 0x20 DUP3 ADD MSTORE POP JUMP JUMPDEST PUSH32 0x6261642073656E64657200000000000000000000000000000000000000000000 PUSH1 0x0 DUP3 ADD MSTORE POP JUMP JUMPDEST PUSH2 0x15C0 DUP2 PUSH2 0x1277 JUMP JUMPDEST DUP2 EQ PUSH2 0x15CB JUMPI PUSH1 0x0 DUP1 REVERT JUMPDEST POP JUMP JUMPDEST PUSH2 0x15D7 DUP2 PUSH2 0x1289 JUMP JUMPDEST DUP2 EQ PUSH2 0x15E2 JUMPI PUSH1 0x0 DUP1 REVERT JUMPDEST POP JUMP JUMPDEST PUSH2 0x15EE DUP2 PUSH2 0x12B3 JUMP JUMPDEST DUP2 EQ PUSH2 0x15F9 JUMPI PUSH1 0x0 DUP1 REVERT JUMPDEST POP JUMP INVALID LOG2 PUSH5 0x6970667358 0x22 SLT KECCAK256 SIGNEXTEND ISZERO SMOD SMOD 0x2A DUP14 0xEA SWAP12 ADDMOD SGT PUSH19 0x2C32A59318A812D2158E56D50F1782EEB46792 AND PUSH29 0x64736F6C63430008070033000000000000000000000000000000000000 "
		},
		"gasEstimates": {
			"creation": {
				"codeDepositCost": "1136400",
				"executionCost": "infinite",
				"totalCost": "infinite"
			},
			"external": {
				"changeOwner(address)": "26938",
				"createGame(uint256,uint256,bytes32)": "infinite",
				"escapeGame(uint256)": "infinite",
				"joinGame(uint256,bytes32)": "infinite",
				"revealCards(uint256,bytes,string,address)": "infinite",
				"verifyPlayerState(uint256,uint256)": "infinite"
			},
			"internal": {
				"prefixed(bytes32)": "infinite",
				"recoverSigner(bytes32,bytes memory)": "infinite",
				"splitSignature(bytes memory)": "infinite"
			}
		},
		"methodIdentifiers": {
			"changeOwner(address)": "a6f9dae1",
			"createGame(uint256,uint256,bytes32)": "46ac2b99",
			"escapeGame(uint256)": "c642ccfa",
			"joinGame(uint256,bytes32)": "ac952671",
			"revealCards(uint256,bytes,string,address)": "5f7d2669",
			"verifyPlayerState(uint256,uint256)": "14331930"
		}
	},
	"abi": [
		{
			"inputs": [
				{
					"internalType": "uint256",
					"name": "_comission",
					"type": "uint256"
				}
			],
			"stateMutability": "nonpayable",
			"type": "constructor"
		},
		{
			"anonymous": false,
			"inputs": [
				{
					"indexed": false,
					"internalType": "bytes32",
					"name": "message",
					"type": "bytes32"
				},
				{
					"indexed": false,
					"internalType": "address",
					"name": "recoveredSender",
					"type": "address"
				}
			],
			"name": "CardMessage",
			"type": "event"
		},
		{
			"inputs": [
				{
					"internalType": "address",
					"name": "newOwner",
					"type": "address"
				}
			],
			"name": "changeOwner",
			"outputs": [],
			"stateMutability": "nonpayable",
			"type": "function"
		},
		{
			"inputs": [
				{
					"internalType": "uint256",
					"name": "smallBlind",
					"type": "uint256"
				},
				{
					"internalType": "uint256",
					"name": "limit",
					"type": "uint256"
				},
				{
					"internalType": "bytes32",
					"name": "randomStateHash",
					"type": "bytes32"
				}
			],
			"name": "createGame",
			"outputs": [
				{
					"internalType": "uint256",
					"name": "gameId",
					"type": "uint256"
				}
			],
			"stateMutability": "payable",
			"type": "function"
		},
		{
			"inputs": [
				{
					"internalType": "uint256",
					"name": "gameId",
					"type": "uint256"
				}
			],
			"name": "escapeGame",
			"outputs": [],
			"stateMutability": "payable",
			"type": "function"
		},
		{
			"inputs": [
				{
					"internalType": "uint256",
					"name": "gameId",
					"type": "uint256"
				},
				{
					"internalType": "bytes32",
					"name": "randomStateHash",
					"type": "bytes32"
				}
			],
			"name": "joinGame",
			"outputs": [],
			"stateMutability": "payable",
			"type": "function"
		},
		{
			"inputs": [
				{
					"internalType": "uint256",
					"name": "gameId",
					"type": "uint256"
				},
				{
					"internalType": "bytes",
					"name": "signature",
					"type": "bytes"
				},
				{
					"internalType": "string",
					"name": "hash",
					"type": "string"
				},
				{
					"internalType": "address",
					"name": "sender",
					"type": "address"
				}
			],
			"name": "revealCards",
			"outputs": [],
			"stateMutability": "nonpayable",
			"type": "function"
		},
		{
			"inputs": [
				{
					"internalType": "uint256",
					"name": "gameId",
					"type": "uint256"
				},
				{
					"internalType": "uint256",
					"name": "randomState",
					"type": "uint256"
				}
			],
			"name": "verifyPlayerState",
			"outputs": [],
			"stateMutability": "nonpayable",
			"type": "function"
		}
	]
}