{
	"data": {
		"bytecode": {
			"linkReferences": {},
			"object": "608060405260006002553480156200001657600080fd5b50604051620031563803806200315683398181016040528101906200003c9190620000a1565b336000806101000a81548173ffffffffffffffffffffffffffffffffffffffff021916908373ffffffffffffffffffffffffffffffffffffffff1602179055508060018190555050620000fc565b6000815190506200009b81620000e2565b92915050565b600060208284031215620000ba57620000b9620000dd565b5b6000620000ca848285016200008a565b91505092915050565b6000819050919050565b600080fd5b620000ed81620000d3565b8114620000f957600080fd5b50565b61304a806200010c6000396000f3fe60806040526004361061007b5760003560e01c80638124ce1d1161004e5780638124ce1d1461012b578063a6f9dae114610147578063ac95267114610170578063df898e32146101a05761007b565b80630f6a565f1461008057806314ff87eb146100a957806317392fd6146100d257806346ac2b99146100fb575b600080fd5b34801561008c57600080fd5b506100a760048036038101906100a29190612269565b6101bc565b005b3480156100b557600080fd5b506100d060048036038101906100cb919061213f565b6104e7565b005b3480156100de57600080fd5b506100f960048036038101906100f491906120d8565b610785565b005b61011560048036038101906101109190612216565b610afb565b604051610122919061279c565b60405180910390f35b6101456004803603810190610140919061206b565b610dd2565b005b34801561015357600080fd5b5061016e6004803603810190610169919061203e565b611012565b005b61018a60048036038101906101859190612098565b6110e5565b60405161019791906127b7565b60405180910390f35b6101ba60048036038101906101b591906121d6565b6113fa565b005b6000600360008581526020019081526020016000209050600260ff1681600b0160039054906101000a900460ff1660ff1614806102105750600360ff1681600b0160039054906101000a900460ff1660ff16145b61024f576040517f08c379a0000000000000000000000000000000000000000000000000000000008152600401610246906126dc565b60405180910390fd5b600281600b0160019054906101000a900460ff1682600b0160029054906101000a900460ff16600160026003610285919061298d565b61028f91906129fc565b61029991906129fc565b6102a391906129fc565b6102ad9190612b7b565b60ff168260ff16146102f4576040517f08c379a00000000000000000000000000000000000000000000000000000000081526004016102eb9061267c565b60405180910390fd5b3373ffffffffffffffffffffffffffffffffffffffff16816001018360ff168154811061032457610323612c0a565b5b9060005260206000200160009054906101000a900473ffffffffffffffffffffffffffffffffffffffff1673ffffffffffffffffffffffffffffffffffffffff16146103a5576040517f08c379a000000000000000000000000000000000000000000000000000000000815260040161039c906126fc565b60405180910390fd5b826040516020016103b69190612581565b60405160208183030381529060405280519060200120816002018360ff16815481106103e5576103e4612c0a565b5b906000526020600020015414610430576040517f08c379a00000000000000000000000000000000000000000000000000000000081526004016104279061261c565b60405180910390fd5b828160060160008282546104449190612844565b92505081905550600181600b0160018282829054906101000a900460ff1661046c919061289a565b92506101000a81548160ff021916908360ff160217905550600260ff1681600b0160019054906101000a900460ff1660ff1614156104e157600081600b0160006101000a81548160ff021916908360ff160217905550600581600b0160036101000a81548160ff021916908360ff1602179055505b50505050565b6000600360008781526020019081526020016000209050600560ff1681600b0160039054906101000a900460ff1660ff1614610558576040517f08c379a000000000000000000000000000000000000000000000000000000000815260040161054f9061273c565b60405180910390fd5b6000600282600b0160009054906101000a900460ff1683600b0160029054906101000a900460ff1661058a919061289a565b6105949190612b7b565b90508260ff168160ff16146105a857600080fd5b3373ffffffffffffffffffffffffffffffffffffffff16826001018260ff16815481106105d8576105d7612c0a565b5b9060005260206000200160009054906101000a900473ffffffffffffffffffffffffffffffffffffffff1673ffffffffffffffffffffffffffffffffffffffff161461062357600080fd5b60006106668460ff16846006015461063b9190612844565b60405160200161064b9190612581565b604051602081830303815290604052805190602001206117d6565b905060008060006106768a611806565b9250925092506000610689848484611838565b90506106958a8261190f565b61069e57600080fd5b6106a88a8a6119c3565b6106b157600080fd5b6106bb8a8a611b2d565b876003018960ff16815481106106d4576106d3612c0a565b5b90600052602060002001819055506002600188600b0160009054906101000a900460ff16610702919061289a565b61070c9190612b7b565b87600b0160006101000a81548160ff021916908360ff16021790555086600b0160029054906101000a900460ff1660ff1687600b0160009054906101000a900460ff1660ff16141561077757600687600b0160036101000a81548160ff021916908360ff1602179055505b505050505050505050505050565b6000600360008681526020019081526020016000209050600b60ff1681600b0160039054906101000a900460ff1660ff1614806107d95750600a60ff1681600b0160039054906101000a900460ff1660ff16145b610818576040517f08c379a000000000000000000000000000000000000000000000000000000000815260040161080f9061275c565b60405180910390fd5b3373ffffffffffffffffffffffffffffffffffffffff16816001018460ff168154811061084857610847612c0a565b5b9060005260206000200160009054906101000a900473ffffffffffffffffffffffffffffffffffffffff1673ffffffffffffffffffffffffffffffffffffffff161461089357600080fd5b600260ff168160010180549050146108aa57600080fd5b83816002018460ff16815481106108c4576108c3612c0a565b5b906000526020600020018190555081816004018460ff16815481106108ec576108eb612c0a565b5b90600052602060002090602091828204019190066101000a81548160ff021916908360ff160217905550600181600b0160018282829054906101000a900460ff16610937919061289a565b92506101000a81548160ff021916908360ff1602179055508260ff1681600b0160029054906101000a900460ff1660ff1614801561098c5750600a60ff1681600b0160039054906101000a900460ff1660ff16145b156109bd57806008015460026109a29190612933565b8160050160008282546109b59190612844565b925050819055505b8260ff166002600183600b0160029054906101000a900460ff166109e1919061289a565b6109eb9190612b7b565b60ff16148015610a125750600a60ff1681600b0160039054906101000a900460ff1660ff16145b15610a37578060080154816005016000828254610a2f9190612844565b925050819055505b600260ff1681600b0160019054906101000a900460ff1660ff161415610af457600081600b0160016101000a81548160ff021916908360ff160217905550600a60ff1681600b0160039054906101000a900460ff1660ff161415610ab457600281600b0160036101000a81548160ff021916908360ff1602179055505b600b60ff1681600b0160039054906101000a900460ff1660ff161415610af357600381600b0160036101000a81548160ff021916908360ff1602179055505b5b5050505050565b600082846002610b0b9190612933565b1115610b1657600080fd5b836003610b239190612933565b600154610b309190612844565b3414610b71576040517f08c379a0000000000000000000000000000000000000000000000000000000008152600401610b689061271c565b60405180910390fd5b60026000815480929190610b8490612ac3565b9190505590506060806060806000604051806101e001604052803373ffffffffffffffffffffffffffffffffffffffff1681526020018681526020018581526020018481526020018381526020016000815260200160008152602001600081526020018a815260200189815260200160008152602001600060ff168152602001600060ff168152602001600060ff168152602001600a60ff168152509050806003600088815260200190815260200160002060008201518160000160006101000a81548173ffffffffffffffffffffffffffffffffffffffff021916908373ffffffffffffffffffffffffffffffffffffffff1602179055506020820151816001019080519060200190610c99929190611d53565b506040820151816002019080519060200190610cb6929190611ddd565b506060820151816003019080519060200190610cd3929190611e2a565b506080820151816004019080519060200190610cf0929190611e77565b5060a0820151816005015560c0820151816006015560e082015181600701556101008201518160080155610120820151816009015561014082015181600a015561016082015181600b0160006101000a81548160ff021916908360ff16021790555061018082015181600b0160016101000a81548160ff021916908360ff1602179055506101a082015181600b0160026101000a81548160ff021916908360ff1602179055506101c082015181600b0160036101000a81548160ff021916908360ff160217905550905050610dc586886110e5565b5050505050509392505050565b6000600360008381526020019081526020016000209050600660ff1681600b0160039054906101000a900460ff1660ff1614610e43576040517f08c379a0000000000000000000000000000000000000000000000000000000008152600401610e3a906125dc565b60405180910390fd5b60008080600090505b83600101805490508160ff161015610f075782846003018260ff1681548110610e7857610e77612c0a565b5b90600052602060002001541115610ef657836003018160ff1681548110610ea257610ea1612c0a565b5b90600052602060002001549250836001018160ff1681548110610ec857610ec7612c0a565b5b9060005260206000200160009054906101000a900473ffffffffffffffffffffffffffffffffffffffff1691505b80610f0090612b0c565b9050610e4c565b50600183600b0160028282829054906101000a900460ff16610f29919061289a565b92506101000a81548160ff021916908360ff160217905550600260ff1683600b0160029054906101000a900460ff1660ff161415610f8457600783600b0160036101000a81548160ff021916908360ff160217905550610fc1565b600083600b0160016101000a81548160ff021916908360ff160217905550600183600b0160036101000a81548160ff021916908360ff1602179055505b8073ffffffffffffffffffffffffffffffffffffffff166108fc84600501549081150290604051600060405180830381858888f1935050505015801561100b573d6000803e3d6000fd5b5050505050565b60008054906101000a900473ffffffffffffffffffffffffffffffffffffffff168073ffffffffffffffffffffffffffffffffffffffff163373ffffffffffffffffffffffffffffffffffffffff16146110a1576040517f08c379a0000000000000000000000000000000000000000000000000000000008152600401611098906125fc565b60405180910390fd5b816000806101000a81548173ffffffffffffffffffffffffffffffffffffffff021916908373ffffffffffffffffffffffffffffffffffffffff1602179055505050565b600080600360008581526020019081526020016000209050600a60ff1681600b0160039054906101000a900460ff1660ff1614611157576040517f08c379a000000000000000000000000000000000000000000000000000000000815260040161114e9061265c565b60405180910390fd5b806008015460036111689190612933565b6001546111759190612844565b34146111b6576040517f08c379a00000000000000000000000000000000000000000000000000000000081526004016111ad906125bc565b60405180910390fd5b600260ff16816001018054905010611203576040517f08c379a00000000000000000000000000000000000000000000000000000000081526004016111fa906126bc565b60405180910390fd5b8060010180549050915080600101339080600181540180825580915050600190039060005260206000200160009091909190916101000a81548173ffffffffffffffffffffffffffffffffffffffff021916908373ffffffffffffffffffffffffffffffffffffffff1602179055508060020183908060018154018082558091505060019003906000526020600020016000909190919091505580600401600090806001815401808255809150506001900390600052602060002090602091828204019190069091909190916101000a81548160ff021916908360ff160217905550600181600b0160018282829054906101000a900460ff16611306919061289a565b92506101000a81548160ff021916908360ff160217905550600260ff1681600b0160019054906101000a900460ff1660ff1614156113f357600081600b0160016101000a81548160ff021916908360ff160217905550600281600b0160036101000a81548160ff021916908360ff16021790555060008054906101000a900473ffffffffffffffffffffffffffffffffffffffff1673ffffffffffffffffffffffffffffffffffffffff166108fc600154600260ff166113c69190612933565b9081150290604051600060405180830381858888f193505050501580156113f1573d6000803e3d6000fd5b505b5092915050565b6000600360008481526020019081526020016000209050600860ff1681600b0160039054906101000a900460ff1660ff16148061144e5750600960ff1681600b0160039054906101000a900460ff1660ff16145b61148d576040517f08c379a00000000000000000000000000000000000000000000000000000000081526004016114849061259c565b60405180910390fd5b3373ffffffffffffffffffffffffffffffffffffffff168160010183815481106114ba576114b9612c0a565b5b9060005260206000200160009054906101000a900473ffffffffffffffffffffffffffffffffffffffff1673ffffffffffffffffffffffffffffffffffffffff161461153b576040517f08c379a00000000000000000000000000000000000000000000000000000000081526004016115329061269c565b60405180910390fd5b81600282600b0160009054906101000a900460ff1683600b0160029054906101000a900460ff1661156c919061289a565b6115769190612b7b565b60ff16146115b9576040517f08c379a00000000000000000000000000000000000000000000000000000000081526004016115b09061263c565b60405180910390fd5b3481600a015414806115db575034600282600a01546115d89190612933565b11155b80156115eb575080600901543411155b61162a576040517f08c379a00000000000000000000000000000000000000000000000000000000081526004016116219061277c565b60405180910390fd5b3481600501600082825461163e9190612844565b9250508190555080600a01543461165591906129c8565b81600a0181905550600181600b0160008282829054906101000a900460ff1661167e919061289a565b92506101000a81548160ff021916908360ff160217905550600081600a0154141580156116c25750600260ff1681600b0160009054906101000a900460ff1660ff16145b156116eb57600081600b0160006101000a81548160ff021916908360ff160217905550506117d2565b600260ff1681600b0160009054906101000a900460ff1660ff1614156117d057600081600a0181905550600081600b0160006101000a81548160ff021916908360ff160217905550600081600b0160016101000a81548160ff021916908360ff160217905550600860ff1681600b0160039054906101000a900460ff1660ff16141561179057600b81600b0160036101000a81548160ff021916908360ff1602179055505b600960ff1681600b0160039054906101000a900460ff1660ff1614156117cf57600581600b0160036101000a81548160ff021916908360ff1602179055505b5b505b5050565b6000816040516020016117e9919061255b565b604051602081830303815290604052805190602001209050919050565b6000806000604184511461181957600080fd5b6020840151915060408401519050606084015160001a92509193909250565b611840611f1e565b600084600761184f919061298d565b60ff168460001c60056118629190612933565b8460001c60036118729190612933565b61187c9190612844565b6118869190612844565b9050611890611f1e565b60005b60058160ff16101561190257603460ff16836118af9190612b4a565b828260ff16600581106118c5576118c4612c0a565b5b602002019060ff16908160ff1681525050600d83601f6118e59190612933565b6118ef9190612844565b9250806118fb90612b0c565b9050611893565b5080925050509392505050565b600080600090505b60058110156119b7576000603460ff16856119329190612b4a565b9050603460ff168561194491906128d1565b94506000805b60058110156119925785816005811061196657611965612c0a565b5b602002015160ff168360ff1614156119815760019150611992565b8061198b90612ac3565b905061194a565b50806119a457600093505050506119bd565b5050806119b090612ac3565b9050611917565b50600190505b92915050565b60008060ff168260ff1614156119dc5760019050611b27565b600160ff168260ff1614156119ff576119f88360026000611b55565b9050611b27565b600260ff168260ff161415611a3657611a1b8360026000611b55565b8015611a2f5750611a2e83600280611b55565b5b9050611b27565b600360ff168260ff161415611a5957611a528360036000611b55565b9050611b27565b600460ff168260ff161415611a7857611a7183611c1a565b9050611b27565b600560ff168260ff161415611a9757611a9083611cb6565b9050611b27565b600660ff168260ff161415611acf57611ab38360036000611b55565b8015611ac85750611ac78360026003611b55565b5b9050611b27565b600760ff168260ff161415611af257611aeb8360046000611b55565b9050611b27565b600860ff168260ff161415611b2257611b0a83611c1a565b8015611b1b5750611b1a83611cb6565b5b9050611b27565b600090505b92915050565b6000828260ff166316a97400611b439190612933565b611b4d9190612844565b905092915050565b6000806034905060005b6005811015611c0c576000603460ff1687611b7a9190612b4a565b90506000600482611b8b9190612902565b9050603460ff1688611b9d91906128d1565b97508560ff168310158015611bbf57508686611bb9919061289a565b60ff1683105b15611bf857603460ff168460ff161415611bdd578093505050611bfb565b8060ff168460ff1614611bf7576000945050505050611c13565b5b50505b80611c0590612ac3565b9050611b5f565b5060019150505b9392505050565b6000806034905060005b6005811015611caa576000603460ff1685611c3f9190612b4a565b90506000600482611c509190612902565b9050603460ff1686611c6291906128d1565b95506000831115611c94578360ff16600182611c7e919061289a565b60ff1614611c93576000945050505050611cb1565b5b809350505080611ca390612ac3565b9050611c24565b5060019150505b919050565b6000806034905060005b6005811015611d47576000603460ff1685611cdb9190612b4a565b90506000600482611cec9190612b7b565b9050603460ff1686611cfe91906128d1565b9550603460ff168460ff161415611d19578093505050611d36565b8060ff168460ff1614611d33576000945050505050611d4e565b50505b80611d4090612ac3565b9050611cc0565b5060019150505b919050565b828054828255906000526020600020908101928215611dcc579160200282015b82811115611dcb5782518260006101000a81548173ffffffffffffffffffffffffffffffffffffffff021916908373ffffffffffffffffffffffffffffffffffffffff16021790555091602001919060010190611d73565b5b509050611dd99190611f40565b5090565b828054828255906000526020600020908101928215611e19579160200282015b82811115611e18578251825591602001919060010190611dfd565b5b509050611e269190611f5d565b5090565b828054828255906000526020600020908101928215611e66579160200282015b82811115611e65578251825591602001919060010190611e4a565b5b509050611e739190611f40565b5090565b82805482825590600052602060002090601f01602090048101928215611f0d5791602002820160005b83821115611ede57835183826101000a81548160ff021916908360ff1602179055509260200192600101602081600001049283019260010302611ea0565b8015611f0b5782816101000a81549060ff0219169055600101602081600001049283019260010302611ede565b505b509050611f1a9190611f40565b5090565b6040518060a00160405280600590602082028036833780820191505090505090565b5b80821115611f59576000816000905550600101611f41565b5090565b5b80821115611f76576000816000905550600101611f5e565b5090565b6000611f8d611f88846127f7565b6127d2565b905082815260208101848484011115611fa957611fa8612c6d565b5b611fb4848285612a83565b509392505050565b600081359050611fcb81612fb8565b92915050565b600081359050611fe081612fcf565b92915050565b600082601f830112611ffb57611ffa612c68565b5b813561200b848260208601611f7a565b91505092915050565b60008135905061202381612fe6565b92915050565b60008135905061203881612ffd565b92915050565b60006020828403121561205457612053612c77565b5b600061206284828501611fbc565b91505092915050565b60006020828403121561208157612080612c77565b5b600061208f84828501612014565b91505092915050565b600080604083850312156120af576120ae612c77565b5b60006120bd85828601612014565b92505060206120ce85828601611fd1565b9150509250929050565b600080600080608085870312156120f2576120f1612c77565b5b600061210087828801612014565b945050602061211187828801611fd1565b935050604061212287828801612029565b925050606061213387828801612029565b91505092959194509250565b600080600080600060a0868803121561215b5761215a612c77565b5b600061216988828901612014565b955050602086013567ffffffffffffffff81111561218a57612189612c72565b5b61219688828901611fe6565b94505060406121a788828901612014565b93505060606121b888828901612029565b92505060806121c988828901612029565b9150509295509295909350565b600080604083850312156121ed576121ec612c77565b5b60006121fb85828601612014565b925050602061220c85828601612014565b9150509250929050565b60008060006060848603121561222f5761222e612c77565b5b600061223d86828701612014565b935050602061224e86828701612014565b925050604061225f86828701611fd1565b9150509250925092565b60008060006060848603121561228257612281612c77565b5b600061229086828701612014565b93505060206122a186828701612014565b92505060406122b286828701612029565b9150509250925092565b6122cd6122c882612a42565b612b36565b82525050565b60006122e0601183612828565b91506122eb82612c8d565b602082019050919050565b6000612303602a83612828565b915061230e82612cb6565b604082019050919050565b6000612326601283612828565b915061233182612d05565b602082019050919050565b6000612349601c83612839565b915061235482612d2e565b601c82019050919050565b600061236c601383612828565b915061237782612d57565b602082019050919050565b600061238f600a83612828565b915061239a82612d80565b602082019050919050565b60006123b2601283612828565b91506123bd82612da9565b602082019050919050565b60006123d5601f83612828565b91506123e082612dd2565b602082019050919050565b60006123f8600c83612828565b915061240382612dfb565b602082019050919050565b600061241b601a83612828565b915061242682612e24565b602082019050919050565b600061243e601883612828565b915061244982612e4d565b602082019050919050565b6000612461600b83612828565b915061246c82612e76565b602082019050919050565b6000612484601083612828565b915061248f82612e9f565b602082019050919050565b60006124a7602b83612828565b91506124b282612ec8565b604082019050919050565b60006124ca601383612828565b91506124d582612f17565b602082019050919050565b60006124ed602e83612828565b91506124f882612f40565b604082019050919050565b6000612510600983612828565b915061251b82612f8f565b602082019050919050565b61252f81612a6c565b82525050565b61254661254182612a6c565b612b40565b82525050565b61255581612a76565b82525050565b60006125668261233c565b915061257282846122bc565b60208201915081905092915050565b600061258d8284612535565b60208201915081905092915050565b600060208201905081810360008301526125b5816122d3565b9050919050565b600060208201905081810360008301526125d5816122f6565b9050919050565b600060208201905081810360008301526125f581612319565b9050919050565b600060208201905081810360008301526126158161235f565b9050919050565b6000602082019050818103600083015261263581612382565b9050919050565b60006020820190508181036000830152612655816123a5565b9050919050565b60006020820190508181036000830152612675816123c8565b9050919050565b60006020820190508181036000830152612695816123eb565b9050919050565b600060208201905081810360008301526126b58161240e565b9050919050565b600060208201905081810360008301526126d581612431565b9050919050565b600060208201905081810360008301526126f581612454565b9050919050565b6000602082019050818103600083015261271581612477565b9050919050565b600060208201905081810360008301526127358161249a565b9050919050565b60006020820190508181036000830152612755816124bd565b9050919050565b60006020820190508181036000830152612775816124e0565b9050919050565b6000602082019050818103600083015261279581612503565b9050919050565b60006020820190506127b16000830184612526565b92915050565b60006020820190506127cc600083018461254c565b92915050565b60006127dc6127ed565b90506127e88282612a92565b919050565b6000604051905090565b600067ffffffffffffffff82111561281257612811612c39565b5b61281b82612c7c565b9050602081019050919050565b600082825260208201905092915050565b600081905092915050565b600061284f82612a6c565b915061285a83612a6c565b9250827fffffffffffffffffffffffffffffffffffffffffffffffffffffffffffffffff0382111561288f5761288e612bac565b5b828201905092915050565b60006128a582612a76565b91506128b083612a76565b92508260ff038211156128c6576128c5612bac565b5b828201905092915050565b60006128dc82612a6c565b91506128e783612a6c565b9250826128f7576128f6612bdb565b5b828204905092915050565b600061290d82612a76565b915061291883612a76565b92508261292857612927612bdb565b5b828204905092915050565b600061293e82612a6c565b915061294983612a6c565b9250817fffffffffffffffffffffffffffffffffffffffffffffffffffffffffffffffff048311821515161561298257612981612bac565b5b828202905092915050565b600061299882612a76565b91506129a383612a76565b92508160ff04831182151516156129bd576129bc612bac565b5b828202905092915050565b60006129d382612a6c565b91506129de83612a6c565b9250828210156129f1576129f0612bac565b5b828203905092915050565b6000612a0782612a76565b9150612a1283612a76565b925082821015612a2557612a24612bac565b5b828203905092915050565b6000612a3b82612a4c565b9050919050565b6000819050919050565b600073ffffffffffffffffffffffffffffffffffffffff82169050919050565b6000819050919050565b600060ff82169050919050565b82818337600083830152505050565b612a9b82612c7c565b810181811067ffffffffffffffff82111715612aba57612ab9612c39565b5b80604052505050565b6000612ace82612a6c565b91507fffffffffffffffffffffffffffffffffffffffffffffffffffffffffffffffff821415612b0157612b00612bac565b5b600182019050919050565b6000612b1782612a76565b915060ff821415612b2b57612b2a612bac565b5b600182019050919050565b6000819050919050565b6000819050919050565b6000612b5582612a6c565b9150612b6083612a6c565b925082612b7057612b6f612bdb565b5b828206905092915050565b6000612b8682612a76565b9150612b9183612a76565b925082612ba157612ba0612bdb565b5b828206905092915050565b7f4e487b7100000000000000000000000000000000000000000000000000000000600052601160045260246000fd5b7f4e487b7100000000000000000000000000000000000000000000000000000000600052601260045260246000fd5b7f4e487b7100000000000000000000000000000000000000000000000000000000600052603260045260246000fd5b7f4e487b7100000000000000000000000000000000000000000000000000000000600052604160045260246000fd5b600080fd5b600080fd5b600080fd5b600080fd5b6000601f19601f8301169050919050565b7f7374617465206973206e6f74207475726e000000000000000000000000000000600082015250565b7f72657175697265206465706f736974206174206c6561737420626967202b207360008201527f6d616c6c20626c696e6400000000000000000000000000000000000000000000602082015250565b7f65787065637420636c6561722073746167650000000000000000000000000000600082015250565b7f19457468657265756d205369676e6564204d6573736167653a0a333200000000600082015250565b7f43616c6c6572206973206e6f74206f776e657200000000000000000000000000600082015250565b7f77726f6e67207365656400000000000000000000000000000000000000000000600082015250565b7f69742773206e6f7420796f7572207475726e0000000000000000000000000000600082015250565b7f63616e2774206a6f696e20616c726561647920637265617465642067616d6500600082015250565b7f77726f6e6720706c617965720000000000000000000000000000000000000000600082015250565b7f73656e646572206973206e6f7420726967687420706c61796572000000000000600082015250565b7f63616e2774206a6f696e20746f2066756c6c207461626c650000000000000000600082015250565b7f77726f6e67207374616765000000000000000000000000000000000000000000600082015250565b7f77726f6e67206d73672073656e64657200000000000000000000000000000000600082015250565b7f72657175697265206465706f73697420657175616c7320746f20626967202b2060008201527f736d616c6c20626c696e64000000000000000000000000000000000000000000602082015250565b7f6578706563742072657665616c20737461676500000000000000000000000000600082015250565b7f73686f756c64206861766520737461746520737570706c79206166746572207360008201527f74617274206f72206368616e6765000000000000000000000000000000000000602082015250565b7f77726f6e67206265740000000000000000000000000000000000000000000000600082015250565b612fc181612a30565b8114612fcc57600080fd5b50565b612fd881612a42565b8114612fe357600080fd5b50565b612fef81612a6c565b8114612ffa57600080fd5b50565b61300681612a76565b811461301157600080fd5b5056fea2646970667358221220cde6a16790618474d5e253b0555e6bbfab5b354045da30a7513bd36b9c599f9864736f6c63430008070033",
			"opcodes": "PUSH1 0x80 PUSH1 0x40 MSTORE PUSH1 0x0 PUSH1 0x2 SSTORE CALLVALUE DUP1 ISZERO PUSH3 0x16 JUMPI PUSH1 0x0 DUP1 REVERT JUMPDEST POP PUSH1 0x40 MLOAD PUSH3 0x3156 CODESIZE SUB DUP1 PUSH3 0x3156 DUP4 CODECOPY DUP2 DUP2 ADD PUSH1 0x40 MSTORE DUP2 ADD SWAP1 PUSH3 0x3C SWAP2 SWAP1 PUSH3 0xA1 JUMP JUMPDEST CALLER PUSH1 0x0 DUP1 PUSH2 0x100 EXP DUP2 SLOAD DUP2 PUSH20 0xFFFFFFFFFFFFFFFFFFFFFFFFFFFFFFFFFFFFFFFF MUL NOT AND SWAP1 DUP4 PUSH20 0xFFFFFFFFFFFFFFFFFFFFFFFFFFFFFFFFFFFFFFFF AND MUL OR SWAP1 SSTORE POP DUP1 PUSH1 0x1 DUP2 SWAP1 SSTORE POP POP PUSH3 0xFC JUMP JUMPDEST PUSH1 0x0 DUP2 MLOAD SWAP1 POP PUSH3 0x9B DUP2 PUSH3 0xE2 JUMP JUMPDEST SWAP3 SWAP2 POP POP JUMP JUMPDEST PUSH1 0x0 PUSH1 0x20 DUP3 DUP5 SUB SLT ISZERO PUSH3 0xBA JUMPI PUSH3 0xB9 PUSH3 0xDD JUMP JUMPDEST JUMPDEST PUSH1 0x0 PUSH3 0xCA DUP5 DUP3 DUP6 ADD PUSH3 0x8A JUMP JUMPDEST SWAP2 POP POP SWAP3 SWAP2 POP POP JUMP JUMPDEST PUSH1 0x0 DUP2 SWAP1 POP SWAP2 SWAP1 POP JUMP JUMPDEST PUSH1 0x0 DUP1 REVERT JUMPDEST PUSH3 0xED DUP2 PUSH3 0xD3 JUMP JUMPDEST DUP2 EQ PUSH3 0xF9 JUMPI PUSH1 0x0 DUP1 REVERT JUMPDEST POP JUMP JUMPDEST PUSH2 0x304A DUP1 PUSH3 0x10C PUSH1 0x0 CODECOPY PUSH1 0x0 RETURN INVALID PUSH1 0x80 PUSH1 0x40 MSTORE PUSH1 0x4 CALLDATASIZE LT PUSH2 0x7B JUMPI PUSH1 0x0 CALLDATALOAD PUSH1 0xE0 SHR DUP1 PUSH4 0x8124CE1D GT PUSH2 0x4E JUMPI DUP1 PUSH4 0x8124CE1D EQ PUSH2 0x12B JUMPI DUP1 PUSH4 0xA6F9DAE1 EQ PUSH2 0x147 JUMPI DUP1 PUSH4 0xAC952671 EQ PUSH2 0x170 JUMPI DUP1 PUSH4 0xDF898E32 EQ PUSH2 0x1A0 JUMPI PUSH2 0x7B JUMP JUMPDEST DUP1 PUSH4 0xF6A565F EQ PUSH2 0x80 JUMPI DUP1 PUSH4 0x14FF87EB EQ PUSH2 0xA9 JUMPI DUP1 PUSH4 0x17392FD6 EQ PUSH2 0xD2 JUMPI DUP1 PUSH4 0x46AC2B99 EQ PUSH2 0xFB JUMPI JUMPDEST PUSH1 0x0 DUP1 REVERT JUMPDEST CALLVALUE DUP1 ISZERO PUSH2 0x8C JUMPI PUSH1 0x0 DUP1 REVERT JUMPDEST POP PUSH2 0xA7 PUSH1 0x4 DUP1 CALLDATASIZE SUB DUP2 ADD SWAP1 PUSH2 0xA2 SWAP2 SWAP1 PUSH2 0x2269 JUMP JUMPDEST PUSH2 0x1BC JUMP JUMPDEST STOP JUMPDEST CALLVALUE DUP1 ISZERO PUSH2 0xB5 JUMPI PUSH1 0x0 DUP1 REVERT JUMPDEST POP PUSH2 0xD0 PUSH1 0x4 DUP1 CALLDATASIZE SUB DUP2 ADD SWAP1 PUSH2 0xCB SWAP2 SWAP1 PUSH2 0x213F JUMP JUMPDEST PUSH2 0x4E7 JUMP JUMPDEST STOP JUMPDEST CALLVALUE DUP1 ISZERO PUSH2 0xDE JUMPI PUSH1 0x0 DUP1 REVERT JUMPDEST POP PUSH2 0xF9 PUSH1 0x4 DUP1 CALLDATASIZE SUB DUP2 ADD SWAP1 PUSH2 0xF4 SWAP2 SWAP1 PUSH2 0x20D8 JUMP JUMPDEST PUSH2 0x785 JUMP JUMPDEST STOP JUMPDEST PUSH2 0x115 PUSH1 0x4 DUP1 CALLDATASIZE SUB DUP2 ADD SWAP1 PUSH2 0x110 SWAP2 SWAP1 PUSH2 0x2216 JUMP JUMPDEST PUSH2 0xAFB JUMP JUMPDEST PUSH1 0x40 MLOAD PUSH2 0x122 SWAP2 SWAP1 PUSH2 0x279C JUMP JUMPDEST PUSH1 0x40 MLOAD DUP1 SWAP2 SUB SWAP1 RETURN JUMPDEST PUSH2 0x145 PUSH1 0x4 DUP1 CALLDATASIZE SUB DUP2 ADD SWAP1 PUSH2 0x140 SWAP2 SWAP1 PUSH2 0x206B JUMP JUMPDEST PUSH2 0xDD2 JUMP JUMPDEST STOP JUMPDEST CALLVALUE DUP1 ISZERO PUSH2 0x153 JUMPI PUSH1 0x0 DUP1 REVERT JUMPDEST POP PUSH2 0x16E PUSH1 0x4 DUP1 CALLDATASIZE SUB DUP2 ADD SWAP1 PUSH2 0x169 SWAP2 SWAP1 PUSH2 0x203E JUMP JUMPDEST PUSH2 0x1012 JUMP JUMPDEST STOP JUMPDEST PUSH2 0x18A PUSH1 0x4 DUP1 CALLDATASIZE SUB DUP2 ADD SWAP1 PUSH2 0x185 SWAP2 SWAP1 PUSH2 0x2098 JUMP JUMPDEST PUSH2 0x10E5 JUMP JUMPDEST PUSH1 0x40 MLOAD PUSH2 0x197 SWAP2 SWAP1 PUSH2 0x27B7 JUMP JUMPDEST PUSH1 0x40 MLOAD DUP1 SWAP2 SUB SWAP1 RETURN JUMPDEST PUSH2 0x1BA PUSH1 0x4 DUP1 CALLDATASIZE SUB DUP2 ADD SWAP1 PUSH2 0x1B5 SWAP2 SWAP1 PUSH2 0x21D6 JUMP JUMPDEST PUSH2 0x13FA JUMP JUMPDEST STOP JUMPDEST PUSH1 0x0 PUSH1 0x3 PUSH1 0x0 DUP6 DUP2 MSTORE PUSH1 0x20 ADD SWAP1 DUP2 MSTORE PUSH1 0x20 ADD PUSH1 0x0 KECCAK256 SWAP1 POP PUSH1 0x2 PUSH1 0xFF AND DUP2 PUSH1 0xB ADD PUSH1 0x3 SWAP1 SLOAD SWAP1 PUSH2 0x100 EXP SWAP1 DIV PUSH1 0xFF AND PUSH1 0xFF AND EQ DUP1 PUSH2 0x210 JUMPI POP PUSH1 0x3 PUSH1 0xFF AND DUP2 PUSH1 0xB ADD PUSH1 0x3 SWAP1 SLOAD SWAP1 PUSH2 0x100 EXP SWAP1 DIV PUSH1 0xFF AND PUSH1 0xFF AND EQ JUMPDEST PUSH2 0x24F JUMPI PUSH1 0x40 MLOAD PUSH32 0x8C379A000000000000000000000000000000000000000000000000000000000 DUP2 MSTORE PUSH1 0x4 ADD PUSH2 0x246 SWAP1 PUSH2 0x26DC JUMP JUMPDEST PUSH1 0x40 MLOAD DUP1 SWAP2 SUB SWAP1 REVERT JUMPDEST PUSH1 0x2 DUP2 PUSH1 0xB ADD PUSH1 0x1 SWAP1 SLOAD SWAP1 PUSH2 0x100 EXP SWAP1 DIV PUSH1 0xFF AND DUP3 PUSH1 0xB ADD PUSH1 0x2 SWAP1 SLOAD SWAP1 PUSH2 0x100 EXP SWAP1 DIV PUSH1 0xFF AND PUSH1 0x1 PUSH1 0x2 PUSH1 0x3 PUSH2 0x285 SWAP2 SWAP1 PUSH2 0x298D JUMP JUMPDEST PUSH2 0x28F SWAP2 SWAP1 PUSH2 0x29FC JUMP JUMPDEST PUSH2 0x299 SWAP2 SWAP1 PUSH2 0x29FC JUMP JUMPDEST PUSH2 0x2A3 SWAP2 SWAP1 PUSH2 0x29FC JUMP JUMPDEST PUSH2 0x2AD SWAP2 SWAP1 PUSH2 0x2B7B JUMP JUMPDEST PUSH1 0xFF AND DUP3 PUSH1 0xFF AND EQ PUSH2 0x2F4 JUMPI PUSH1 0x40 MLOAD PUSH32 0x8C379A000000000000000000000000000000000000000000000000000000000 DUP2 MSTORE PUSH1 0x4 ADD PUSH2 0x2EB SWAP1 PUSH2 0x267C JUMP JUMPDEST PUSH1 0x40 MLOAD DUP1 SWAP2 SUB SWAP1 REVERT JUMPDEST CALLER PUSH20 0xFFFFFFFFFFFFFFFFFFFFFFFFFFFFFFFFFFFFFFFF AND DUP2 PUSH1 0x1 ADD DUP4 PUSH1 0xFF AND DUP2 SLOAD DUP2 LT PUSH2 0x324 JUMPI PUSH2 0x323 PUSH2 0x2C0A JUMP JUMPDEST JUMPDEST SWAP1 PUSH1 0x0 MSTORE PUSH1 0x20 PUSH1 0x0 KECCAK256 ADD PUSH1 0x0 SWAP1 SLOAD SWAP1 PUSH2 0x100 EXP SWAP1 DIV PUSH20 0xFFFFFFFFFFFFFFFFFFFFFFFFFFFFFFFFFFFFFFFF AND PUSH20 0xFFFFFFFFFFFFFFFFFFFFFFFFFFFFFFFFFFFFFFFF AND EQ PUSH2 0x3A5 JUMPI PUSH1 0x40 MLOAD PUSH32 0x8C379A000000000000000000000000000000000000000000000000000000000 DUP2 MSTORE PUSH1 0x4 ADD PUSH2 0x39C SWAP1 PUSH2 0x26FC JUMP JUMPDEST PUSH1 0x40 MLOAD DUP1 SWAP2 SUB SWAP1 REVERT JUMPDEST DUP3 PUSH1 0x40 MLOAD PUSH1 0x20 ADD PUSH2 0x3B6 SWAP2 SWAP1 PUSH2 0x2581 JUMP JUMPDEST PUSH1 0x40 MLOAD PUSH1 0x20 DUP2 DUP4 SUB SUB DUP2 MSTORE SWAP1 PUSH1 0x40 MSTORE DUP1 MLOAD SWAP1 PUSH1 0x20 ADD KECCAK256 DUP2 PUSH1 0x2 ADD DUP4 PUSH1 0xFF AND DUP2 SLOAD DUP2 LT PUSH2 0x3E5 JUMPI PUSH2 0x3E4 PUSH2 0x2C0A JUMP JUMPDEST JUMPDEST SWAP1 PUSH1 0x0 MSTORE PUSH1 0x20 PUSH1 0x0 KECCAK256 ADD SLOAD EQ PUSH2 0x430 JUMPI PUSH1 0x40 MLOAD PUSH32 0x8C379A000000000000000000000000000000000000000000000000000000000 DUP2 MSTORE PUSH1 0x4 ADD PUSH2 0x427 SWAP1 PUSH2 0x261C JUMP JUMPDEST PUSH1 0x40 MLOAD DUP1 SWAP2 SUB SWAP1 REVERT JUMPDEST DUP3 DUP2 PUSH1 0x6 ADD PUSH1 0x0 DUP3 DUP3 SLOAD PUSH2 0x444 SWAP2 SWAP1 PUSH2 0x2844 JUMP JUMPDEST SWAP3 POP POP DUP2 SWAP1 SSTORE POP PUSH1 0x1 DUP2 PUSH1 0xB ADD PUSH1 0x1 DUP3 DUP3 DUP3 SWAP1 SLOAD SWAP1 PUSH2 0x100 EXP SWAP1 DIV PUSH1 0xFF AND PUSH2 0x46C SWAP2 SWAP1 PUSH2 0x289A JUMP JUMPDEST SWAP3 POP PUSH2 0x100 EXP DUP2 SLOAD DUP2 PUSH1 0xFF MUL NOT AND SWAP1 DUP4 PUSH1 0xFF AND MUL OR SWAP1 SSTORE POP PUSH1 0x2 PUSH1 0xFF AND DUP2 PUSH1 0xB ADD PUSH1 0x1 SWAP1 SLOAD SWAP1 PUSH2 0x100 EXP SWAP1 DIV PUSH1 0xFF AND PUSH1 0xFF AND EQ ISZERO PUSH2 0x4E1 JUMPI PUSH1 0x0 DUP2 PUSH1 0xB ADD PUSH1 0x0 PUSH2 0x100 EXP DUP2 SLOAD DUP2 PUSH1 0xFF MUL NOT AND SWAP1 DUP4 PUSH1 0xFF AND MUL OR SWAP1 SSTORE POP PUSH1 0x5 DUP2 PUSH1 0xB ADD PUSH1 0x3 PUSH2 0x100 EXP DUP2 SLOAD DUP2 PUSH1 0xFF MUL NOT AND SWAP1 DUP4 PUSH1 0xFF AND MUL OR SWAP1 SSTORE POP JUMPDEST POP POP POP POP JUMP JUMPDEST PUSH1 0x0 PUSH1 0x3 PUSH1 0x0 DUP8 DUP2 MSTORE PUSH1 0x20 ADD SWAP1 DUP2 MSTORE PUSH1 0x20 ADD PUSH1 0x0 KECCAK256 SWAP1 POP PUSH1 0x5 PUSH1 0xFF AND DUP2 PUSH1 0xB ADD PUSH1 0x3 SWAP1 SLOAD SWAP1 PUSH2 0x100 EXP SWAP1 DIV PUSH1 0xFF AND PUSH1 0xFF AND EQ PUSH2 0x558 JUMPI PUSH1 0x40 MLOAD PUSH32 0x8C379A000000000000000000000000000000000000000000000000000000000 DUP2 MSTORE PUSH1 0x4 ADD PUSH2 0x54F SWAP1 PUSH2 0x273C JUMP JUMPDEST PUSH1 0x40 MLOAD DUP1 SWAP2 SUB SWAP1 REVERT JUMPDEST PUSH1 0x0 PUSH1 0x2 DUP3 PUSH1 0xB ADD PUSH1 0x0 SWAP1 SLOAD SWAP1 PUSH2 0x100 EXP SWAP1 DIV PUSH1 0xFF AND DUP4 PUSH1 0xB ADD PUSH1 0x2 SWAP1 SLOAD SWAP1 PUSH2 0x100 EXP SWAP1 DIV PUSH1 0xFF AND PUSH2 0x58A SWAP2 SWAP1 PUSH2 0x289A JUMP JUMPDEST PUSH2 0x594 SWAP2 SWAP1 PUSH2 0x2B7B JUMP JUMPDEST SWAP1 POP DUP3 PUSH1 0xFF AND DUP2 PUSH1 0xFF AND EQ PUSH2 0x5A8 JUMPI PUSH1 0x0 DUP1 REVERT JUMPDEST CALLER PUSH20 0xFFFFFFFFFFFFFFFFFFFFFFFFFFFFFFFFFFFFFFFF AND DUP3 PUSH1 0x1 ADD DUP3 PUSH1 0xFF AND DUP2 SLOAD DUP2 LT PUSH2 0x5D8 JUMPI PUSH2 0x5D7 PUSH2 0x2C0A JUMP JUMPDEST JUMPDEST SWAP1 PUSH1 0x0 MSTORE PUSH1 0x20 PUSH1 0x0 KECCAK256 ADD PUSH1 0x0 SWAP1 SLOAD SWAP1 PUSH2 0x100 EXP SWAP1 DIV PUSH20 0xFFFFFFFFFFFFFFFFFFFFFFFFFFFFFFFFFFFFFFFF AND PUSH20 0xFFFFFFFFFFFFFFFFFFFFFFFFFFFFFFFFFFFFFFFF AND EQ PUSH2 0x623 JUMPI PUSH1 0x0 DUP1 REVERT JUMPDEST PUSH1 0x0 PUSH2 0x666 DUP5 PUSH1 0xFF AND DUP5 PUSH1 0x6 ADD SLOAD PUSH2 0x63B SWAP2 SWAP1 PUSH2 0x2844 JUMP JUMPDEST PUSH1 0x40 MLOAD PUSH1 0x20 ADD PUSH2 0x64B SWAP2 SWAP1 PUSH2 0x2581 JUMP JUMPDEST PUSH1 0x40 MLOAD PUSH1 0x20 DUP2 DUP4 SUB SUB DUP2 MSTORE SWAP1 PUSH1 0x40 MSTORE DUP1 MLOAD SWAP1 PUSH1 0x20 ADD KECCAK256 PUSH2 0x17D6 JUMP JUMPDEST SWAP1 POP PUSH1 0x0 DUP1 PUSH1 0x0 PUSH2 0x676 DUP11 PUSH2 0x1806 JUMP JUMPDEST SWAP3 POP SWAP3 POP SWAP3 POP PUSH1 0x0 PUSH2 0x689 DUP5 DUP5 DUP5 PUSH2 0x1838 JUMP JUMPDEST SWAP1 POP PUSH2 0x695 DUP11 DUP3 PUSH2 0x190F JUMP JUMPDEST PUSH2 0x69E JUMPI PUSH1 0x0 DUP1 REVERT JUMPDEST PUSH2 0x6A8 DUP11 DUP11 PUSH2 0x19C3 JUMP JUMPDEST PUSH2 0x6B1 JUMPI PUSH1 0x0 DUP1 REVERT JUMPDEST PUSH2 0x6BB DUP11 DUP11 PUSH2 0x1B2D JUMP JUMPDEST DUP8 PUSH1 0x3 ADD DUP10 PUSH1 0xFF AND DUP2 SLOAD DUP2 LT PUSH2 0x6D4 JUMPI PUSH2 0x6D3 PUSH2 0x2C0A JUMP JUMPDEST JUMPDEST SWAP1 PUSH1 0x0 MSTORE PUSH1 0x20 PUSH1 0x0 KECCAK256 ADD DUP2 SWAP1 SSTORE POP PUSH1 0x2 PUSH1 0x1 DUP9 PUSH1 0xB ADD PUSH1 0x0 SWAP1 SLOAD SWAP1 PUSH2 0x100 EXP SWAP1 DIV PUSH1 0xFF AND PUSH2 0x702 SWAP2 SWAP1 PUSH2 0x289A JUMP JUMPDEST PUSH2 0x70C SWAP2 SWAP1 PUSH2 0x2B7B JUMP JUMPDEST DUP8 PUSH1 0xB ADD PUSH1 0x0 PUSH2 0x100 EXP DUP2 SLOAD DUP2 PUSH1 0xFF MUL NOT AND SWAP1 DUP4 PUSH1 0xFF AND MUL OR SWAP1 SSTORE POP DUP7 PUSH1 0xB ADD PUSH1 0x2 SWAP1 SLOAD SWAP1 PUSH2 0x100 EXP SWAP1 DIV PUSH1 0xFF AND PUSH1 0xFF AND DUP8 PUSH1 0xB ADD PUSH1 0x0 SWAP1 SLOAD SWAP1 PUSH2 0x100 EXP SWAP1 DIV PUSH1 0xFF AND PUSH1 0xFF AND EQ ISZERO PUSH2 0x777 JUMPI PUSH1 0x6 DUP8 PUSH1 0xB ADD PUSH1 0x3 PUSH2 0x100 EXP DUP2 SLOAD DUP2 PUSH1 0xFF MUL NOT AND SWAP1 DUP4 PUSH1 0xFF AND MUL OR SWAP1 SSTORE POP JUMPDEST POP POP POP POP POP POP POP POP POP POP POP POP JUMP JUMPDEST PUSH1 0x0 PUSH1 0x3 PUSH1 0x0 DUP7 DUP2 MSTORE PUSH1 0x20 ADD SWAP1 DUP2 MSTORE PUSH1 0x20 ADD PUSH1 0x0 KECCAK256 SWAP1 POP PUSH1 0xB PUSH1 0xFF AND DUP2 PUSH1 0xB ADD PUSH1 0x3 SWAP1 SLOAD SWAP1 PUSH2 0x100 EXP SWAP1 DIV PUSH1 0xFF AND PUSH1 0xFF AND EQ DUP1 PUSH2 0x7D9 JUMPI POP PUSH1 0xA PUSH1 0xFF AND DUP2 PUSH1 0xB ADD PUSH1 0x3 SWAP1 SLOAD SWAP1 PUSH2 0x100 EXP SWAP1 DIV PUSH1 0xFF AND PUSH1 0xFF AND EQ JUMPDEST PUSH2 0x818 JUMPI PUSH1 0x40 MLOAD PUSH32 0x8C379A000000000000000000000000000000000000000000000000000000000 DUP2 MSTORE PUSH1 0x4 ADD PUSH2 0x80F SWAP1 PUSH2 0x275C JUMP JUMPDEST PUSH1 0x40 MLOAD DUP1 SWAP2 SUB SWAP1 REVERT JUMPDEST CALLER PUSH20 0xFFFFFFFFFFFFFFFFFFFFFFFFFFFFFFFFFFFFFFFF AND DUP2 PUSH1 0x1 ADD DUP5 PUSH1 0xFF AND DUP2 SLOAD DUP2 LT PUSH2 0x848 JUMPI PUSH2 0x847 PUSH2 0x2C0A JUMP JUMPDEST JUMPDEST SWAP1 PUSH1 0x0 MSTORE PUSH1 0x20 PUSH1 0x0 KECCAK256 ADD PUSH1 0x0 SWAP1 SLOAD SWAP1 PUSH2 0x100 EXP SWAP1 DIV PUSH20 0xFFFFFFFFFFFFFFFFFFFFFFFFFFFFFFFFFFFFFFFF AND PUSH20 0xFFFFFFFFFFFFFFFFFFFFFFFFFFFFFFFFFFFFFFFF AND EQ PUSH2 0x893 JUMPI PUSH1 0x0 DUP1 REVERT JUMPDEST PUSH1 0x2 PUSH1 0xFF AND DUP2 PUSH1 0x1 ADD DUP1 SLOAD SWAP1 POP EQ PUSH2 0x8AA JUMPI PUSH1 0x0 DUP1 REVERT JUMPDEST DUP4 DUP2 PUSH1 0x2 ADD DUP5 PUSH1 0xFF AND DUP2 SLOAD DUP2 LT PUSH2 0x8C4 JUMPI PUSH2 0x8C3 PUSH2 0x2C0A JUMP JUMPDEST JUMPDEST SWAP1 PUSH1 0x0 MSTORE PUSH1 0x20 PUSH1 0x0 KECCAK256 ADD DUP2 SWAP1 SSTORE POP DUP2 DUP2 PUSH1 0x4 ADD DUP5 PUSH1 0xFF AND DUP2 SLOAD DUP2 LT PUSH2 0x8EC JUMPI PUSH2 0x8EB PUSH2 0x2C0A JUMP JUMPDEST JUMPDEST SWAP1 PUSH1 0x0 MSTORE PUSH1 0x20 PUSH1 0x0 KECCAK256 SWAP1 PUSH1 0x20 SWAP2 DUP3 DUP3 DIV ADD SWAP2 SWAP1 MOD PUSH2 0x100 EXP DUP2 SLOAD DUP2 PUSH1 0xFF MUL NOT AND SWAP1 DUP4 PUSH1 0xFF AND MUL OR SWAP1 SSTORE POP PUSH1 0x1 DUP2 PUSH1 0xB ADD PUSH1 0x1 DUP3 DUP3 DUP3 SWAP1 SLOAD SWAP1 PUSH2 0x100 EXP SWAP1 DIV PUSH1 0xFF AND PUSH2 0x937 SWAP2 SWAP1 PUSH2 0x289A JUMP JUMPDEST SWAP3 POP PUSH2 0x100 EXP DUP2 SLOAD DUP2 PUSH1 0xFF MUL NOT AND SWAP1 DUP4 PUSH1 0xFF AND MUL OR SWAP1 SSTORE POP DUP3 PUSH1 0xFF AND DUP2 PUSH1 0xB ADD PUSH1 0x2 SWAP1 SLOAD SWAP1 PUSH2 0x100 EXP SWAP1 DIV PUSH1 0xFF AND PUSH1 0xFF AND EQ DUP1 ISZERO PUSH2 0x98C JUMPI POP PUSH1 0xA PUSH1 0xFF AND DUP2 PUSH1 0xB ADD PUSH1 0x3 SWAP1 SLOAD SWAP1 PUSH2 0x100 EXP SWAP1 DIV PUSH1 0xFF AND PUSH1 0xFF AND EQ JUMPDEST ISZERO PUSH2 0x9BD JUMPI DUP1 PUSH1 0x8 ADD SLOAD PUSH1 0x2 PUSH2 0x9A2 SWAP2 SWAP1 PUSH2 0x2933 JUMP JUMPDEST DUP2 PUSH1 0x5 ADD PUSH1 0x0 DUP3 DUP3 SLOAD PUSH2 0x9B5 SWAP2 SWAP1 PUSH2 0x2844 JUMP JUMPDEST SWAP3 POP POP DUP2 SWAP1 SSTORE POP JUMPDEST DUP3 PUSH1 0xFF AND PUSH1 0x2 PUSH1 0x1 DUP4 PUSH1 0xB ADD PUSH1 0x2 SWAP1 SLOAD SWAP1 PUSH2 0x100 EXP SWAP1 DIV PUSH1 0xFF AND PUSH2 0x9E1 SWAP2 SWAP1 PUSH2 0x289A JUMP JUMPDEST PUSH2 0x9EB SWAP2 SWAP1 PUSH2 0x2B7B JUMP JUMPDEST PUSH1 0xFF AND EQ DUP1 ISZERO PUSH2 0xA12 JUMPI POP PUSH1 0xA PUSH1 0xFF AND DUP2 PUSH1 0xB ADD PUSH1 0x3 SWAP1 SLOAD SWAP1 PUSH2 0x100 EXP SWAP1 DIV PUSH1 0xFF AND PUSH1 0xFF AND EQ JUMPDEST ISZERO PUSH2 0xA37 JUMPI DUP1 PUSH1 0x8 ADD SLOAD DUP2 PUSH1 0x5 ADD PUSH1 0x0 DUP3 DUP3 SLOAD PUSH2 0xA2F SWAP2 SWAP1 PUSH2 0x2844 JUMP JUMPDEST SWAP3 POP POP DUP2 SWAP1 SSTORE POP JUMPDEST PUSH1 0x2 PUSH1 0xFF AND DUP2 PUSH1 0xB ADD PUSH1 0x1 SWAP1 SLOAD SWAP1 PUSH2 0x100 EXP SWAP1 DIV PUSH1 0xFF AND PUSH1 0xFF AND EQ ISZERO PUSH2 0xAF4 JUMPI PUSH1 0x0 DUP2 PUSH1 0xB ADD PUSH1 0x1 PUSH2 0x100 EXP DUP2 SLOAD DUP2 PUSH1 0xFF MUL NOT AND SWAP1 DUP4 PUSH1 0xFF AND MUL OR SWAP1 SSTORE POP PUSH1 0xA PUSH1 0xFF AND DUP2 PUSH1 0xB ADD PUSH1 0x3 SWAP1 SLOAD SWAP1 PUSH2 0x100 EXP SWAP1 DIV PUSH1 0xFF AND PUSH1 0xFF AND EQ ISZERO PUSH2 0xAB4 JUMPI PUSH1 0x2 DUP2 PUSH1 0xB ADD PUSH1 0x3 PUSH2 0x100 EXP DUP2 SLOAD DUP2 PUSH1 0xFF MUL NOT AND SWAP1 DUP4 PUSH1 0xFF AND MUL OR SWAP1 SSTORE POP JUMPDEST PUSH1 0xB PUSH1 0xFF AND DUP2 PUSH1 0xB ADD PUSH1 0x3 SWAP1 SLOAD SWAP1 PUSH2 0x100 EXP SWAP1 DIV PUSH1 0xFF AND PUSH1 0xFF AND EQ ISZERO PUSH2 0xAF3 JUMPI PUSH1 0x3 DUP2 PUSH1 0xB ADD PUSH1 0x3 PUSH2 0x100 EXP DUP2 SLOAD DUP2 PUSH1 0xFF MUL NOT AND SWAP1 DUP4 PUSH1 0xFF AND MUL OR SWAP1 SSTORE POP JUMPDEST JUMPDEST POP POP POP POP POP JUMP JUMPDEST PUSH1 0x0 DUP3 DUP5 PUSH1 0x2 PUSH2 0xB0B SWAP2 SWAP1 PUSH2 0x2933 JUMP JUMPDEST GT ISZERO PUSH2 0xB16 JUMPI PUSH1 0x0 DUP1 REVERT JUMPDEST DUP4 PUSH1 0x3 PUSH2 0xB23 SWAP2 SWAP1 PUSH2 0x2933 JUMP JUMPDEST PUSH1 0x1 SLOAD PUSH2 0xB30 SWAP2 SWAP1 PUSH2 0x2844 JUMP JUMPDEST CALLVALUE EQ PUSH2 0xB71 JUMPI PUSH1 0x40 MLOAD PUSH32 0x8C379A000000000000000000000000000000000000000000000000000000000 DUP2 MSTORE PUSH1 0x4 ADD PUSH2 0xB68 SWAP1 PUSH2 0x271C JUMP JUMPDEST PUSH1 0x40 MLOAD DUP1 SWAP2 SUB SWAP1 REVERT JUMPDEST PUSH1 0x2 PUSH1 0x0 DUP2 SLOAD DUP1 SWAP3 SWAP2 SWAP1 PUSH2 0xB84 SWAP1 PUSH2 0x2AC3 JUMP JUMPDEST SWAP2 SWAP1 POP SSTORE SWAP1 POP PUSH1 0x60 DUP1 PUSH1 0x60 DUP1 PUSH1 0x0 PUSH1 0x40 MLOAD DUP1 PUSH2 0x1E0 ADD PUSH1 0x40 MSTORE DUP1 CALLER PUSH20 0xFFFFFFFFFFFFFFFFFFFFFFFFFFFFFFFFFFFFFFFF AND DUP2 MSTORE PUSH1 0x20 ADD DUP7 DUP2 MSTORE PUSH1 0x20 ADD DUP6 DUP2 MSTORE PUSH1 0x20 ADD DUP5 DUP2 MSTORE PUSH1 0x20 ADD DUP4 DUP2 MSTORE PUSH1 0x20 ADD PUSH1 0x0 DUP2 MSTORE PUSH1 0x20 ADD PUSH1 0x0 DUP2 MSTORE PUSH1 0x20 ADD PUSH1 0x0 DUP2 MSTORE PUSH1 0x20 ADD DUP11 DUP2 MSTORE PUSH1 0x20 ADD DUP10 DUP2 MSTORE PUSH1 0x20 ADD PUSH1 0x0 DUP2 MSTORE PUSH1 0x20 ADD PUSH1 0x0 PUSH1 0xFF AND DUP2 MSTORE PUSH1 0x20 ADD PUSH1 0x0 PUSH1 0xFF AND DUP2 MSTORE PUSH1 0x20 ADD PUSH1 0x0 PUSH1 0xFF AND DUP2 MSTORE PUSH1 0x20 ADD PUSH1 0xA PUSH1 0xFF AND DUP2 MSTORE POP SWAP1 POP DUP1 PUSH1 0x3 PUSH1 0x0 DUP9 DUP2 MSTORE PUSH1 0x20 ADD SWAP1 DUP2 MSTORE PUSH1 0x20 ADD PUSH1 0x0 KECCAK256 PUSH1 0x0 DUP3 ADD MLOAD DUP2 PUSH1 0x0 ADD PUSH1 0x0 PUSH2 0x100 EXP DUP2 SLOAD DUP2 PUSH20 0xFFFFFFFFFFFFFFFFFFFFFFFFFFFFFFFFFFFFFFFF MUL NOT AND SWAP1 DUP4 PUSH20 0xFFFFFFFFFFFFFFFFFFFFFFFFFFFFFFFFFFFFFFFF AND MUL OR SWAP1 SSTORE POP PUSH1 0x20 DUP3 ADD MLOAD DUP2 PUSH1 0x1 ADD SWAP1 DUP1 MLOAD SWAP1 PUSH1 0x20 ADD SWAP1 PUSH2 0xC99 SWAP3 SWAP2 SWAP1 PUSH2 0x1D53 JUMP JUMPDEST POP PUSH1 0x40 DUP3 ADD MLOAD DUP2 PUSH1 0x2 ADD SWAP1 DUP1 MLOAD SWAP1 PUSH1 0x20 ADD SWAP1 PUSH2 0xCB6 SWAP3 SWAP2 SWAP1 PUSH2 0x1DDD JUMP JUMPDEST POP PUSH1 0x60 DUP3 ADD MLOAD DUP2 PUSH1 0x3 ADD SWAP1 DUP1 MLOAD SWAP1 PUSH1 0x20 ADD SWAP1 PUSH2 0xCD3 SWAP3 SWAP2 SWAP1 PUSH2 0x1E2A JUMP JUMPDEST POP PUSH1 0x80 DUP3 ADD MLOAD DUP2 PUSH1 0x4 ADD SWAP1 DUP1 MLOAD SWAP1 PUSH1 0x20 ADD SWAP1 PUSH2 0xCF0 SWAP3 SWAP2 SWAP1 PUSH2 0x1E77 JUMP JUMPDEST POP PUSH1 0xA0 DUP3 ADD MLOAD DUP2 PUSH1 0x5 ADD SSTORE PUSH1 0xC0 DUP3 ADD MLOAD DUP2 PUSH1 0x6 ADD SSTORE PUSH1 0xE0 DUP3 ADD MLOAD DUP2 PUSH1 0x7 ADD SSTORE PUSH2 0x100 DUP3 ADD MLOAD DUP2 PUSH1 0x8 ADD SSTORE PUSH2 0x120 DUP3 ADD MLOAD DUP2 PUSH1 0x9 ADD SSTORE PUSH2 0x140 DUP3 ADD MLOAD DUP2 PUSH1 0xA ADD SSTORE PUSH2 0x160 DUP3 ADD MLOAD DUP2 PUSH1 0xB ADD PUSH1 0x0 PUSH2 0x100 EXP DUP2 SLOAD DUP2 PUSH1 0xFF MUL NOT AND SWAP1 DUP4 PUSH1 0xFF AND MUL OR SWAP1 SSTORE POP PUSH2 0x180 DUP3 ADD MLOAD DUP2 PUSH1 0xB ADD PUSH1 0x1 PUSH2 0x100 EXP DUP2 SLOAD DUP2 PUSH1 0xFF MUL NOT AND SWAP1 DUP4 PUSH1 0xFF AND MUL OR SWAP1 SSTORE POP PUSH2 0x1A0 DUP3 ADD MLOAD DUP2 PUSH1 0xB ADD PUSH1 0x2 PUSH2 0x100 EXP DUP2 SLOAD DUP2 PUSH1 0xFF MUL NOT AND SWAP1 DUP4 PUSH1 0xFF AND MUL OR SWAP1 SSTORE POP PUSH2 0x1C0 DUP3 ADD MLOAD DUP2 PUSH1 0xB ADD PUSH1 0x3 PUSH2 0x100 EXP DUP2 SLOAD DUP2 PUSH1 0xFF MUL NOT AND SWAP1 DUP4 PUSH1 0xFF AND MUL OR SWAP1 SSTORE POP SWAP1 POP POP PUSH2 0xDC5 DUP7 DUP9 PUSH2 0x10E5 JUMP JUMPDEST POP POP POP POP POP POP SWAP4 SWAP3 POP POP POP JUMP JUMPDEST PUSH1 0x0 PUSH1 0x3 PUSH1 0x0 DUP4 DUP2 MSTORE PUSH1 0x20 ADD SWAP1 DUP2 MSTORE PUSH1 0x20 ADD PUSH1 0x0 KECCAK256 SWAP1 POP PUSH1 0x6 PUSH1 0xFF AND DUP2 PUSH1 0xB ADD PUSH1 0x3 SWAP1 SLOAD SWAP1 PUSH2 0x100 EXP SWAP1 DIV PUSH1 0xFF AND PUSH1 0xFF AND EQ PUSH2 0xE43 JUMPI PUSH1 0x40 MLOAD PUSH32 0x8C379A000000000000000000000000000000000000000000000000000000000 DUP2 MSTORE PUSH1 0x4 ADD PUSH2 0xE3A SWAP1 PUSH2 0x25DC JUMP JUMPDEST PUSH1 0x40 MLOAD DUP1 SWAP2 SUB SWAP1 REVERT JUMPDEST PUSH1 0x0 DUP1 DUP1 PUSH1 0x0 SWAP1 POP JUMPDEST DUP4 PUSH1 0x1 ADD DUP1 SLOAD SWAP1 POP DUP2 PUSH1 0xFF AND LT ISZERO PUSH2 0xF07 JUMPI DUP3 DUP5 PUSH1 0x3 ADD DUP3 PUSH1 0xFF AND DUP2 SLOAD DUP2 LT PUSH2 0xE78 JUMPI PUSH2 0xE77 PUSH2 0x2C0A JUMP JUMPDEST JUMPDEST SWAP1 PUSH1 0x0 MSTORE PUSH1 0x20 PUSH1 0x0 KECCAK256 ADD SLOAD GT ISZERO PUSH2 0xEF6 JUMPI DUP4 PUSH1 0x3 ADD DUP2 PUSH1 0xFF AND DUP2 SLOAD DUP2 LT PUSH2 0xEA2 JUMPI PUSH2 0xEA1 PUSH2 0x2C0A JUMP JUMPDEST JUMPDEST SWAP1 PUSH1 0x0 MSTORE PUSH1 0x20 PUSH1 0x0 KECCAK256 ADD SLOAD SWAP3 POP DUP4 PUSH1 0x1 ADD DUP2 PUSH1 0xFF AND DUP2 SLOAD DUP2 LT PUSH2 0xEC8 JUMPI PUSH2 0xEC7 PUSH2 0x2C0A JUMP JUMPDEST JUMPDEST SWAP1 PUSH1 0x0 MSTORE PUSH1 0x20 PUSH1 0x0 KECCAK256 ADD PUSH1 0x0 SWAP1 SLOAD SWAP1 PUSH2 0x100 EXP SWAP1 DIV PUSH20 0xFFFFFFFFFFFFFFFFFFFFFFFFFFFFFFFFFFFFFFFF AND SWAP2 POP JUMPDEST DUP1 PUSH2 0xF00 SWAP1 PUSH2 0x2B0C JUMP JUMPDEST SWAP1 POP PUSH2 0xE4C JUMP JUMPDEST POP PUSH1 0x1 DUP4 PUSH1 0xB ADD PUSH1 0x2 DUP3 DUP3 DUP3 SWAP1 SLOAD SWAP1 PUSH2 0x100 EXP SWAP1 DIV PUSH1 0xFF AND PUSH2 0xF29 SWAP2 SWAP1 PUSH2 0x289A JUMP JUMPDEST SWAP3 POP PUSH2 0x100 EXP DUP2 SLOAD DUP2 PUSH1 0xFF MUL NOT AND SWAP1 DUP4 PUSH1 0xFF AND MUL OR SWAP1 SSTORE POP PUSH1 0x2 PUSH1 0xFF AND DUP4 PUSH1 0xB ADD PUSH1 0x2 SWAP1 SLOAD SWAP1 PUSH2 0x100 EXP SWAP1 DIV PUSH1 0xFF AND PUSH1 0xFF AND EQ ISZERO PUSH2 0xF84 JUMPI PUSH1 0x7 DUP4 PUSH1 0xB ADD PUSH1 0x3 PUSH2 0x100 EXP DUP2 SLOAD DUP2 PUSH1 0xFF MUL NOT AND SWAP1 DUP4 PUSH1 0xFF AND MUL OR SWAP1 SSTORE POP PUSH2 0xFC1 JUMP JUMPDEST PUSH1 0x0 DUP4 PUSH1 0xB ADD PUSH1 0x1 PUSH2 0x100 EXP DUP2 SLOAD DUP2 PUSH1 0xFF MUL NOT AND SWAP1 DUP4 PUSH1 0xFF AND MUL OR SWAP1 SSTORE POP PUSH1 0x1 DUP4 PUSH1 0xB ADD PUSH1 0x3 PUSH2 0x100 EXP DUP2 SLOAD DUP2 PUSH1 0xFF MUL NOT AND SWAP1 DUP4 PUSH1 0xFF AND MUL OR SWAP1 SSTORE POP JUMPDEST DUP1 PUSH20 0xFFFFFFFFFFFFFFFFFFFFFFFFFFFFFFFFFFFFFFFF AND PUSH2 0x8FC DUP5 PUSH1 0x5 ADD SLOAD SWAP1 DUP2 ISZERO MUL SWAP1 PUSH1 0x40 MLOAD PUSH1 0x0 PUSH1 0x40 MLOAD DUP1 DUP4 SUB DUP2 DUP6 DUP9 DUP9 CALL SWAP4 POP POP POP POP ISZERO DUP1 ISZERO PUSH2 0x100B JUMPI RETURNDATASIZE PUSH1 0x0 DUP1 RETURNDATACOPY RETURNDATASIZE PUSH1 0x0 REVERT JUMPDEST POP POP POP POP POP JUMP JUMPDEST PUSH1 0x0 DUP1 SLOAD SWAP1 PUSH2 0x100 EXP SWAP1 DIV PUSH20 0xFFFFFFFFFFFFFFFFFFFFFFFFFFFFFFFFFFFFFFFF AND DUP1 PUSH20 0xFFFFFFFFFFFFFFFFFFFFFFFFFFFFFFFFFFFFFFFF AND CALLER PUSH20 0xFFFFFFFFFFFFFFFFFFFFFFFFFFFFFFFFFFFFFFFF AND EQ PUSH2 0x10A1 JUMPI PUSH1 0x40 MLOAD PUSH32 0x8C379A000000000000000000000000000000000000000000000000000000000 DUP2 MSTORE PUSH1 0x4 ADD PUSH2 0x1098 SWAP1 PUSH2 0x25FC JUMP JUMPDEST PUSH1 0x40 MLOAD DUP1 SWAP2 SUB SWAP1 REVERT JUMPDEST DUP2 PUSH1 0x0 DUP1 PUSH2 0x100 EXP DUP2 SLOAD DUP2 PUSH20 0xFFFFFFFFFFFFFFFFFFFFFFFFFFFFFFFFFFFFFFFF MUL NOT AND SWAP1 DUP4 PUSH20 0xFFFFFFFFFFFFFFFFFFFFFFFFFFFFFFFFFFFFFFFF AND MUL OR SWAP1 SSTORE POP POP POP JUMP JUMPDEST PUSH1 0x0 DUP1 PUSH1 0x3 PUSH1 0x0 DUP6 DUP2 MSTORE PUSH1 0x20 ADD SWAP1 DUP2 MSTORE PUSH1 0x20 ADD PUSH1 0x0 KECCAK256 SWAP1 POP PUSH1 0xA PUSH1 0xFF AND DUP2 PUSH1 0xB ADD PUSH1 0x3 SWAP1 SLOAD SWAP1 PUSH2 0x100 EXP SWAP1 DIV PUSH1 0xFF AND PUSH1 0xFF AND EQ PUSH2 0x1157 JUMPI PUSH1 0x40 MLOAD PUSH32 0x8C379A000000000000000000000000000000000000000000000000000000000 DUP2 MSTORE PUSH1 0x4 ADD PUSH2 0x114E SWAP1 PUSH2 0x265C JUMP JUMPDEST PUSH1 0x40 MLOAD DUP1 SWAP2 SUB SWAP1 REVERT JUMPDEST DUP1 PUSH1 0x8 ADD SLOAD PUSH1 0x3 PUSH2 0x1168 SWAP2 SWAP1 PUSH2 0x2933 JUMP JUMPDEST PUSH1 0x1 SLOAD PUSH2 0x1175 SWAP2 SWAP1 PUSH2 0x2844 JUMP JUMPDEST CALLVALUE EQ PUSH2 0x11B6 JUMPI PUSH1 0x40 MLOAD PUSH32 0x8C379A000000000000000000000000000000000000000000000000000000000 DUP2 MSTORE PUSH1 0x4 ADD PUSH2 0x11AD SWAP1 PUSH2 0x25BC JUMP JUMPDEST PUSH1 0x40 MLOAD DUP1 SWAP2 SUB SWAP1 REVERT JUMPDEST PUSH1 0x2 PUSH1 0xFF AND DUP2 PUSH1 0x1 ADD DUP1 SLOAD SWAP1 POP LT PUSH2 0x1203 JUMPI PUSH1 0x40 MLOAD PUSH32 0x8C379A000000000000000000000000000000000000000000000000000000000 DUP2 MSTORE PUSH1 0x4 ADD PUSH2 0x11FA SWAP1 PUSH2 0x26BC JUMP JUMPDEST PUSH1 0x40 MLOAD DUP1 SWAP2 SUB SWAP1 REVERT JUMPDEST DUP1 PUSH1 0x1 ADD DUP1 SLOAD SWAP1 POP SWAP2 POP DUP1 PUSH1 0x1 ADD CALLER SWAP1 DUP1 PUSH1 0x1 DUP2 SLOAD ADD DUP1 DUP3 SSTORE DUP1 SWAP2 POP POP PUSH1 0x1 SWAP1 SUB SWAP1 PUSH1 0x0 MSTORE PUSH1 0x20 PUSH1 0x0 KECCAK256 ADD PUSH1 0x0 SWAP1 SWAP2 SWAP1 SWAP2 SWAP1 SWAP2 PUSH2 0x100 EXP DUP2 SLOAD DUP2 PUSH20 0xFFFFFFFFFFFFFFFFFFFFFFFFFFFFFFFFFFFFFFFF MUL NOT AND SWAP1 DUP4 PUSH20 0xFFFFFFFFFFFFFFFFFFFFFFFFFFFFFFFFFFFFFFFF AND MUL OR SWAP1 SSTORE POP DUP1 PUSH1 0x2 ADD DUP4 SWAP1 DUP1 PUSH1 0x1 DUP2 SLOAD ADD DUP1 DUP3 SSTORE DUP1 SWAP2 POP POP PUSH1 0x1 SWAP1 SUB SWAP1 PUSH1 0x0 MSTORE PUSH1 0x20 PUSH1 0x0 KECCAK256 ADD PUSH1 0x0 SWAP1 SWAP2 SWAP1 SWAP2 SWAP1 SWAP2 POP SSTORE DUP1 PUSH1 0x4 ADD PUSH1 0x0 SWAP1 DUP1 PUSH1 0x1 DUP2 SLOAD ADD DUP1 DUP3 SSTORE DUP1 SWAP2 POP POP PUSH1 0x1 SWAP1 SUB SWAP1 PUSH1 0x0 MSTORE PUSH1 0x20 PUSH1 0x0 KECCAK256 SWAP1 PUSH1 0x20 SWAP2 DUP3 DUP3 DIV ADD SWAP2 SWAP1 MOD SWAP1 SWAP2 SWAP1 SWAP2 SWAP1 SWAP2 PUSH2 0x100 EXP DUP2 SLOAD DUP2 PUSH1 0xFF MUL NOT AND SWAP1 DUP4 PUSH1 0xFF AND MUL OR SWAP1 SSTORE POP PUSH1 0x1 DUP2 PUSH1 0xB ADD PUSH1 0x1 DUP3 DUP3 DUP3 SWAP1 SLOAD SWAP1 PUSH2 0x100 EXP SWAP1 DIV PUSH1 0xFF AND PUSH2 0x1306 SWAP2 SWAP1 PUSH2 0x289A JUMP JUMPDEST SWAP3 POP PUSH2 0x100 EXP DUP2 SLOAD DUP2 PUSH1 0xFF MUL NOT AND SWAP1 DUP4 PUSH1 0xFF AND MUL OR SWAP1 SSTORE POP PUSH1 0x2 PUSH1 0xFF AND DUP2 PUSH1 0xB ADD PUSH1 0x1 SWAP1 SLOAD SWAP1 PUSH2 0x100 EXP SWAP1 DIV PUSH1 0xFF AND PUSH1 0xFF AND EQ ISZERO PUSH2 0x13F3 JUMPI PUSH1 0x0 DUP2 PUSH1 0xB ADD PUSH1 0x1 PUSH2 0x100 EXP DUP2 SLOAD DUP2 PUSH1 0xFF MUL NOT AND SWAP1 DUP4 PUSH1 0xFF AND MUL OR SWAP1 SSTORE POP PUSH1 0x2 DUP2 PUSH1 0xB ADD PUSH1 0x3 PUSH2 0x100 EXP DUP2 SLOAD DUP2 PUSH1 0xFF MUL NOT AND SWAP1 DUP4 PUSH1 0xFF AND MUL OR SWAP1 SSTORE POP PUSH1 0x0 DUP1 SLOAD SWAP1 PUSH2 0x100 EXP SWAP1 DIV PUSH20 0xFFFFFFFFFFFFFFFFFFFFFFFFFFFFFFFFFFFFFFFF AND PUSH20 0xFFFFFFFFFFFFFFFFFFFFFFFFFFFFFFFFFFFFFFFF AND PUSH2 0x8FC PUSH1 0x1 SLOAD PUSH1 0x2 PUSH1 0xFF AND PUSH2 0x13C6 SWAP2 SWAP1 PUSH2 0x2933 JUMP JUMPDEST SWAP1 DUP2 ISZERO MUL SWAP1 PUSH1 0x40 MLOAD PUSH1 0x0 PUSH1 0x40 MLOAD DUP1 DUP4 SUB DUP2 DUP6 DUP9 DUP9 CALL SWAP4 POP POP POP POP ISZERO DUP1 ISZERO PUSH2 0x13F1 JUMPI RETURNDATASIZE PUSH1 0x0 DUP1 RETURNDATACOPY RETURNDATASIZE PUSH1 0x0 REVERT JUMPDEST POP JUMPDEST POP SWAP3 SWAP2 POP POP JUMP JUMPDEST PUSH1 0x0 PUSH1 0x3 PUSH1 0x0 DUP5 DUP2 MSTORE PUSH1 0x20 ADD SWAP1 DUP2 MSTORE PUSH1 0x20 ADD PUSH1 0x0 KECCAK256 SWAP1 POP PUSH1 0x8 PUSH1 0xFF AND DUP2 PUSH1 0xB ADD PUSH1 0x3 SWAP1 SLOAD SWAP1 PUSH2 0x100 EXP SWAP1 DIV PUSH1 0xFF AND PUSH1 0xFF AND EQ DUP1 PUSH2 0x144E JUMPI POP PUSH1 0x9 PUSH1 0xFF AND DUP2 PUSH1 0xB ADD PUSH1 0x3 SWAP1 SLOAD SWAP1 PUSH2 0x100 EXP SWAP1 DIV PUSH1 0xFF AND PUSH1 0xFF AND EQ JUMPDEST PUSH2 0x148D JUMPI PUSH1 0x40 MLOAD PUSH32 0x8C379A000000000000000000000000000000000000000000000000000000000 DUP2 MSTORE PUSH1 0x4 ADD PUSH2 0x1484 SWAP1 PUSH2 0x259C JUMP JUMPDEST PUSH1 0x40 MLOAD DUP1 SWAP2 SUB SWAP1 REVERT JUMPDEST CALLER PUSH20 0xFFFFFFFFFFFFFFFFFFFFFFFFFFFFFFFFFFFFFFFF AND DUP2 PUSH1 0x1 ADD DUP4 DUP2 SLOAD DUP2 LT PUSH2 0x14BA JUMPI PUSH2 0x14B9 PUSH2 0x2C0A JUMP JUMPDEST JUMPDEST SWAP1 PUSH1 0x0 MSTORE PUSH1 0x20 PUSH1 0x0 KECCAK256 ADD PUSH1 0x0 SWAP1 SLOAD SWAP1 PUSH2 0x100 EXP SWAP1 DIV PUSH20 0xFFFFFFFFFFFFFFFFFFFFFFFFFFFFFFFFFFFFFFFF AND PUSH20 0xFFFFFFFFFFFFFFFFFFFFFFFFFFFFFFFFFFFFFFFF AND EQ PUSH2 0x153B JUMPI PUSH1 0x40 MLOAD PUSH32 0x8C379A000000000000000000000000000000000000000000000000000000000 DUP2 MSTORE PUSH1 0x4 ADD PUSH2 0x1532 SWAP1 PUSH2 0x269C JUMP JUMPDEST PUSH1 0x40 MLOAD DUP1 SWAP2 SUB SWAP1 REVERT JUMPDEST DUP2 PUSH1 0x2 DUP3 PUSH1 0xB ADD PUSH1 0x0 SWAP1 SLOAD SWAP1 PUSH2 0x100 EXP SWAP1 DIV PUSH1 0xFF AND DUP4 PUSH1 0xB ADD PUSH1 0x2 SWAP1 SLOAD SWAP1 PUSH2 0x100 EXP SWAP1 DIV PUSH1 0xFF AND PUSH2 0x156C SWAP2 SWAP1 PUSH2 0x289A JUMP JUMPDEST PUSH2 0x1576 SWAP2 SWAP1 PUSH2 0x2B7B JUMP JUMPDEST PUSH1 0xFF AND EQ PUSH2 0x15B9 JUMPI PUSH1 0x40 MLOAD PUSH32 0x8C379A000000000000000000000000000000000000000000000000000000000 DUP2 MSTORE PUSH1 0x4 ADD PUSH2 0x15B0 SWAP1 PUSH2 0x263C JUMP JUMPDEST PUSH1 0x40 MLOAD DUP1 SWAP2 SUB SWAP1 REVERT JUMPDEST CALLVALUE DUP2 PUSH1 0xA ADD SLOAD EQ DUP1 PUSH2 0x15DB JUMPI POP CALLVALUE PUSH1 0x2 DUP3 PUSH1 0xA ADD SLOAD PUSH2 0x15D8 SWAP2 SWAP1 PUSH2 0x2933 JUMP JUMPDEST GT ISZERO JUMPDEST DUP1 ISZERO PUSH2 0x15EB JUMPI POP DUP1 PUSH1 0x9 ADD SLOAD CALLVALUE GT ISZERO JUMPDEST PUSH2 0x162A JUMPI PUSH1 0x40 MLOAD PUSH32 0x8C379A000000000000000000000000000000000000000000000000000000000 DUP2 MSTORE PUSH1 0x4 ADD PUSH2 0x1621 SWAP1 PUSH2 0x277C JUMP JUMPDEST PUSH1 0x40 MLOAD DUP1 SWAP2 SUB SWAP1 REVERT JUMPDEST CALLVALUE DUP2 PUSH1 0x5 ADD PUSH1 0x0 DUP3 DUP3 SLOAD PUSH2 0x163E SWAP2 SWAP1 PUSH2 0x2844 JUMP JUMPDEST SWAP3 POP POP DUP2 SWAP1 SSTORE POP DUP1 PUSH1 0xA ADD SLOAD CALLVALUE PUSH2 0x1655 SWAP2 SWAP1 PUSH2 0x29C8 JUMP JUMPDEST DUP2 PUSH1 0xA ADD DUP2 SWAP1 SSTORE POP PUSH1 0x1 DUP2 PUSH1 0xB ADD PUSH1 0x0 DUP3 DUP3 DUP3 SWAP1 SLOAD SWAP1 PUSH2 0x100 EXP SWAP1 DIV PUSH1 0xFF AND PUSH2 0x167E SWAP2 SWAP1 PUSH2 0x289A JUMP JUMPDEST SWAP3 POP PUSH2 0x100 EXP DUP2 SLOAD DUP2 PUSH1 0xFF MUL NOT AND SWAP1 DUP4 PUSH1 0xFF AND MUL OR SWAP1 SSTORE POP PUSH1 0x0 DUP2 PUSH1 0xA ADD SLOAD EQ ISZERO DUP1 ISZERO PUSH2 0x16C2 JUMPI POP PUSH1 0x2 PUSH1 0xFF AND DUP2 PUSH1 0xB ADD PUSH1 0x0 SWAP1 SLOAD SWAP1 PUSH2 0x100 EXP SWAP1 DIV PUSH1 0xFF AND PUSH1 0xFF AND EQ JUMPDEST ISZERO PUSH2 0x16EB JUMPI PUSH1 0x0 DUP2 PUSH1 0xB ADD PUSH1 0x0 PUSH2 0x100 EXP DUP2 SLOAD DUP2 PUSH1 0xFF MUL NOT AND SWAP1 DUP4 PUSH1 0xFF AND MUL OR SWAP1 SSTORE POP POP PUSH2 0x17D2 JUMP JUMPDEST PUSH1 0x2 PUSH1 0xFF AND DUP2 PUSH1 0xB ADD PUSH1 0x0 SWAP1 SLOAD SWAP1 PUSH2 0x100 EXP SWAP1 DIV PUSH1 0xFF AND PUSH1 0xFF AND EQ ISZERO PUSH2 0x17D0 JUMPI PUSH1 0x0 DUP2 PUSH1 0xA ADD DUP2 SWAP1 SSTORE POP PUSH1 0x0 DUP2 PUSH1 0xB ADD PUSH1 0x0 PUSH2 0x100 EXP DUP2 SLOAD DUP2 PUSH1 0xFF MUL NOT AND SWAP1 DUP4 PUSH1 0xFF AND MUL OR SWAP1 SSTORE POP PUSH1 0x0 DUP2 PUSH1 0xB ADD PUSH1 0x1 PUSH2 0x100 EXP DUP2 SLOAD DUP2 PUSH1 0xFF MUL NOT AND SWAP1 DUP4 PUSH1 0xFF AND MUL OR SWAP1 SSTORE POP PUSH1 0x8 PUSH1 0xFF AND DUP2 PUSH1 0xB ADD PUSH1 0x3 SWAP1 SLOAD SWAP1 PUSH2 0x100 EXP SWAP1 DIV PUSH1 0xFF AND PUSH1 0xFF AND EQ ISZERO PUSH2 0x1790 JUMPI PUSH1 0xB DUP2 PUSH1 0xB ADD PUSH1 0x3 PUSH2 0x100 EXP DUP2 SLOAD DUP2 PUSH1 0xFF MUL NOT AND SWAP1 DUP4 PUSH1 0xFF AND MUL OR SWAP1 SSTORE POP JUMPDEST PUSH1 0x9 PUSH1 0xFF AND DUP2 PUSH1 0xB ADD PUSH1 0x3 SWAP1 SLOAD SWAP1 PUSH2 0x100 EXP SWAP1 DIV PUSH1 0xFF AND PUSH1 0xFF AND EQ ISZERO PUSH2 0x17CF JUMPI PUSH1 0x5 DUP2 PUSH1 0xB ADD PUSH1 0x3 PUSH2 0x100 EXP DUP2 SLOAD DUP2 PUSH1 0xFF MUL NOT AND SWAP1 DUP4 PUSH1 0xFF AND MUL OR SWAP1 SSTORE POP JUMPDEST JUMPDEST POP JUMPDEST POP POP JUMP JUMPDEST PUSH1 0x0 DUP2 PUSH1 0x40 MLOAD PUSH1 0x20 ADD PUSH2 0x17E9 SWAP2 SWAP1 PUSH2 0x255B JUMP JUMPDEST PUSH1 0x40 MLOAD PUSH1 0x20 DUP2 DUP4 SUB SUB DUP2 MSTORE SWAP1 PUSH1 0x40 MSTORE DUP1 MLOAD SWAP1 PUSH1 0x20 ADD KECCAK256 SWAP1 POP SWAP2 SWAP1 POP JUMP JUMPDEST PUSH1 0x0 DUP1 PUSH1 0x0 PUSH1 0x41 DUP5 MLOAD EQ PUSH2 0x1819 JUMPI PUSH1 0x0 DUP1 REVERT JUMPDEST PUSH1 0x20 DUP5 ADD MLOAD SWAP2 POP PUSH1 0x40 DUP5 ADD MLOAD SWAP1 POP PUSH1 0x60 DUP5 ADD MLOAD PUSH1 0x0 BYTE SWAP3 POP SWAP2 SWAP4 SWAP1 SWAP3 POP JUMP JUMPDEST PUSH2 0x1840 PUSH2 0x1F1E JUMP JUMPDEST PUSH1 0x0 DUP5 PUSH1 0x7 PUSH2 0x184F SWAP2 SWAP1 PUSH2 0x298D JUMP JUMPDEST PUSH1 0xFF AND DUP5 PUSH1 0x0 SHR PUSH1 0x5 PUSH2 0x1862 SWAP2 SWAP1 PUSH2 0x2933 JUMP JUMPDEST DUP5 PUSH1 0x0 SHR PUSH1 0x3 PUSH2 0x1872 SWAP2 SWAP1 PUSH2 0x2933 JUMP JUMPDEST PUSH2 0x187C SWAP2 SWAP1 PUSH2 0x2844 JUMP JUMPDEST PUSH2 0x1886 SWAP2 SWAP1 PUSH2 0x2844 JUMP JUMPDEST SWAP1 POP PUSH2 0x1890 PUSH2 0x1F1E JUMP JUMPDEST PUSH1 0x0 JUMPDEST PUSH1 0x5 DUP2 PUSH1 0xFF AND LT ISZERO PUSH2 0x1902 JUMPI PUSH1 0x34 PUSH1 0xFF AND DUP4 PUSH2 0x18AF SWAP2 SWAP1 PUSH2 0x2B4A JUMP JUMPDEST DUP3 DUP3 PUSH1 0xFF AND PUSH1 0x5 DUP2 LT PUSH2 0x18C5 JUMPI PUSH2 0x18C4 PUSH2 0x2C0A JUMP JUMPDEST JUMPDEST PUSH1 0x20 MUL ADD SWAP1 PUSH1 0xFF AND SWAP1 DUP2 PUSH1 0xFF AND DUP2 MSTORE POP POP PUSH1 0xD DUP4 PUSH1 0x1F PUSH2 0x18E5 SWAP2 SWAP1 PUSH2 0x2933 JUMP JUMPDEST PUSH2 0x18EF SWAP2 SWAP1 PUSH2 0x2844 JUMP JUMPDEST SWAP3 POP DUP1 PUSH2 0x18FB SWAP1 PUSH2 0x2B0C JUMP JUMPDEST SWAP1 POP PUSH2 0x1893 JUMP JUMPDEST POP DUP1 SWAP3 POP POP POP SWAP4 SWAP3 POP POP POP JUMP JUMPDEST PUSH1 0x0 DUP1 PUSH1 0x0 SWAP1 POP JUMPDEST PUSH1 0x5 DUP2 LT ISZERO PUSH2 0x19B7 JUMPI PUSH1 0x0 PUSH1 0x34 PUSH1 0xFF AND DUP6 PUSH2 0x1932 SWAP2 SWAP1 PUSH2 0x2B4A JUMP JUMPDEST SWAP1 POP PUSH1 0x34 PUSH1 0xFF AND DUP6 PUSH2 0x1944 SWAP2 SWAP1 PUSH2 0x28D1 JUMP JUMPDEST SWAP5 POP PUSH1 0x0 DUP1 JUMPDEST PUSH1 0x5 DUP2 LT ISZERO PUSH2 0x1992 JUMPI DUP6 DUP2 PUSH1 0x5 DUP2 LT PUSH2 0x1966 JUMPI PUSH2 0x1965 PUSH2 0x2C0A JUMP JUMPDEST JUMPDEST PUSH1 0x20 MUL ADD MLOAD PUSH1 0xFF AND DUP4 PUSH1 0xFF AND EQ ISZERO PUSH2 0x1981 JUMPI PUSH1 0x1 SWAP2 POP PUSH2 0x1992 JUMP JUMPDEST DUP1 PUSH2 0x198B SWAP1 PUSH2 0x2AC3 JUMP JUMPDEST SWAP1 POP PUSH2 0x194A JUMP JUMPDEST POP DUP1 PUSH2 0x19A4 JUMPI PUSH1 0x0 SWAP4 POP POP POP POP PUSH2 0x19BD JUMP JUMPDEST POP POP DUP1 PUSH2 0x19B0 SWAP1 PUSH2 0x2AC3 JUMP JUMPDEST SWAP1 POP PUSH2 0x1917 JUMP JUMPDEST POP PUSH1 0x1 SWAP1 POP JUMPDEST SWAP3 SWAP2 POP POP JUMP JUMPDEST PUSH1 0x0 DUP1 PUSH1 0xFF AND DUP3 PUSH1 0xFF AND EQ ISZERO PUSH2 0x19DC JUMPI PUSH1 0x1 SWAP1 POP PUSH2 0x1B27 JUMP JUMPDEST PUSH1 0x1 PUSH1 0xFF AND DUP3 PUSH1 0xFF AND EQ ISZERO PUSH2 0x19FF JUMPI PUSH2 0x19F8 DUP4 PUSH1 0x2 PUSH1 0x0 PUSH2 0x1B55 JUMP JUMPDEST SWAP1 POP PUSH2 0x1B27 JUMP JUMPDEST PUSH1 0x2 PUSH1 0xFF AND DUP3 PUSH1 0xFF AND EQ ISZERO PUSH2 0x1A36 JUMPI PUSH2 0x1A1B DUP4 PUSH1 0x2 PUSH1 0x0 PUSH2 0x1B55 JUMP JUMPDEST DUP1 ISZERO PUSH2 0x1A2F JUMPI POP PUSH2 0x1A2E DUP4 PUSH1 0x2 DUP1 PUSH2 0x1B55 JUMP JUMPDEST JUMPDEST SWAP1 POP PUSH2 0x1B27 JUMP JUMPDEST PUSH1 0x3 PUSH1 0xFF AND DUP3 PUSH1 0xFF AND EQ ISZERO PUSH2 0x1A59 JUMPI PUSH2 0x1A52 DUP4 PUSH1 0x3 PUSH1 0x0 PUSH2 0x1B55 JUMP JUMPDEST SWAP1 POP PUSH2 0x1B27 JUMP JUMPDEST PUSH1 0x4 PUSH1 0xFF AND DUP3 PUSH1 0xFF AND EQ ISZERO PUSH2 0x1A78 JUMPI PUSH2 0x1A71 DUP4 PUSH2 0x1C1A JUMP JUMPDEST SWAP1 POP PUSH2 0x1B27 JUMP JUMPDEST PUSH1 0x5 PUSH1 0xFF AND DUP3 PUSH1 0xFF AND EQ ISZERO PUSH2 0x1A97 JUMPI PUSH2 0x1A90 DUP4 PUSH2 0x1CB6 JUMP JUMPDEST SWAP1 POP PUSH2 0x1B27 JUMP JUMPDEST PUSH1 0x6 PUSH1 0xFF AND DUP3 PUSH1 0xFF AND EQ ISZERO PUSH2 0x1ACF JUMPI PUSH2 0x1AB3 DUP4 PUSH1 0x3 PUSH1 0x0 PUSH2 0x1B55 JUMP JUMPDEST DUP1 ISZERO PUSH2 0x1AC8 JUMPI POP PUSH2 0x1AC7 DUP4 PUSH1 0x2 PUSH1 0x3 PUSH2 0x1B55 JUMP JUMPDEST JUMPDEST SWAP1 POP PUSH2 0x1B27 JUMP JUMPDEST PUSH1 0x7 PUSH1 0xFF AND DUP3 PUSH1 0xFF AND EQ ISZERO PUSH2 0x1AF2 JUMPI PUSH2 0x1AEB DUP4 PUSH1 0x4 PUSH1 0x0 PUSH2 0x1B55 JUMP JUMPDEST SWAP1 POP PUSH2 0x1B27 JUMP JUMPDEST PUSH1 0x8 PUSH1 0xFF AND DUP3 PUSH1 0xFF AND EQ ISZERO PUSH2 0x1B22 JUMPI PUSH2 0x1B0A DUP4 PUSH2 0x1C1A JUMP JUMPDEST DUP1 ISZERO PUSH2 0x1B1B JUMPI POP PUSH2 0x1B1A DUP4 PUSH2 0x1CB6 JUMP JUMPDEST JUMPDEST SWAP1 POP PUSH2 0x1B27 JUMP JUMPDEST PUSH1 0x0 SWAP1 POP JUMPDEST SWAP3 SWAP2 POP POP JUMP JUMPDEST PUSH1 0x0 DUP3 DUP3 PUSH1 0xFF AND PUSH4 0x16A97400 PUSH2 0x1B43 SWAP2 SWAP1 PUSH2 0x2933 JUMP JUMPDEST PUSH2 0x1B4D SWAP2 SWAP1 PUSH2 0x2844 JUMP JUMPDEST SWAP1 POP SWAP3 SWAP2 POP POP JUMP JUMPDEST PUSH1 0x0 DUP1 PUSH1 0x34 SWAP1 POP PUSH1 0x0 JUMPDEST PUSH1 0x5 DUP2 LT ISZERO PUSH2 0x1C0C JUMPI PUSH1 0x0 PUSH1 0x34 PUSH1 0xFF AND DUP8 PUSH2 0x1B7A SWAP2 SWAP1 PUSH2 0x2B4A JUMP JUMPDEST SWAP1 POP PUSH1 0x0 PUSH1 0x4 DUP3 PUSH2 0x1B8B SWAP2 SWAP1 PUSH2 0x2902 JUMP JUMPDEST SWAP1 POP PUSH1 0x34 PUSH1 0xFF AND DUP9 PUSH2 0x1B9D SWAP2 SWAP1 PUSH2 0x28D1 JUMP JUMPDEST SWAP8 POP DUP6 PUSH1 0xFF AND DUP4 LT ISZERO DUP1 ISZERO PUSH2 0x1BBF JUMPI POP DUP7 DUP7 PUSH2 0x1BB9 SWAP2 SWAP1 PUSH2 0x289A JUMP JUMPDEST PUSH1 0xFF AND DUP4 LT JUMPDEST ISZERO PUSH2 0x1BF8 JUMPI PUSH1 0x34 PUSH1 0xFF AND DUP5 PUSH1 0xFF AND EQ ISZERO PUSH2 0x1BDD JUMPI DUP1 SWAP4 POP POP POP PUSH2 0x1BFB JUMP JUMPDEST DUP1 PUSH1 0xFF AND DUP5 PUSH1 0xFF AND EQ PUSH2 0x1BF7 JUMPI PUSH1 0x0 SWAP5 POP POP POP POP POP PUSH2 0x1C13 JUMP JUMPDEST JUMPDEST POP POP JUMPDEST DUP1 PUSH2 0x1C05 SWAP1 PUSH2 0x2AC3 JUMP JUMPDEST SWAP1 POP PUSH2 0x1B5F JUMP JUMPDEST POP PUSH1 0x1 SWAP2 POP POP JUMPDEST SWAP4 SWAP3 POP POP POP JUMP JUMPDEST PUSH1 0x0 DUP1 PUSH1 0x34 SWAP1 POP PUSH1 0x0 JUMPDEST PUSH1 0x5 DUP2 LT ISZERO PUSH2 0x1CAA JUMPI PUSH1 0x0 PUSH1 0x34 PUSH1 0xFF AND DUP6 PUSH2 0x1C3F SWAP2 SWAP1 PUSH2 0x2B4A JUMP JUMPDEST SWAP1 POP PUSH1 0x0 PUSH1 0x4 DUP3 PUSH2 0x1C50 SWAP2 SWAP1 PUSH2 0x2902 JUMP JUMPDEST SWAP1 POP PUSH1 0x34 PUSH1 0xFF AND DUP7 PUSH2 0x1C62 SWAP2 SWAP1 PUSH2 0x28D1 JUMP JUMPDEST SWAP6 POP PUSH1 0x0 DUP4 GT ISZERO PUSH2 0x1C94 JUMPI DUP4 PUSH1 0xFF AND PUSH1 0x1 DUP3 PUSH2 0x1C7E SWAP2 SWAP1 PUSH2 0x289A JUMP JUMPDEST PUSH1 0xFF AND EQ PUSH2 0x1C93 JUMPI PUSH1 0x0 SWAP5 POP POP POP POP POP PUSH2 0x1CB1 JUMP JUMPDEST JUMPDEST DUP1 SWAP4 POP POP POP DUP1 PUSH2 0x1CA3 SWAP1 PUSH2 0x2AC3 JUMP JUMPDEST SWAP1 POP PUSH2 0x1C24 JUMP JUMPDEST POP PUSH1 0x1 SWAP2 POP POP JUMPDEST SWAP2 SWAP1 POP JUMP JUMPDEST PUSH1 0x0 DUP1 PUSH1 0x34 SWAP1 POP PUSH1 0x0 JUMPDEST PUSH1 0x5 DUP2 LT ISZERO PUSH2 0x1D47 JUMPI PUSH1 0x0 PUSH1 0x34 PUSH1 0xFF AND DUP6 PUSH2 0x1CDB SWAP2 SWAP1 PUSH2 0x2B4A JUMP JUMPDEST SWAP1 POP PUSH1 0x0 PUSH1 0x4 DUP3 PUSH2 0x1CEC SWAP2 SWAP1 PUSH2 0x2B7B JUMP JUMPDEST SWAP1 POP PUSH1 0x34 PUSH1 0xFF AND DUP7 PUSH2 0x1CFE SWAP2 SWAP1 PUSH2 0x28D1 JUMP JUMPDEST SWAP6 POP PUSH1 0x34 PUSH1 0xFF AND DUP5 PUSH1 0xFF AND EQ ISZERO PUSH2 0x1D19 JUMPI DUP1 SWAP4 POP POP POP PUSH2 0x1D36 JUMP JUMPDEST DUP1 PUSH1 0xFF AND DUP5 PUSH1 0xFF AND EQ PUSH2 0x1D33 JUMPI PUSH1 0x0 SWAP5 POP POP POP POP POP PUSH2 0x1D4E JUMP JUMPDEST POP POP JUMPDEST DUP1 PUSH2 0x1D40 SWAP1 PUSH2 0x2AC3 JUMP JUMPDEST SWAP1 POP PUSH2 0x1CC0 JUMP JUMPDEST POP PUSH1 0x1 SWAP2 POP POP JUMPDEST SWAP2 SWAP1 POP JUMP JUMPDEST DUP3 DUP1 SLOAD DUP3 DUP3 SSTORE SWAP1 PUSH1 0x0 MSTORE PUSH1 0x20 PUSH1 0x0 KECCAK256 SWAP1 DUP2 ADD SWAP3 DUP3 ISZERO PUSH2 0x1DCC JUMPI SWAP2 PUSH1 0x20 MUL DUP3 ADD JUMPDEST DUP3 DUP2 GT ISZERO PUSH2 0x1DCB JUMPI DUP3 MLOAD DUP3 PUSH1 0x0 PUSH2 0x100 EXP DUP2 SLOAD DUP2 PUSH20 0xFFFFFFFFFFFFFFFFFFFFFFFFFFFFFFFFFFFFFFFF MUL NOT AND SWAP1 DUP4 PUSH20 0xFFFFFFFFFFFFFFFFFFFFFFFFFFFFFFFFFFFFFFFF AND MUL OR SWAP1 SSTORE POP SWAP2 PUSH1 0x20 ADD SWAP2 SWAP1 PUSH1 0x1 ADD SWAP1 PUSH2 0x1D73 JUMP JUMPDEST JUMPDEST POP SWAP1 POP PUSH2 0x1DD9 SWAP2 SWAP1 PUSH2 0x1F40 JUMP JUMPDEST POP SWAP1 JUMP JUMPDEST DUP3 DUP1 SLOAD DUP3 DUP3 SSTORE SWAP1 PUSH1 0x0 MSTORE PUSH1 0x20 PUSH1 0x0 KECCAK256 SWAP1 DUP2 ADD SWAP3 DUP3 ISZERO PUSH2 0x1E19 JUMPI SWAP2 PUSH1 0x20 MUL DUP3 ADD JUMPDEST DUP3 DUP2 GT ISZERO PUSH2 0x1E18 JUMPI DUP3 MLOAD DUP3 SSTORE SWAP2 PUSH1 0x20 ADD SWAP2 SWAP1 PUSH1 0x1 ADD SWAP1 PUSH2 0x1DFD JUMP JUMPDEST JUMPDEST POP SWAP1 POP PUSH2 0x1E26 SWAP2 SWAP1 PUSH2 0x1F5D JUMP JUMPDEST POP SWAP1 JUMP JUMPDEST DUP3 DUP1 SLOAD DUP3 DUP3 SSTORE SWAP1 PUSH1 0x0 MSTORE PUSH1 0x20 PUSH1 0x0 KECCAK256 SWAP1 DUP2 ADD SWAP3 DUP3 ISZERO PUSH2 0x1E66 JUMPI SWAP2 PUSH1 0x20 MUL DUP3 ADD JUMPDEST DUP3 DUP2 GT ISZERO PUSH2 0x1E65 JUMPI DUP3 MLOAD DUP3 SSTORE SWAP2 PUSH1 0x20 ADD SWAP2 SWAP1 PUSH1 0x1 ADD SWAP1 PUSH2 0x1E4A JUMP JUMPDEST JUMPDEST POP SWAP1 POP PUSH2 0x1E73 SWAP2 SWAP1 PUSH2 0x1F40 JUMP JUMPDEST POP SWAP1 JUMP JUMPDEST DUP3 DUP1 SLOAD DUP3 DUP3 SSTORE SWAP1 PUSH1 0x0 MSTORE PUSH1 0x20 PUSH1 0x0 KECCAK256 SWAP1 PUSH1 0x1F ADD PUSH1 0x20 SWAP1 DIV DUP2 ADD SWAP3 DUP3 ISZERO PUSH2 0x1F0D JUMPI SWAP2 PUSH1 0x20 MUL DUP3 ADD PUSH1 0x0 JUMPDEST DUP4 DUP3 GT ISZERO PUSH2 0x1EDE JUMPI DUP4 MLOAD DUP4 DUP3 PUSH2 0x100 EXP DUP2 SLOAD DUP2 PUSH1 0xFF MUL NOT AND SWAP1 DUP4 PUSH1 0xFF AND MUL OR SWAP1 SSTORE POP SWAP3 PUSH1 0x20 ADD SWAP3 PUSH1 0x1 ADD PUSH1 0x20 DUP2 PUSH1 0x0 ADD DIV SWAP3 DUP4 ADD SWAP3 PUSH1 0x1 SUB MUL PUSH2 0x1EA0 JUMP JUMPDEST DUP1 ISZERO PUSH2 0x1F0B JUMPI DUP3 DUP2 PUSH2 0x100 EXP DUP2 SLOAD SWAP1 PUSH1 0xFF MUL NOT AND SWAP1 SSTORE PUSH1 0x1 ADD PUSH1 0x20 DUP2 PUSH1 0x0 ADD DIV SWAP3 DUP4 ADD SWAP3 PUSH1 0x1 SUB MUL PUSH2 0x1EDE JUMP JUMPDEST POP JUMPDEST POP SWAP1 POP PUSH2 0x1F1A SWAP2 SWAP1 PUSH2 0x1F40 JUMP JUMPDEST POP SWAP1 JUMP JUMPDEST PUSH1 0x40 MLOAD DUP1 PUSH1 0xA0 ADD PUSH1 0x40 MSTORE DUP1 PUSH1 0x5 SWAP1 PUSH1 0x20 DUP3 MUL DUP1 CALLDATASIZE DUP4 CALLDATACOPY DUP1 DUP3 ADD SWAP2 POP POP SWAP1 POP POP SWAP1 JUMP JUMPDEST JUMPDEST DUP1 DUP3 GT ISZERO PUSH2 0x1F59 JUMPI PUSH1 0x0 DUP2 PUSH1 0x0 SWAP1 SSTORE POP PUSH1 0x1 ADD PUSH2 0x1F41 JUMP JUMPDEST POP SWAP1 JUMP JUMPDEST JUMPDEST DUP1 DUP3 GT ISZERO PUSH2 0x1F76 JUMPI PUSH1 0x0 DUP2 PUSH1 0x0 SWAP1 SSTORE POP PUSH1 0x1 ADD PUSH2 0x1F5E JUMP JUMPDEST POP SWAP1 JUMP JUMPDEST PUSH1 0x0 PUSH2 0x1F8D PUSH2 0x1F88 DUP5 PUSH2 0x27F7 JUMP JUMPDEST PUSH2 0x27D2 JUMP JUMPDEST SWAP1 POP DUP3 DUP2 MSTORE PUSH1 0x20 DUP2 ADD DUP5 DUP5 DUP5 ADD GT ISZERO PUSH2 0x1FA9 JUMPI PUSH2 0x1FA8 PUSH2 0x2C6D JUMP JUMPDEST JUMPDEST PUSH2 0x1FB4 DUP5 DUP3 DUP6 PUSH2 0x2A83 JUMP JUMPDEST POP SWAP4 SWAP3 POP POP POP JUMP JUMPDEST PUSH1 0x0 DUP2 CALLDATALOAD SWAP1 POP PUSH2 0x1FCB DUP2 PUSH2 0x2FB8 JUMP JUMPDEST SWAP3 SWAP2 POP POP JUMP JUMPDEST PUSH1 0x0 DUP2 CALLDATALOAD SWAP1 POP PUSH2 0x1FE0 DUP2 PUSH2 0x2FCF JUMP JUMPDEST SWAP3 SWAP2 POP POP JUMP JUMPDEST PUSH1 0x0 DUP3 PUSH1 0x1F DUP4 ADD SLT PUSH2 0x1FFB JUMPI PUSH2 0x1FFA PUSH2 0x2C68 JUMP JUMPDEST JUMPDEST DUP2 CALLDATALOAD PUSH2 0x200B DUP5 DUP3 PUSH1 0x20 DUP7 ADD PUSH2 0x1F7A JUMP JUMPDEST SWAP2 POP POP SWAP3 SWAP2 POP POP JUMP JUMPDEST PUSH1 0x0 DUP2 CALLDATALOAD SWAP1 POP PUSH2 0x2023 DUP2 PUSH2 0x2FE6 JUMP JUMPDEST SWAP3 SWAP2 POP POP JUMP JUMPDEST PUSH1 0x0 DUP2 CALLDATALOAD SWAP1 POP PUSH2 0x2038 DUP2 PUSH2 0x2FFD JUMP JUMPDEST SWAP3 SWAP2 POP POP JUMP JUMPDEST PUSH1 0x0 PUSH1 0x20 DUP3 DUP5 SUB SLT ISZERO PUSH2 0x2054 JUMPI PUSH2 0x2053 PUSH2 0x2C77 JUMP JUMPDEST JUMPDEST PUSH1 0x0 PUSH2 0x2062 DUP5 DUP3 DUP6 ADD PUSH2 0x1FBC JUMP JUMPDEST SWAP2 POP POP SWAP3 SWAP2 POP POP JUMP JUMPDEST PUSH1 0x0 PUSH1 0x20 DUP3 DUP5 SUB SLT ISZERO PUSH2 0x2081 JUMPI PUSH2 0x2080 PUSH2 0x2C77 JUMP JUMPDEST JUMPDEST PUSH1 0x0 PUSH2 0x208F DUP5 DUP3 DUP6 ADD PUSH2 0x2014 JUMP JUMPDEST SWAP2 POP POP SWAP3 SWAP2 POP POP JUMP JUMPDEST PUSH1 0x0 DUP1 PUSH1 0x40 DUP4 DUP6 SUB SLT ISZERO PUSH2 0x20AF JUMPI PUSH2 0x20AE PUSH2 0x2C77 JUMP JUMPDEST JUMPDEST PUSH1 0x0 PUSH2 0x20BD DUP6 DUP3 DUP7 ADD PUSH2 0x2014 JUMP JUMPDEST SWAP3 POP POP PUSH1 0x20 PUSH2 0x20CE DUP6 DUP3 DUP7 ADD PUSH2 0x1FD1 JUMP JUMPDEST SWAP2 POP POP SWAP3 POP SWAP3 SWAP1 POP JUMP JUMPDEST PUSH1 0x0 DUP1 PUSH1 0x0 DUP1 PUSH1 0x80 DUP6 DUP8 SUB SLT ISZERO PUSH2 0x20F2 JUMPI PUSH2 0x20F1 PUSH2 0x2C77 JUMP JUMPDEST JUMPDEST PUSH1 0x0 PUSH2 0x2100 DUP8 DUP3 DUP9 ADD PUSH2 0x2014 JUMP JUMPDEST SWAP5 POP POP PUSH1 0x20 PUSH2 0x2111 DUP8 DUP3 DUP9 ADD PUSH2 0x1FD1 JUMP JUMPDEST SWAP4 POP POP PUSH1 0x40 PUSH2 0x2122 DUP8 DUP3 DUP9 ADD PUSH2 0x2029 JUMP JUMPDEST SWAP3 POP POP PUSH1 0x60 PUSH2 0x2133 DUP8 DUP3 DUP9 ADD PUSH2 0x2029 JUMP JUMPDEST SWAP2 POP POP SWAP3 SWAP6 SWAP2 SWAP5 POP SWAP3 POP JUMP JUMPDEST PUSH1 0x0 DUP1 PUSH1 0x0 DUP1 PUSH1 0x0 PUSH1 0xA0 DUP7 DUP9 SUB SLT ISZERO PUSH2 0x215B JUMPI PUSH2 0x215A PUSH2 0x2C77 JUMP JUMPDEST JUMPDEST PUSH1 0x0 PUSH2 0x2169 DUP9 DUP3 DUP10 ADD PUSH2 0x2014 JUMP JUMPDEST SWAP6 POP POP PUSH1 0x20 DUP7 ADD CALLDATALOAD PUSH8 0xFFFFFFFFFFFFFFFF DUP2 GT ISZERO PUSH2 0x218A JUMPI PUSH2 0x2189 PUSH2 0x2C72 JUMP JUMPDEST JUMPDEST PUSH2 0x2196 DUP9 DUP3 DUP10 ADD PUSH2 0x1FE6 JUMP JUMPDEST SWAP5 POP POP PUSH1 0x40 PUSH2 0x21A7 DUP9 DUP3 DUP10 ADD PUSH2 0x2014 JUMP JUMPDEST SWAP4 POP POP PUSH1 0x60 PUSH2 0x21B8 DUP9 DUP3 DUP10 ADD PUSH2 0x2029 JUMP JUMPDEST SWAP3 POP POP PUSH1 0x80 PUSH2 0x21C9 DUP9 DUP3 DUP10 ADD PUSH2 0x2029 JUMP JUMPDEST SWAP2 POP POP SWAP3 SWAP6 POP SWAP3 SWAP6 SWAP1 SWAP4 POP JUMP JUMPDEST PUSH1 0x0 DUP1 PUSH1 0x40 DUP4 DUP6 SUB SLT ISZERO PUSH2 0x21ED JUMPI PUSH2 0x21EC PUSH2 0x2C77 JUMP JUMPDEST JUMPDEST PUSH1 0x0 PUSH2 0x21FB DUP6 DUP3 DUP7 ADD PUSH2 0x2014 JUMP JUMPDEST SWAP3 POP POP PUSH1 0x20 PUSH2 0x220C DUP6 DUP3 DUP7 ADD PUSH2 0x2014 JUMP JUMPDEST SWAP2 POP POP SWAP3 POP SWAP3 SWAP1 POP JUMP JUMPDEST PUSH1 0x0 DUP1 PUSH1 0x0 PUSH1 0x60 DUP5 DUP7 SUB SLT ISZERO PUSH2 0x222F JUMPI PUSH2 0x222E PUSH2 0x2C77 JUMP JUMPDEST JUMPDEST PUSH1 0x0 PUSH2 0x223D DUP7 DUP3 DUP8 ADD PUSH2 0x2014 JUMP JUMPDEST SWAP4 POP POP PUSH1 0x20 PUSH2 0x224E DUP7 DUP3 DUP8 ADD PUSH2 0x2014 JUMP JUMPDEST SWAP3 POP POP PUSH1 0x40 PUSH2 0x225F DUP7 DUP3 DUP8 ADD PUSH2 0x1FD1 JUMP JUMPDEST SWAP2 POP POP SWAP3 POP SWAP3 POP SWAP3 JUMP JUMPDEST PUSH1 0x0 DUP1 PUSH1 0x0 PUSH1 0x60 DUP5 DUP7 SUB SLT ISZERO PUSH2 0x2282 JUMPI PUSH2 0x2281 PUSH2 0x2C77 JUMP JUMPDEST JUMPDEST PUSH1 0x0 PUSH2 0x2290 DUP7 DUP3 DUP8 ADD PUSH2 0x2014 JUMP JUMPDEST SWAP4 POP POP PUSH1 0x20 PUSH2 0x22A1 DUP7 DUP3 DUP8 ADD PUSH2 0x2014 JUMP JUMPDEST SWAP3 POP POP PUSH1 0x40 PUSH2 0x22B2 DUP7 DUP3 DUP8 ADD PUSH2 0x2029 JUMP JUMPDEST SWAP2 POP POP SWAP3 POP SWAP3 POP SWAP3 JUMP JUMPDEST PUSH2 0x22CD PUSH2 0x22C8 DUP3 PUSH2 0x2A42 JUMP JUMPDEST PUSH2 0x2B36 JUMP JUMPDEST DUP3 MSTORE POP POP JUMP JUMPDEST PUSH1 0x0 PUSH2 0x22E0 PUSH1 0x11 DUP4 PUSH2 0x2828 JUMP JUMPDEST SWAP2 POP PUSH2 0x22EB DUP3 PUSH2 0x2C8D JUMP JUMPDEST PUSH1 0x20 DUP3 ADD SWAP1 POP SWAP2 SWAP1 POP JUMP JUMPDEST PUSH1 0x0 PUSH2 0x2303 PUSH1 0x2A DUP4 PUSH2 0x2828 JUMP JUMPDEST SWAP2 POP PUSH2 0x230E DUP3 PUSH2 0x2CB6 JUMP JUMPDEST PUSH1 0x40 DUP3 ADD SWAP1 POP SWAP2 SWAP1 POP JUMP JUMPDEST PUSH1 0x0 PUSH2 0x2326 PUSH1 0x12 DUP4 PUSH2 0x2828 JUMP JUMPDEST SWAP2 POP PUSH2 0x2331 DUP3 PUSH2 0x2D05 JUMP JUMPDEST PUSH1 0x20 DUP3 ADD SWAP1 POP SWAP2 SWAP1 POP JUMP JUMPDEST PUSH1 0x0 PUSH2 0x2349 PUSH1 0x1C DUP4 PUSH2 0x2839 JUMP JUMPDEST SWAP2 POP PUSH2 0x2354 DUP3 PUSH2 0x2D2E JUMP JUMPDEST PUSH1 0x1C DUP3 ADD SWAP1 POP SWAP2 SWAP1 POP JUMP JUMPDEST PUSH1 0x0 PUSH2 0x236C PUSH1 0x13 DUP4 PUSH2 0x2828 JUMP JUMPDEST SWAP2 POP PUSH2 0x2377 DUP3 PUSH2 0x2D57 JUMP JUMPDEST PUSH1 0x20 DUP3 ADD SWAP1 POP SWAP2 SWAP1 POP JUMP JUMPDEST PUSH1 0x0 PUSH2 0x238F PUSH1 0xA DUP4 PUSH2 0x2828 JUMP JUMPDEST SWAP2 POP PUSH2 0x239A DUP3 PUSH2 0x2D80 JUMP JUMPDEST PUSH1 0x20 DUP3 ADD SWAP1 POP SWAP2 SWAP1 POP JUMP JUMPDEST PUSH1 0x0 PUSH2 0x23B2 PUSH1 0x12 DUP4 PUSH2 0x2828 JUMP JUMPDEST SWAP2 POP PUSH2 0x23BD DUP3 PUSH2 0x2DA9 JUMP JUMPDEST PUSH1 0x20 DUP3 ADD SWAP1 POP SWAP2 SWAP1 POP JUMP JUMPDEST PUSH1 0x0 PUSH2 0x23D5 PUSH1 0x1F DUP4 PUSH2 0x2828 JUMP JUMPDEST SWAP2 POP PUSH2 0x23E0 DUP3 PUSH2 0x2DD2 JUMP JUMPDEST PUSH1 0x20 DUP3 ADD SWAP1 POP SWAP2 SWAP1 POP JUMP JUMPDEST PUSH1 0x0 PUSH2 0x23F8 PUSH1 0xC DUP4 PUSH2 0x2828 JUMP JUMPDEST SWAP2 POP PUSH2 0x2403 DUP3 PUSH2 0x2DFB JUMP JUMPDEST PUSH1 0x20 DUP3 ADD SWAP1 POP SWAP2 SWAP1 POP JUMP JUMPDEST PUSH1 0x0 PUSH2 0x241B PUSH1 0x1A DUP4 PUSH2 0x2828 JUMP JUMPDEST SWAP2 POP PUSH2 0x2426 DUP3 PUSH2 0x2E24 JUMP JUMPDEST PUSH1 0x20 DUP3 ADD SWAP1 POP SWAP2 SWAP1 POP JUMP JUMPDEST PUSH1 0x0 PUSH2 0x243E PUSH1 0x18 DUP4 PUSH2 0x2828 JUMP JUMPDEST SWAP2 POP PUSH2 0x2449 DUP3 PUSH2 0x2E4D JUMP JUMPDEST PUSH1 0x20 DUP3 ADD SWAP1 POP SWAP2 SWAP1 POP JUMP JUMPDEST PUSH1 0x0 PUSH2 0x2461 PUSH1 0xB DUP4 PUSH2 0x2828 JUMP JUMPDEST SWAP2 POP PUSH2 0x246C DUP3 PUSH2 0x2E76 JUMP JUMPDEST PUSH1 0x20 DUP3 ADD SWAP1 POP SWAP2 SWAP1 POP JUMP JUMPDEST PUSH1 0x0 PUSH2 0x2484 PUSH1 0x10 DUP4 PUSH2 0x2828 JUMP JUMPDEST SWAP2 POP PUSH2 0x248F DUP3 PUSH2 0x2E9F JUMP JUMPDEST PUSH1 0x20 DUP3 ADD SWAP1 POP SWAP2 SWAP1 POP JUMP JUMPDEST PUSH1 0x0 PUSH2 0x24A7 PUSH1 0x2B DUP4 PUSH2 0x2828 JUMP JUMPDEST SWAP2 POP PUSH2 0x24B2 DUP3 PUSH2 0x2EC8 JUMP JUMPDEST PUSH1 0x40 DUP3 ADD SWAP1 POP SWAP2 SWAP1 POP JUMP JUMPDEST PUSH1 0x0 PUSH2 0x24CA PUSH1 0x13 DUP4 PUSH2 0x2828 JUMP JUMPDEST SWAP2 POP PUSH2 0x24D5 DUP3 PUSH2 0x2F17 JUMP JUMPDEST PUSH1 0x20 DUP3 ADD SWAP1 POP SWAP2 SWAP1 POP JUMP JUMPDEST PUSH1 0x0 PUSH2 0x24ED PUSH1 0x2E DUP4 PUSH2 0x2828 JUMP JUMPDEST SWAP2 POP PUSH2 0x24F8 DUP3 PUSH2 0x2F40 JUMP JUMPDEST PUSH1 0x40 DUP3 ADD SWAP1 POP SWAP2 SWAP1 POP JUMP JUMPDEST PUSH1 0x0 PUSH2 0x2510 PUSH1 0x9 DUP4 PUSH2 0x2828 JUMP JUMPDEST SWAP2 POP PUSH2 0x251B DUP3 PUSH2 0x2F8F JUMP JUMPDEST PUSH1 0x20 DUP3 ADD SWAP1 POP SWAP2 SWAP1 POP JUMP JUMPDEST PUSH2 0x252F DUP2 PUSH2 0x2A6C JUMP JUMPDEST DUP3 MSTORE POP POP JUMP JUMPDEST PUSH2 0x2546 PUSH2 0x2541 DUP3 PUSH2 0x2A6C JUMP JUMPDEST PUSH2 0x2B40 JUMP JUMPDEST DUP3 MSTORE POP POP JUMP JUMPDEST PUSH2 0x2555 DUP2 PUSH2 0x2A76 JUMP JUMPDEST DUP3 MSTORE POP POP JUMP JUMPDEST PUSH1 0x0 PUSH2 0x2566 DUP3 PUSH2 0x233C JUMP JUMPDEST SWAP2 POP PUSH2 0x2572 DUP3 DUP5 PUSH2 0x22BC JUMP JUMPDEST PUSH1 0x20 DUP3 ADD SWAP2 POP DUP2 SWAP1 POP SWAP3 SWAP2 POP POP JUMP JUMPDEST PUSH1 0x0 PUSH2 0x258D DUP3 DUP5 PUSH2 0x2535 JUMP JUMPDEST PUSH1 0x20 DUP3 ADD SWAP2 POP DUP2 SWAP1 POP SWAP3 SWAP2 POP POP JUMP JUMPDEST PUSH1 0x0 PUSH1 0x20 DUP3 ADD SWAP1 POP DUP2 DUP2 SUB PUSH1 0x0 DUP4 ADD MSTORE PUSH2 0x25B5 DUP2 PUSH2 0x22D3 JUMP JUMPDEST SWAP1 POP SWAP2 SWAP1 POP JUMP JUMPDEST PUSH1 0x0 PUSH1 0x20 DUP3 ADD SWAP1 POP DUP2 DUP2 SUB PUSH1 0x0 DUP4 ADD MSTORE PUSH2 0x25D5 DUP2 PUSH2 0x22F6 JUMP JUMPDEST SWAP1 POP SWAP2 SWAP1 POP JUMP JUMPDEST PUSH1 0x0 PUSH1 0x20 DUP3 ADD SWAP1 POP DUP2 DUP2 SUB PUSH1 0x0 DUP4 ADD MSTORE PUSH2 0x25F5 DUP2 PUSH2 0x2319 JUMP JUMPDEST SWAP1 POP SWAP2 SWAP1 POP JUMP JUMPDEST PUSH1 0x0 PUSH1 0x20 DUP3 ADD SWAP1 POP DUP2 DUP2 SUB PUSH1 0x0 DUP4 ADD MSTORE PUSH2 0x2615 DUP2 PUSH2 0x235F JUMP JUMPDEST SWAP1 POP SWAP2 SWAP1 POP JUMP JUMPDEST PUSH1 0x0 PUSH1 0x20 DUP3 ADD SWAP1 POP DUP2 DUP2 SUB PUSH1 0x0 DUP4 ADD MSTORE PUSH2 0x2635 DUP2 PUSH2 0x2382 JUMP JUMPDEST SWAP1 POP SWAP2 SWAP1 POP JUMP JUMPDEST PUSH1 0x0 PUSH1 0x20 DUP3 ADD SWAP1 POP DUP2 DUP2 SUB PUSH1 0x0 DUP4 ADD MSTORE PUSH2 0x2655 DUP2 PUSH2 0x23A5 JUMP JUMPDEST SWAP1 POP SWAP2 SWAP1 POP JUMP JUMPDEST PUSH1 0x0 PUSH1 0x20 DUP3 ADD SWAP1 POP DUP2 DUP2 SUB PUSH1 0x0 DUP4 ADD MSTORE PUSH2 0x2675 DUP2 PUSH2 0x23C8 JUMP JUMPDEST SWAP1 POP SWAP2 SWAP1 POP JUMP JUMPDEST PUSH1 0x0 PUSH1 0x20 DUP3 ADD SWAP1 POP DUP2 DUP2 SUB PUSH1 0x0 DUP4 ADD MSTORE PUSH2 0x2695 DUP2 PUSH2 0x23EB JUMP JUMPDEST SWAP1 POP SWAP2 SWAP1 POP JUMP JUMPDEST PUSH1 0x0 PUSH1 0x20 DUP3 ADD SWAP1 POP DUP2 DUP2 SUB PUSH1 0x0 DUP4 ADD MSTORE PUSH2 0x26B5 DUP2 PUSH2 0x240E JUMP JUMPDEST SWAP1 POP SWAP2 SWAP1 POP JUMP JUMPDEST PUSH1 0x0 PUSH1 0x20 DUP3 ADD SWAP1 POP DUP2 DUP2 SUB PUSH1 0x0 DUP4 ADD MSTORE PUSH2 0x26D5 DUP2 PUSH2 0x2431 JUMP JUMPDEST SWAP1 POP SWAP2 SWAP1 POP JUMP JUMPDEST PUSH1 0x0 PUSH1 0x20 DUP3 ADD SWAP1 POP DUP2 DUP2 SUB PUSH1 0x0 DUP4 ADD MSTORE PUSH2 0x26F5 DUP2 PUSH2 0x2454 JUMP JUMPDEST SWAP1 POP SWAP2 SWAP1 POP JUMP JUMPDEST PUSH1 0x0 PUSH1 0x20 DUP3 ADD SWAP1 POP DUP2 DUP2 SUB PUSH1 0x0 DUP4 ADD MSTORE PUSH2 0x2715 DUP2 PUSH2 0x2477 JUMP JUMPDEST SWAP1 POP SWAP2 SWAP1 POP JUMP JUMPDEST PUSH1 0x0 PUSH1 0x20 DUP3 ADD SWAP1 POP DUP2 DUP2 SUB PUSH1 0x0 DUP4 ADD MSTORE PUSH2 0x2735 DUP2 PUSH2 0x249A JUMP JUMPDEST SWAP1 POP SWAP2 SWAP1 POP JUMP JUMPDEST PUSH1 0x0 PUSH1 0x20 DUP3 ADD SWAP1 POP DUP2 DUP2 SUB PUSH1 0x0 DUP4 ADD MSTORE PUSH2 0x2755 DUP2 PUSH2 0x24BD JUMP JUMPDEST SWAP1 POP SWAP2 SWAP1 POP JUMP JUMPDEST PUSH1 0x0 PUSH1 0x20 DUP3 ADD SWAP1 POP DUP2 DUP2 SUB PUSH1 0x0 DUP4 ADD MSTORE PUSH2 0x2775 DUP2 PUSH2 0x24E0 JUMP JUMPDEST SWAP1 POP SWAP2 SWAP1 POP JUMP JUMPDEST PUSH1 0x0 PUSH1 0x20 DUP3 ADD SWAP1 POP DUP2 DUP2 SUB PUSH1 0x0 DUP4 ADD MSTORE PUSH2 0x2795 DUP2 PUSH2 0x2503 JUMP JUMPDEST SWAP1 POP SWAP2 SWAP1 POP JUMP JUMPDEST PUSH1 0x0 PUSH1 0x20 DUP3 ADD SWAP1 POP PUSH2 0x27B1 PUSH1 0x0 DUP4 ADD DUP5 PUSH2 0x2526 JUMP JUMPDEST SWAP3 SWAP2 POP POP JUMP JUMPDEST PUSH1 0x0 PUSH1 0x20 DUP3 ADD SWAP1 POP PUSH2 0x27CC PUSH1 0x0 DUP4 ADD DUP5 PUSH2 0x254C JUMP JUMPDEST SWAP3 SWAP2 POP POP JUMP JUMPDEST PUSH1 0x0 PUSH2 0x27DC PUSH2 0x27ED JUMP JUMPDEST SWAP1 POP PUSH2 0x27E8 DUP3 DUP3 PUSH2 0x2A92 JUMP JUMPDEST SWAP2 SWAP1 POP JUMP JUMPDEST PUSH1 0x0 PUSH1 0x40 MLOAD SWAP1 POP SWAP1 JUMP JUMPDEST PUSH1 0x0 PUSH8 0xFFFFFFFFFFFFFFFF DUP3 GT ISZERO PUSH2 0x2812 JUMPI PUSH2 0x2811 PUSH2 0x2C39 JUMP JUMPDEST JUMPDEST PUSH2 0x281B DUP3 PUSH2 0x2C7C JUMP JUMPDEST SWAP1 POP PUSH1 0x20 DUP2 ADD SWAP1 POP SWAP2 SWAP1 POP JUMP JUMPDEST PUSH1 0x0 DUP3 DUP3 MSTORE PUSH1 0x20 DUP3 ADD SWAP1 POP SWAP3 SWAP2 POP POP JUMP JUMPDEST PUSH1 0x0 DUP2 SWAP1 POP SWAP3 SWAP2 POP POP JUMP JUMPDEST PUSH1 0x0 PUSH2 0x284F DUP3 PUSH2 0x2A6C JUMP JUMPDEST SWAP2 POP PUSH2 0x285A DUP4 PUSH2 0x2A6C JUMP JUMPDEST SWAP3 POP DUP3 PUSH32 0xFFFFFFFFFFFFFFFFFFFFFFFFFFFFFFFFFFFFFFFFFFFFFFFFFFFFFFFFFFFFFFFF SUB DUP3 GT ISZERO PUSH2 0x288F JUMPI PUSH2 0x288E PUSH2 0x2BAC JUMP JUMPDEST JUMPDEST DUP3 DUP3 ADD SWAP1 POP SWAP3 SWAP2 POP POP JUMP JUMPDEST PUSH1 0x0 PUSH2 0x28A5 DUP3 PUSH2 0x2A76 JUMP JUMPDEST SWAP2 POP PUSH2 0x28B0 DUP4 PUSH2 0x2A76 JUMP JUMPDEST SWAP3 POP DUP3 PUSH1 0xFF SUB DUP3 GT ISZERO PUSH2 0x28C6 JUMPI PUSH2 0x28C5 PUSH2 0x2BAC JUMP JUMPDEST JUMPDEST DUP3 DUP3 ADD SWAP1 POP SWAP3 SWAP2 POP POP JUMP JUMPDEST PUSH1 0x0 PUSH2 0x28DC DUP3 PUSH2 0x2A6C JUMP JUMPDEST SWAP2 POP PUSH2 0x28E7 DUP4 PUSH2 0x2A6C JUMP JUMPDEST SWAP3 POP DUP3 PUSH2 0x28F7 JUMPI PUSH2 0x28F6 PUSH2 0x2BDB JUMP JUMPDEST JUMPDEST DUP3 DUP3 DIV SWAP1 POP SWAP3 SWAP2 POP POP JUMP JUMPDEST PUSH1 0x0 PUSH2 0x290D DUP3 PUSH2 0x2A76 JUMP JUMPDEST SWAP2 POP PUSH2 0x2918 DUP4 PUSH2 0x2A76 JUMP JUMPDEST SWAP3 POP DUP3 PUSH2 0x2928 JUMPI PUSH2 0x2927 PUSH2 0x2BDB JUMP JUMPDEST JUMPDEST DUP3 DUP3 DIV SWAP1 POP SWAP3 SWAP2 POP POP JUMP JUMPDEST PUSH1 0x0 PUSH2 0x293E DUP3 PUSH2 0x2A6C JUMP JUMPDEST SWAP2 POP PUSH2 0x2949 DUP4 PUSH2 0x2A6C JUMP JUMPDEST SWAP3 POP DUP2 PUSH32 0xFFFFFFFFFFFFFFFFFFFFFFFFFFFFFFFFFFFFFFFFFFFFFFFFFFFFFFFFFFFFFFFF DIV DUP4 GT DUP3 ISZERO ISZERO AND ISZERO PUSH2 0x2982 JUMPI PUSH2 0x2981 PUSH2 0x2BAC JUMP JUMPDEST JUMPDEST DUP3 DUP3 MUL SWAP1 POP SWAP3 SWAP2 POP POP JUMP JUMPDEST PUSH1 0x0 PUSH2 0x2998 DUP3 PUSH2 0x2A76 JUMP JUMPDEST SWAP2 POP PUSH2 0x29A3 DUP4 PUSH2 0x2A76 JUMP JUMPDEST SWAP3 POP DUP2 PUSH1 0xFF DIV DUP4 GT DUP3 ISZERO ISZERO AND ISZERO PUSH2 0x29BD JUMPI PUSH2 0x29BC PUSH2 0x2BAC JUMP JUMPDEST JUMPDEST DUP3 DUP3 MUL SWAP1 POP SWAP3 SWAP2 POP POP JUMP JUMPDEST PUSH1 0x0 PUSH2 0x29D3 DUP3 PUSH2 0x2A6C JUMP JUMPDEST SWAP2 POP PUSH2 0x29DE DUP4 PUSH2 0x2A6C JUMP JUMPDEST SWAP3 POP DUP3 DUP3 LT ISZERO PUSH2 0x29F1 JUMPI PUSH2 0x29F0 PUSH2 0x2BAC JUMP JUMPDEST JUMPDEST DUP3 DUP3 SUB SWAP1 POP SWAP3 SWAP2 POP POP JUMP JUMPDEST PUSH1 0x0 PUSH2 0x2A07 DUP3 PUSH2 0x2A76 JUMP JUMPDEST SWAP2 POP PUSH2 0x2A12 DUP4 PUSH2 0x2A76 JUMP JUMPDEST SWAP3 POP DUP3 DUP3 LT ISZERO PUSH2 0x2A25 JUMPI PUSH2 0x2A24 PUSH2 0x2BAC JUMP JUMPDEST JUMPDEST DUP3 DUP3 SUB SWAP1 POP SWAP3 SWAP2 POP POP JUMP JUMPDEST PUSH1 0x0 PUSH2 0x2A3B DUP3 PUSH2 0x2A4C JUMP JUMPDEST SWAP1 POP SWAP2 SWAP1 POP JUMP JUMPDEST PUSH1 0x0 DUP2 SWAP1 POP SWAP2 SWAP1 POP JUMP JUMPDEST PUSH1 0x0 PUSH20 0xFFFFFFFFFFFFFFFFFFFFFFFFFFFFFFFFFFFFFFFF DUP3 AND SWAP1 POP SWAP2 SWAP1 POP JUMP JUMPDEST PUSH1 0x0 DUP2 SWAP1 POP SWAP2 SWAP1 POP JUMP JUMPDEST PUSH1 0x0 PUSH1 0xFF DUP3 AND SWAP1 POP SWAP2 SWAP1 POP JUMP JUMPDEST DUP3 DUP2 DUP4 CALLDATACOPY PUSH1 0x0 DUP4 DUP4 ADD MSTORE POP POP POP JUMP JUMPDEST PUSH2 0x2A9B DUP3 PUSH2 0x2C7C JUMP JUMPDEST DUP2 ADD DUP2 DUP2 LT PUSH8 0xFFFFFFFFFFFFFFFF DUP3 GT OR ISZERO PUSH2 0x2ABA JUMPI PUSH2 0x2AB9 PUSH2 0x2C39 JUMP JUMPDEST JUMPDEST DUP1 PUSH1 0x40 MSTORE POP POP POP JUMP JUMPDEST PUSH1 0x0 PUSH2 0x2ACE DUP3 PUSH2 0x2A6C JUMP JUMPDEST SWAP2 POP PUSH32 0xFFFFFFFFFFFFFFFFFFFFFFFFFFFFFFFFFFFFFFFFFFFFFFFFFFFFFFFFFFFFFFFF DUP3 EQ ISZERO PUSH2 0x2B01 JUMPI PUSH2 0x2B00 PUSH2 0x2BAC JUMP JUMPDEST JUMPDEST PUSH1 0x1 DUP3 ADD SWAP1 POP SWAP2 SWAP1 POP JUMP JUMPDEST PUSH1 0x0 PUSH2 0x2B17 DUP3 PUSH2 0x2A76 JUMP JUMPDEST SWAP2 POP PUSH1 0xFF DUP3 EQ ISZERO PUSH2 0x2B2B JUMPI PUSH2 0x2B2A PUSH2 0x2BAC JUMP JUMPDEST JUMPDEST PUSH1 0x1 DUP3 ADD SWAP1 POP SWAP2 SWAP1 POP JUMP JUMPDEST PUSH1 0x0 DUP2 SWAP1 POP SWAP2 SWAP1 POP JUMP JUMPDEST PUSH1 0x0 DUP2 SWAP1 POP SWAP2 SWAP1 POP JUMP JUMPDEST PUSH1 0x0 PUSH2 0x2B55 DUP3 PUSH2 0x2A6C JUMP JUMPDEST SWAP2 POP PUSH2 0x2B60 DUP4 PUSH2 0x2A6C JUMP JUMPDEST SWAP3 POP DUP3 PUSH2 0x2B70 JUMPI PUSH2 0x2B6F PUSH2 0x2BDB JUMP JUMPDEST JUMPDEST DUP3 DUP3 MOD SWAP1 POP SWAP3 SWAP2 POP POP JUMP JUMPDEST PUSH1 0x0 PUSH2 0x2B86 DUP3 PUSH2 0x2A76 JUMP JUMPDEST SWAP2 POP PUSH2 0x2B91 DUP4 PUSH2 0x2A76 JUMP JUMPDEST SWAP3 POP DUP3 PUSH2 0x2BA1 JUMPI PUSH2 0x2BA0 PUSH2 0x2BDB JUMP JUMPDEST JUMPDEST DUP3 DUP3 MOD SWAP1 POP SWAP3 SWAP2 POP POP JUMP JUMPDEST PUSH32 0x4E487B7100000000000000000000000000000000000000000000000000000000 PUSH1 0x0 MSTORE PUSH1 0x11 PUSH1 0x4 MSTORE PUSH1 0x24 PUSH1 0x0 REVERT JUMPDEST PUSH32 0x4E487B7100000000000000000000000000000000000000000000000000000000 PUSH1 0x0 MSTORE PUSH1 0x12 PUSH1 0x4 MSTORE PUSH1 0x24 PUSH1 0x0 REVERT JUMPDEST PUSH32 0x4E487B7100000000000000000000000000000000000000000000000000000000 PUSH1 0x0 MSTORE PUSH1 0x32 PUSH1 0x4 MSTORE PUSH1 0x24 PUSH1 0x0 REVERT JUMPDEST PUSH32 0x4E487B7100000000000000000000000000000000000000000000000000000000 PUSH1 0x0 MSTORE PUSH1 0x41 PUSH1 0x4 MSTORE PUSH1 0x24 PUSH1 0x0 REVERT JUMPDEST PUSH1 0x0 DUP1 REVERT JUMPDEST PUSH1 0x0 DUP1 REVERT JUMPDEST PUSH1 0x0 DUP1 REVERT JUMPDEST PUSH1 0x0 DUP1 REVERT JUMPDEST PUSH1 0x0 PUSH1 0x1F NOT PUSH1 0x1F DUP4 ADD AND SWAP1 POP SWAP2 SWAP1 POP JUMP JUMPDEST PUSH32 0x7374617465206973206E6F74207475726E000000000000000000000000000000 PUSH1 0x0 DUP3 ADD MSTORE POP JUMP JUMPDEST PUSH32 0x72657175697265206465706F736974206174206C6561737420626967202B2073 PUSH1 0x0 DUP3 ADD MSTORE PUSH32 0x6D616C6C20626C696E6400000000000000000000000000000000000000000000 PUSH1 0x20 DUP3 ADD MSTORE POP JUMP JUMPDEST PUSH32 0x65787065637420636C6561722073746167650000000000000000000000000000 PUSH1 0x0 DUP3 ADD MSTORE POP JUMP JUMPDEST PUSH32 0x19457468657265756D205369676E6564204D6573736167653A0A333200000000 PUSH1 0x0 DUP3 ADD MSTORE POP JUMP JUMPDEST PUSH32 0x43616C6C6572206973206E6F74206F776E657200000000000000000000000000 PUSH1 0x0 DUP3 ADD MSTORE POP JUMP JUMPDEST PUSH32 0x77726F6E67207365656400000000000000000000000000000000000000000000 PUSH1 0x0 DUP3 ADD MSTORE POP JUMP JUMPDEST PUSH32 0x69742773206E6F7420796F7572207475726E0000000000000000000000000000 PUSH1 0x0 DUP3 ADD MSTORE POP JUMP JUMPDEST PUSH32 0x63616E2774206A6F696E20616C726561647920637265617465642067616D6500 PUSH1 0x0 DUP3 ADD MSTORE POP JUMP JUMPDEST PUSH32 0x77726F6E6720706C617965720000000000000000000000000000000000000000 PUSH1 0x0 DUP3 ADD MSTORE POP JUMP JUMPDEST PUSH32 0x73656E646572206973206E6F7420726967687420706C61796572000000000000 PUSH1 0x0 DUP3 ADD MSTORE POP JUMP JUMPDEST PUSH32 0x63616E2774206A6F696E20746F2066756C6C207461626C650000000000000000 PUSH1 0x0 DUP3 ADD MSTORE POP JUMP JUMPDEST PUSH32 0x77726F6E67207374616765000000000000000000000000000000000000000000 PUSH1 0x0 DUP3 ADD MSTORE POP JUMP JUMPDEST PUSH32 0x77726F6E67206D73672073656E64657200000000000000000000000000000000 PUSH1 0x0 DUP3 ADD MSTORE POP JUMP JUMPDEST PUSH32 0x72657175697265206465706F73697420657175616C7320746F20626967202B20 PUSH1 0x0 DUP3 ADD MSTORE PUSH32 0x736D616C6C20626C696E64000000000000000000000000000000000000000000 PUSH1 0x20 DUP3 ADD MSTORE POP JUMP JUMPDEST PUSH32 0x6578706563742072657665616C20737461676500000000000000000000000000 PUSH1 0x0 DUP3 ADD MSTORE POP JUMP JUMPDEST PUSH32 0x73686F756C64206861766520737461746520737570706C792061667465722073 PUSH1 0x0 DUP3 ADD MSTORE PUSH32 0x74617274206F72206368616E6765000000000000000000000000000000000000 PUSH1 0x20 DUP3 ADD MSTORE POP JUMP JUMPDEST PUSH32 0x77726F6E67206265740000000000000000000000000000000000000000000000 PUSH1 0x0 DUP3 ADD MSTORE POP JUMP JUMPDEST PUSH2 0x2FC1 DUP2 PUSH2 0x2A30 JUMP JUMPDEST DUP2 EQ PUSH2 0x2FCC JUMPI PUSH1 0x0 DUP1 REVERT JUMPDEST POP JUMP JUMPDEST PUSH2 0x2FD8 DUP2 PUSH2 0x2A42 JUMP JUMPDEST DUP2 EQ PUSH2 0x2FE3 JUMPI PUSH1 0x0 DUP1 REVERT JUMPDEST POP JUMP JUMPDEST PUSH2 0x2FEF DUP2 PUSH2 0x2A6C JUMP JUMPDEST DUP2 EQ PUSH2 0x2FFA JUMPI PUSH1 0x0 DUP1 REVERT JUMPDEST POP JUMP JUMPDEST PUSH2 0x3006 DUP2 PUSH2 0x2A76 JUMP JUMPDEST DUP2 EQ PUSH2 0x3011 JUMPI PUSH1 0x0 DUP1 REVERT JUMPDEST POP JUMP INVALID LOG2 PUSH5 0x6970667358 0x22 SLT KECCAK256 0xCD 0xE6 LOG1 PUSH8 0x90618474D5E253B0 SSTORE 0x5E PUSH12 0xBFAB5B354045DA30A7513BD3 PUSH12 0x9C599F9864736F6C63430008 SMOD STOP CALLER "
		},
		"gasEstimates": {
			"creation": {
				"codeDepositCost": "2472400",
				"executionCost": "infinite",
				"totalCost": "infinite"
			},
			"external": {
				"changeOwner(address)": "26916",
				"createGame(uint256,uint256,bytes32)": "infinite",
				"joinGame(uint256,bytes32)": "infinite",
				"makeBet(uint256,uint256)": "infinite",
				"requestBank(uint256)": "infinite",
				"revealCards(uint256,bytes,uint256,uint8,uint8)": "infinite",
				"supplyRandomStateHash(uint256,bytes32,uint8,uint8)": "infinite",
				"verifyPlayerState(uint256,uint256,uint8)": "infinite"
			},
			"internal": {
				"parseCards(uint8,bytes32,bytes32)": "infinite",
				"prefixed(bytes32)": "infinite",
				"splitSignature(bytes memory)": "infinite"
			}
		},
		"methodIdentifiers": {
			"changeOwner(address)": "a6f9dae1",
			"createGame(uint256,uint256,bytes32)": "46ac2b99",
			"joinGame(uint256,bytes32)": "ac952671",
			"makeBet(uint256,uint256)": "df898e32",
			"requestBank(uint256)": "8124ce1d",
			"revealCards(uint256,bytes,uint256,uint8,uint8)": "14ff87eb",
			"supplyRandomStateHash(uint256,bytes32,uint8,uint8)": "17392fd6",
			"verifyPlayerState(uint256,uint256,uint8)": "0f6a565f"
		}
	},
	"abi": [
		{
			"inputs": [
				{
					"internalType": "uint256",
					"name": "_comission",
					"type": "uint256"
				}
			],
			"stateMutability": "nonpayable",
			"type": "constructor"
		},
		{
			"inputs": [
				{
					"internalType": "address",
					"name": "newOwner",
					"type": "address"
				}
			],
			"name": "changeOwner",
			"outputs": [],
			"stateMutability": "nonpayable",
			"type": "function"
		},
		{
			"inputs": [
				{
					"internalType": "uint256",
					"name": "smallBlind",
					"type": "uint256"
				},
				{
					"internalType": "uint256",
					"name": "limit",
					"type": "uint256"
				},
				{
					"internalType": "bytes32",
					"name": "randomStateHash",
					"type": "bytes32"
				}
			],
			"name": "createGame",
			"outputs": [
				{
					"internalType": "uint256",
					"name": "gameId",
					"type": "uint256"
				}
			],
			"stateMutability": "payable",
			"type": "function"
		},
		{
			"inputs": [
				{
					"internalType": "uint256",
					"name": "gameId",
					"type": "uint256"
				},
				{
					"internalType": "bytes32",
					"name": "randomStateHash",
					"type": "bytes32"
				}
			],
			"name": "joinGame",
			"outputs": [
				{
					"internalType": "uint8",
					"name": "playerId",
					"type": "uint8"
				}
			],
			"stateMutability": "payable",
			"type": "function"
		},
		{
			"inputs": [
				{
					"internalType": "uint256",
					"name": "gameId",
					"type": "uint256"
				},
				{
					"internalType": "uint256",
					"name": "playerId",
					"type": "uint256"
				}
			],
			"name": "makeBet",
			"outputs": [],
			"stateMutability": "payable",
			"type": "function"
		},
		{
			"inputs": [
				{
					"internalType": "uint256",
					"name": "gameId",
					"type": "uint256"
				}
			],
			"name": "requestBank",
			"outputs": [],
			"stateMutability": "payable",
			"type": "function"
		},
		{
			"inputs": [
				{
					"internalType": "uint256",
					"name": "gameId",
					"type": "uint256"
				},
				{
					"internalType": "bytes",
					"name": "signature",
					"type": "bytes"
				},
				{
					"internalType": "uint256",
					"name": "claimedHand",
					"type": "uint256"
				},
				{
					"internalType": "uint8",
					"name": "claimedCombination",
					"type": "uint8"
				},
				{
					"internalType": "uint8",
					"name": "playerId",
					"type": "uint8"
				}
			],
			"name": "revealCards",
			"outputs": [],
			"stateMutability": "nonpayable",
			"type": "function"
		},
		{
			"inputs": [
				{
					"internalType": "uint256",
					"name": "gameId",
					"type": "uint256"
				},
				{
					"internalType": "bytes32",
					"name": "randomStateHash",
					"type": "bytes32"
				},
				{
					"internalType": "uint8",
					"name": "playerId",
					"type": "uint8"
				},
				{
					"internalType": "uint8",
					"name": "cardMask",
					"type": "uint8"
				}
			],
			"name": "supplyRandomStateHash",
			"outputs": [],
			"stateMutability": "nonpayable",
			"type": "function"
		},
		{
			"inputs": [
				{
					"internalType": "uint256",
					"name": "gameId",
					"type": "uint256"
				},
				{
					"internalType": "uint256",
					"name": "randomState",
					"type": "uint256"
				},
				{
					"internalType": "uint8",
					"name": "playerId",
					"type": "uint8"
				}
			],
			"name": "verifyPlayerState",
			"outputs": [],
			"stateMutability": "nonpayable",
			"type": "function"
		}
	]
}