{
	"data": {
		"bytecode": {
			"linkReferences": {},
			"object": "608060405260006002553480156200001657600080fd5b50604051620023753803806200237583398181016040528101906200003c9190620000a1565b336000806101000a81548173ffffffffffffffffffffffffffffffffffffffff021916908373ffffffffffffffffffffffffffffffffffffffff1602179055508060018190555050620000fc565b6000815190506200009b81620000e2565b92915050565b600060208284031215620000ba57620000b9620000dd565b5b6000620000ca848285016200008a565b91505092915050565b6000819050919050565b600080fd5b620000ed81620000d3565b8114620000f957600080fd5b50565b612269806200010c6000396000f3fe6080604052600436106100555760003560e01c8063143319301461005a57806346ac2b9914610083578063a6f9dae1146100b3578063ac952671146100dc578063c642ccfa1461010c578063e826f32814610128575b600080fd5b34801561006657600080fd5b50610081600480360381019061007c91906117bb565b610151565b005b61009d600480360381019061009891906117fb565b61037d565b6040516100aa9190611bad565b60405180910390f35b3480156100bf57600080fd5b506100da60048036038101906100d5919061169e565b610657565b005b6100f660048036038101906100f191906116f8565b61072a565b6040516101039190611bad565b60405180910390f35b610126600480360381019061012191906116cb565b61091b565b005b34801561013457600080fd5b5061014f600480360381019061014a9190611738565b610a6e565b005b6000600360008481526020019081526020016000209050600260ff1681600a0160039054906101000a900460ff1660ff161461018c57600080fd5b60005b8160010180549050811015610335573373ffffffffffffffffffffffffffffffffffffffff168260010182815481106101cb576101ca611f6e565b5b9060005260206000200160009054906101000a900473ffffffffffffffffffffffffffffffffffffffff1673ffffffffffffffffffffffffffffffffffffffff16141561032257826040516020016102239190611a2d565b6040516020818303038152906040528051906020012082600201828154811061024f5761024e611f6e565b5b90600052602060002001541461026457600080fd5b828260060160008282546102789190611c3a565b92505081905550600182600a0160028282829054906101000a900460ff166102a09190611c90565b92506101000a81548160ff021916908360ff160217905550600282600a0160029054906101000a900460ff1660ff16141561031b57600082600a0160016101000a81548160ff021916908360ff160217905550428260070181905550600382600a0160036101000a81548160ff021916908360ff1602179055505b5050610379565b808061032d90611e51565b91505061018f565b506000610377576040517f08c379a000000000000000000000000000000000000000000000000000000000815260040161036e90611acd565b60405180910390fd5b505b5050565b60008284600261038d9190611d29565b111561039857600080fd5b8360036103a59190611d29565b6001546103b29190611c3a565b34146103f3576040517f08c379a00000000000000000000000000000000000000000000000000000000081526004016103ea90611b4d565b60405180910390fd5b6002600081548092919061040690611e51565b91905055905060608060608060606000604051806101c001604052803373ffffffffffffffffffffffffffffffffffffffff16815260200187815260200186815260200185815260200184815260200183815260200160008152602001600081526020018b81526020018a8152602001600060ff168152602001600060ff168152602001600060ff168152602001600160ff168152509050806003600089815260200190815260200160002060008201518160000160006101000a81548173ffffffffffffffffffffffffffffffffffffffff021916908373ffffffffffffffffffffffffffffffffffffffff16021790555060208201518160010190805190602001906105159291906113d5565b50604082015181600201908051906020019061053292919061145f565b50606082015181600301908051906020019061054f9291906114ac565b50608082015181600401908051906020019061056c9291906114f9565b5060a08201518160050190805190602001906105899291906114f9565b5060c0820151816006015560e082015181600701556101008201518160080155610120820151816009015561014082015181600a0160006101000a81548160ff021916908360ff16021790555061016082015181600a0160016101000a81548160ff021916908360ff16021790555061018082015181600a0160026101000a81548160ff021916908360ff1602179055506101a082015181600a0160036101000a81548160ff021916908360ff160217905550905050610649878961072a565b505050505050509392505050565b60008054906101000a900473ffffffffffffffffffffffffffffffffffffffff168073ffffffffffffffffffffffffffffffffffffffff163373ffffffffffffffffffffffffffffffffffffffff16146106e6576040517f08c379a00000000000000000000000000000000000000000000000000000000081526004016106dd90611aad565b60405180910390fd5b816000806101000a81548173ffffffffffffffffffffffffffffffffffffffff021916908373ffffffffffffffffffffffffffffffffffffffff1602179055505050565b600080600360008581526020019081526020016000209050600160ff1681600a0160039054906101000a900460ff1660ff161461079c576040517f08c379a000000000000000000000000000000000000000000000000000000000815260040161079390611aed565b60405180910390fd5b806008015460036107ad9190611d29565b6001546107ba9190611c3a565b34146107fb576040517f08c379a00000000000000000000000000000000000000000000000000000000081526004016107f290611a8d565b60405180910390fd5b600260ff16816001018054905010610848576040517f08c379a000000000000000000000000000000000000000000000000000000000815260040161083f90611b0d565b60405180910390fd5b8060010180549050915080600101339080600181540180825580915050600190039060005260206000200160009091909190916101000a81548173ffffffffffffffffffffffffffffffffffffffff021916908373ffffffffffffffffffffffffffffffffffffffff16021790555080600201839080600181540180825580915050600190039060005260206000200160009091909190915055600260ff168160010180549050141561091457600281600a0160036101000a81548160ff021916908360ff1602179055505b5092915050565b6000600360008381526020019081526020016000209050600160ff1681600a0160039054906101000a900460ff1660ff161461098c576040517f08c379a000000000000000000000000000000000000000000000000000000000815260040161098390611b2d565b60405180910390fd5b3373ffffffffffffffffffffffffffffffffffffffff168160000160009054906101000a900473ffffffffffffffffffffffffffffffffffffffff1673ffffffffffffffffffffffffffffffffffffffff16146109e857600080fd5b3373ffffffffffffffffffffffffffffffffffffffff166108fc82600801546003610a139190611d29565b600154610a209190611c3a565b9081150290604051600060405180830381858888f19350505050158015610a4b573d6000803e3d6000fd5b50600681600a0160036101000a81548160ff021916908360ff1602179055505050565b6000600360008681526020019081526020016000209050600460ff1681600a0160039054906101000a900460ff1660ff1614610adf576040517f08c379a0000000000000000000000000000000000000000000000000000000008152600401610ad690611b6d565b60405180910390fd5b3373ffffffffffffffffffffffffffffffffffffffff168160010182600a0160019054906101000a900460ff1660ff1681548110610b2057610b1f611f6e565b5b9060005260206000200160009054906101000a900473ffffffffffffffffffffffffffffffffffffffff1673ffffffffffffffffffffffffffffffffffffffff1614610b6b57600080fd5b6000610bbf82600a0160019054906101000a900460ff1660ff168360060154610b949190611c3a565b604051602001610ba49190611a2d565b60405160208183030381529060405280519060200120610e73565b90506000806000610bcf88610ea3565b9250925092503373ffffffffffffffffffffffffffffffffffffffff1660018585858560405160008152602001604052604051610c0f9493929190611a48565b6020604051602081039080840390855afa158015610c31573d6000803e3d6000fd5b5050506020604051035173ffffffffffffffffffffffffffffffffffffffff1614610c91576040517f08c379a0000000000000000000000000000000000000000000000000000000008152600401610c8890611b8d565b60405180910390fd5b600080610c9f858585610ed5565b91509150610d278983838a600501805480602002602001604051908101604052809291908181526020018280548015610d1d57602002820191906000526020600020906000905b82829054906101000a900460ff1660ff1681526020019060010190602082600001049283019260010382029150808411610ce65790505b5050505050610f96565b610d3057600080fd5b610d3a8989611071565b610d4357600080fd5b888760030188600a0160019054906101000a900460ff1660ff1681548110610d6e57610d6d611f6e565b5b9060005260206000200181905550878760040188600a0160019054906101000a900460ff1660ff1681548110610da757610da6611f6e565b5b90600052602060002090602091828204019190066101000a81548160ff021916908360ff1602179055506002600188600a0160019054906101000a900460ff16610df19190611c90565b610dfb9190611edf565b87600a0160016101000a81548160ff021916908360ff16021790555086600a0160009054906101000a900460ff1660ff1687600a0160019054906101000a900460ff1660ff161415610e6657600587600a0160036101000a81548160ff021916908360ff1602179055505b5050505050505050505050565b600081604051602001610e869190611a07565b604051602081830303815290604052805190602001209050919050565b60008060006041845114610eb657600080fd5b6020840151915060408401519050606084015160001a92509193909250565b6000806000603460ff16866007610eec9190611d83565b60ff168660001c6005610eff9190611d29565b8660001c6003610f0f9190611d29565b610f199190611c3a565b610f239190611c3a565b610f2d9190611eae565b90506000603460ff16876011610f439190611d83565b60ff168760001c600d610f569190611d29565b8760001c600b610f669190611d29565b610f709190611c3a565b610f7a9190611c3a565b610f849190611eae565b90508181935093505050935093915050565b600080600090505b6005811015611063576000603460ff1687610fb99190611eae565b9050603460ff1687610fcb9190611cc7565b96508560ff168160ff1614158015610fe957508460ff168160ff1614155b15611051576000805b855181101561103d5785818151811061100e5761100d611f6e565b5b602002602001015160ff168360ff16141561102c576001915061103d565b8061103690611e51565b9050610ff2565b508061104f5760009350505050611069565b505b508061105c90611e51565b9050610f9e565b50600190505b949350505050565b60008060ff168260ff16141561108a57600190506111d5565b600160ff168260ff1614156110ad576110a683600260006111db565b90506111d5565b600260ff168260ff1614156110e4576110c983600260006111db565b80156110dd57506110dc836002806111db565b5b90506111d5565b600360ff168260ff1614156111075761110083600360006111db565b90506111d5565b600460ff168260ff1614156111265761111f8361129c565b90506111d5565b600560ff168260ff1614156111455761113e83611338565b90506111d5565b600660ff168260ff16141561117d5761116183600360006111db565b8015611176575061117583600260036111db565b5b90506111d5565b600760ff168260ff1614156111a05761119983600460006111db565b90506111d5565b600860ff168260ff1614156111d0576111b88361129c565b80156111c957506111c883611338565b5b90506111d5565b600090505b92915050565b60008083905060005b600581101561128e5760008560ff16876111fe9190611eae565b9050600060048261120f9190611cf8565b90508660ff16886112209190611cc7565b97508560ff1683101580156112425750868661123c9190611c90565b60ff1683105b1561127a578660ff168460ff16141561125f57809350505061127d565b8060ff168460ff1614611279576000945050505050611295565b5b50505b8061128790611e51565b90506111e4565b5060019150505b9392505050565b6000806034905060005b600581101561132c576000603460ff16856112c19190611eae565b905060006004826112d29190611cf8565b9050603460ff16866112e49190611cc7565b95506000831115611316578360ff166001826113009190611c90565b60ff1614611315576000945050505050611333565b5b80935050508061132590611e51565b90506112a6565b5060019150505b919050565b6000806034905060005b60058110156113c9576000603460ff168561135d9190611eae565b9050600060048261136e9190611edf565b9050603460ff16866113809190611cc7565b9550603460ff168460ff16141561139b5780935050506113b8565b8060ff168460ff16146113b55760009450505050506113d0565b50505b806113c290611e51565b9050611342565b5060019150505b919050565b82805482825590600052602060002090810192821561144e579160200282015b8281111561144d5782518260006101000a81548173ffffffffffffffffffffffffffffffffffffffff021916908373ffffffffffffffffffffffffffffffffffffffff160217905550916020019190600101906113f5565b5b50905061145b91906115a0565b5090565b82805482825590600052602060002090810192821561149b579160200282015b8281111561149a57825182559160200191906001019061147f565b5b5090506114a891906115bd565b5090565b8280548282559060005260206000209081019282156114e8579160200282015b828111156114e75782518255916020019190600101906114cc565b5b5090506114f591906115a0565b5090565b82805482825590600052602060002090601f0160209004810192821561158f5791602002820160005b8382111561156057835183826101000a81548160ff021916908360ff1602179055509260200192600101602081600001049283019260010302611522565b801561158d5782816101000a81549060ff0219169055600101602081600001049283019260010302611560565b505b50905061159c91906115a0565b5090565b5b808211156115b95760008160009055506001016115a1565b5090565b5b808211156115d65760008160009055506001016115be565b5090565b60006115ed6115e884611bed565b611bc8565b90508281526020810184848401111561160957611608611fd1565b5b611614848285611e11565b509392505050565b60008135905061162b816121d7565b92915050565b600081359050611640816121ee565b92915050565b600082601f83011261165b5761165a611fcc565b5b813561166b8482602086016115da565b91505092915050565b60008135905061168381612205565b92915050565b6000813590506116988161221c565b92915050565b6000602082840312156116b4576116b3611fdb565b5b60006116c28482850161161c565b91505092915050565b6000602082840312156116e1576116e0611fdb565b5b60006116ef84828501611674565b91505092915050565b6000806040838503121561170f5761170e611fdb565b5b600061171d85828601611674565b925050602061172e85828601611631565b9150509250929050565b6000806000806080858703121561175257611751611fdb565b5b600061176087828801611674565b945050602085013567ffffffffffffffff81111561178157611780611fd6565b5b61178d87828801611646565b935050604061179e87828801611674565b92505060606117af87828801611689565b91505092959194509250565b600080604083850312156117d2576117d1611fdb565b5b60006117e085828601611674565b92505060206117f185828601611674565b9150509250929050565b60008060006060848603121561181457611813611fdb565b5b600061182286828701611674565b935050602061183386828701611674565b925050604061184486828701611631565b9150509250925092565b61185781611dd0565b82525050565b61186e61186982611dd0565b611e9a565b82525050565b6000611881602a83611c1e565b915061188c82611ff1565b604082019050919050565b60006118a4601c83611c2f565b91506118af82612040565b601c82019050919050565b60006118c7601383611c1e565b91506118d282612069565b602082019050919050565b60006118ea601083611c1e565b91506118f582612092565b602082019050919050565b600061190d601f83611c1e565b9150611918826120bb565b602082019050919050565b6000611930601883611c1e565b915061193b826120e4565b602082019050919050565b6000611953601e83611c1e565b915061195e8261210d565b602082019050919050565b6000611976602b83611c1e565b915061198182612136565b604082019050919050565b6000611999601383611c1e565b91506119a482612185565b602082019050919050565b60006119bc600a83611c1e565b91506119c7826121ae565b602082019050919050565b6119db81611dfa565b82525050565b6119f26119ed82611dfa565b611ea4565b82525050565b611a0181611e04565b82525050565b6000611a1282611897565b9150611a1e828461185d565b60208201915081905092915050565b6000611a3982846119e1565b60208201915081905092915050565b6000608082019050611a5d600083018761184e565b611a6a60208301866119f8565b611a77604083018561184e565b611a84606083018461184e565b95945050505050565b60006020820190508181036000830152611aa681611874565b9050919050565b60006020820190508181036000830152611ac6816118ba565b9050919050565b60006020820190508181036000830152611ae6816118dd565b9050919050565b60006020820190508181036000830152611b0681611900565b9050919050565b60006020820190508181036000830152611b2681611923565b9050919050565b60006020820190508181036000830152611b4681611946565b9050919050565b60006020820190508181036000830152611b6681611969565b9050919050565b60006020820190508181036000830152611b868161198c565b9050919050565b60006020820190508181036000830152611ba6816119af565b9050919050565b6000602082019050611bc260008301846119d2565b92915050565b6000611bd2611be3565b9050611bde8282611e20565b919050565b6000604051905090565b600067ffffffffffffffff821115611c0857611c07611f9d565b5b611c1182611fe0565b9050602081019050919050565b600082825260208201905092915050565b600081905092915050565b6000611c4582611dfa565b9150611c5083611dfa565b9250827fffffffffffffffffffffffffffffffffffffffffffffffffffffffffffffffff03821115611c8557611c84611f10565b5b828201905092915050565b6000611c9b82611e04565b9150611ca683611e04565b92508260ff03821115611cbc57611cbb611f10565b5b828201905092915050565b6000611cd282611dfa565b9150611cdd83611dfa565b925082611ced57611cec611f3f565b5b828204905092915050565b6000611d0382611e04565b9150611d0e83611e04565b925082611d1e57611d1d611f3f565b5b828204905092915050565b6000611d3482611dfa565b9150611d3f83611dfa565b9250817fffffffffffffffffffffffffffffffffffffffffffffffffffffffffffffffff0483118215151615611d7857611d77611f10565b5b828202905092915050565b6000611d8e82611e04565b9150611d9983611e04565b92508160ff0483118215151615611db357611db2611f10565b5b828202905092915050565b6000611dc982611dda565b9050919050565b6000819050919050565b600073ffffffffffffffffffffffffffffffffffffffff82169050919050565b6000819050919050565b600060ff82169050919050565b82818337600083830152505050565b611e2982611fe0565b810181811067ffffffffffffffff82111715611e4857611e47611f9d565b5b80604052505050565b6000611e5c82611dfa565b91507fffffffffffffffffffffffffffffffffffffffffffffffffffffffffffffffff821415611e8f57611e8e611f10565b5b600182019050919050565b6000819050919050565b6000819050919050565b6000611eb982611dfa565b9150611ec483611dfa565b925082611ed457611ed3611f3f565b5b828206905092915050565b6000611eea82611e04565b9150611ef583611e04565b925082611f0557611f04611f3f565b5b828206905092915050565b7f4e487b7100000000000000000000000000000000000000000000000000000000600052601160045260246000fd5b7f4e487b7100000000000000000000000000000000000000000000000000000000600052601260045260246000fd5b7f4e487b7100000000000000000000000000000000000000000000000000000000600052603260045260246000fd5b7f4e487b7100000000000000000000000000000000000000000000000000000000600052604160045260246000fd5b600080fd5b600080fd5b600080fd5b600080fd5b6000601f19601f8301169050919050565b7f72657175697265206465706f736974206174206c6561737420626967202b207360008201527f6d616c6c20626c696e6400000000000000000000000000000000000000000000602082015250565b7f19457468657265756d205369676e6564204d6573736167653a0a333200000000600082015250565b7f43616c6c6572206973206e6f74206f776e657200000000000000000000000000600082015250565b7f756e726561636861626c6520636f646500000000000000000000000000000000600082015250565b7f63616e2774206a6f696e20616c726561647920637265617465642067616d6500600082015250565b7f63616e2774206a6f696e20746f2066756c6c207461626c650000000000000000600082015250565b7f63616e2774206573636170652066726f6d20737461727465642067616d650000600082015250565b7f72657175697265206465706f73697420657175616c7320746f20626967202b2060008201527f736d616c6c20626c696e64000000000000000000000000000000000000000000602082015250565b7f6578706563742072657665616c20737461676500000000000000000000000000600082015250565b7f626164207369676e657200000000000000000000000000000000000000000000600082015250565b6121e081611dbe565b81146121eb57600080fd5b50565b6121f781611dd0565b811461220257600080fd5b50565b61220e81611dfa565b811461221957600080fd5b50565b61222581611e04565b811461223057600080fd5b5056fea264697066735822122001e9a5e05b699458e89427c8119d7595f41779333f5e7fddc66dfcc6743463af64736f6c63430008070033",
			"opcodes": "PUSH1 0x80 PUSH1 0x40 MSTORE PUSH1 0x0 PUSH1 0x2 SSTORE CALLVALUE DUP1 ISZERO PUSH3 0x16 JUMPI PUSH1 0x0 DUP1 REVERT JUMPDEST POP PUSH1 0x40 MLOAD PUSH3 0x2375 CODESIZE SUB DUP1 PUSH3 0x2375 DUP4 CODECOPY DUP2 DUP2 ADD PUSH1 0x40 MSTORE DUP2 ADD SWAP1 PUSH3 0x3C SWAP2 SWAP1 PUSH3 0xA1 JUMP JUMPDEST CALLER PUSH1 0x0 DUP1 PUSH2 0x100 EXP DUP2 SLOAD DUP2 PUSH20 0xFFFFFFFFFFFFFFFFFFFFFFFFFFFFFFFFFFFFFFFF MUL NOT AND SWAP1 DUP4 PUSH20 0xFFFFFFFFFFFFFFFFFFFFFFFFFFFFFFFFFFFFFFFF AND MUL OR SWAP1 SSTORE POP DUP1 PUSH1 0x1 DUP2 SWAP1 SSTORE POP POP PUSH3 0xFC JUMP JUMPDEST PUSH1 0x0 DUP2 MLOAD SWAP1 POP PUSH3 0x9B DUP2 PUSH3 0xE2 JUMP JUMPDEST SWAP3 SWAP2 POP POP JUMP JUMPDEST PUSH1 0x0 PUSH1 0x20 DUP3 DUP5 SUB SLT ISZERO PUSH3 0xBA JUMPI PUSH3 0xB9 PUSH3 0xDD JUMP JUMPDEST JUMPDEST PUSH1 0x0 PUSH3 0xCA DUP5 DUP3 DUP6 ADD PUSH3 0x8A JUMP JUMPDEST SWAP2 POP POP SWAP3 SWAP2 POP POP JUMP JUMPDEST PUSH1 0x0 DUP2 SWAP1 POP SWAP2 SWAP1 POP JUMP JUMPDEST PUSH1 0x0 DUP1 REVERT JUMPDEST PUSH3 0xED DUP2 PUSH3 0xD3 JUMP JUMPDEST DUP2 EQ PUSH3 0xF9 JUMPI PUSH1 0x0 DUP1 REVERT JUMPDEST POP JUMP JUMPDEST PUSH2 0x2269 DUP1 PUSH3 0x10C PUSH1 0x0 CODECOPY PUSH1 0x0 RETURN INVALID PUSH1 0x80 PUSH1 0x40 MSTORE PUSH1 0x4 CALLDATASIZE LT PUSH2 0x55 JUMPI PUSH1 0x0 CALLDATALOAD PUSH1 0xE0 SHR DUP1 PUSH4 0x14331930 EQ PUSH2 0x5A JUMPI DUP1 PUSH4 0x46AC2B99 EQ PUSH2 0x83 JUMPI DUP1 PUSH4 0xA6F9DAE1 EQ PUSH2 0xB3 JUMPI DUP1 PUSH4 0xAC952671 EQ PUSH2 0xDC JUMPI DUP1 PUSH4 0xC642CCFA EQ PUSH2 0x10C JUMPI DUP1 PUSH4 0xE826F328 EQ PUSH2 0x128 JUMPI JUMPDEST PUSH1 0x0 DUP1 REVERT JUMPDEST CALLVALUE DUP1 ISZERO PUSH2 0x66 JUMPI PUSH1 0x0 DUP1 REVERT JUMPDEST POP PUSH2 0x81 PUSH1 0x4 DUP1 CALLDATASIZE SUB DUP2 ADD SWAP1 PUSH2 0x7C SWAP2 SWAP1 PUSH2 0x17BB JUMP JUMPDEST PUSH2 0x151 JUMP JUMPDEST STOP JUMPDEST PUSH2 0x9D PUSH1 0x4 DUP1 CALLDATASIZE SUB DUP2 ADD SWAP1 PUSH2 0x98 SWAP2 SWAP1 PUSH2 0x17FB JUMP JUMPDEST PUSH2 0x37D JUMP JUMPDEST PUSH1 0x40 MLOAD PUSH2 0xAA SWAP2 SWAP1 PUSH2 0x1BAD JUMP JUMPDEST PUSH1 0x40 MLOAD DUP1 SWAP2 SUB SWAP1 RETURN JUMPDEST CALLVALUE DUP1 ISZERO PUSH2 0xBF JUMPI PUSH1 0x0 DUP1 REVERT JUMPDEST POP PUSH2 0xDA PUSH1 0x4 DUP1 CALLDATASIZE SUB DUP2 ADD SWAP1 PUSH2 0xD5 SWAP2 SWAP1 PUSH2 0x169E JUMP JUMPDEST PUSH2 0x657 JUMP JUMPDEST STOP JUMPDEST PUSH2 0xF6 PUSH1 0x4 DUP1 CALLDATASIZE SUB DUP2 ADD SWAP1 PUSH2 0xF1 SWAP2 SWAP1 PUSH2 0x16F8 JUMP JUMPDEST PUSH2 0x72A JUMP JUMPDEST PUSH1 0x40 MLOAD PUSH2 0x103 SWAP2 SWAP1 PUSH2 0x1BAD JUMP JUMPDEST PUSH1 0x40 MLOAD DUP1 SWAP2 SUB SWAP1 RETURN JUMPDEST PUSH2 0x126 PUSH1 0x4 DUP1 CALLDATASIZE SUB DUP2 ADD SWAP1 PUSH2 0x121 SWAP2 SWAP1 PUSH2 0x16CB JUMP JUMPDEST PUSH2 0x91B JUMP JUMPDEST STOP JUMPDEST CALLVALUE DUP1 ISZERO PUSH2 0x134 JUMPI PUSH1 0x0 DUP1 REVERT JUMPDEST POP PUSH2 0x14F PUSH1 0x4 DUP1 CALLDATASIZE SUB DUP2 ADD SWAP1 PUSH2 0x14A SWAP2 SWAP1 PUSH2 0x1738 JUMP JUMPDEST PUSH2 0xA6E JUMP JUMPDEST STOP JUMPDEST PUSH1 0x0 PUSH1 0x3 PUSH1 0x0 DUP5 DUP2 MSTORE PUSH1 0x20 ADD SWAP1 DUP2 MSTORE PUSH1 0x20 ADD PUSH1 0x0 KECCAK256 SWAP1 POP PUSH1 0x2 PUSH1 0xFF AND DUP2 PUSH1 0xA ADD PUSH1 0x3 SWAP1 SLOAD SWAP1 PUSH2 0x100 EXP SWAP1 DIV PUSH1 0xFF AND PUSH1 0xFF AND EQ PUSH2 0x18C JUMPI PUSH1 0x0 DUP1 REVERT JUMPDEST PUSH1 0x0 JUMPDEST DUP2 PUSH1 0x1 ADD DUP1 SLOAD SWAP1 POP DUP2 LT ISZERO PUSH2 0x335 JUMPI CALLER PUSH20 0xFFFFFFFFFFFFFFFFFFFFFFFFFFFFFFFFFFFFFFFF AND DUP3 PUSH1 0x1 ADD DUP3 DUP2 SLOAD DUP2 LT PUSH2 0x1CB JUMPI PUSH2 0x1CA PUSH2 0x1F6E JUMP JUMPDEST JUMPDEST SWAP1 PUSH1 0x0 MSTORE PUSH1 0x20 PUSH1 0x0 KECCAK256 ADD PUSH1 0x0 SWAP1 SLOAD SWAP1 PUSH2 0x100 EXP SWAP1 DIV PUSH20 0xFFFFFFFFFFFFFFFFFFFFFFFFFFFFFFFFFFFFFFFF AND PUSH20 0xFFFFFFFFFFFFFFFFFFFFFFFFFFFFFFFFFFFFFFFF AND EQ ISZERO PUSH2 0x322 JUMPI DUP3 PUSH1 0x40 MLOAD PUSH1 0x20 ADD PUSH2 0x223 SWAP2 SWAP1 PUSH2 0x1A2D JUMP JUMPDEST PUSH1 0x40 MLOAD PUSH1 0x20 DUP2 DUP4 SUB SUB DUP2 MSTORE SWAP1 PUSH1 0x40 MSTORE DUP1 MLOAD SWAP1 PUSH1 0x20 ADD KECCAK256 DUP3 PUSH1 0x2 ADD DUP3 DUP2 SLOAD DUP2 LT PUSH2 0x24F JUMPI PUSH2 0x24E PUSH2 0x1F6E JUMP JUMPDEST JUMPDEST SWAP1 PUSH1 0x0 MSTORE PUSH1 0x20 PUSH1 0x0 KECCAK256 ADD SLOAD EQ PUSH2 0x264 JUMPI PUSH1 0x0 DUP1 REVERT JUMPDEST DUP3 DUP3 PUSH1 0x6 ADD PUSH1 0x0 DUP3 DUP3 SLOAD PUSH2 0x278 SWAP2 SWAP1 PUSH2 0x1C3A JUMP JUMPDEST SWAP3 POP POP DUP2 SWAP1 SSTORE POP PUSH1 0x1 DUP3 PUSH1 0xA ADD PUSH1 0x2 DUP3 DUP3 DUP3 SWAP1 SLOAD SWAP1 PUSH2 0x100 EXP SWAP1 DIV PUSH1 0xFF AND PUSH2 0x2A0 SWAP2 SWAP1 PUSH2 0x1C90 JUMP JUMPDEST SWAP3 POP PUSH2 0x100 EXP DUP2 SLOAD DUP2 PUSH1 0xFF MUL NOT AND SWAP1 DUP4 PUSH1 0xFF AND MUL OR SWAP1 SSTORE POP PUSH1 0x2 DUP3 PUSH1 0xA ADD PUSH1 0x2 SWAP1 SLOAD SWAP1 PUSH2 0x100 EXP SWAP1 DIV PUSH1 0xFF AND PUSH1 0xFF AND EQ ISZERO PUSH2 0x31B JUMPI PUSH1 0x0 DUP3 PUSH1 0xA ADD PUSH1 0x1 PUSH2 0x100 EXP DUP2 SLOAD DUP2 PUSH1 0xFF MUL NOT AND SWAP1 DUP4 PUSH1 0xFF AND MUL OR SWAP1 SSTORE POP TIMESTAMP DUP3 PUSH1 0x7 ADD DUP2 SWAP1 SSTORE POP PUSH1 0x3 DUP3 PUSH1 0xA ADD PUSH1 0x3 PUSH2 0x100 EXP DUP2 SLOAD DUP2 PUSH1 0xFF MUL NOT AND SWAP1 DUP4 PUSH1 0xFF AND MUL OR SWAP1 SSTORE POP JUMPDEST POP POP PUSH2 0x379 JUMP JUMPDEST DUP1 DUP1 PUSH2 0x32D SWAP1 PUSH2 0x1E51 JUMP JUMPDEST SWAP2 POP POP PUSH2 0x18F JUMP JUMPDEST POP PUSH1 0x0 PUSH2 0x377 JUMPI PUSH1 0x40 MLOAD PUSH32 0x8C379A000000000000000000000000000000000000000000000000000000000 DUP2 MSTORE PUSH1 0x4 ADD PUSH2 0x36E SWAP1 PUSH2 0x1ACD JUMP JUMPDEST PUSH1 0x40 MLOAD DUP1 SWAP2 SUB SWAP1 REVERT JUMPDEST POP JUMPDEST POP POP JUMP JUMPDEST PUSH1 0x0 DUP3 DUP5 PUSH1 0x2 PUSH2 0x38D SWAP2 SWAP1 PUSH2 0x1D29 JUMP JUMPDEST GT ISZERO PUSH2 0x398 JUMPI PUSH1 0x0 DUP1 REVERT JUMPDEST DUP4 PUSH1 0x3 PUSH2 0x3A5 SWAP2 SWAP1 PUSH2 0x1D29 JUMP JUMPDEST PUSH1 0x1 SLOAD PUSH2 0x3B2 SWAP2 SWAP1 PUSH2 0x1C3A JUMP JUMPDEST CALLVALUE EQ PUSH2 0x3F3 JUMPI PUSH1 0x40 MLOAD PUSH32 0x8C379A000000000000000000000000000000000000000000000000000000000 DUP2 MSTORE PUSH1 0x4 ADD PUSH2 0x3EA SWAP1 PUSH2 0x1B4D JUMP JUMPDEST PUSH1 0x40 MLOAD DUP1 SWAP2 SUB SWAP1 REVERT JUMPDEST PUSH1 0x2 PUSH1 0x0 DUP2 SLOAD DUP1 SWAP3 SWAP2 SWAP1 PUSH2 0x406 SWAP1 PUSH2 0x1E51 JUMP JUMPDEST SWAP2 SWAP1 POP SSTORE SWAP1 POP PUSH1 0x60 DUP1 PUSH1 0x60 DUP1 PUSH1 0x60 PUSH1 0x0 PUSH1 0x40 MLOAD DUP1 PUSH2 0x1C0 ADD PUSH1 0x40 MSTORE DUP1 CALLER PUSH20 0xFFFFFFFFFFFFFFFFFFFFFFFFFFFFFFFFFFFFFFFF AND DUP2 MSTORE PUSH1 0x20 ADD DUP8 DUP2 MSTORE PUSH1 0x20 ADD DUP7 DUP2 MSTORE PUSH1 0x20 ADD DUP6 DUP2 MSTORE PUSH1 0x20 ADD DUP5 DUP2 MSTORE PUSH1 0x20 ADD DUP4 DUP2 MSTORE PUSH1 0x20 ADD PUSH1 0x0 DUP2 MSTORE PUSH1 0x20 ADD PUSH1 0x0 DUP2 MSTORE PUSH1 0x20 ADD DUP12 DUP2 MSTORE PUSH1 0x20 ADD DUP11 DUP2 MSTORE PUSH1 0x20 ADD PUSH1 0x0 PUSH1 0xFF AND DUP2 MSTORE PUSH1 0x20 ADD PUSH1 0x0 PUSH1 0xFF AND DUP2 MSTORE PUSH1 0x20 ADD PUSH1 0x0 PUSH1 0xFF AND DUP2 MSTORE PUSH1 0x20 ADD PUSH1 0x1 PUSH1 0xFF AND DUP2 MSTORE POP SWAP1 POP DUP1 PUSH1 0x3 PUSH1 0x0 DUP10 DUP2 MSTORE PUSH1 0x20 ADD SWAP1 DUP2 MSTORE PUSH1 0x20 ADD PUSH1 0x0 KECCAK256 PUSH1 0x0 DUP3 ADD MLOAD DUP2 PUSH1 0x0 ADD PUSH1 0x0 PUSH2 0x100 EXP DUP2 SLOAD DUP2 PUSH20 0xFFFFFFFFFFFFFFFFFFFFFFFFFFFFFFFFFFFFFFFF MUL NOT AND SWAP1 DUP4 PUSH20 0xFFFFFFFFFFFFFFFFFFFFFFFFFFFFFFFFFFFFFFFF AND MUL OR SWAP1 SSTORE POP PUSH1 0x20 DUP3 ADD MLOAD DUP2 PUSH1 0x1 ADD SWAP1 DUP1 MLOAD SWAP1 PUSH1 0x20 ADD SWAP1 PUSH2 0x515 SWAP3 SWAP2 SWAP1 PUSH2 0x13D5 JUMP JUMPDEST POP PUSH1 0x40 DUP3 ADD MLOAD DUP2 PUSH1 0x2 ADD SWAP1 DUP1 MLOAD SWAP1 PUSH1 0x20 ADD SWAP1 PUSH2 0x532 SWAP3 SWAP2 SWAP1 PUSH2 0x145F JUMP JUMPDEST POP PUSH1 0x60 DUP3 ADD MLOAD DUP2 PUSH1 0x3 ADD SWAP1 DUP1 MLOAD SWAP1 PUSH1 0x20 ADD SWAP1 PUSH2 0x54F SWAP3 SWAP2 SWAP1 PUSH2 0x14AC JUMP JUMPDEST POP PUSH1 0x80 DUP3 ADD MLOAD DUP2 PUSH1 0x4 ADD SWAP1 DUP1 MLOAD SWAP1 PUSH1 0x20 ADD SWAP1 PUSH2 0x56C SWAP3 SWAP2 SWAP1 PUSH2 0x14F9 JUMP JUMPDEST POP PUSH1 0xA0 DUP3 ADD MLOAD DUP2 PUSH1 0x5 ADD SWAP1 DUP1 MLOAD SWAP1 PUSH1 0x20 ADD SWAP1 PUSH2 0x589 SWAP3 SWAP2 SWAP1 PUSH2 0x14F9 JUMP JUMPDEST POP PUSH1 0xC0 DUP3 ADD MLOAD DUP2 PUSH1 0x6 ADD SSTORE PUSH1 0xE0 DUP3 ADD MLOAD DUP2 PUSH1 0x7 ADD SSTORE PUSH2 0x100 DUP3 ADD MLOAD DUP2 PUSH1 0x8 ADD SSTORE PUSH2 0x120 DUP3 ADD MLOAD DUP2 PUSH1 0x9 ADD SSTORE PUSH2 0x140 DUP3 ADD MLOAD DUP2 PUSH1 0xA ADD PUSH1 0x0 PUSH2 0x100 EXP DUP2 SLOAD DUP2 PUSH1 0xFF MUL NOT AND SWAP1 DUP4 PUSH1 0xFF AND MUL OR SWAP1 SSTORE POP PUSH2 0x160 DUP3 ADD MLOAD DUP2 PUSH1 0xA ADD PUSH1 0x1 PUSH2 0x100 EXP DUP2 SLOAD DUP2 PUSH1 0xFF MUL NOT AND SWAP1 DUP4 PUSH1 0xFF AND MUL OR SWAP1 SSTORE POP PUSH2 0x180 DUP3 ADD MLOAD DUP2 PUSH1 0xA ADD PUSH1 0x2 PUSH2 0x100 EXP DUP2 SLOAD DUP2 PUSH1 0xFF MUL NOT AND SWAP1 DUP4 PUSH1 0xFF AND MUL OR SWAP1 SSTORE POP PUSH2 0x1A0 DUP3 ADD MLOAD DUP2 PUSH1 0xA ADD PUSH1 0x3 PUSH2 0x100 EXP DUP2 SLOAD DUP2 PUSH1 0xFF MUL NOT AND SWAP1 DUP4 PUSH1 0xFF AND MUL OR SWAP1 SSTORE POP SWAP1 POP POP PUSH2 0x649 DUP8 DUP10 PUSH2 0x72A JUMP JUMPDEST POP POP POP POP POP POP POP SWAP4 SWAP3 POP POP POP JUMP JUMPDEST PUSH1 0x0 DUP1 SLOAD SWAP1 PUSH2 0x100 EXP SWAP1 DIV PUSH20 0xFFFFFFFFFFFFFFFFFFFFFFFFFFFFFFFFFFFFFFFF AND DUP1 PUSH20 0xFFFFFFFFFFFFFFFFFFFFFFFFFFFFFFFFFFFFFFFF AND CALLER PUSH20 0xFFFFFFFFFFFFFFFFFFFFFFFFFFFFFFFFFFFFFFFF AND EQ PUSH2 0x6E6 JUMPI PUSH1 0x40 MLOAD PUSH32 0x8C379A000000000000000000000000000000000000000000000000000000000 DUP2 MSTORE PUSH1 0x4 ADD PUSH2 0x6DD SWAP1 PUSH2 0x1AAD JUMP JUMPDEST PUSH1 0x40 MLOAD DUP1 SWAP2 SUB SWAP1 REVERT JUMPDEST DUP2 PUSH1 0x0 DUP1 PUSH2 0x100 EXP DUP2 SLOAD DUP2 PUSH20 0xFFFFFFFFFFFFFFFFFFFFFFFFFFFFFFFFFFFFFFFF MUL NOT AND SWAP1 DUP4 PUSH20 0xFFFFFFFFFFFFFFFFFFFFFFFFFFFFFFFFFFFFFFFF AND MUL OR SWAP1 SSTORE POP POP POP JUMP JUMPDEST PUSH1 0x0 DUP1 PUSH1 0x3 PUSH1 0x0 DUP6 DUP2 MSTORE PUSH1 0x20 ADD SWAP1 DUP2 MSTORE PUSH1 0x20 ADD PUSH1 0x0 KECCAK256 SWAP1 POP PUSH1 0x1 PUSH1 0xFF AND DUP2 PUSH1 0xA ADD PUSH1 0x3 SWAP1 SLOAD SWAP1 PUSH2 0x100 EXP SWAP1 DIV PUSH1 0xFF AND PUSH1 0xFF AND EQ PUSH2 0x79C JUMPI PUSH1 0x40 MLOAD PUSH32 0x8C379A000000000000000000000000000000000000000000000000000000000 DUP2 MSTORE PUSH1 0x4 ADD PUSH2 0x793 SWAP1 PUSH2 0x1AED JUMP JUMPDEST PUSH1 0x40 MLOAD DUP1 SWAP2 SUB SWAP1 REVERT JUMPDEST DUP1 PUSH1 0x8 ADD SLOAD PUSH1 0x3 PUSH2 0x7AD SWAP2 SWAP1 PUSH2 0x1D29 JUMP JUMPDEST PUSH1 0x1 SLOAD PUSH2 0x7BA SWAP2 SWAP1 PUSH2 0x1C3A JUMP JUMPDEST CALLVALUE EQ PUSH2 0x7FB JUMPI PUSH1 0x40 MLOAD PUSH32 0x8C379A000000000000000000000000000000000000000000000000000000000 DUP2 MSTORE PUSH1 0x4 ADD PUSH2 0x7F2 SWAP1 PUSH2 0x1A8D JUMP JUMPDEST PUSH1 0x40 MLOAD DUP1 SWAP2 SUB SWAP1 REVERT JUMPDEST PUSH1 0x2 PUSH1 0xFF AND DUP2 PUSH1 0x1 ADD DUP1 SLOAD SWAP1 POP LT PUSH2 0x848 JUMPI PUSH1 0x40 MLOAD PUSH32 0x8C379A000000000000000000000000000000000000000000000000000000000 DUP2 MSTORE PUSH1 0x4 ADD PUSH2 0x83F SWAP1 PUSH2 0x1B0D JUMP JUMPDEST PUSH1 0x40 MLOAD DUP1 SWAP2 SUB SWAP1 REVERT JUMPDEST DUP1 PUSH1 0x1 ADD DUP1 SLOAD SWAP1 POP SWAP2 POP DUP1 PUSH1 0x1 ADD CALLER SWAP1 DUP1 PUSH1 0x1 DUP2 SLOAD ADD DUP1 DUP3 SSTORE DUP1 SWAP2 POP POP PUSH1 0x1 SWAP1 SUB SWAP1 PUSH1 0x0 MSTORE PUSH1 0x20 PUSH1 0x0 KECCAK256 ADD PUSH1 0x0 SWAP1 SWAP2 SWAP1 SWAP2 SWAP1 SWAP2 PUSH2 0x100 EXP DUP2 SLOAD DUP2 PUSH20 0xFFFFFFFFFFFFFFFFFFFFFFFFFFFFFFFFFFFFFFFF MUL NOT AND SWAP1 DUP4 PUSH20 0xFFFFFFFFFFFFFFFFFFFFFFFFFFFFFFFFFFFFFFFF AND MUL OR SWAP1 SSTORE POP DUP1 PUSH1 0x2 ADD DUP4 SWAP1 DUP1 PUSH1 0x1 DUP2 SLOAD ADD DUP1 DUP3 SSTORE DUP1 SWAP2 POP POP PUSH1 0x1 SWAP1 SUB SWAP1 PUSH1 0x0 MSTORE PUSH1 0x20 PUSH1 0x0 KECCAK256 ADD PUSH1 0x0 SWAP1 SWAP2 SWAP1 SWAP2 SWAP1 SWAP2 POP SSTORE PUSH1 0x2 PUSH1 0xFF AND DUP2 PUSH1 0x1 ADD DUP1 SLOAD SWAP1 POP EQ ISZERO PUSH2 0x914 JUMPI PUSH1 0x2 DUP2 PUSH1 0xA ADD PUSH1 0x3 PUSH2 0x100 EXP DUP2 SLOAD DUP2 PUSH1 0xFF MUL NOT AND SWAP1 DUP4 PUSH1 0xFF AND MUL OR SWAP1 SSTORE POP JUMPDEST POP SWAP3 SWAP2 POP POP JUMP JUMPDEST PUSH1 0x0 PUSH1 0x3 PUSH1 0x0 DUP4 DUP2 MSTORE PUSH1 0x20 ADD SWAP1 DUP2 MSTORE PUSH1 0x20 ADD PUSH1 0x0 KECCAK256 SWAP1 POP PUSH1 0x1 PUSH1 0xFF AND DUP2 PUSH1 0xA ADD PUSH1 0x3 SWAP1 SLOAD SWAP1 PUSH2 0x100 EXP SWAP1 DIV PUSH1 0xFF AND PUSH1 0xFF AND EQ PUSH2 0x98C JUMPI PUSH1 0x40 MLOAD PUSH32 0x8C379A000000000000000000000000000000000000000000000000000000000 DUP2 MSTORE PUSH1 0x4 ADD PUSH2 0x983 SWAP1 PUSH2 0x1B2D JUMP JUMPDEST PUSH1 0x40 MLOAD DUP1 SWAP2 SUB SWAP1 REVERT JUMPDEST CALLER PUSH20 0xFFFFFFFFFFFFFFFFFFFFFFFFFFFFFFFFFFFFFFFF AND DUP2 PUSH1 0x0 ADD PUSH1 0x0 SWAP1 SLOAD SWAP1 PUSH2 0x100 EXP SWAP1 DIV PUSH20 0xFFFFFFFFFFFFFFFFFFFFFFFFFFFFFFFFFFFFFFFF AND PUSH20 0xFFFFFFFFFFFFFFFFFFFFFFFFFFFFFFFFFFFFFFFF AND EQ PUSH2 0x9E8 JUMPI PUSH1 0x0 DUP1 REVERT JUMPDEST CALLER PUSH20 0xFFFFFFFFFFFFFFFFFFFFFFFFFFFFFFFFFFFFFFFF AND PUSH2 0x8FC DUP3 PUSH1 0x8 ADD SLOAD PUSH1 0x3 PUSH2 0xA13 SWAP2 SWAP1 PUSH2 0x1D29 JUMP JUMPDEST PUSH1 0x1 SLOAD PUSH2 0xA20 SWAP2 SWAP1 PUSH2 0x1C3A JUMP JUMPDEST SWAP1 DUP2 ISZERO MUL SWAP1 PUSH1 0x40 MLOAD PUSH1 0x0 PUSH1 0x40 MLOAD DUP1 DUP4 SUB DUP2 DUP6 DUP9 DUP9 CALL SWAP4 POP POP POP POP ISZERO DUP1 ISZERO PUSH2 0xA4B JUMPI RETURNDATASIZE PUSH1 0x0 DUP1 RETURNDATACOPY RETURNDATASIZE PUSH1 0x0 REVERT JUMPDEST POP PUSH1 0x6 DUP2 PUSH1 0xA ADD PUSH1 0x3 PUSH2 0x100 EXP DUP2 SLOAD DUP2 PUSH1 0xFF MUL NOT AND SWAP1 DUP4 PUSH1 0xFF AND MUL OR SWAP1 SSTORE POP POP POP JUMP JUMPDEST PUSH1 0x0 PUSH1 0x3 PUSH1 0x0 DUP7 DUP2 MSTORE PUSH1 0x20 ADD SWAP1 DUP2 MSTORE PUSH1 0x20 ADD PUSH1 0x0 KECCAK256 SWAP1 POP PUSH1 0x4 PUSH1 0xFF AND DUP2 PUSH1 0xA ADD PUSH1 0x3 SWAP1 SLOAD SWAP1 PUSH2 0x100 EXP SWAP1 DIV PUSH1 0xFF AND PUSH1 0xFF AND EQ PUSH2 0xADF JUMPI PUSH1 0x40 MLOAD PUSH32 0x8C379A000000000000000000000000000000000000000000000000000000000 DUP2 MSTORE PUSH1 0x4 ADD PUSH2 0xAD6 SWAP1 PUSH2 0x1B6D JUMP JUMPDEST PUSH1 0x40 MLOAD DUP1 SWAP2 SUB SWAP1 REVERT JUMPDEST CALLER PUSH20 0xFFFFFFFFFFFFFFFFFFFFFFFFFFFFFFFFFFFFFFFF AND DUP2 PUSH1 0x1 ADD DUP3 PUSH1 0xA ADD PUSH1 0x1 SWAP1 SLOAD SWAP1 PUSH2 0x100 EXP SWAP1 DIV PUSH1 0xFF AND PUSH1 0xFF AND DUP2 SLOAD DUP2 LT PUSH2 0xB20 JUMPI PUSH2 0xB1F PUSH2 0x1F6E JUMP JUMPDEST JUMPDEST SWAP1 PUSH1 0x0 MSTORE PUSH1 0x20 PUSH1 0x0 KECCAK256 ADD PUSH1 0x0 SWAP1 SLOAD SWAP1 PUSH2 0x100 EXP SWAP1 DIV PUSH20 0xFFFFFFFFFFFFFFFFFFFFFFFFFFFFFFFFFFFFFFFF AND PUSH20 0xFFFFFFFFFFFFFFFFFFFFFFFFFFFFFFFFFFFFFFFF AND EQ PUSH2 0xB6B JUMPI PUSH1 0x0 DUP1 REVERT JUMPDEST PUSH1 0x0 PUSH2 0xBBF DUP3 PUSH1 0xA ADD PUSH1 0x1 SWAP1 SLOAD SWAP1 PUSH2 0x100 EXP SWAP1 DIV PUSH1 0xFF AND PUSH1 0xFF AND DUP4 PUSH1 0x6 ADD SLOAD PUSH2 0xB94 SWAP2 SWAP1 PUSH2 0x1C3A JUMP JUMPDEST PUSH1 0x40 MLOAD PUSH1 0x20 ADD PUSH2 0xBA4 SWAP2 SWAP1 PUSH2 0x1A2D JUMP JUMPDEST PUSH1 0x40 MLOAD PUSH1 0x20 DUP2 DUP4 SUB SUB DUP2 MSTORE SWAP1 PUSH1 0x40 MSTORE DUP1 MLOAD SWAP1 PUSH1 0x20 ADD KECCAK256 PUSH2 0xE73 JUMP JUMPDEST SWAP1 POP PUSH1 0x0 DUP1 PUSH1 0x0 PUSH2 0xBCF DUP9 PUSH2 0xEA3 JUMP JUMPDEST SWAP3 POP SWAP3 POP SWAP3 POP CALLER PUSH20 0xFFFFFFFFFFFFFFFFFFFFFFFFFFFFFFFFFFFFFFFF AND PUSH1 0x1 DUP6 DUP6 DUP6 DUP6 PUSH1 0x40 MLOAD PUSH1 0x0 DUP2 MSTORE PUSH1 0x20 ADD PUSH1 0x40 MSTORE PUSH1 0x40 MLOAD PUSH2 0xC0F SWAP5 SWAP4 SWAP3 SWAP2 SWAP1 PUSH2 0x1A48 JUMP JUMPDEST PUSH1 0x20 PUSH1 0x40 MLOAD PUSH1 0x20 DUP2 SUB SWAP1 DUP1 DUP5 SUB SWAP1 DUP6 GAS STATICCALL ISZERO DUP1 ISZERO PUSH2 0xC31 JUMPI RETURNDATASIZE PUSH1 0x0 DUP1 RETURNDATACOPY RETURNDATASIZE PUSH1 0x0 REVERT JUMPDEST POP POP POP PUSH1 0x20 PUSH1 0x40 MLOAD SUB MLOAD PUSH20 0xFFFFFFFFFFFFFFFFFFFFFFFFFFFFFFFFFFFFFFFF AND EQ PUSH2 0xC91 JUMPI PUSH1 0x40 MLOAD PUSH32 0x8C379A000000000000000000000000000000000000000000000000000000000 DUP2 MSTORE PUSH1 0x4 ADD PUSH2 0xC88 SWAP1 PUSH2 0x1B8D JUMP JUMPDEST PUSH1 0x40 MLOAD DUP1 SWAP2 SUB SWAP1 REVERT JUMPDEST PUSH1 0x0 DUP1 PUSH2 0xC9F DUP6 DUP6 DUP6 PUSH2 0xED5 JUMP JUMPDEST SWAP2 POP SWAP2 POP PUSH2 0xD27 DUP10 DUP4 DUP4 DUP11 PUSH1 0x5 ADD DUP1 SLOAD DUP1 PUSH1 0x20 MUL PUSH1 0x20 ADD PUSH1 0x40 MLOAD SWAP1 DUP2 ADD PUSH1 0x40 MSTORE DUP1 SWAP3 SWAP2 SWAP1 DUP2 DUP2 MSTORE PUSH1 0x20 ADD DUP3 DUP1 SLOAD DUP1 ISZERO PUSH2 0xD1D JUMPI PUSH1 0x20 MUL DUP3 ADD SWAP2 SWAP1 PUSH1 0x0 MSTORE PUSH1 0x20 PUSH1 0x0 KECCAK256 SWAP1 PUSH1 0x0 SWAP1 JUMPDEST DUP3 DUP3 SWAP1 SLOAD SWAP1 PUSH2 0x100 EXP SWAP1 DIV PUSH1 0xFF AND PUSH1 0xFF AND DUP2 MSTORE PUSH1 0x20 ADD SWAP1 PUSH1 0x1 ADD SWAP1 PUSH1 0x20 DUP3 PUSH1 0x0 ADD DIV SWAP3 DUP4 ADD SWAP3 PUSH1 0x1 SUB DUP3 MUL SWAP2 POP DUP1 DUP5 GT PUSH2 0xCE6 JUMPI SWAP1 POP JUMPDEST POP POP POP POP POP PUSH2 0xF96 JUMP JUMPDEST PUSH2 0xD30 JUMPI PUSH1 0x0 DUP1 REVERT JUMPDEST PUSH2 0xD3A DUP10 DUP10 PUSH2 0x1071 JUMP JUMPDEST PUSH2 0xD43 JUMPI PUSH1 0x0 DUP1 REVERT JUMPDEST DUP9 DUP8 PUSH1 0x3 ADD DUP9 PUSH1 0xA ADD PUSH1 0x1 SWAP1 SLOAD SWAP1 PUSH2 0x100 EXP SWAP1 DIV PUSH1 0xFF AND PUSH1 0xFF AND DUP2 SLOAD DUP2 LT PUSH2 0xD6E JUMPI PUSH2 0xD6D PUSH2 0x1F6E JUMP JUMPDEST JUMPDEST SWAP1 PUSH1 0x0 MSTORE PUSH1 0x20 PUSH1 0x0 KECCAK256 ADD DUP2 SWAP1 SSTORE POP DUP8 DUP8 PUSH1 0x4 ADD DUP9 PUSH1 0xA ADD PUSH1 0x1 SWAP1 SLOAD SWAP1 PUSH2 0x100 EXP SWAP1 DIV PUSH1 0xFF AND PUSH1 0xFF AND DUP2 SLOAD DUP2 LT PUSH2 0xDA7 JUMPI PUSH2 0xDA6 PUSH2 0x1F6E JUMP JUMPDEST JUMPDEST SWAP1 PUSH1 0x0 MSTORE PUSH1 0x20 PUSH1 0x0 KECCAK256 SWAP1 PUSH1 0x20 SWAP2 DUP3 DUP3 DIV ADD SWAP2 SWAP1 MOD PUSH2 0x100 EXP DUP2 SLOAD DUP2 PUSH1 0xFF MUL NOT AND SWAP1 DUP4 PUSH1 0xFF AND MUL OR SWAP1 SSTORE POP PUSH1 0x2 PUSH1 0x1 DUP9 PUSH1 0xA ADD PUSH1 0x1 SWAP1 SLOAD SWAP1 PUSH2 0x100 EXP SWAP1 DIV PUSH1 0xFF AND PUSH2 0xDF1 SWAP2 SWAP1 PUSH2 0x1C90 JUMP JUMPDEST PUSH2 0xDFB SWAP2 SWAP1 PUSH2 0x1EDF JUMP JUMPDEST DUP8 PUSH1 0xA ADD PUSH1 0x1 PUSH2 0x100 EXP DUP2 SLOAD DUP2 PUSH1 0xFF MUL NOT AND SWAP1 DUP4 PUSH1 0xFF AND MUL OR SWAP1 SSTORE POP DUP7 PUSH1 0xA ADD PUSH1 0x0 SWAP1 SLOAD SWAP1 PUSH2 0x100 EXP SWAP1 DIV PUSH1 0xFF AND PUSH1 0xFF AND DUP8 PUSH1 0xA ADD PUSH1 0x1 SWAP1 SLOAD SWAP1 PUSH2 0x100 EXP SWAP1 DIV PUSH1 0xFF AND PUSH1 0xFF AND EQ ISZERO PUSH2 0xE66 JUMPI PUSH1 0x5 DUP8 PUSH1 0xA ADD PUSH1 0x3 PUSH2 0x100 EXP DUP2 SLOAD DUP2 PUSH1 0xFF MUL NOT AND SWAP1 DUP4 PUSH1 0xFF AND MUL OR SWAP1 SSTORE POP JUMPDEST POP POP POP POP POP POP POP POP POP POP POP JUMP JUMPDEST PUSH1 0x0 DUP2 PUSH1 0x40 MLOAD PUSH1 0x20 ADD PUSH2 0xE86 SWAP2 SWAP1 PUSH2 0x1A07 JUMP JUMPDEST PUSH1 0x40 MLOAD PUSH1 0x20 DUP2 DUP4 SUB SUB DUP2 MSTORE SWAP1 PUSH1 0x40 MSTORE DUP1 MLOAD SWAP1 PUSH1 0x20 ADD KECCAK256 SWAP1 POP SWAP2 SWAP1 POP JUMP JUMPDEST PUSH1 0x0 DUP1 PUSH1 0x0 PUSH1 0x41 DUP5 MLOAD EQ PUSH2 0xEB6 JUMPI PUSH1 0x0 DUP1 REVERT JUMPDEST PUSH1 0x20 DUP5 ADD MLOAD SWAP2 POP PUSH1 0x40 DUP5 ADD MLOAD SWAP1 POP PUSH1 0x60 DUP5 ADD MLOAD PUSH1 0x0 BYTE SWAP3 POP SWAP2 SWAP4 SWAP1 SWAP3 POP JUMP JUMPDEST PUSH1 0x0 DUP1 PUSH1 0x0 PUSH1 0x34 PUSH1 0xFF AND DUP7 PUSH1 0x7 PUSH2 0xEEC SWAP2 SWAP1 PUSH2 0x1D83 JUMP JUMPDEST PUSH1 0xFF AND DUP7 PUSH1 0x0 SHR PUSH1 0x5 PUSH2 0xEFF SWAP2 SWAP1 PUSH2 0x1D29 JUMP JUMPDEST DUP7 PUSH1 0x0 SHR PUSH1 0x3 PUSH2 0xF0F SWAP2 SWAP1 PUSH2 0x1D29 JUMP JUMPDEST PUSH2 0xF19 SWAP2 SWAP1 PUSH2 0x1C3A JUMP JUMPDEST PUSH2 0xF23 SWAP2 SWAP1 PUSH2 0x1C3A JUMP JUMPDEST PUSH2 0xF2D SWAP2 SWAP1 PUSH2 0x1EAE JUMP JUMPDEST SWAP1 POP PUSH1 0x0 PUSH1 0x34 PUSH1 0xFF AND DUP8 PUSH1 0x11 PUSH2 0xF43 SWAP2 SWAP1 PUSH2 0x1D83 JUMP JUMPDEST PUSH1 0xFF AND DUP8 PUSH1 0x0 SHR PUSH1 0xD PUSH2 0xF56 SWAP2 SWAP1 PUSH2 0x1D29 JUMP JUMPDEST DUP8 PUSH1 0x0 SHR PUSH1 0xB PUSH2 0xF66 SWAP2 SWAP1 PUSH2 0x1D29 JUMP JUMPDEST PUSH2 0xF70 SWAP2 SWAP1 PUSH2 0x1C3A JUMP JUMPDEST PUSH2 0xF7A SWAP2 SWAP1 PUSH2 0x1C3A JUMP JUMPDEST PUSH2 0xF84 SWAP2 SWAP1 PUSH2 0x1EAE JUMP JUMPDEST SWAP1 POP DUP2 DUP2 SWAP4 POP SWAP4 POP POP POP SWAP4 POP SWAP4 SWAP2 POP POP JUMP JUMPDEST PUSH1 0x0 DUP1 PUSH1 0x0 SWAP1 POP JUMPDEST PUSH1 0x5 DUP2 LT ISZERO PUSH2 0x1063 JUMPI PUSH1 0x0 PUSH1 0x34 PUSH1 0xFF AND DUP8 PUSH2 0xFB9 SWAP2 SWAP1 PUSH2 0x1EAE JUMP JUMPDEST SWAP1 POP PUSH1 0x34 PUSH1 0xFF AND DUP8 PUSH2 0xFCB SWAP2 SWAP1 PUSH2 0x1CC7 JUMP JUMPDEST SWAP7 POP DUP6 PUSH1 0xFF AND DUP2 PUSH1 0xFF AND EQ ISZERO DUP1 ISZERO PUSH2 0xFE9 JUMPI POP DUP5 PUSH1 0xFF AND DUP2 PUSH1 0xFF AND EQ ISZERO JUMPDEST ISZERO PUSH2 0x1051 JUMPI PUSH1 0x0 DUP1 JUMPDEST DUP6 MLOAD DUP2 LT ISZERO PUSH2 0x103D JUMPI DUP6 DUP2 DUP2 MLOAD DUP2 LT PUSH2 0x100E JUMPI PUSH2 0x100D PUSH2 0x1F6E JUMP JUMPDEST JUMPDEST PUSH1 0x20 MUL PUSH1 0x20 ADD ADD MLOAD PUSH1 0xFF AND DUP4 PUSH1 0xFF AND EQ ISZERO PUSH2 0x102C JUMPI PUSH1 0x1 SWAP2 POP PUSH2 0x103D JUMP JUMPDEST DUP1 PUSH2 0x1036 SWAP1 PUSH2 0x1E51 JUMP JUMPDEST SWAP1 POP PUSH2 0xFF2 JUMP JUMPDEST POP DUP1 PUSH2 0x104F JUMPI PUSH1 0x0 SWAP4 POP POP POP POP PUSH2 0x1069 JUMP JUMPDEST POP JUMPDEST POP DUP1 PUSH2 0x105C SWAP1 PUSH2 0x1E51 JUMP JUMPDEST SWAP1 POP PUSH2 0xF9E JUMP JUMPDEST POP PUSH1 0x1 SWAP1 POP JUMPDEST SWAP5 SWAP4 POP POP POP POP JUMP JUMPDEST PUSH1 0x0 DUP1 PUSH1 0xFF AND DUP3 PUSH1 0xFF AND EQ ISZERO PUSH2 0x108A JUMPI PUSH1 0x1 SWAP1 POP PUSH2 0x11D5 JUMP JUMPDEST PUSH1 0x1 PUSH1 0xFF AND DUP3 PUSH1 0xFF AND EQ ISZERO PUSH2 0x10AD JUMPI PUSH2 0x10A6 DUP4 PUSH1 0x2 PUSH1 0x0 PUSH2 0x11DB JUMP JUMPDEST SWAP1 POP PUSH2 0x11D5 JUMP JUMPDEST PUSH1 0x2 PUSH1 0xFF AND DUP3 PUSH1 0xFF AND EQ ISZERO PUSH2 0x10E4 JUMPI PUSH2 0x10C9 DUP4 PUSH1 0x2 PUSH1 0x0 PUSH2 0x11DB JUMP JUMPDEST DUP1 ISZERO PUSH2 0x10DD JUMPI POP PUSH2 0x10DC DUP4 PUSH1 0x2 DUP1 PUSH2 0x11DB JUMP JUMPDEST JUMPDEST SWAP1 POP PUSH2 0x11D5 JUMP JUMPDEST PUSH1 0x3 PUSH1 0xFF AND DUP3 PUSH1 0xFF AND EQ ISZERO PUSH2 0x1107 JUMPI PUSH2 0x1100 DUP4 PUSH1 0x3 PUSH1 0x0 PUSH2 0x11DB JUMP JUMPDEST SWAP1 POP PUSH2 0x11D5 JUMP JUMPDEST PUSH1 0x4 PUSH1 0xFF AND DUP3 PUSH1 0xFF AND EQ ISZERO PUSH2 0x1126 JUMPI PUSH2 0x111F DUP4 PUSH2 0x129C JUMP JUMPDEST SWAP1 POP PUSH2 0x11D5 JUMP JUMPDEST PUSH1 0x5 PUSH1 0xFF AND DUP3 PUSH1 0xFF AND EQ ISZERO PUSH2 0x1145 JUMPI PUSH2 0x113E DUP4 PUSH2 0x1338 JUMP JUMPDEST SWAP1 POP PUSH2 0x11D5 JUMP JUMPDEST PUSH1 0x6 PUSH1 0xFF AND DUP3 PUSH1 0xFF AND EQ ISZERO PUSH2 0x117D JUMPI PUSH2 0x1161 DUP4 PUSH1 0x3 PUSH1 0x0 PUSH2 0x11DB JUMP JUMPDEST DUP1 ISZERO PUSH2 0x1176 JUMPI POP PUSH2 0x1175 DUP4 PUSH1 0x2 PUSH1 0x3 PUSH2 0x11DB JUMP JUMPDEST JUMPDEST SWAP1 POP PUSH2 0x11D5 JUMP JUMPDEST PUSH1 0x7 PUSH1 0xFF AND DUP3 PUSH1 0xFF AND EQ ISZERO PUSH2 0x11A0 JUMPI PUSH2 0x1199 DUP4 PUSH1 0x4 PUSH1 0x0 PUSH2 0x11DB JUMP JUMPDEST SWAP1 POP PUSH2 0x11D5 JUMP JUMPDEST PUSH1 0x8 PUSH1 0xFF AND DUP3 PUSH1 0xFF AND EQ ISZERO PUSH2 0x11D0 JUMPI PUSH2 0x11B8 DUP4 PUSH2 0x129C JUMP JUMPDEST DUP1 ISZERO PUSH2 0x11C9 JUMPI POP PUSH2 0x11C8 DUP4 PUSH2 0x1338 JUMP JUMPDEST JUMPDEST SWAP1 POP PUSH2 0x11D5 JUMP JUMPDEST PUSH1 0x0 SWAP1 POP JUMPDEST SWAP3 SWAP2 POP POP JUMP JUMPDEST PUSH1 0x0 DUP1 DUP4 SWAP1 POP PUSH1 0x0 JUMPDEST PUSH1 0x5 DUP2 LT ISZERO PUSH2 0x128E JUMPI PUSH1 0x0 DUP6 PUSH1 0xFF AND DUP8 PUSH2 0x11FE SWAP2 SWAP1 PUSH2 0x1EAE JUMP JUMPDEST SWAP1 POP PUSH1 0x0 PUSH1 0x4 DUP3 PUSH2 0x120F SWAP2 SWAP1 PUSH2 0x1CF8 JUMP JUMPDEST SWAP1 POP DUP7 PUSH1 0xFF AND DUP9 PUSH2 0x1220 SWAP2 SWAP1 PUSH2 0x1CC7 JUMP JUMPDEST SWAP8 POP DUP6 PUSH1 0xFF AND DUP4 LT ISZERO DUP1 ISZERO PUSH2 0x1242 JUMPI POP DUP7 DUP7 PUSH2 0x123C SWAP2 SWAP1 PUSH2 0x1C90 JUMP JUMPDEST PUSH1 0xFF AND DUP4 LT JUMPDEST ISZERO PUSH2 0x127A JUMPI DUP7 PUSH1 0xFF AND DUP5 PUSH1 0xFF AND EQ ISZERO PUSH2 0x125F JUMPI DUP1 SWAP4 POP POP POP PUSH2 0x127D JUMP JUMPDEST DUP1 PUSH1 0xFF AND DUP5 PUSH1 0xFF AND EQ PUSH2 0x1279 JUMPI PUSH1 0x0 SWAP5 POP POP POP POP POP PUSH2 0x1295 JUMP JUMPDEST JUMPDEST POP POP JUMPDEST DUP1 PUSH2 0x1287 SWAP1 PUSH2 0x1E51 JUMP JUMPDEST SWAP1 POP PUSH2 0x11E4 JUMP JUMPDEST POP PUSH1 0x1 SWAP2 POP POP JUMPDEST SWAP4 SWAP3 POP POP POP JUMP JUMPDEST PUSH1 0x0 DUP1 PUSH1 0x34 SWAP1 POP PUSH1 0x0 JUMPDEST PUSH1 0x5 DUP2 LT ISZERO PUSH2 0x132C JUMPI PUSH1 0x0 PUSH1 0x34 PUSH1 0xFF AND DUP6 PUSH2 0x12C1 SWAP2 SWAP1 PUSH2 0x1EAE JUMP JUMPDEST SWAP1 POP PUSH1 0x0 PUSH1 0x4 DUP3 PUSH2 0x12D2 SWAP2 SWAP1 PUSH2 0x1CF8 JUMP JUMPDEST SWAP1 POP PUSH1 0x34 PUSH1 0xFF AND DUP7 PUSH2 0x12E4 SWAP2 SWAP1 PUSH2 0x1CC7 JUMP JUMPDEST SWAP6 POP PUSH1 0x0 DUP4 GT ISZERO PUSH2 0x1316 JUMPI DUP4 PUSH1 0xFF AND PUSH1 0x1 DUP3 PUSH2 0x1300 SWAP2 SWAP1 PUSH2 0x1C90 JUMP JUMPDEST PUSH1 0xFF AND EQ PUSH2 0x1315 JUMPI PUSH1 0x0 SWAP5 POP POP POP POP POP PUSH2 0x1333 JUMP JUMPDEST JUMPDEST DUP1 SWAP4 POP POP POP DUP1 PUSH2 0x1325 SWAP1 PUSH2 0x1E51 JUMP JUMPDEST SWAP1 POP PUSH2 0x12A6 JUMP JUMPDEST POP PUSH1 0x1 SWAP2 POP POP JUMPDEST SWAP2 SWAP1 POP JUMP JUMPDEST PUSH1 0x0 DUP1 PUSH1 0x34 SWAP1 POP PUSH1 0x0 JUMPDEST PUSH1 0x5 DUP2 LT ISZERO PUSH2 0x13C9 JUMPI PUSH1 0x0 PUSH1 0x34 PUSH1 0xFF AND DUP6 PUSH2 0x135D SWAP2 SWAP1 PUSH2 0x1EAE JUMP JUMPDEST SWAP1 POP PUSH1 0x0 PUSH1 0x4 DUP3 PUSH2 0x136E SWAP2 SWAP1 PUSH2 0x1EDF JUMP JUMPDEST SWAP1 POP PUSH1 0x34 PUSH1 0xFF AND DUP7 PUSH2 0x1380 SWAP2 SWAP1 PUSH2 0x1CC7 JUMP JUMPDEST SWAP6 POP PUSH1 0x34 PUSH1 0xFF AND DUP5 PUSH1 0xFF AND EQ ISZERO PUSH2 0x139B JUMPI DUP1 SWAP4 POP POP POP PUSH2 0x13B8 JUMP JUMPDEST DUP1 PUSH1 0xFF AND DUP5 PUSH1 0xFF AND EQ PUSH2 0x13B5 JUMPI PUSH1 0x0 SWAP5 POP POP POP POP POP PUSH2 0x13D0 JUMP JUMPDEST POP POP JUMPDEST DUP1 PUSH2 0x13C2 SWAP1 PUSH2 0x1E51 JUMP JUMPDEST SWAP1 POP PUSH2 0x1342 JUMP JUMPDEST POP PUSH1 0x1 SWAP2 POP POP JUMPDEST SWAP2 SWAP1 POP JUMP JUMPDEST DUP3 DUP1 SLOAD DUP3 DUP3 SSTORE SWAP1 PUSH1 0x0 MSTORE PUSH1 0x20 PUSH1 0x0 KECCAK256 SWAP1 DUP2 ADD SWAP3 DUP3 ISZERO PUSH2 0x144E JUMPI SWAP2 PUSH1 0x20 MUL DUP3 ADD JUMPDEST DUP3 DUP2 GT ISZERO PUSH2 0x144D JUMPI DUP3 MLOAD DUP3 PUSH1 0x0 PUSH2 0x100 EXP DUP2 SLOAD DUP2 PUSH20 0xFFFFFFFFFFFFFFFFFFFFFFFFFFFFFFFFFFFFFFFF MUL NOT AND SWAP1 DUP4 PUSH20 0xFFFFFFFFFFFFFFFFFFFFFFFFFFFFFFFFFFFFFFFF AND MUL OR SWAP1 SSTORE POP SWAP2 PUSH1 0x20 ADD SWAP2 SWAP1 PUSH1 0x1 ADD SWAP1 PUSH2 0x13F5 JUMP JUMPDEST JUMPDEST POP SWAP1 POP PUSH2 0x145B SWAP2 SWAP1 PUSH2 0x15A0 JUMP JUMPDEST POP SWAP1 JUMP JUMPDEST DUP3 DUP1 SLOAD DUP3 DUP3 SSTORE SWAP1 PUSH1 0x0 MSTORE PUSH1 0x20 PUSH1 0x0 KECCAK256 SWAP1 DUP2 ADD SWAP3 DUP3 ISZERO PUSH2 0x149B JUMPI SWAP2 PUSH1 0x20 MUL DUP3 ADD JUMPDEST DUP3 DUP2 GT ISZERO PUSH2 0x149A JUMPI DUP3 MLOAD DUP3 SSTORE SWAP2 PUSH1 0x20 ADD SWAP2 SWAP1 PUSH1 0x1 ADD SWAP1 PUSH2 0x147F JUMP JUMPDEST JUMPDEST POP SWAP1 POP PUSH2 0x14A8 SWAP2 SWAP1 PUSH2 0x15BD JUMP JUMPDEST POP SWAP1 JUMP JUMPDEST DUP3 DUP1 SLOAD DUP3 DUP3 SSTORE SWAP1 PUSH1 0x0 MSTORE PUSH1 0x20 PUSH1 0x0 KECCAK256 SWAP1 DUP2 ADD SWAP3 DUP3 ISZERO PUSH2 0x14E8 JUMPI SWAP2 PUSH1 0x20 MUL DUP3 ADD JUMPDEST DUP3 DUP2 GT ISZERO PUSH2 0x14E7 JUMPI DUP3 MLOAD DUP3 SSTORE SWAP2 PUSH1 0x20 ADD SWAP2 SWAP1 PUSH1 0x1 ADD SWAP1 PUSH2 0x14CC JUMP JUMPDEST JUMPDEST POP SWAP1 POP PUSH2 0x14F5 SWAP2 SWAP1 PUSH2 0x15A0 JUMP JUMPDEST POP SWAP1 JUMP JUMPDEST DUP3 DUP1 SLOAD DUP3 DUP3 SSTORE SWAP1 PUSH1 0x0 MSTORE PUSH1 0x20 PUSH1 0x0 KECCAK256 SWAP1 PUSH1 0x1F ADD PUSH1 0x20 SWAP1 DIV DUP2 ADD SWAP3 DUP3 ISZERO PUSH2 0x158F JUMPI SWAP2 PUSH1 0x20 MUL DUP3 ADD PUSH1 0x0 JUMPDEST DUP4 DUP3 GT ISZERO PUSH2 0x1560 JUMPI DUP4 MLOAD DUP4 DUP3 PUSH2 0x100 EXP DUP2 SLOAD DUP2 PUSH1 0xFF MUL NOT AND SWAP1 DUP4 PUSH1 0xFF AND MUL OR SWAP1 SSTORE POP SWAP3 PUSH1 0x20 ADD SWAP3 PUSH1 0x1 ADD PUSH1 0x20 DUP2 PUSH1 0x0 ADD DIV SWAP3 DUP4 ADD SWAP3 PUSH1 0x1 SUB MUL PUSH2 0x1522 JUMP JUMPDEST DUP1 ISZERO PUSH2 0x158D JUMPI DUP3 DUP2 PUSH2 0x100 EXP DUP2 SLOAD SWAP1 PUSH1 0xFF MUL NOT AND SWAP1 SSTORE PUSH1 0x1 ADD PUSH1 0x20 DUP2 PUSH1 0x0 ADD DIV SWAP3 DUP4 ADD SWAP3 PUSH1 0x1 SUB MUL PUSH2 0x1560 JUMP JUMPDEST POP JUMPDEST POP SWAP1 POP PUSH2 0x159C SWAP2 SWAP1 PUSH2 0x15A0 JUMP JUMPDEST POP SWAP1 JUMP JUMPDEST JUMPDEST DUP1 DUP3 GT ISZERO PUSH2 0x15B9 JUMPI PUSH1 0x0 DUP2 PUSH1 0x0 SWAP1 SSTORE POP PUSH1 0x1 ADD PUSH2 0x15A1 JUMP JUMPDEST POP SWAP1 JUMP JUMPDEST JUMPDEST DUP1 DUP3 GT ISZERO PUSH2 0x15D6 JUMPI PUSH1 0x0 DUP2 PUSH1 0x0 SWAP1 SSTORE POP PUSH1 0x1 ADD PUSH2 0x15BE JUMP JUMPDEST POP SWAP1 JUMP JUMPDEST PUSH1 0x0 PUSH2 0x15ED PUSH2 0x15E8 DUP5 PUSH2 0x1BED JUMP JUMPDEST PUSH2 0x1BC8 JUMP JUMPDEST SWAP1 POP DUP3 DUP2 MSTORE PUSH1 0x20 DUP2 ADD DUP5 DUP5 DUP5 ADD GT ISZERO PUSH2 0x1609 JUMPI PUSH2 0x1608 PUSH2 0x1FD1 JUMP JUMPDEST JUMPDEST PUSH2 0x1614 DUP5 DUP3 DUP6 PUSH2 0x1E11 JUMP JUMPDEST POP SWAP4 SWAP3 POP POP POP JUMP JUMPDEST PUSH1 0x0 DUP2 CALLDATALOAD SWAP1 POP PUSH2 0x162B DUP2 PUSH2 0x21D7 JUMP JUMPDEST SWAP3 SWAP2 POP POP JUMP JUMPDEST PUSH1 0x0 DUP2 CALLDATALOAD SWAP1 POP PUSH2 0x1640 DUP2 PUSH2 0x21EE JUMP JUMPDEST SWAP3 SWAP2 POP POP JUMP JUMPDEST PUSH1 0x0 DUP3 PUSH1 0x1F DUP4 ADD SLT PUSH2 0x165B JUMPI PUSH2 0x165A PUSH2 0x1FCC JUMP JUMPDEST JUMPDEST DUP2 CALLDATALOAD PUSH2 0x166B DUP5 DUP3 PUSH1 0x20 DUP7 ADD PUSH2 0x15DA JUMP JUMPDEST SWAP2 POP POP SWAP3 SWAP2 POP POP JUMP JUMPDEST PUSH1 0x0 DUP2 CALLDATALOAD SWAP1 POP PUSH2 0x1683 DUP2 PUSH2 0x2205 JUMP JUMPDEST SWAP3 SWAP2 POP POP JUMP JUMPDEST PUSH1 0x0 DUP2 CALLDATALOAD SWAP1 POP PUSH2 0x1698 DUP2 PUSH2 0x221C JUMP JUMPDEST SWAP3 SWAP2 POP POP JUMP JUMPDEST PUSH1 0x0 PUSH1 0x20 DUP3 DUP5 SUB SLT ISZERO PUSH2 0x16B4 JUMPI PUSH2 0x16B3 PUSH2 0x1FDB JUMP JUMPDEST JUMPDEST PUSH1 0x0 PUSH2 0x16C2 DUP5 DUP3 DUP6 ADD PUSH2 0x161C JUMP JUMPDEST SWAP2 POP POP SWAP3 SWAP2 POP POP JUMP JUMPDEST PUSH1 0x0 PUSH1 0x20 DUP3 DUP5 SUB SLT ISZERO PUSH2 0x16E1 JUMPI PUSH2 0x16E0 PUSH2 0x1FDB JUMP JUMPDEST JUMPDEST PUSH1 0x0 PUSH2 0x16EF DUP5 DUP3 DUP6 ADD PUSH2 0x1674 JUMP JUMPDEST SWAP2 POP POP SWAP3 SWAP2 POP POP JUMP JUMPDEST PUSH1 0x0 DUP1 PUSH1 0x40 DUP4 DUP6 SUB SLT ISZERO PUSH2 0x170F JUMPI PUSH2 0x170E PUSH2 0x1FDB JUMP JUMPDEST JUMPDEST PUSH1 0x0 PUSH2 0x171D DUP6 DUP3 DUP7 ADD PUSH2 0x1674 JUMP JUMPDEST SWAP3 POP POP PUSH1 0x20 PUSH2 0x172E DUP6 DUP3 DUP7 ADD PUSH2 0x1631 JUMP JUMPDEST SWAP2 POP POP SWAP3 POP SWAP3 SWAP1 POP JUMP JUMPDEST PUSH1 0x0 DUP1 PUSH1 0x0 DUP1 PUSH1 0x80 DUP6 DUP8 SUB SLT ISZERO PUSH2 0x1752 JUMPI PUSH2 0x1751 PUSH2 0x1FDB JUMP JUMPDEST JUMPDEST PUSH1 0x0 PUSH2 0x1760 DUP8 DUP3 DUP9 ADD PUSH2 0x1674 JUMP JUMPDEST SWAP5 POP POP PUSH1 0x20 DUP6 ADD CALLDATALOAD PUSH8 0xFFFFFFFFFFFFFFFF DUP2 GT ISZERO PUSH2 0x1781 JUMPI PUSH2 0x1780 PUSH2 0x1FD6 JUMP JUMPDEST JUMPDEST PUSH2 0x178D DUP8 DUP3 DUP9 ADD PUSH2 0x1646 JUMP JUMPDEST SWAP4 POP POP PUSH1 0x40 PUSH2 0x179E DUP8 DUP3 DUP9 ADD PUSH2 0x1674 JUMP JUMPDEST SWAP3 POP POP PUSH1 0x60 PUSH2 0x17AF DUP8 DUP3 DUP9 ADD PUSH2 0x1689 JUMP JUMPDEST SWAP2 POP POP SWAP3 SWAP6 SWAP2 SWAP5 POP SWAP3 POP JUMP JUMPDEST PUSH1 0x0 DUP1 PUSH1 0x40 DUP4 DUP6 SUB SLT ISZERO PUSH2 0x17D2 JUMPI PUSH2 0x17D1 PUSH2 0x1FDB JUMP JUMPDEST JUMPDEST PUSH1 0x0 PUSH2 0x17E0 DUP6 DUP3 DUP7 ADD PUSH2 0x1674 JUMP JUMPDEST SWAP3 POP POP PUSH1 0x20 PUSH2 0x17F1 DUP6 DUP3 DUP7 ADD PUSH2 0x1674 JUMP JUMPDEST SWAP2 POP POP SWAP3 POP SWAP3 SWAP1 POP JUMP JUMPDEST PUSH1 0x0 DUP1 PUSH1 0x0 PUSH1 0x60 DUP5 DUP7 SUB SLT ISZERO PUSH2 0x1814 JUMPI PUSH2 0x1813 PUSH2 0x1FDB JUMP JUMPDEST JUMPDEST PUSH1 0x0 PUSH2 0x1822 DUP7 DUP3 DUP8 ADD PUSH2 0x1674 JUMP JUMPDEST SWAP4 POP POP PUSH1 0x20 PUSH2 0x1833 DUP7 DUP3 DUP8 ADD PUSH2 0x1674 JUMP JUMPDEST SWAP3 POP POP PUSH1 0x40 PUSH2 0x1844 DUP7 DUP3 DUP8 ADD PUSH2 0x1631 JUMP JUMPDEST SWAP2 POP POP SWAP3 POP SWAP3 POP SWAP3 JUMP JUMPDEST PUSH2 0x1857 DUP2 PUSH2 0x1DD0 JUMP JUMPDEST DUP3 MSTORE POP POP JUMP JUMPDEST PUSH2 0x186E PUSH2 0x1869 DUP3 PUSH2 0x1DD0 JUMP JUMPDEST PUSH2 0x1E9A JUMP JUMPDEST DUP3 MSTORE POP POP JUMP JUMPDEST PUSH1 0x0 PUSH2 0x1881 PUSH1 0x2A DUP4 PUSH2 0x1C1E JUMP JUMPDEST SWAP2 POP PUSH2 0x188C DUP3 PUSH2 0x1FF1 JUMP JUMPDEST PUSH1 0x40 DUP3 ADD SWAP1 POP SWAP2 SWAP1 POP JUMP JUMPDEST PUSH1 0x0 PUSH2 0x18A4 PUSH1 0x1C DUP4 PUSH2 0x1C2F JUMP JUMPDEST SWAP2 POP PUSH2 0x18AF DUP3 PUSH2 0x2040 JUMP JUMPDEST PUSH1 0x1C DUP3 ADD SWAP1 POP SWAP2 SWAP1 POP JUMP JUMPDEST PUSH1 0x0 PUSH2 0x18C7 PUSH1 0x13 DUP4 PUSH2 0x1C1E JUMP JUMPDEST SWAP2 POP PUSH2 0x18D2 DUP3 PUSH2 0x2069 JUMP JUMPDEST PUSH1 0x20 DUP3 ADD SWAP1 POP SWAP2 SWAP1 POP JUMP JUMPDEST PUSH1 0x0 PUSH2 0x18EA PUSH1 0x10 DUP4 PUSH2 0x1C1E JUMP JUMPDEST SWAP2 POP PUSH2 0x18F5 DUP3 PUSH2 0x2092 JUMP JUMPDEST PUSH1 0x20 DUP3 ADD SWAP1 POP SWAP2 SWAP1 POP JUMP JUMPDEST PUSH1 0x0 PUSH2 0x190D PUSH1 0x1F DUP4 PUSH2 0x1C1E JUMP JUMPDEST SWAP2 POP PUSH2 0x1918 DUP3 PUSH2 0x20BB JUMP JUMPDEST PUSH1 0x20 DUP3 ADD SWAP1 POP SWAP2 SWAP1 POP JUMP JUMPDEST PUSH1 0x0 PUSH2 0x1930 PUSH1 0x18 DUP4 PUSH2 0x1C1E JUMP JUMPDEST SWAP2 POP PUSH2 0x193B DUP3 PUSH2 0x20E4 JUMP JUMPDEST PUSH1 0x20 DUP3 ADD SWAP1 POP SWAP2 SWAP1 POP JUMP JUMPDEST PUSH1 0x0 PUSH2 0x1953 PUSH1 0x1E DUP4 PUSH2 0x1C1E JUMP JUMPDEST SWAP2 POP PUSH2 0x195E DUP3 PUSH2 0x210D JUMP JUMPDEST PUSH1 0x20 DUP3 ADD SWAP1 POP SWAP2 SWAP1 POP JUMP JUMPDEST PUSH1 0x0 PUSH2 0x1976 PUSH1 0x2B DUP4 PUSH2 0x1C1E JUMP JUMPDEST SWAP2 POP PUSH2 0x1981 DUP3 PUSH2 0x2136 JUMP JUMPDEST PUSH1 0x40 DUP3 ADD SWAP1 POP SWAP2 SWAP1 POP JUMP JUMPDEST PUSH1 0x0 PUSH2 0x1999 PUSH1 0x13 DUP4 PUSH2 0x1C1E JUMP JUMPDEST SWAP2 POP PUSH2 0x19A4 DUP3 PUSH2 0x2185 JUMP JUMPDEST PUSH1 0x20 DUP3 ADD SWAP1 POP SWAP2 SWAP1 POP JUMP JUMPDEST PUSH1 0x0 PUSH2 0x19BC PUSH1 0xA DUP4 PUSH2 0x1C1E JUMP JUMPDEST SWAP2 POP PUSH2 0x19C7 DUP3 PUSH2 0x21AE JUMP JUMPDEST PUSH1 0x20 DUP3 ADD SWAP1 POP SWAP2 SWAP1 POP JUMP JUMPDEST PUSH2 0x19DB DUP2 PUSH2 0x1DFA JUMP JUMPDEST DUP3 MSTORE POP POP JUMP JUMPDEST PUSH2 0x19F2 PUSH2 0x19ED DUP3 PUSH2 0x1DFA JUMP JUMPDEST PUSH2 0x1EA4 JUMP JUMPDEST DUP3 MSTORE POP POP JUMP JUMPDEST PUSH2 0x1A01 DUP2 PUSH2 0x1E04 JUMP JUMPDEST DUP3 MSTORE POP POP JUMP JUMPDEST PUSH1 0x0 PUSH2 0x1A12 DUP3 PUSH2 0x1897 JUMP JUMPDEST SWAP2 POP PUSH2 0x1A1E DUP3 DUP5 PUSH2 0x185D JUMP JUMPDEST PUSH1 0x20 DUP3 ADD SWAP2 POP DUP2 SWAP1 POP SWAP3 SWAP2 POP POP JUMP JUMPDEST PUSH1 0x0 PUSH2 0x1A39 DUP3 DUP5 PUSH2 0x19E1 JUMP JUMPDEST PUSH1 0x20 DUP3 ADD SWAP2 POP DUP2 SWAP1 POP SWAP3 SWAP2 POP POP JUMP JUMPDEST PUSH1 0x0 PUSH1 0x80 DUP3 ADD SWAP1 POP PUSH2 0x1A5D PUSH1 0x0 DUP4 ADD DUP8 PUSH2 0x184E JUMP JUMPDEST PUSH2 0x1A6A PUSH1 0x20 DUP4 ADD DUP7 PUSH2 0x19F8 JUMP JUMPDEST PUSH2 0x1A77 PUSH1 0x40 DUP4 ADD DUP6 PUSH2 0x184E JUMP JUMPDEST PUSH2 0x1A84 PUSH1 0x60 DUP4 ADD DUP5 PUSH2 0x184E JUMP JUMPDEST SWAP6 SWAP5 POP POP POP POP POP JUMP JUMPDEST PUSH1 0x0 PUSH1 0x20 DUP3 ADD SWAP1 POP DUP2 DUP2 SUB PUSH1 0x0 DUP4 ADD MSTORE PUSH2 0x1AA6 DUP2 PUSH2 0x1874 JUMP JUMPDEST SWAP1 POP SWAP2 SWAP1 POP JUMP JUMPDEST PUSH1 0x0 PUSH1 0x20 DUP3 ADD SWAP1 POP DUP2 DUP2 SUB PUSH1 0x0 DUP4 ADD MSTORE PUSH2 0x1AC6 DUP2 PUSH2 0x18BA JUMP JUMPDEST SWAP1 POP SWAP2 SWAP1 POP JUMP JUMPDEST PUSH1 0x0 PUSH1 0x20 DUP3 ADD SWAP1 POP DUP2 DUP2 SUB PUSH1 0x0 DUP4 ADD MSTORE PUSH2 0x1AE6 DUP2 PUSH2 0x18DD JUMP JUMPDEST SWAP1 POP SWAP2 SWAP1 POP JUMP JUMPDEST PUSH1 0x0 PUSH1 0x20 DUP3 ADD SWAP1 POP DUP2 DUP2 SUB PUSH1 0x0 DUP4 ADD MSTORE PUSH2 0x1B06 DUP2 PUSH2 0x1900 JUMP JUMPDEST SWAP1 POP SWAP2 SWAP1 POP JUMP JUMPDEST PUSH1 0x0 PUSH1 0x20 DUP3 ADD SWAP1 POP DUP2 DUP2 SUB PUSH1 0x0 DUP4 ADD MSTORE PUSH2 0x1B26 DUP2 PUSH2 0x1923 JUMP JUMPDEST SWAP1 POP SWAP2 SWAP1 POP JUMP JUMPDEST PUSH1 0x0 PUSH1 0x20 DUP3 ADD SWAP1 POP DUP2 DUP2 SUB PUSH1 0x0 DUP4 ADD MSTORE PUSH2 0x1B46 DUP2 PUSH2 0x1946 JUMP JUMPDEST SWAP1 POP SWAP2 SWAP1 POP JUMP JUMPDEST PUSH1 0x0 PUSH1 0x20 DUP3 ADD SWAP1 POP DUP2 DUP2 SUB PUSH1 0x0 DUP4 ADD MSTORE PUSH2 0x1B66 DUP2 PUSH2 0x1969 JUMP JUMPDEST SWAP1 POP SWAP2 SWAP1 POP JUMP JUMPDEST PUSH1 0x0 PUSH1 0x20 DUP3 ADD SWAP1 POP DUP2 DUP2 SUB PUSH1 0x0 DUP4 ADD MSTORE PUSH2 0x1B86 DUP2 PUSH2 0x198C JUMP JUMPDEST SWAP1 POP SWAP2 SWAP1 POP JUMP JUMPDEST PUSH1 0x0 PUSH1 0x20 DUP3 ADD SWAP1 POP DUP2 DUP2 SUB PUSH1 0x0 DUP4 ADD MSTORE PUSH2 0x1BA6 DUP2 PUSH2 0x19AF JUMP JUMPDEST SWAP1 POP SWAP2 SWAP1 POP JUMP JUMPDEST PUSH1 0x0 PUSH1 0x20 DUP3 ADD SWAP1 POP PUSH2 0x1BC2 PUSH1 0x0 DUP4 ADD DUP5 PUSH2 0x19D2 JUMP JUMPDEST SWAP3 SWAP2 POP POP JUMP JUMPDEST PUSH1 0x0 PUSH2 0x1BD2 PUSH2 0x1BE3 JUMP JUMPDEST SWAP1 POP PUSH2 0x1BDE DUP3 DUP3 PUSH2 0x1E20 JUMP JUMPDEST SWAP2 SWAP1 POP JUMP JUMPDEST PUSH1 0x0 PUSH1 0x40 MLOAD SWAP1 POP SWAP1 JUMP JUMPDEST PUSH1 0x0 PUSH8 0xFFFFFFFFFFFFFFFF DUP3 GT ISZERO PUSH2 0x1C08 JUMPI PUSH2 0x1C07 PUSH2 0x1F9D JUMP JUMPDEST JUMPDEST PUSH2 0x1C11 DUP3 PUSH2 0x1FE0 JUMP JUMPDEST SWAP1 POP PUSH1 0x20 DUP2 ADD SWAP1 POP SWAP2 SWAP1 POP JUMP JUMPDEST PUSH1 0x0 DUP3 DUP3 MSTORE PUSH1 0x20 DUP3 ADD SWAP1 POP SWAP3 SWAP2 POP POP JUMP JUMPDEST PUSH1 0x0 DUP2 SWAP1 POP SWAP3 SWAP2 POP POP JUMP JUMPDEST PUSH1 0x0 PUSH2 0x1C45 DUP3 PUSH2 0x1DFA JUMP JUMPDEST SWAP2 POP PUSH2 0x1C50 DUP4 PUSH2 0x1DFA JUMP JUMPDEST SWAP3 POP DUP3 PUSH32 0xFFFFFFFFFFFFFFFFFFFFFFFFFFFFFFFFFFFFFFFFFFFFFFFFFFFFFFFFFFFFFFFF SUB DUP3 GT ISZERO PUSH2 0x1C85 JUMPI PUSH2 0x1C84 PUSH2 0x1F10 JUMP JUMPDEST JUMPDEST DUP3 DUP3 ADD SWAP1 POP SWAP3 SWAP2 POP POP JUMP JUMPDEST PUSH1 0x0 PUSH2 0x1C9B DUP3 PUSH2 0x1E04 JUMP JUMPDEST SWAP2 POP PUSH2 0x1CA6 DUP4 PUSH2 0x1E04 JUMP JUMPDEST SWAP3 POP DUP3 PUSH1 0xFF SUB DUP3 GT ISZERO PUSH2 0x1CBC JUMPI PUSH2 0x1CBB PUSH2 0x1F10 JUMP JUMPDEST JUMPDEST DUP3 DUP3 ADD SWAP1 POP SWAP3 SWAP2 POP POP JUMP JUMPDEST PUSH1 0x0 PUSH2 0x1CD2 DUP3 PUSH2 0x1DFA JUMP JUMPDEST SWAP2 POP PUSH2 0x1CDD DUP4 PUSH2 0x1DFA JUMP JUMPDEST SWAP3 POP DUP3 PUSH2 0x1CED JUMPI PUSH2 0x1CEC PUSH2 0x1F3F JUMP JUMPDEST JUMPDEST DUP3 DUP3 DIV SWAP1 POP SWAP3 SWAP2 POP POP JUMP JUMPDEST PUSH1 0x0 PUSH2 0x1D03 DUP3 PUSH2 0x1E04 JUMP JUMPDEST SWAP2 POP PUSH2 0x1D0E DUP4 PUSH2 0x1E04 JUMP JUMPDEST SWAP3 POP DUP3 PUSH2 0x1D1E JUMPI PUSH2 0x1D1D PUSH2 0x1F3F JUMP JUMPDEST JUMPDEST DUP3 DUP3 DIV SWAP1 POP SWAP3 SWAP2 POP POP JUMP JUMPDEST PUSH1 0x0 PUSH2 0x1D34 DUP3 PUSH2 0x1DFA JUMP JUMPDEST SWAP2 POP PUSH2 0x1D3F DUP4 PUSH2 0x1DFA JUMP JUMPDEST SWAP3 POP DUP2 PUSH32 0xFFFFFFFFFFFFFFFFFFFFFFFFFFFFFFFFFFFFFFFFFFFFFFFFFFFFFFFFFFFFFFFF DIV DUP4 GT DUP3 ISZERO ISZERO AND ISZERO PUSH2 0x1D78 JUMPI PUSH2 0x1D77 PUSH2 0x1F10 JUMP JUMPDEST JUMPDEST DUP3 DUP3 MUL SWAP1 POP SWAP3 SWAP2 POP POP JUMP JUMPDEST PUSH1 0x0 PUSH2 0x1D8E DUP3 PUSH2 0x1E04 JUMP JUMPDEST SWAP2 POP PUSH2 0x1D99 DUP4 PUSH2 0x1E04 JUMP JUMPDEST SWAP3 POP DUP2 PUSH1 0xFF DIV DUP4 GT DUP3 ISZERO ISZERO AND ISZERO PUSH2 0x1DB3 JUMPI PUSH2 0x1DB2 PUSH2 0x1F10 JUMP JUMPDEST JUMPDEST DUP3 DUP3 MUL SWAP1 POP SWAP3 SWAP2 POP POP JUMP JUMPDEST PUSH1 0x0 PUSH2 0x1DC9 DUP3 PUSH2 0x1DDA JUMP JUMPDEST SWAP1 POP SWAP2 SWAP1 POP JUMP JUMPDEST PUSH1 0x0 DUP2 SWAP1 POP SWAP2 SWAP1 POP JUMP JUMPDEST PUSH1 0x0 PUSH20 0xFFFFFFFFFFFFFFFFFFFFFFFFFFFFFFFFFFFFFFFF DUP3 AND SWAP1 POP SWAP2 SWAP1 POP JUMP JUMPDEST PUSH1 0x0 DUP2 SWAP1 POP SWAP2 SWAP1 POP JUMP JUMPDEST PUSH1 0x0 PUSH1 0xFF DUP3 AND SWAP1 POP SWAP2 SWAP1 POP JUMP JUMPDEST DUP3 DUP2 DUP4 CALLDATACOPY PUSH1 0x0 DUP4 DUP4 ADD MSTORE POP POP POP JUMP JUMPDEST PUSH2 0x1E29 DUP3 PUSH2 0x1FE0 JUMP JUMPDEST DUP2 ADD DUP2 DUP2 LT PUSH8 0xFFFFFFFFFFFFFFFF DUP3 GT OR ISZERO PUSH2 0x1E48 JUMPI PUSH2 0x1E47 PUSH2 0x1F9D JUMP JUMPDEST JUMPDEST DUP1 PUSH1 0x40 MSTORE POP POP POP JUMP JUMPDEST PUSH1 0x0 PUSH2 0x1E5C DUP3 PUSH2 0x1DFA JUMP JUMPDEST SWAP2 POP PUSH32 0xFFFFFFFFFFFFFFFFFFFFFFFFFFFFFFFFFFFFFFFFFFFFFFFFFFFFFFFFFFFFFFFF DUP3 EQ ISZERO PUSH2 0x1E8F JUMPI PUSH2 0x1E8E PUSH2 0x1F10 JUMP JUMPDEST JUMPDEST PUSH1 0x1 DUP3 ADD SWAP1 POP SWAP2 SWAP1 POP JUMP JUMPDEST PUSH1 0x0 DUP2 SWAP1 POP SWAP2 SWAP1 POP JUMP JUMPDEST PUSH1 0x0 DUP2 SWAP1 POP SWAP2 SWAP1 POP JUMP JUMPDEST PUSH1 0x0 PUSH2 0x1EB9 DUP3 PUSH2 0x1DFA JUMP JUMPDEST SWAP2 POP PUSH2 0x1EC4 DUP4 PUSH2 0x1DFA JUMP JUMPDEST SWAP3 POP DUP3 PUSH2 0x1ED4 JUMPI PUSH2 0x1ED3 PUSH2 0x1F3F JUMP JUMPDEST JUMPDEST DUP3 DUP3 MOD SWAP1 POP SWAP3 SWAP2 POP POP JUMP JUMPDEST PUSH1 0x0 PUSH2 0x1EEA DUP3 PUSH2 0x1E04 JUMP JUMPDEST SWAP2 POP PUSH2 0x1EF5 DUP4 PUSH2 0x1E04 JUMP JUMPDEST SWAP3 POP DUP3 PUSH2 0x1F05 JUMPI PUSH2 0x1F04 PUSH2 0x1F3F JUMP JUMPDEST JUMPDEST DUP3 DUP3 MOD SWAP1 POP SWAP3 SWAP2 POP POP JUMP JUMPDEST PUSH32 0x4E487B7100000000000000000000000000000000000000000000000000000000 PUSH1 0x0 MSTORE PUSH1 0x11 PUSH1 0x4 MSTORE PUSH1 0x24 PUSH1 0x0 REVERT JUMPDEST PUSH32 0x4E487B7100000000000000000000000000000000000000000000000000000000 PUSH1 0x0 MSTORE PUSH1 0x12 PUSH1 0x4 MSTORE PUSH1 0x24 PUSH1 0x0 REVERT JUMPDEST PUSH32 0x4E487B7100000000000000000000000000000000000000000000000000000000 PUSH1 0x0 MSTORE PUSH1 0x32 PUSH1 0x4 MSTORE PUSH1 0x24 PUSH1 0x0 REVERT JUMPDEST PUSH32 0x4E487B7100000000000000000000000000000000000000000000000000000000 PUSH1 0x0 MSTORE PUSH1 0x41 PUSH1 0x4 MSTORE PUSH1 0x24 PUSH1 0x0 REVERT JUMPDEST PUSH1 0x0 DUP1 REVERT JUMPDEST PUSH1 0x0 DUP1 REVERT JUMPDEST PUSH1 0x0 DUP1 REVERT JUMPDEST PUSH1 0x0 DUP1 REVERT JUMPDEST PUSH1 0x0 PUSH1 0x1F NOT PUSH1 0x1F DUP4 ADD AND SWAP1 POP SWAP2 SWAP1 POP JUMP JUMPDEST PUSH32 0x72657175697265206465706F736974206174206C6561737420626967202B2073 PUSH1 0x0 DUP3 ADD MSTORE PUSH32 0x6D616C6C20626C696E6400000000000000000000000000000000000000000000 PUSH1 0x20 DUP3 ADD MSTORE POP JUMP JUMPDEST PUSH32 0x19457468657265756D205369676E6564204D6573736167653A0A333200000000 PUSH1 0x0 DUP3 ADD MSTORE POP JUMP JUMPDEST PUSH32 0x43616C6C6572206973206E6F74206F776E657200000000000000000000000000 PUSH1 0x0 DUP3 ADD MSTORE POP JUMP JUMPDEST PUSH32 0x756E726561636861626C6520636F646500000000000000000000000000000000 PUSH1 0x0 DUP3 ADD MSTORE POP JUMP JUMPDEST PUSH32 0x63616E2774206A6F696E20616C726561647920637265617465642067616D6500 PUSH1 0x0 DUP3 ADD MSTORE POP JUMP JUMPDEST PUSH32 0x63616E2774206A6F696E20746F2066756C6C207461626C650000000000000000 PUSH1 0x0 DUP3 ADD MSTORE POP JUMP JUMPDEST PUSH32 0x63616E2774206573636170652066726F6D20737461727465642067616D650000 PUSH1 0x0 DUP3 ADD MSTORE POP JUMP JUMPDEST PUSH32 0x72657175697265206465706F73697420657175616C7320746F20626967202B20 PUSH1 0x0 DUP3 ADD MSTORE PUSH32 0x736D616C6C20626C696E64000000000000000000000000000000000000000000 PUSH1 0x20 DUP3 ADD MSTORE POP JUMP JUMPDEST PUSH32 0x6578706563742072657665616C20737461676500000000000000000000000000 PUSH1 0x0 DUP3 ADD MSTORE POP JUMP JUMPDEST PUSH32 0x626164207369676E657200000000000000000000000000000000000000000000 PUSH1 0x0 DUP3 ADD MSTORE POP JUMP JUMPDEST PUSH2 0x21E0 DUP2 PUSH2 0x1DBE JUMP JUMPDEST DUP2 EQ PUSH2 0x21EB JUMPI PUSH1 0x0 DUP1 REVERT JUMPDEST POP JUMP JUMPDEST PUSH2 0x21F7 DUP2 PUSH2 0x1DD0 JUMP JUMPDEST DUP2 EQ PUSH2 0x2202 JUMPI PUSH1 0x0 DUP1 REVERT JUMPDEST POP JUMP JUMPDEST PUSH2 0x220E DUP2 PUSH2 0x1DFA JUMP JUMPDEST DUP2 EQ PUSH2 0x2219 JUMPI PUSH1 0x0 DUP1 REVERT JUMPDEST POP JUMP JUMPDEST PUSH2 0x2225 DUP2 PUSH2 0x1E04 JUMP JUMPDEST DUP2 EQ PUSH2 0x2230 JUMPI PUSH1 0x0 DUP1 REVERT JUMPDEST POP JUMP INVALID LOG2 PUSH5 0x6970667358 0x22 SLT KECCAK256 ADD 0xE9 0xA5 0xE0 JUMPDEST PUSH10 0x9458E89427C8119D7595 DELEGATECALL OR PUSH26 0x333F5E7FDDC66DFCC6743463AF64736F6C634300080700330000 "
		},
		"gasEstimates": {
			"creation": {
				"codeDepositCost": "1761800",
				"executionCost": "infinite",
				"totalCost": "infinite"
			},
			"external": {
				"changeOwner(address)": "26916",
				"createGame(uint256,uint256,bytes32)": "infinite",
				"escapeGame(uint256)": "infinite",
				"joinGame(uint256,bytes32)": "infinite",
				"revealCards(uint256,bytes,uint256,uint8)": "infinite",
				"verifyPlayerState(uint256,uint256)": "infinite"
			},
			"internal": {
				"cardId2Obj(uint8)": "infinite",
				"checkClaimedCombination(uint256,uint8)": "infinite",
				"checkClaimedHand(uint256,uint8,uint8,uint8[] memory)": "infinite",
				"checkFlush(uint256)": "infinite",
				"checkNCardsEqual(uint256,uint8,uint8)": "infinite",
				"checkStraight(uint256)": "infinite",
				"parseCards(uint8,bytes32,bytes32)": "infinite",
				"prefixed(bytes32)": "infinite",
				"splitSignature(bytes memory)": "infinite"
			}
		},
		"methodIdentifiers": {
			"changeOwner(address)": "a6f9dae1",
			"createGame(uint256,uint256,bytes32)": "46ac2b99",
			"escapeGame(uint256)": "c642ccfa",
			"joinGame(uint256,bytes32)": "ac952671",
			"revealCards(uint256,bytes,uint256,uint8)": "e826f328",
			"verifyPlayerState(uint256,uint256)": "14331930"
		}
	},
	"abi": [
		{
			"inputs": [
				{
					"internalType": "uint256",
					"name": "_comission",
					"type": "uint256"
				}
			],
			"stateMutability": "nonpayable",
			"type": "constructor"
		},
		{
			"inputs": [
				{
					"internalType": "address",
					"name": "newOwner",
					"type": "address"
				}
			],
			"name": "changeOwner",
			"outputs": [],
			"stateMutability": "nonpayable",
			"type": "function"
		},
		{
			"inputs": [
				{
					"internalType": "uint256",
					"name": "smallBlind",
					"type": "uint256"
				},
				{
					"internalType": "uint256",
					"name": "limit",
					"type": "uint256"
				},
				{
					"internalType": "bytes32",
					"name": "randomStateHash",
					"type": "bytes32"
				}
			],
			"name": "createGame",
			"outputs": [
				{
					"internalType": "uint256",
					"name": "gameId",
					"type": "uint256"
				}
			],
			"stateMutability": "payable",
			"type": "function"
		},
		{
			"inputs": [
				{
					"internalType": "uint256",
					"name": "gameId",
					"type": "uint256"
				}
			],
			"name": "escapeGame",
			"outputs": [],
			"stateMutability": "payable",
			"type": "function"
		},
		{
			"inputs": [
				{
					"internalType": "uint256",
					"name": "gameId",
					"type": "uint256"
				},
				{
					"internalType": "bytes32",
					"name": "randomStateHash",
					"type": "bytes32"
				}
			],
			"name": "joinGame",
			"outputs": [
				{
					"internalType": "uint256",
					"name": "playerId",
					"type": "uint256"
				}
			],
			"stateMutability": "payable",
			"type": "function"
		},
		{
			"inputs": [
				{
					"internalType": "uint256",
					"name": "gameId",
					"type": "uint256"
				},
				{
					"internalType": "bytes",
					"name": "signature",
					"type": "bytes"
				},
				{
					"internalType": "uint256",
					"name": "claimedHand",
					"type": "uint256"
				},
				{
					"internalType": "uint8",
					"name": "claimedCombination",
					"type": "uint8"
				}
			],
			"name": "revealCards",
			"outputs": [],
			"stateMutability": "nonpayable",
			"type": "function"
		},
		{
			"inputs": [
				{
					"internalType": "uint256",
					"name": "gameId",
					"type": "uint256"
				},
				{
					"internalType": "uint256",
					"name": "randomState",
					"type": "uint256"
				}
			],
			"name": "verifyPlayerState",
			"outputs": [],
			"stateMutability": "nonpayable",
			"type": "function"
		}
	]
}