{
	"data": {
		"bytecode": {
			"linkReferences": {},
			"object": "608060405260006002553480156200001657600080fd5b5060405162002d8238038062002d8283398181016040528101906200003c9190620000a1565b336000806101000a81548173ffffffffffffffffffffffffffffffffffffffff021916908373ffffffffffffffffffffffffffffffffffffffff1602179055508060018190555050620000fc565b6000815190506200009b81620000e2565b92915050565b600060208284031215620000ba57620000b9620000dd565b5b6000620000ca848285016200008a565b91505092915050565b6000819050919050565b600080fd5b620000ed81620000d3565b8114620000f957600080fd5b50565b612c76806200010c6000396000f3fe60806040526004361061007b5760003560e01c8063a6f9dae11161004e578063a6f9dae11461011e578063ac95267114610147578063df898e3214610177578063e826f328146101935761007b565b80630f6a565f1461008057806317392fd6146100a957806346ac2b99146100d25780638124ce1d14610102575b600080fd5b34801561008c57600080fd5b506100a760048036038101906100a29190612169565b6101bc565b005b3480156100b557600080fd5b506100d060048036038101906100cb9190611fec565b61046f565b005b6100ec60048036038101906100e79190612116565b61079f565b6040516100f9919061251b565b60405180910390f35b61011c60048036038101906101179190611f7f565b610a76565b005b34801561012a57600080fd5b5061014560048036038101906101409190611f52565b610cb6565b005b610161600480360381019061015c9190611fac565b610d89565b60405161016e9190612536565b60405180910390f35b610191600480360381019061018c91906120d6565b611094565b005b34801561019f57600080fd5b506101ba60048036038101906101b59190612053565b6113af565b005b6000600360008581526020019081526020016000209050600260ff1681600b0160039054906101000a900460ff1660ff1614806102105750600360ff1681600b0160039054906101000a900460ff1660ff16145b61021957600080fd5b600281600b0160019054906101000a900460ff1682600b0160029054906101000a900460ff1660016002600361024f919061270c565b6102599190612747565b6102639190612747565b61026d9190612747565b61027791906128c6565b60ff168260ff161461028857600080fd5b3373ffffffffffffffffffffffffffffffffffffffff16816001018360ff16815481106102b8576102b7612955565b5b9060005260206000200160009054906101000a900473ffffffffffffffffffffffffffffffffffffffff1673ffffffffffffffffffffffffffffffffffffffff161461030357600080fd5b82604051602001610314919061239b565b60405160208183030381529060405280519060200120816002018360ff168154811061034357610342612955565b5b90600052602060002001541461035857600080fd5b8281600601600082825461036c91906125c3565b92505081905550600181600b0160018282829054906101000a900460ff166103949190612619565b92506101000a81548160ff021916908360ff160217905550600260ff1681600b0160019054906101000a900460ff1660ff16141561046957600081600b0160006101000a81548160ff021916908360ff160217905550600260ff1681600b0160039054906101000a900460ff1660ff16141561042957600881600b0160036101000a81548160ff021916908360ff1602179055505b600360ff1681600b0160039054906101000a900460ff1660ff16141561046857600981600b0160036101000a81548160ff021916908360ff1602179055505b5b50505050565b6000600360008681526020019081526020016000209050600b60ff1681600b0160039054906101000a900460ff1660ff1614806104c35750600a60ff1681600b0160039054906101000a900460ff1660ff16145b610502576040517f08c379a00000000000000000000000000000000000000000000000000000000081526004016104f9906124db565b60405180910390fd5b3373ffffffffffffffffffffffffffffffffffffffff16816001018460ff168154811061053257610531612955565b5b9060005260206000200160009054906101000a900473ffffffffffffffffffffffffffffffffffffffff1673ffffffffffffffffffffffffffffffffffffffff161461057d57600080fd5b600260ff1681600101805490501461059457600080fd5b83816002018460ff16815481106105ae576105ad612955565b5b906000526020600020018190555081816004018460ff16815481106105d6576105d5612955565b5b90600052602060002090602091828204019190066101000a81548160ff021916908360ff160217905550600181600b0160018282829054906101000a900460ff166106219190612619565b92506101000a81548160ff021916908360ff160217905550600260ff1681600b0160019054906101000a900460ff1660ff1614156106f657600081600b0160016101000a81548160ff021916908360ff160217905550600a60ff1681600b0160039054906101000a900460ff1660ff1614156106b657600281600b0160036101000a81548160ff021916908360ff1602179055505b600b60ff1681600b0160039054906101000a900460ff1660ff1614156106f557600381600b0160036101000a81548160ff021916908360ff1602179055505b5b8260ff1681600b0160029054906101000a900460ff1660ff161415610741578060080154600261072691906126b2565b81600501600082825461073991906125c3565b925050819055505b8260ff166002600183600b0160029054906101000a900460ff166107659190612619565b61076f91906128c6565b60ff16141561079857806008015481600501600082825461079091906125c3565b925050819055505b5050505050565b6000828460026107af91906126b2565b11156107ba57600080fd5b8360036107c791906126b2565b6001546107d491906125c3565b3414610815576040517f08c379a000000000000000000000000000000000000000000000000000000000815260040161080c9061249b565b60405180910390fd5b600260008154809291906108289061280e565b9190505590506060806060806000604051806101e001604052803373ffffffffffffffffffffffffffffffffffffffff1681526020018681526020018581526020018481526020018381526020016000815260200160008152602001600081526020018a815260200189815260200160008152602001600060ff168152602001600060ff168152602001600060ff168152602001600a60ff168152509050806003600088815260200190815260200160002060008201518160000160006101000a81548173ffffffffffffffffffffffffffffffffffffffff021916908373ffffffffffffffffffffffffffffffffffffffff160217905550602082015181600101908051906020019061093d929190611c67565b50604082015181600201908051906020019061095a929190611cf1565b506060820151816003019080519060200190610977929190611d3e565b506080820151816004019080519060200190610994929190611d8b565b5060a0820151816005015560c0820151816006015560e082015181600701556101008201518160080155610120820151816009015561014082015181600a015561016082015181600b0160006101000a81548160ff021916908360ff16021790555061018082015181600b0160016101000a81548160ff021916908360ff1602179055506101a082015181600b0160026101000a81548160ff021916908360ff1602179055506101c082015181600b0160036101000a81548160ff021916908360ff160217905550905050610a698688610d89565b5050505050509392505050565b6000600360008381526020019081526020016000209050600660ff1681600b0160039054906101000a900460ff1660ff1614610ae7576040517f08c379a0000000000000000000000000000000000000000000000000000000008152600401610ade9061241b565b60405180910390fd5b60008080600090505b83600101805490508160ff161015610bab5782846003018260ff1681548110610b1c57610b1b612955565b5b90600052602060002001541115610b9a57836003018160ff1681548110610b4657610b45612955565b5b90600052602060002001549250836001018160ff1681548110610b6c57610b6b612955565b5b9060005260206000200160009054906101000a900473ffffffffffffffffffffffffffffffffffffffff1691505b80610ba490612857565b9050610af0565b50600183600b0160028282829054906101000a900460ff16610bcd9190612619565b92506101000a81548160ff021916908360ff160217905550600260ff1683600b0160029054906101000a900460ff1660ff161415610c2857600783600b0160036101000a81548160ff021916908360ff160217905550610c65565b600083600b0160016101000a81548160ff021916908360ff160217905550600183600b0160036101000a81548160ff021916908360ff1602179055505b8073ffffffffffffffffffffffffffffffffffffffff166108fc84600501549081150290604051600060405180830381858888f19350505050158015610caf573d6000803e3d6000fd5b5050505050565b60008054906101000a900473ffffffffffffffffffffffffffffffffffffffff168073ffffffffffffffffffffffffffffffffffffffff163373ffffffffffffffffffffffffffffffffffffffff1614610d45576040517f08c379a0000000000000000000000000000000000000000000000000000000008152600401610d3c9061243b565b60405180910390fd5b816000806101000a81548173ffffffffffffffffffffffffffffffffffffffff021916908373ffffffffffffffffffffffffffffffffffffffff1602179055505050565b600080600360008581526020019081526020016000209050600a60ff1681600b0160039054906101000a900460ff1660ff1614610dfb576040517f08c379a0000000000000000000000000000000000000000000000000000000008152600401610df29061245b565b60405180910390fd5b80600801546003610e0c91906126b2565b600154610e1991906125c3565b3414610e5a576040517f08c379a0000000000000000000000000000000000000000000000000000000008152600401610e51906123fb565b60405180910390fd5b600260ff16816001018054905010610ea7576040517f08c379a0000000000000000000000000000000000000000000000000000000008152600401610e9e9061247b565b60405180910390fd5b8060010180549050915080600101339080600181540180825580915050600190039060005260206000200160009091909190916101000a81548173ffffffffffffffffffffffffffffffffffffffff021916908373ffffffffffffffffffffffffffffffffffffffff1602179055508060020183908060018154018082558091505060019003906000526020600020016000909190919091505580600401600090806001815401808255809150506001900390600052602060002090602091828204019190069091909190916101000a81548160ff021916908360ff160217905550600181600b0160018282829054906101000a900460ff16610faa9190612619565b92506101000a81548160ff021916908360ff160217905550600260ff1681600b0160019054906101000a900460ff1660ff16141561100157600281600b0160036101000a81548160ff021916908360ff1602179055505b600260ff168160010180549050141561108d5760008054906101000a900473ffffffffffffffffffffffffffffffffffffffff1673ffffffffffffffffffffffffffffffffffffffff166108fc600154600260ff1661106091906126b2565b9081150290604051600060405180830381858888f1935050505015801561108b573d6000803e3d6000fd5b505b5092915050565b6000600360008481526020019081526020016000209050600860ff1681600b0160039054906101000a900460ff1660ff1614806110e85750600960ff1681600b0160039054906101000a900460ff1660ff16145b6110f157600080fd5b3373ffffffffffffffffffffffffffffffffffffffff1681600101838154811061111e5761111d612955565b5b9060005260206000200160009054906101000a900473ffffffffffffffffffffffffffffffffffffffff1673ffffffffffffffffffffffffffffffffffffffff161461116957600080fd5b81600282600b0160009054906101000a900460ff1683600b0160029054906101000a900460ff1661119a9190612619565b6111a491906128c6565b60ff16146111b157600080fd5b600081600b0160009054906101000a900460ff1660ff1614156111d957600081600a01819055505b3481600a015414806111fb575034600282600a01546111f891906126b2565b11155b801561120b575080600901543411155b61121457600080fd5b3481600501600082825461122891906125c3565b925050819055503481600a01541415801561125a5750600260ff1681600b0160009054906101000a900460ff1660ff16145b1561128c573481600a0181905550600081600b0160006101000a81548160ff021916908360ff160217905550506113ab565b3481600a0181905550600181600b0160008282829054906101000a900460ff166112b69190612619565b92506101000a81548160ff021916908360ff160217905550600260ff1681600b0160009054906101000a900460ff1660ff1614156113a957600081600b0160006101000a81548160ff021916908360ff160217905550600081600b0160016101000a81548160ff021916908360ff160217905550600860ff1681600b0160039054906101000a900460ff1660ff16141561136957600b81600b0160036101000a81548160ff021916908360ff1602179055505b600960ff1681600b0160039054906101000a900460ff1660ff1614156113a857600581600b0160036101000a81548160ff021916908360ff1602179055505b5b505b5050565b6000600360008681526020019081526020016000209050600560ff1681600b0160039054906101000a900460ff1660ff1614611420576040517f08c379a0000000000000000000000000000000000000000000000000000000008152600401611417906124bb565b60405180910390fd5b3373ffffffffffffffffffffffffffffffffffffffff168160010182600b0160009054906101000a900460ff1660ff168154811061146157611460612955565b5b9060005260206000200160009054906101000a900473ffffffffffffffffffffffffffffffffffffffff1673ffffffffffffffffffffffffffffffffffffffff16146114ac57600080fd5b600061150082600b0160009054906101000a900460ff1660ff1683600601546114d591906125c3565b6040516020016114e5919061239b565b604051602081830303815290604052805190602001206116ea565b905060008060006115108861171a565b9250925092503373ffffffffffffffffffffffffffffffffffffffff166001858585856040516000815260200160405260405161155094939291906123b6565b6020604051602081039080840390855afa158015611572573d6000803e3d6000fd5b5050506020604051035173ffffffffffffffffffffffffffffffffffffffff16146115d2576040517f08c379a00000000000000000000000000000000000000000000000000000000081526004016115c9906124fb565b60405180910390fd5b60006115df84848461174c565b90506115eb8882611823565b6115f457600080fd5b6115fe88886118d7565b61160757600080fd5b6116118888611a41565b8660030187600b0160009054906101000a900460ff1660ff168154811061163b5761163a612955565b5b90600052602060002001819055506002600187600b0160009054906101000a900460ff166116699190612619565b61167391906128c6565b86600b0160006101000a81548160ff021916908360ff16021790555085600b0160029054906101000a900460ff1660ff1686600b0160009054906101000a900460ff1660ff1614156116de57600686600b0160036101000a81548160ff021916908360ff1602179055505b50505050505050505050565b6000816040516020016116fd9190612375565b604051602081830303815290604052805190602001209050919050565b6000806000604184511461172d57600080fd5b6020840151915060408401519050606084015160001a92509193909250565b611754611e32565b6000846007611763919061270c565b60ff168460001c600561177691906126b2565b8460001c600361178691906126b2565b61179091906125c3565b61179a91906125c3565b90506117a4611e32565b60005b60058160ff16101561181657603460ff16836117c39190612895565b828260ff16600581106117d9576117d8612955565b5b602002019060ff16908160ff1681525050600d83601f6117f991906126b2565b61180391906125c3565b92508061180f90612857565b90506117a7565b5080925050509392505050565b600080600090505b60058110156118cb576000603460ff16856118469190612895565b9050603460ff16856118589190612650565b94506000805b60058110156118a65785816005811061187a57611879612955565b5b602002015160ff168360ff16141561189557600191506118a6565b8061189f9061280e565b905061185e565b50806118b857600093505050506118d1565b5050806118c49061280e565b905061182b565b50600190505b92915050565b60008060ff168260ff1614156118f05760019050611a3b565b600160ff168260ff1614156119135761190c8360026000611a69565b9050611a3b565b600260ff168260ff16141561194a5761192f8360026000611a69565b8015611943575061194283600280611a69565b5b9050611a3b565b600360ff168260ff16141561196d576119668360036000611a69565b9050611a3b565b600460ff168260ff16141561198c5761198583611b2e565b9050611a3b565b600560ff168260ff1614156119ab576119a483611bca565b9050611a3b565b600660ff168260ff1614156119e3576119c78360036000611a69565b80156119dc57506119db8360026003611a69565b5b9050611a3b565b600760ff168260ff161415611a06576119ff8360046000611a69565b9050611a3b565b600860ff168260ff161415611a3657611a1e83611b2e565b8015611a2f5750611a2e83611bca565b5b9050611a3b565b600090505b92915050565b6000828260ff166316a97400611a5791906126b2565b611a6191906125c3565b905092915050565b6000806034905060005b6005811015611b20576000603460ff1687611a8e9190612895565b90506000600482611a9f9190612681565b9050603460ff1688611ab19190612650565b97508560ff168310158015611ad357508686611acd9190612619565b60ff1683105b15611b0c57603460ff168460ff161415611af1578093505050611b0f565b8060ff168460ff1614611b0b576000945050505050611b27565b5b50505b80611b199061280e565b9050611a73565b5060019150505b9392505050565b6000806034905060005b6005811015611bbe576000603460ff1685611b539190612895565b90506000600482611b649190612681565b9050603460ff1686611b769190612650565b95506000831115611ba8578360ff16600182611b929190612619565b60ff1614611ba7576000945050505050611bc5565b5b809350505080611bb79061280e565b9050611b38565b5060019150505b919050565b6000806034905060005b6005811015611c5b576000603460ff1685611bef9190612895565b90506000600482611c0091906128c6565b9050603460ff1686611c129190612650565b9550603460ff168460ff161415611c2d578093505050611c4a565b8060ff168460ff1614611c47576000945050505050611c62565b50505b80611c549061280e565b9050611bd4565b5060019150505b919050565b828054828255906000526020600020908101928215611ce0579160200282015b82811115611cdf5782518260006101000a81548173ffffffffffffffffffffffffffffffffffffffff021916908373ffffffffffffffffffffffffffffffffffffffff16021790555091602001919060010190611c87565b5b509050611ced9190611e54565b5090565b828054828255906000526020600020908101928215611d2d579160200282015b82811115611d2c578251825591602001919060010190611d11565b5b509050611d3a9190611e71565b5090565b828054828255906000526020600020908101928215611d7a579160200282015b82811115611d79578251825591602001919060010190611d5e565b5b509050611d879190611e54565b5090565b82805482825590600052602060002090601f01602090048101928215611e215791602002820160005b83821115611df257835183826101000a81548160ff021916908360ff1602179055509260200192600101602081600001049283019260010302611db4565b8015611e1f5782816101000a81549060ff0219169055600101602081600001049283019260010302611df2565b505b509050611e2e9190611e54565b5090565b6040518060a00160405280600590602082028036833780820191505090505090565b5b80821115611e6d576000816000905550600101611e55565b5090565b5b80821115611e8a576000816000905550600101611e72565b5090565b6000611ea1611e9c84612576565b612551565b905082815260208101848484011115611ebd57611ebc6129b8565b5b611ec88482856127ce565b509392505050565b600081359050611edf81612be4565b92915050565b600081359050611ef481612bfb565b92915050565b600082601f830112611f0f57611f0e6129b3565b5b8135611f1f848260208601611e8e565b91505092915050565b600081359050611f3781612c12565b92915050565b600081359050611f4c81612c29565b92915050565b600060208284031215611f6857611f676129c2565b5b6000611f7684828501611ed0565b91505092915050565b600060208284031215611f9557611f946129c2565b5b6000611fa384828501611f28565b91505092915050565b60008060408385031215611fc357611fc26129c2565b5b6000611fd185828601611f28565b9250506020611fe285828601611ee5565b9150509250929050565b60008060008060808587031215612006576120056129c2565b5b600061201487828801611f28565b945050602061202587828801611ee5565b935050604061203687828801611f3d565b925050606061204787828801611f3d565b91505092959194509250565b6000806000806080858703121561206d5761206c6129c2565b5b600061207b87828801611f28565b945050602085013567ffffffffffffffff81111561209c5761209b6129bd565b5b6120a887828801611efa565b93505060406120b987828801611f28565b92505060606120ca87828801611f3d565b91505092959194509250565b600080604083850312156120ed576120ec6129c2565b5b60006120fb85828601611f28565b925050602061210c85828601611f28565b9150509250929050565b60008060006060848603121561212f5761212e6129c2565b5b600061213d86828701611f28565b935050602061214e86828701611f28565b925050604061215f86828701611ee5565b9150509250925092565b600080600060608486031215612182576121816129c2565b5b600061219086828701611f28565b93505060206121a186828701611f28565b92505060406121b286828701611f3d565b9150509250925092565b6121c58161278d565b82525050565b6121dc6121d78261278d565b612881565b82525050565b60006121ef602a836125a7565b91506121fa826129d8565b604082019050919050565b60006122126012836125a7565b915061221d82612a27565b602082019050919050565b6000612235601c836125b8565b915061224082612a50565b601c82019050919050565b60006122586013836125a7565b915061226382612a79565b602082019050919050565b600061227b601f836125a7565b915061228682612aa2565b602082019050919050565b600061229e6018836125a7565b91506122a982612acb565b602082019050919050565b60006122c1602b836125a7565b91506122cc82612af4565b604082019050919050565b60006122e46013836125a7565b91506122ef82612b43565b602082019050919050565b6000612307602e836125a7565b915061231282612b6c565b604082019050919050565b600061232a600a836125a7565b915061233582612bbb565b602082019050919050565b612349816127b7565b82525050565b61236061235b826127b7565b61288b565b82525050565b61236f816127c1565b82525050565b600061238082612228565b915061238c82846121cb565b60208201915081905092915050565b60006123a7828461234f565b60208201915081905092915050565b60006080820190506123cb60008301876121bc565b6123d86020830186612366565b6123e560408301856121bc565b6123f260608301846121bc565b95945050505050565b60006020820190508181036000830152612414816121e2565b9050919050565b6000602082019050818103600083015261243481612205565b9050919050565b600060208201905081810360008301526124548161224b565b9050919050565b600060208201905081810360008301526124748161226e565b9050919050565b6000602082019050818103600083015261249481612291565b9050919050565b600060208201905081810360008301526124b4816122b4565b9050919050565b600060208201905081810360008301526124d4816122d7565b9050919050565b600060208201905081810360008301526124f4816122fa565b9050919050565b600060208201905081810360008301526125148161231d565b9050919050565b60006020820190506125306000830184612340565b92915050565b600060208201905061254b6000830184612366565b92915050565b600061255b61256c565b905061256782826127dd565b919050565b6000604051905090565b600067ffffffffffffffff82111561259157612590612984565b5b61259a826129c7565b9050602081019050919050565b600082825260208201905092915050565b600081905092915050565b60006125ce826127b7565b91506125d9836127b7565b9250827fffffffffffffffffffffffffffffffffffffffffffffffffffffffffffffffff0382111561260e5761260d6128f7565b5b828201905092915050565b6000612624826127c1565b915061262f836127c1565b92508260ff03821115612645576126446128f7565b5b828201905092915050565b600061265b826127b7565b9150612666836127b7565b92508261267657612675612926565b5b828204905092915050565b600061268c826127c1565b9150612697836127c1565b9250826126a7576126a6612926565b5b828204905092915050565b60006126bd826127b7565b91506126c8836127b7565b9250817fffffffffffffffffffffffffffffffffffffffffffffffffffffffffffffffff0483118215151615612701576127006128f7565b5b828202905092915050565b6000612717826127c1565b9150612722836127c1565b92508160ff048311821515161561273c5761273b6128f7565b5b828202905092915050565b6000612752826127c1565b915061275d836127c1565b9250828210156127705761276f6128f7565b5b828203905092915050565b600061278682612797565b9050919050565b6000819050919050565b600073ffffffffffffffffffffffffffffffffffffffff82169050919050565b6000819050919050565b600060ff82169050919050565b82818337600083830152505050565b6127e6826129c7565b810181811067ffffffffffffffff8211171561280557612804612984565b5b80604052505050565b6000612819826127b7565b91507fffffffffffffffffffffffffffffffffffffffffffffffffffffffffffffffff82141561284c5761284b6128f7565b5b600182019050919050565b6000612862826127c1565b915060ff821415612876576128756128f7565b5b600182019050919050565b6000819050919050565b6000819050919050565b60006128a0826127b7565b91506128ab836127b7565b9250826128bb576128ba612926565b5b828206905092915050565b60006128d1826127c1565b91506128dc836127c1565b9250826128ec576128eb612926565b5b828206905092915050565b7f4e487b7100000000000000000000000000000000000000000000000000000000600052601160045260246000fd5b7f4e487b7100000000000000000000000000000000000000000000000000000000600052601260045260246000fd5b7f4e487b7100000000000000000000000000000000000000000000000000000000600052603260045260246000fd5b7f4e487b7100000000000000000000000000000000000000000000000000000000600052604160045260246000fd5b600080fd5b600080fd5b600080fd5b600080fd5b6000601f19601f8301169050919050565b7f72657175697265206465706f736974206174206c6561737420626967202b207360008201527f6d616c6c20626c696e6400000000000000000000000000000000000000000000602082015250565b7f65787065637420636c6561722073746167650000000000000000000000000000600082015250565b7f19457468657265756d205369676e6564204d6573736167653a0a333200000000600082015250565b7f43616c6c6572206973206e6f74206f776e657200000000000000000000000000600082015250565b7f63616e2774206a6f696e20616c726561647920637265617465642067616d6500600082015250565b7f63616e2774206a6f696e20746f2066756c6c207461626c650000000000000000600082015250565b7f72657175697265206465706f73697420657175616c7320746f20626967202b2060008201527f736d616c6c20626c696e64000000000000000000000000000000000000000000602082015250565b7f6578706563742072657665616c20737461676500000000000000000000000000600082015250565b7f73686f756c64206861766520737461746520737570706c79206166746572207360008201527f74617274206f72206368616e6765000000000000000000000000000000000000602082015250565b7f626164207369676e657200000000000000000000000000000000000000000000600082015250565b612bed8161277b565b8114612bf857600080fd5b50565b612c048161278d565b8114612c0f57600080fd5b50565b612c1b816127b7565b8114612c2657600080fd5b50565b612c32816127c1565b8114612c3d57600080fd5b5056fea2646970667358221220436676f548ba0d66a7748a7d6a81aa92bede0933ca7721a538d709a274f99a2164736f6c63430008070033",
			"opcodes": "PUSH1 0x80 PUSH1 0x40 MSTORE PUSH1 0x0 PUSH1 0x2 SSTORE CALLVALUE DUP1 ISZERO PUSH3 0x16 JUMPI PUSH1 0x0 DUP1 REVERT JUMPDEST POP PUSH1 0x40 MLOAD PUSH3 0x2D82 CODESIZE SUB DUP1 PUSH3 0x2D82 DUP4 CODECOPY DUP2 DUP2 ADD PUSH1 0x40 MSTORE DUP2 ADD SWAP1 PUSH3 0x3C SWAP2 SWAP1 PUSH3 0xA1 JUMP JUMPDEST CALLER PUSH1 0x0 DUP1 PUSH2 0x100 EXP DUP2 SLOAD DUP2 PUSH20 0xFFFFFFFFFFFFFFFFFFFFFFFFFFFFFFFFFFFFFFFF MUL NOT AND SWAP1 DUP4 PUSH20 0xFFFFFFFFFFFFFFFFFFFFFFFFFFFFFFFFFFFFFFFF AND MUL OR SWAP1 SSTORE POP DUP1 PUSH1 0x1 DUP2 SWAP1 SSTORE POP POP PUSH3 0xFC JUMP JUMPDEST PUSH1 0x0 DUP2 MLOAD SWAP1 POP PUSH3 0x9B DUP2 PUSH3 0xE2 JUMP JUMPDEST SWAP3 SWAP2 POP POP JUMP JUMPDEST PUSH1 0x0 PUSH1 0x20 DUP3 DUP5 SUB SLT ISZERO PUSH3 0xBA JUMPI PUSH3 0xB9 PUSH3 0xDD JUMP JUMPDEST JUMPDEST PUSH1 0x0 PUSH3 0xCA DUP5 DUP3 DUP6 ADD PUSH3 0x8A JUMP JUMPDEST SWAP2 POP POP SWAP3 SWAP2 POP POP JUMP JUMPDEST PUSH1 0x0 DUP2 SWAP1 POP SWAP2 SWAP1 POP JUMP JUMPDEST PUSH1 0x0 DUP1 REVERT JUMPDEST PUSH3 0xED DUP2 PUSH3 0xD3 JUMP JUMPDEST DUP2 EQ PUSH3 0xF9 JUMPI PUSH1 0x0 DUP1 REVERT JUMPDEST POP JUMP JUMPDEST PUSH2 0x2C76 DUP1 PUSH3 0x10C PUSH1 0x0 CODECOPY PUSH1 0x0 RETURN INVALID PUSH1 0x80 PUSH1 0x40 MSTORE PUSH1 0x4 CALLDATASIZE LT PUSH2 0x7B JUMPI PUSH1 0x0 CALLDATALOAD PUSH1 0xE0 SHR DUP1 PUSH4 0xA6F9DAE1 GT PUSH2 0x4E JUMPI DUP1 PUSH4 0xA6F9DAE1 EQ PUSH2 0x11E JUMPI DUP1 PUSH4 0xAC952671 EQ PUSH2 0x147 JUMPI DUP1 PUSH4 0xDF898E32 EQ PUSH2 0x177 JUMPI DUP1 PUSH4 0xE826F328 EQ PUSH2 0x193 JUMPI PUSH2 0x7B JUMP JUMPDEST DUP1 PUSH4 0xF6A565F EQ PUSH2 0x80 JUMPI DUP1 PUSH4 0x17392FD6 EQ PUSH2 0xA9 JUMPI DUP1 PUSH4 0x46AC2B99 EQ PUSH2 0xD2 JUMPI DUP1 PUSH4 0x8124CE1D EQ PUSH2 0x102 JUMPI JUMPDEST PUSH1 0x0 DUP1 REVERT JUMPDEST CALLVALUE DUP1 ISZERO PUSH2 0x8C JUMPI PUSH1 0x0 DUP1 REVERT JUMPDEST POP PUSH2 0xA7 PUSH1 0x4 DUP1 CALLDATASIZE SUB DUP2 ADD SWAP1 PUSH2 0xA2 SWAP2 SWAP1 PUSH2 0x2169 JUMP JUMPDEST PUSH2 0x1BC JUMP JUMPDEST STOP JUMPDEST CALLVALUE DUP1 ISZERO PUSH2 0xB5 JUMPI PUSH1 0x0 DUP1 REVERT JUMPDEST POP PUSH2 0xD0 PUSH1 0x4 DUP1 CALLDATASIZE SUB DUP2 ADD SWAP1 PUSH2 0xCB SWAP2 SWAP1 PUSH2 0x1FEC JUMP JUMPDEST PUSH2 0x46F JUMP JUMPDEST STOP JUMPDEST PUSH2 0xEC PUSH1 0x4 DUP1 CALLDATASIZE SUB DUP2 ADD SWAP1 PUSH2 0xE7 SWAP2 SWAP1 PUSH2 0x2116 JUMP JUMPDEST PUSH2 0x79F JUMP JUMPDEST PUSH1 0x40 MLOAD PUSH2 0xF9 SWAP2 SWAP1 PUSH2 0x251B JUMP JUMPDEST PUSH1 0x40 MLOAD DUP1 SWAP2 SUB SWAP1 RETURN JUMPDEST PUSH2 0x11C PUSH1 0x4 DUP1 CALLDATASIZE SUB DUP2 ADD SWAP1 PUSH2 0x117 SWAP2 SWAP1 PUSH2 0x1F7F JUMP JUMPDEST PUSH2 0xA76 JUMP JUMPDEST STOP JUMPDEST CALLVALUE DUP1 ISZERO PUSH2 0x12A JUMPI PUSH1 0x0 DUP1 REVERT JUMPDEST POP PUSH2 0x145 PUSH1 0x4 DUP1 CALLDATASIZE SUB DUP2 ADD SWAP1 PUSH2 0x140 SWAP2 SWAP1 PUSH2 0x1F52 JUMP JUMPDEST PUSH2 0xCB6 JUMP JUMPDEST STOP JUMPDEST PUSH2 0x161 PUSH1 0x4 DUP1 CALLDATASIZE SUB DUP2 ADD SWAP1 PUSH2 0x15C SWAP2 SWAP1 PUSH2 0x1FAC JUMP JUMPDEST PUSH2 0xD89 JUMP JUMPDEST PUSH1 0x40 MLOAD PUSH2 0x16E SWAP2 SWAP1 PUSH2 0x2536 JUMP JUMPDEST PUSH1 0x40 MLOAD DUP1 SWAP2 SUB SWAP1 RETURN JUMPDEST PUSH2 0x191 PUSH1 0x4 DUP1 CALLDATASIZE SUB DUP2 ADD SWAP1 PUSH2 0x18C SWAP2 SWAP1 PUSH2 0x20D6 JUMP JUMPDEST PUSH2 0x1094 JUMP JUMPDEST STOP JUMPDEST CALLVALUE DUP1 ISZERO PUSH2 0x19F JUMPI PUSH1 0x0 DUP1 REVERT JUMPDEST POP PUSH2 0x1BA PUSH1 0x4 DUP1 CALLDATASIZE SUB DUP2 ADD SWAP1 PUSH2 0x1B5 SWAP2 SWAP1 PUSH2 0x2053 JUMP JUMPDEST PUSH2 0x13AF JUMP JUMPDEST STOP JUMPDEST PUSH1 0x0 PUSH1 0x3 PUSH1 0x0 DUP6 DUP2 MSTORE PUSH1 0x20 ADD SWAP1 DUP2 MSTORE PUSH1 0x20 ADD PUSH1 0x0 KECCAK256 SWAP1 POP PUSH1 0x2 PUSH1 0xFF AND DUP2 PUSH1 0xB ADD PUSH1 0x3 SWAP1 SLOAD SWAP1 PUSH2 0x100 EXP SWAP1 DIV PUSH1 0xFF AND PUSH1 0xFF AND EQ DUP1 PUSH2 0x210 JUMPI POP PUSH1 0x3 PUSH1 0xFF AND DUP2 PUSH1 0xB ADD PUSH1 0x3 SWAP1 SLOAD SWAP1 PUSH2 0x100 EXP SWAP1 DIV PUSH1 0xFF AND PUSH1 0xFF AND EQ JUMPDEST PUSH2 0x219 JUMPI PUSH1 0x0 DUP1 REVERT JUMPDEST PUSH1 0x2 DUP2 PUSH1 0xB ADD PUSH1 0x1 SWAP1 SLOAD SWAP1 PUSH2 0x100 EXP SWAP1 DIV PUSH1 0xFF AND DUP3 PUSH1 0xB ADD PUSH1 0x2 SWAP1 SLOAD SWAP1 PUSH2 0x100 EXP SWAP1 DIV PUSH1 0xFF AND PUSH1 0x1 PUSH1 0x2 PUSH1 0x3 PUSH2 0x24F SWAP2 SWAP1 PUSH2 0x270C JUMP JUMPDEST PUSH2 0x259 SWAP2 SWAP1 PUSH2 0x2747 JUMP JUMPDEST PUSH2 0x263 SWAP2 SWAP1 PUSH2 0x2747 JUMP JUMPDEST PUSH2 0x26D SWAP2 SWAP1 PUSH2 0x2747 JUMP JUMPDEST PUSH2 0x277 SWAP2 SWAP1 PUSH2 0x28C6 JUMP JUMPDEST PUSH1 0xFF AND DUP3 PUSH1 0xFF AND EQ PUSH2 0x288 JUMPI PUSH1 0x0 DUP1 REVERT JUMPDEST CALLER PUSH20 0xFFFFFFFFFFFFFFFFFFFFFFFFFFFFFFFFFFFFFFFF AND DUP2 PUSH1 0x1 ADD DUP4 PUSH1 0xFF AND DUP2 SLOAD DUP2 LT PUSH2 0x2B8 JUMPI PUSH2 0x2B7 PUSH2 0x2955 JUMP JUMPDEST JUMPDEST SWAP1 PUSH1 0x0 MSTORE PUSH1 0x20 PUSH1 0x0 KECCAK256 ADD PUSH1 0x0 SWAP1 SLOAD SWAP1 PUSH2 0x100 EXP SWAP1 DIV PUSH20 0xFFFFFFFFFFFFFFFFFFFFFFFFFFFFFFFFFFFFFFFF AND PUSH20 0xFFFFFFFFFFFFFFFFFFFFFFFFFFFFFFFFFFFFFFFF AND EQ PUSH2 0x303 JUMPI PUSH1 0x0 DUP1 REVERT JUMPDEST DUP3 PUSH1 0x40 MLOAD PUSH1 0x20 ADD PUSH2 0x314 SWAP2 SWAP1 PUSH2 0x239B JUMP JUMPDEST PUSH1 0x40 MLOAD PUSH1 0x20 DUP2 DUP4 SUB SUB DUP2 MSTORE SWAP1 PUSH1 0x40 MSTORE DUP1 MLOAD SWAP1 PUSH1 0x20 ADD KECCAK256 DUP2 PUSH1 0x2 ADD DUP4 PUSH1 0xFF AND DUP2 SLOAD DUP2 LT PUSH2 0x343 JUMPI PUSH2 0x342 PUSH2 0x2955 JUMP JUMPDEST JUMPDEST SWAP1 PUSH1 0x0 MSTORE PUSH1 0x20 PUSH1 0x0 KECCAK256 ADD SLOAD EQ PUSH2 0x358 JUMPI PUSH1 0x0 DUP1 REVERT JUMPDEST DUP3 DUP2 PUSH1 0x6 ADD PUSH1 0x0 DUP3 DUP3 SLOAD PUSH2 0x36C SWAP2 SWAP1 PUSH2 0x25C3 JUMP JUMPDEST SWAP3 POP POP DUP2 SWAP1 SSTORE POP PUSH1 0x1 DUP2 PUSH1 0xB ADD PUSH1 0x1 DUP3 DUP3 DUP3 SWAP1 SLOAD SWAP1 PUSH2 0x100 EXP SWAP1 DIV PUSH1 0xFF AND PUSH2 0x394 SWAP2 SWAP1 PUSH2 0x2619 JUMP JUMPDEST SWAP3 POP PUSH2 0x100 EXP DUP2 SLOAD DUP2 PUSH1 0xFF MUL NOT AND SWAP1 DUP4 PUSH1 0xFF AND MUL OR SWAP1 SSTORE POP PUSH1 0x2 PUSH1 0xFF AND DUP2 PUSH1 0xB ADD PUSH1 0x1 SWAP1 SLOAD SWAP1 PUSH2 0x100 EXP SWAP1 DIV PUSH1 0xFF AND PUSH1 0xFF AND EQ ISZERO PUSH2 0x469 JUMPI PUSH1 0x0 DUP2 PUSH1 0xB ADD PUSH1 0x0 PUSH2 0x100 EXP DUP2 SLOAD DUP2 PUSH1 0xFF MUL NOT AND SWAP1 DUP4 PUSH1 0xFF AND MUL OR SWAP1 SSTORE POP PUSH1 0x2 PUSH1 0xFF AND DUP2 PUSH1 0xB ADD PUSH1 0x3 SWAP1 SLOAD SWAP1 PUSH2 0x100 EXP SWAP1 DIV PUSH1 0xFF AND PUSH1 0xFF AND EQ ISZERO PUSH2 0x429 JUMPI PUSH1 0x8 DUP2 PUSH1 0xB ADD PUSH1 0x3 PUSH2 0x100 EXP DUP2 SLOAD DUP2 PUSH1 0xFF MUL NOT AND SWAP1 DUP4 PUSH1 0xFF AND MUL OR SWAP1 SSTORE POP JUMPDEST PUSH1 0x3 PUSH1 0xFF AND DUP2 PUSH1 0xB ADD PUSH1 0x3 SWAP1 SLOAD SWAP1 PUSH2 0x100 EXP SWAP1 DIV PUSH1 0xFF AND PUSH1 0xFF AND EQ ISZERO PUSH2 0x468 JUMPI PUSH1 0x9 DUP2 PUSH1 0xB ADD PUSH1 0x3 PUSH2 0x100 EXP DUP2 SLOAD DUP2 PUSH1 0xFF MUL NOT AND SWAP1 DUP4 PUSH1 0xFF AND MUL OR SWAP1 SSTORE POP JUMPDEST JUMPDEST POP POP POP POP JUMP JUMPDEST PUSH1 0x0 PUSH1 0x3 PUSH1 0x0 DUP7 DUP2 MSTORE PUSH1 0x20 ADD SWAP1 DUP2 MSTORE PUSH1 0x20 ADD PUSH1 0x0 KECCAK256 SWAP1 POP PUSH1 0xB PUSH1 0xFF AND DUP2 PUSH1 0xB ADD PUSH1 0x3 SWAP1 SLOAD SWAP1 PUSH2 0x100 EXP SWAP1 DIV PUSH1 0xFF AND PUSH1 0xFF AND EQ DUP1 PUSH2 0x4C3 JUMPI POP PUSH1 0xA PUSH1 0xFF AND DUP2 PUSH1 0xB ADD PUSH1 0x3 SWAP1 SLOAD SWAP1 PUSH2 0x100 EXP SWAP1 DIV PUSH1 0xFF AND PUSH1 0xFF AND EQ JUMPDEST PUSH2 0x502 JUMPI PUSH1 0x40 MLOAD PUSH32 0x8C379A000000000000000000000000000000000000000000000000000000000 DUP2 MSTORE PUSH1 0x4 ADD PUSH2 0x4F9 SWAP1 PUSH2 0x24DB JUMP JUMPDEST PUSH1 0x40 MLOAD DUP1 SWAP2 SUB SWAP1 REVERT JUMPDEST CALLER PUSH20 0xFFFFFFFFFFFFFFFFFFFFFFFFFFFFFFFFFFFFFFFF AND DUP2 PUSH1 0x1 ADD DUP5 PUSH1 0xFF AND DUP2 SLOAD DUP2 LT PUSH2 0x532 JUMPI PUSH2 0x531 PUSH2 0x2955 JUMP JUMPDEST JUMPDEST SWAP1 PUSH1 0x0 MSTORE PUSH1 0x20 PUSH1 0x0 KECCAK256 ADD PUSH1 0x0 SWAP1 SLOAD SWAP1 PUSH2 0x100 EXP SWAP1 DIV PUSH20 0xFFFFFFFFFFFFFFFFFFFFFFFFFFFFFFFFFFFFFFFF AND PUSH20 0xFFFFFFFFFFFFFFFFFFFFFFFFFFFFFFFFFFFFFFFF AND EQ PUSH2 0x57D JUMPI PUSH1 0x0 DUP1 REVERT JUMPDEST PUSH1 0x2 PUSH1 0xFF AND DUP2 PUSH1 0x1 ADD DUP1 SLOAD SWAP1 POP EQ PUSH2 0x594 JUMPI PUSH1 0x0 DUP1 REVERT JUMPDEST DUP4 DUP2 PUSH1 0x2 ADD DUP5 PUSH1 0xFF AND DUP2 SLOAD DUP2 LT PUSH2 0x5AE JUMPI PUSH2 0x5AD PUSH2 0x2955 JUMP JUMPDEST JUMPDEST SWAP1 PUSH1 0x0 MSTORE PUSH1 0x20 PUSH1 0x0 KECCAK256 ADD DUP2 SWAP1 SSTORE POP DUP2 DUP2 PUSH1 0x4 ADD DUP5 PUSH1 0xFF AND DUP2 SLOAD DUP2 LT PUSH2 0x5D6 JUMPI PUSH2 0x5D5 PUSH2 0x2955 JUMP JUMPDEST JUMPDEST SWAP1 PUSH1 0x0 MSTORE PUSH1 0x20 PUSH1 0x0 KECCAK256 SWAP1 PUSH1 0x20 SWAP2 DUP3 DUP3 DIV ADD SWAP2 SWAP1 MOD PUSH2 0x100 EXP DUP2 SLOAD DUP2 PUSH1 0xFF MUL NOT AND SWAP1 DUP4 PUSH1 0xFF AND MUL OR SWAP1 SSTORE POP PUSH1 0x1 DUP2 PUSH1 0xB ADD PUSH1 0x1 DUP3 DUP3 DUP3 SWAP1 SLOAD SWAP1 PUSH2 0x100 EXP SWAP1 DIV PUSH1 0xFF AND PUSH2 0x621 SWAP2 SWAP1 PUSH2 0x2619 JUMP JUMPDEST SWAP3 POP PUSH2 0x100 EXP DUP2 SLOAD DUP2 PUSH1 0xFF MUL NOT AND SWAP1 DUP4 PUSH1 0xFF AND MUL OR SWAP1 SSTORE POP PUSH1 0x2 PUSH1 0xFF AND DUP2 PUSH1 0xB ADD PUSH1 0x1 SWAP1 SLOAD SWAP1 PUSH2 0x100 EXP SWAP1 DIV PUSH1 0xFF AND PUSH1 0xFF AND EQ ISZERO PUSH2 0x6F6 JUMPI PUSH1 0x0 DUP2 PUSH1 0xB ADD PUSH1 0x1 PUSH2 0x100 EXP DUP2 SLOAD DUP2 PUSH1 0xFF MUL NOT AND SWAP1 DUP4 PUSH1 0xFF AND MUL OR SWAP1 SSTORE POP PUSH1 0xA PUSH1 0xFF AND DUP2 PUSH1 0xB ADD PUSH1 0x3 SWAP1 SLOAD SWAP1 PUSH2 0x100 EXP SWAP1 DIV PUSH1 0xFF AND PUSH1 0xFF AND EQ ISZERO PUSH2 0x6B6 JUMPI PUSH1 0x2 DUP2 PUSH1 0xB ADD PUSH1 0x3 PUSH2 0x100 EXP DUP2 SLOAD DUP2 PUSH1 0xFF MUL NOT AND SWAP1 DUP4 PUSH1 0xFF AND MUL OR SWAP1 SSTORE POP JUMPDEST PUSH1 0xB PUSH1 0xFF AND DUP2 PUSH1 0xB ADD PUSH1 0x3 SWAP1 SLOAD SWAP1 PUSH2 0x100 EXP SWAP1 DIV PUSH1 0xFF AND PUSH1 0xFF AND EQ ISZERO PUSH2 0x6F5 JUMPI PUSH1 0x3 DUP2 PUSH1 0xB ADD PUSH1 0x3 PUSH2 0x100 EXP DUP2 SLOAD DUP2 PUSH1 0xFF MUL NOT AND SWAP1 DUP4 PUSH1 0xFF AND MUL OR SWAP1 SSTORE POP JUMPDEST JUMPDEST DUP3 PUSH1 0xFF AND DUP2 PUSH1 0xB ADD PUSH1 0x2 SWAP1 SLOAD SWAP1 PUSH2 0x100 EXP SWAP1 DIV PUSH1 0xFF AND PUSH1 0xFF AND EQ ISZERO PUSH2 0x741 JUMPI DUP1 PUSH1 0x8 ADD SLOAD PUSH1 0x2 PUSH2 0x726 SWAP2 SWAP1 PUSH2 0x26B2 JUMP JUMPDEST DUP2 PUSH1 0x5 ADD PUSH1 0x0 DUP3 DUP3 SLOAD PUSH2 0x739 SWAP2 SWAP1 PUSH2 0x25C3 JUMP JUMPDEST SWAP3 POP POP DUP2 SWAP1 SSTORE POP JUMPDEST DUP3 PUSH1 0xFF AND PUSH1 0x2 PUSH1 0x1 DUP4 PUSH1 0xB ADD PUSH1 0x2 SWAP1 SLOAD SWAP1 PUSH2 0x100 EXP SWAP1 DIV PUSH1 0xFF AND PUSH2 0x765 SWAP2 SWAP1 PUSH2 0x2619 JUMP JUMPDEST PUSH2 0x76F SWAP2 SWAP1 PUSH2 0x28C6 JUMP JUMPDEST PUSH1 0xFF AND EQ ISZERO PUSH2 0x798 JUMPI DUP1 PUSH1 0x8 ADD SLOAD DUP2 PUSH1 0x5 ADD PUSH1 0x0 DUP3 DUP3 SLOAD PUSH2 0x790 SWAP2 SWAP1 PUSH2 0x25C3 JUMP JUMPDEST SWAP3 POP POP DUP2 SWAP1 SSTORE POP JUMPDEST POP POP POP POP POP JUMP JUMPDEST PUSH1 0x0 DUP3 DUP5 PUSH1 0x2 PUSH2 0x7AF SWAP2 SWAP1 PUSH2 0x26B2 JUMP JUMPDEST GT ISZERO PUSH2 0x7BA JUMPI PUSH1 0x0 DUP1 REVERT JUMPDEST DUP4 PUSH1 0x3 PUSH2 0x7C7 SWAP2 SWAP1 PUSH2 0x26B2 JUMP JUMPDEST PUSH1 0x1 SLOAD PUSH2 0x7D4 SWAP2 SWAP1 PUSH2 0x25C3 JUMP JUMPDEST CALLVALUE EQ PUSH2 0x815 JUMPI PUSH1 0x40 MLOAD PUSH32 0x8C379A000000000000000000000000000000000000000000000000000000000 DUP2 MSTORE PUSH1 0x4 ADD PUSH2 0x80C SWAP1 PUSH2 0x249B JUMP JUMPDEST PUSH1 0x40 MLOAD DUP1 SWAP2 SUB SWAP1 REVERT JUMPDEST PUSH1 0x2 PUSH1 0x0 DUP2 SLOAD DUP1 SWAP3 SWAP2 SWAP1 PUSH2 0x828 SWAP1 PUSH2 0x280E JUMP JUMPDEST SWAP2 SWAP1 POP SSTORE SWAP1 POP PUSH1 0x60 DUP1 PUSH1 0x60 DUP1 PUSH1 0x0 PUSH1 0x40 MLOAD DUP1 PUSH2 0x1E0 ADD PUSH1 0x40 MSTORE DUP1 CALLER PUSH20 0xFFFFFFFFFFFFFFFFFFFFFFFFFFFFFFFFFFFFFFFF AND DUP2 MSTORE PUSH1 0x20 ADD DUP7 DUP2 MSTORE PUSH1 0x20 ADD DUP6 DUP2 MSTORE PUSH1 0x20 ADD DUP5 DUP2 MSTORE PUSH1 0x20 ADD DUP4 DUP2 MSTORE PUSH1 0x20 ADD PUSH1 0x0 DUP2 MSTORE PUSH1 0x20 ADD PUSH1 0x0 DUP2 MSTORE PUSH1 0x20 ADD PUSH1 0x0 DUP2 MSTORE PUSH1 0x20 ADD DUP11 DUP2 MSTORE PUSH1 0x20 ADD DUP10 DUP2 MSTORE PUSH1 0x20 ADD PUSH1 0x0 DUP2 MSTORE PUSH1 0x20 ADD PUSH1 0x0 PUSH1 0xFF AND DUP2 MSTORE PUSH1 0x20 ADD PUSH1 0x0 PUSH1 0xFF AND DUP2 MSTORE PUSH1 0x20 ADD PUSH1 0x0 PUSH1 0xFF AND DUP2 MSTORE PUSH1 0x20 ADD PUSH1 0xA PUSH1 0xFF AND DUP2 MSTORE POP SWAP1 POP DUP1 PUSH1 0x3 PUSH1 0x0 DUP9 DUP2 MSTORE PUSH1 0x20 ADD SWAP1 DUP2 MSTORE PUSH1 0x20 ADD PUSH1 0x0 KECCAK256 PUSH1 0x0 DUP3 ADD MLOAD DUP2 PUSH1 0x0 ADD PUSH1 0x0 PUSH2 0x100 EXP DUP2 SLOAD DUP2 PUSH20 0xFFFFFFFFFFFFFFFFFFFFFFFFFFFFFFFFFFFFFFFF MUL NOT AND SWAP1 DUP4 PUSH20 0xFFFFFFFFFFFFFFFFFFFFFFFFFFFFFFFFFFFFFFFF AND MUL OR SWAP1 SSTORE POP PUSH1 0x20 DUP3 ADD MLOAD DUP2 PUSH1 0x1 ADD SWAP1 DUP1 MLOAD SWAP1 PUSH1 0x20 ADD SWAP1 PUSH2 0x93D SWAP3 SWAP2 SWAP1 PUSH2 0x1C67 JUMP JUMPDEST POP PUSH1 0x40 DUP3 ADD MLOAD DUP2 PUSH1 0x2 ADD SWAP1 DUP1 MLOAD SWAP1 PUSH1 0x20 ADD SWAP1 PUSH2 0x95A SWAP3 SWAP2 SWAP1 PUSH2 0x1CF1 JUMP JUMPDEST POP PUSH1 0x60 DUP3 ADD MLOAD DUP2 PUSH1 0x3 ADD SWAP1 DUP1 MLOAD SWAP1 PUSH1 0x20 ADD SWAP1 PUSH2 0x977 SWAP3 SWAP2 SWAP1 PUSH2 0x1D3E JUMP JUMPDEST POP PUSH1 0x80 DUP3 ADD MLOAD DUP2 PUSH1 0x4 ADD SWAP1 DUP1 MLOAD SWAP1 PUSH1 0x20 ADD SWAP1 PUSH2 0x994 SWAP3 SWAP2 SWAP1 PUSH2 0x1D8B JUMP JUMPDEST POP PUSH1 0xA0 DUP3 ADD MLOAD DUP2 PUSH1 0x5 ADD SSTORE PUSH1 0xC0 DUP3 ADD MLOAD DUP2 PUSH1 0x6 ADD SSTORE PUSH1 0xE0 DUP3 ADD MLOAD DUP2 PUSH1 0x7 ADD SSTORE PUSH2 0x100 DUP3 ADD MLOAD DUP2 PUSH1 0x8 ADD SSTORE PUSH2 0x120 DUP3 ADD MLOAD DUP2 PUSH1 0x9 ADD SSTORE PUSH2 0x140 DUP3 ADD MLOAD DUP2 PUSH1 0xA ADD SSTORE PUSH2 0x160 DUP3 ADD MLOAD DUP2 PUSH1 0xB ADD PUSH1 0x0 PUSH2 0x100 EXP DUP2 SLOAD DUP2 PUSH1 0xFF MUL NOT AND SWAP1 DUP4 PUSH1 0xFF AND MUL OR SWAP1 SSTORE POP PUSH2 0x180 DUP3 ADD MLOAD DUP2 PUSH1 0xB ADD PUSH1 0x1 PUSH2 0x100 EXP DUP2 SLOAD DUP2 PUSH1 0xFF MUL NOT AND SWAP1 DUP4 PUSH1 0xFF AND MUL OR SWAP1 SSTORE POP PUSH2 0x1A0 DUP3 ADD MLOAD DUP2 PUSH1 0xB ADD PUSH1 0x2 PUSH2 0x100 EXP DUP2 SLOAD DUP2 PUSH1 0xFF MUL NOT AND SWAP1 DUP4 PUSH1 0xFF AND MUL OR SWAP1 SSTORE POP PUSH2 0x1C0 DUP3 ADD MLOAD DUP2 PUSH1 0xB ADD PUSH1 0x3 PUSH2 0x100 EXP DUP2 SLOAD DUP2 PUSH1 0xFF MUL NOT AND SWAP1 DUP4 PUSH1 0xFF AND MUL OR SWAP1 SSTORE POP SWAP1 POP POP PUSH2 0xA69 DUP7 DUP9 PUSH2 0xD89 JUMP JUMPDEST POP POP POP POP POP POP SWAP4 SWAP3 POP POP POP JUMP JUMPDEST PUSH1 0x0 PUSH1 0x3 PUSH1 0x0 DUP4 DUP2 MSTORE PUSH1 0x20 ADD SWAP1 DUP2 MSTORE PUSH1 0x20 ADD PUSH1 0x0 KECCAK256 SWAP1 POP PUSH1 0x6 PUSH1 0xFF AND DUP2 PUSH1 0xB ADD PUSH1 0x3 SWAP1 SLOAD SWAP1 PUSH2 0x100 EXP SWAP1 DIV PUSH1 0xFF AND PUSH1 0xFF AND EQ PUSH2 0xAE7 JUMPI PUSH1 0x40 MLOAD PUSH32 0x8C379A000000000000000000000000000000000000000000000000000000000 DUP2 MSTORE PUSH1 0x4 ADD PUSH2 0xADE SWAP1 PUSH2 0x241B JUMP JUMPDEST PUSH1 0x40 MLOAD DUP1 SWAP2 SUB SWAP1 REVERT JUMPDEST PUSH1 0x0 DUP1 DUP1 PUSH1 0x0 SWAP1 POP JUMPDEST DUP4 PUSH1 0x1 ADD DUP1 SLOAD SWAP1 POP DUP2 PUSH1 0xFF AND LT ISZERO PUSH2 0xBAB JUMPI DUP3 DUP5 PUSH1 0x3 ADD DUP3 PUSH1 0xFF AND DUP2 SLOAD DUP2 LT PUSH2 0xB1C JUMPI PUSH2 0xB1B PUSH2 0x2955 JUMP JUMPDEST JUMPDEST SWAP1 PUSH1 0x0 MSTORE PUSH1 0x20 PUSH1 0x0 KECCAK256 ADD SLOAD GT ISZERO PUSH2 0xB9A JUMPI DUP4 PUSH1 0x3 ADD DUP2 PUSH1 0xFF AND DUP2 SLOAD DUP2 LT PUSH2 0xB46 JUMPI PUSH2 0xB45 PUSH2 0x2955 JUMP JUMPDEST JUMPDEST SWAP1 PUSH1 0x0 MSTORE PUSH1 0x20 PUSH1 0x0 KECCAK256 ADD SLOAD SWAP3 POP DUP4 PUSH1 0x1 ADD DUP2 PUSH1 0xFF AND DUP2 SLOAD DUP2 LT PUSH2 0xB6C JUMPI PUSH2 0xB6B PUSH2 0x2955 JUMP JUMPDEST JUMPDEST SWAP1 PUSH1 0x0 MSTORE PUSH1 0x20 PUSH1 0x0 KECCAK256 ADD PUSH1 0x0 SWAP1 SLOAD SWAP1 PUSH2 0x100 EXP SWAP1 DIV PUSH20 0xFFFFFFFFFFFFFFFFFFFFFFFFFFFFFFFFFFFFFFFF AND SWAP2 POP JUMPDEST DUP1 PUSH2 0xBA4 SWAP1 PUSH2 0x2857 JUMP JUMPDEST SWAP1 POP PUSH2 0xAF0 JUMP JUMPDEST POP PUSH1 0x1 DUP4 PUSH1 0xB ADD PUSH1 0x2 DUP3 DUP3 DUP3 SWAP1 SLOAD SWAP1 PUSH2 0x100 EXP SWAP1 DIV PUSH1 0xFF AND PUSH2 0xBCD SWAP2 SWAP1 PUSH2 0x2619 JUMP JUMPDEST SWAP3 POP PUSH2 0x100 EXP DUP2 SLOAD DUP2 PUSH1 0xFF MUL NOT AND SWAP1 DUP4 PUSH1 0xFF AND MUL OR SWAP1 SSTORE POP PUSH1 0x2 PUSH1 0xFF AND DUP4 PUSH1 0xB ADD PUSH1 0x2 SWAP1 SLOAD SWAP1 PUSH2 0x100 EXP SWAP1 DIV PUSH1 0xFF AND PUSH1 0xFF AND EQ ISZERO PUSH2 0xC28 JUMPI PUSH1 0x7 DUP4 PUSH1 0xB ADD PUSH1 0x3 PUSH2 0x100 EXP DUP2 SLOAD DUP2 PUSH1 0xFF MUL NOT AND SWAP1 DUP4 PUSH1 0xFF AND MUL OR SWAP1 SSTORE POP PUSH2 0xC65 JUMP JUMPDEST PUSH1 0x0 DUP4 PUSH1 0xB ADD PUSH1 0x1 PUSH2 0x100 EXP DUP2 SLOAD DUP2 PUSH1 0xFF MUL NOT AND SWAP1 DUP4 PUSH1 0xFF AND MUL OR SWAP1 SSTORE POP PUSH1 0x1 DUP4 PUSH1 0xB ADD PUSH1 0x3 PUSH2 0x100 EXP DUP2 SLOAD DUP2 PUSH1 0xFF MUL NOT AND SWAP1 DUP4 PUSH1 0xFF AND MUL OR SWAP1 SSTORE POP JUMPDEST DUP1 PUSH20 0xFFFFFFFFFFFFFFFFFFFFFFFFFFFFFFFFFFFFFFFF AND PUSH2 0x8FC DUP5 PUSH1 0x5 ADD SLOAD SWAP1 DUP2 ISZERO MUL SWAP1 PUSH1 0x40 MLOAD PUSH1 0x0 PUSH1 0x40 MLOAD DUP1 DUP4 SUB DUP2 DUP6 DUP9 DUP9 CALL SWAP4 POP POP POP POP ISZERO DUP1 ISZERO PUSH2 0xCAF JUMPI RETURNDATASIZE PUSH1 0x0 DUP1 RETURNDATACOPY RETURNDATASIZE PUSH1 0x0 REVERT JUMPDEST POP POP POP POP POP JUMP JUMPDEST PUSH1 0x0 DUP1 SLOAD SWAP1 PUSH2 0x100 EXP SWAP1 DIV PUSH20 0xFFFFFFFFFFFFFFFFFFFFFFFFFFFFFFFFFFFFFFFF AND DUP1 PUSH20 0xFFFFFFFFFFFFFFFFFFFFFFFFFFFFFFFFFFFFFFFF AND CALLER PUSH20 0xFFFFFFFFFFFFFFFFFFFFFFFFFFFFFFFFFFFFFFFF AND EQ PUSH2 0xD45 JUMPI PUSH1 0x40 MLOAD PUSH32 0x8C379A000000000000000000000000000000000000000000000000000000000 DUP2 MSTORE PUSH1 0x4 ADD PUSH2 0xD3C SWAP1 PUSH2 0x243B JUMP JUMPDEST PUSH1 0x40 MLOAD DUP1 SWAP2 SUB SWAP1 REVERT JUMPDEST DUP2 PUSH1 0x0 DUP1 PUSH2 0x100 EXP DUP2 SLOAD DUP2 PUSH20 0xFFFFFFFFFFFFFFFFFFFFFFFFFFFFFFFFFFFFFFFF MUL NOT AND SWAP1 DUP4 PUSH20 0xFFFFFFFFFFFFFFFFFFFFFFFFFFFFFFFFFFFFFFFF AND MUL OR SWAP1 SSTORE POP POP POP JUMP JUMPDEST PUSH1 0x0 DUP1 PUSH1 0x3 PUSH1 0x0 DUP6 DUP2 MSTORE PUSH1 0x20 ADD SWAP1 DUP2 MSTORE PUSH1 0x20 ADD PUSH1 0x0 KECCAK256 SWAP1 POP PUSH1 0xA PUSH1 0xFF AND DUP2 PUSH1 0xB ADD PUSH1 0x3 SWAP1 SLOAD SWAP1 PUSH2 0x100 EXP SWAP1 DIV PUSH1 0xFF AND PUSH1 0xFF AND EQ PUSH2 0xDFB JUMPI PUSH1 0x40 MLOAD PUSH32 0x8C379A000000000000000000000000000000000000000000000000000000000 DUP2 MSTORE PUSH1 0x4 ADD PUSH2 0xDF2 SWAP1 PUSH2 0x245B JUMP JUMPDEST PUSH1 0x40 MLOAD DUP1 SWAP2 SUB SWAP1 REVERT JUMPDEST DUP1 PUSH1 0x8 ADD SLOAD PUSH1 0x3 PUSH2 0xE0C SWAP2 SWAP1 PUSH2 0x26B2 JUMP JUMPDEST PUSH1 0x1 SLOAD PUSH2 0xE19 SWAP2 SWAP1 PUSH2 0x25C3 JUMP JUMPDEST CALLVALUE EQ PUSH2 0xE5A JUMPI PUSH1 0x40 MLOAD PUSH32 0x8C379A000000000000000000000000000000000000000000000000000000000 DUP2 MSTORE PUSH1 0x4 ADD PUSH2 0xE51 SWAP1 PUSH2 0x23FB JUMP JUMPDEST PUSH1 0x40 MLOAD DUP1 SWAP2 SUB SWAP1 REVERT JUMPDEST PUSH1 0x2 PUSH1 0xFF AND DUP2 PUSH1 0x1 ADD DUP1 SLOAD SWAP1 POP LT PUSH2 0xEA7 JUMPI PUSH1 0x40 MLOAD PUSH32 0x8C379A000000000000000000000000000000000000000000000000000000000 DUP2 MSTORE PUSH1 0x4 ADD PUSH2 0xE9E SWAP1 PUSH2 0x247B JUMP JUMPDEST PUSH1 0x40 MLOAD DUP1 SWAP2 SUB SWAP1 REVERT JUMPDEST DUP1 PUSH1 0x1 ADD DUP1 SLOAD SWAP1 POP SWAP2 POP DUP1 PUSH1 0x1 ADD CALLER SWAP1 DUP1 PUSH1 0x1 DUP2 SLOAD ADD DUP1 DUP3 SSTORE DUP1 SWAP2 POP POP PUSH1 0x1 SWAP1 SUB SWAP1 PUSH1 0x0 MSTORE PUSH1 0x20 PUSH1 0x0 KECCAK256 ADD PUSH1 0x0 SWAP1 SWAP2 SWAP1 SWAP2 SWAP1 SWAP2 PUSH2 0x100 EXP DUP2 SLOAD DUP2 PUSH20 0xFFFFFFFFFFFFFFFFFFFFFFFFFFFFFFFFFFFFFFFF MUL NOT AND SWAP1 DUP4 PUSH20 0xFFFFFFFFFFFFFFFFFFFFFFFFFFFFFFFFFFFFFFFF AND MUL OR SWAP1 SSTORE POP DUP1 PUSH1 0x2 ADD DUP4 SWAP1 DUP1 PUSH1 0x1 DUP2 SLOAD ADD DUP1 DUP3 SSTORE DUP1 SWAP2 POP POP PUSH1 0x1 SWAP1 SUB SWAP1 PUSH1 0x0 MSTORE PUSH1 0x20 PUSH1 0x0 KECCAK256 ADD PUSH1 0x0 SWAP1 SWAP2 SWAP1 SWAP2 SWAP1 SWAP2 POP SSTORE DUP1 PUSH1 0x4 ADD PUSH1 0x0 SWAP1 DUP1 PUSH1 0x1 DUP2 SLOAD ADD DUP1 DUP3 SSTORE DUP1 SWAP2 POP POP PUSH1 0x1 SWAP1 SUB SWAP1 PUSH1 0x0 MSTORE PUSH1 0x20 PUSH1 0x0 KECCAK256 SWAP1 PUSH1 0x20 SWAP2 DUP3 DUP3 DIV ADD SWAP2 SWAP1 MOD SWAP1 SWAP2 SWAP1 SWAP2 SWAP1 SWAP2 PUSH2 0x100 EXP DUP2 SLOAD DUP2 PUSH1 0xFF MUL NOT AND SWAP1 DUP4 PUSH1 0xFF AND MUL OR SWAP1 SSTORE POP PUSH1 0x1 DUP2 PUSH1 0xB ADD PUSH1 0x1 DUP3 DUP3 DUP3 SWAP1 SLOAD SWAP1 PUSH2 0x100 EXP SWAP1 DIV PUSH1 0xFF AND PUSH2 0xFAA SWAP2 SWAP1 PUSH2 0x2619 JUMP JUMPDEST SWAP3 POP PUSH2 0x100 EXP DUP2 SLOAD DUP2 PUSH1 0xFF MUL NOT AND SWAP1 DUP4 PUSH1 0xFF AND MUL OR SWAP1 SSTORE POP PUSH1 0x2 PUSH1 0xFF AND DUP2 PUSH1 0xB ADD PUSH1 0x1 SWAP1 SLOAD SWAP1 PUSH2 0x100 EXP SWAP1 DIV PUSH1 0xFF AND PUSH1 0xFF AND EQ ISZERO PUSH2 0x1001 JUMPI PUSH1 0x2 DUP2 PUSH1 0xB ADD PUSH1 0x3 PUSH2 0x100 EXP DUP2 SLOAD DUP2 PUSH1 0xFF MUL NOT AND SWAP1 DUP4 PUSH1 0xFF AND MUL OR SWAP1 SSTORE POP JUMPDEST PUSH1 0x2 PUSH1 0xFF AND DUP2 PUSH1 0x1 ADD DUP1 SLOAD SWAP1 POP EQ ISZERO PUSH2 0x108D JUMPI PUSH1 0x0 DUP1 SLOAD SWAP1 PUSH2 0x100 EXP SWAP1 DIV PUSH20 0xFFFFFFFFFFFFFFFFFFFFFFFFFFFFFFFFFFFFFFFF AND PUSH20 0xFFFFFFFFFFFFFFFFFFFFFFFFFFFFFFFFFFFFFFFF AND PUSH2 0x8FC PUSH1 0x1 SLOAD PUSH1 0x2 PUSH1 0xFF AND PUSH2 0x1060 SWAP2 SWAP1 PUSH2 0x26B2 JUMP JUMPDEST SWAP1 DUP2 ISZERO MUL SWAP1 PUSH1 0x40 MLOAD PUSH1 0x0 PUSH1 0x40 MLOAD DUP1 DUP4 SUB DUP2 DUP6 DUP9 DUP9 CALL SWAP4 POP POP POP POP ISZERO DUP1 ISZERO PUSH2 0x108B JUMPI RETURNDATASIZE PUSH1 0x0 DUP1 RETURNDATACOPY RETURNDATASIZE PUSH1 0x0 REVERT JUMPDEST POP JUMPDEST POP SWAP3 SWAP2 POP POP JUMP JUMPDEST PUSH1 0x0 PUSH1 0x3 PUSH1 0x0 DUP5 DUP2 MSTORE PUSH1 0x20 ADD SWAP1 DUP2 MSTORE PUSH1 0x20 ADD PUSH1 0x0 KECCAK256 SWAP1 POP PUSH1 0x8 PUSH1 0xFF AND DUP2 PUSH1 0xB ADD PUSH1 0x3 SWAP1 SLOAD SWAP1 PUSH2 0x100 EXP SWAP1 DIV PUSH1 0xFF AND PUSH1 0xFF AND EQ DUP1 PUSH2 0x10E8 JUMPI POP PUSH1 0x9 PUSH1 0xFF AND DUP2 PUSH1 0xB ADD PUSH1 0x3 SWAP1 SLOAD SWAP1 PUSH2 0x100 EXP SWAP1 DIV PUSH1 0xFF AND PUSH1 0xFF AND EQ JUMPDEST PUSH2 0x10F1 JUMPI PUSH1 0x0 DUP1 REVERT JUMPDEST CALLER PUSH20 0xFFFFFFFFFFFFFFFFFFFFFFFFFFFFFFFFFFFFFFFF AND DUP2 PUSH1 0x1 ADD DUP4 DUP2 SLOAD DUP2 LT PUSH2 0x111E JUMPI PUSH2 0x111D PUSH2 0x2955 JUMP JUMPDEST JUMPDEST SWAP1 PUSH1 0x0 MSTORE PUSH1 0x20 PUSH1 0x0 KECCAK256 ADD PUSH1 0x0 SWAP1 SLOAD SWAP1 PUSH2 0x100 EXP SWAP1 DIV PUSH20 0xFFFFFFFFFFFFFFFFFFFFFFFFFFFFFFFFFFFFFFFF AND PUSH20 0xFFFFFFFFFFFFFFFFFFFFFFFFFFFFFFFFFFFFFFFF AND EQ PUSH2 0x1169 JUMPI PUSH1 0x0 DUP1 REVERT JUMPDEST DUP2 PUSH1 0x2 DUP3 PUSH1 0xB ADD PUSH1 0x0 SWAP1 SLOAD SWAP1 PUSH2 0x100 EXP SWAP1 DIV PUSH1 0xFF AND DUP4 PUSH1 0xB ADD PUSH1 0x2 SWAP1 SLOAD SWAP1 PUSH2 0x100 EXP SWAP1 DIV PUSH1 0xFF AND PUSH2 0x119A SWAP2 SWAP1 PUSH2 0x2619 JUMP JUMPDEST PUSH2 0x11A4 SWAP2 SWAP1 PUSH2 0x28C6 JUMP JUMPDEST PUSH1 0xFF AND EQ PUSH2 0x11B1 JUMPI PUSH1 0x0 DUP1 REVERT JUMPDEST PUSH1 0x0 DUP2 PUSH1 0xB ADD PUSH1 0x0 SWAP1 SLOAD SWAP1 PUSH2 0x100 EXP SWAP1 DIV PUSH1 0xFF AND PUSH1 0xFF AND EQ ISZERO PUSH2 0x11D9 JUMPI PUSH1 0x0 DUP2 PUSH1 0xA ADD DUP2 SWAP1 SSTORE POP JUMPDEST CALLVALUE DUP2 PUSH1 0xA ADD SLOAD EQ DUP1 PUSH2 0x11FB JUMPI POP CALLVALUE PUSH1 0x2 DUP3 PUSH1 0xA ADD SLOAD PUSH2 0x11F8 SWAP2 SWAP1 PUSH2 0x26B2 JUMP JUMPDEST GT ISZERO JUMPDEST DUP1 ISZERO PUSH2 0x120B JUMPI POP DUP1 PUSH1 0x9 ADD SLOAD CALLVALUE GT ISZERO JUMPDEST PUSH2 0x1214 JUMPI PUSH1 0x0 DUP1 REVERT JUMPDEST CALLVALUE DUP2 PUSH1 0x5 ADD PUSH1 0x0 DUP3 DUP3 SLOAD PUSH2 0x1228 SWAP2 SWAP1 PUSH2 0x25C3 JUMP JUMPDEST SWAP3 POP POP DUP2 SWAP1 SSTORE POP CALLVALUE DUP2 PUSH1 0xA ADD SLOAD EQ ISZERO DUP1 ISZERO PUSH2 0x125A JUMPI POP PUSH1 0x2 PUSH1 0xFF AND DUP2 PUSH1 0xB ADD PUSH1 0x0 SWAP1 SLOAD SWAP1 PUSH2 0x100 EXP SWAP1 DIV PUSH1 0xFF AND PUSH1 0xFF AND EQ JUMPDEST ISZERO PUSH2 0x128C JUMPI CALLVALUE DUP2 PUSH1 0xA ADD DUP2 SWAP1 SSTORE POP PUSH1 0x0 DUP2 PUSH1 0xB ADD PUSH1 0x0 PUSH2 0x100 EXP DUP2 SLOAD DUP2 PUSH1 0xFF MUL NOT AND SWAP1 DUP4 PUSH1 0xFF AND MUL OR SWAP1 SSTORE POP POP PUSH2 0x13AB JUMP JUMPDEST CALLVALUE DUP2 PUSH1 0xA ADD DUP2 SWAP1 SSTORE POP PUSH1 0x1 DUP2 PUSH1 0xB ADD PUSH1 0x0 DUP3 DUP3 DUP3 SWAP1 SLOAD SWAP1 PUSH2 0x100 EXP SWAP1 DIV PUSH1 0xFF AND PUSH2 0x12B6 SWAP2 SWAP1 PUSH2 0x2619 JUMP JUMPDEST SWAP3 POP PUSH2 0x100 EXP DUP2 SLOAD DUP2 PUSH1 0xFF MUL NOT AND SWAP1 DUP4 PUSH1 0xFF AND MUL OR SWAP1 SSTORE POP PUSH1 0x2 PUSH1 0xFF AND DUP2 PUSH1 0xB ADD PUSH1 0x0 SWAP1 SLOAD SWAP1 PUSH2 0x100 EXP SWAP1 DIV PUSH1 0xFF AND PUSH1 0xFF AND EQ ISZERO PUSH2 0x13A9 JUMPI PUSH1 0x0 DUP2 PUSH1 0xB ADD PUSH1 0x0 PUSH2 0x100 EXP DUP2 SLOAD DUP2 PUSH1 0xFF MUL NOT AND SWAP1 DUP4 PUSH1 0xFF AND MUL OR SWAP1 SSTORE POP PUSH1 0x0 DUP2 PUSH1 0xB ADD PUSH1 0x1 PUSH2 0x100 EXP DUP2 SLOAD DUP2 PUSH1 0xFF MUL NOT AND SWAP1 DUP4 PUSH1 0xFF AND MUL OR SWAP1 SSTORE POP PUSH1 0x8 PUSH1 0xFF AND DUP2 PUSH1 0xB ADD PUSH1 0x3 SWAP1 SLOAD SWAP1 PUSH2 0x100 EXP SWAP1 DIV PUSH1 0xFF AND PUSH1 0xFF AND EQ ISZERO PUSH2 0x1369 JUMPI PUSH1 0xB DUP2 PUSH1 0xB ADD PUSH1 0x3 PUSH2 0x100 EXP DUP2 SLOAD DUP2 PUSH1 0xFF MUL NOT AND SWAP1 DUP4 PUSH1 0xFF AND MUL OR SWAP1 SSTORE POP JUMPDEST PUSH1 0x9 PUSH1 0xFF AND DUP2 PUSH1 0xB ADD PUSH1 0x3 SWAP1 SLOAD SWAP1 PUSH2 0x100 EXP SWAP1 DIV PUSH1 0xFF AND PUSH1 0xFF AND EQ ISZERO PUSH2 0x13A8 JUMPI PUSH1 0x5 DUP2 PUSH1 0xB ADD PUSH1 0x3 PUSH2 0x100 EXP DUP2 SLOAD DUP2 PUSH1 0xFF MUL NOT AND SWAP1 DUP4 PUSH1 0xFF AND MUL OR SWAP1 SSTORE POP JUMPDEST JUMPDEST POP JUMPDEST POP POP JUMP JUMPDEST PUSH1 0x0 PUSH1 0x3 PUSH1 0x0 DUP7 DUP2 MSTORE PUSH1 0x20 ADD SWAP1 DUP2 MSTORE PUSH1 0x20 ADD PUSH1 0x0 KECCAK256 SWAP1 POP PUSH1 0x5 PUSH1 0xFF AND DUP2 PUSH1 0xB ADD PUSH1 0x3 SWAP1 SLOAD SWAP1 PUSH2 0x100 EXP SWAP1 DIV PUSH1 0xFF AND PUSH1 0xFF AND EQ PUSH2 0x1420 JUMPI PUSH1 0x40 MLOAD PUSH32 0x8C379A000000000000000000000000000000000000000000000000000000000 DUP2 MSTORE PUSH1 0x4 ADD PUSH2 0x1417 SWAP1 PUSH2 0x24BB JUMP JUMPDEST PUSH1 0x40 MLOAD DUP1 SWAP2 SUB SWAP1 REVERT JUMPDEST CALLER PUSH20 0xFFFFFFFFFFFFFFFFFFFFFFFFFFFFFFFFFFFFFFFF AND DUP2 PUSH1 0x1 ADD DUP3 PUSH1 0xB ADD PUSH1 0x0 SWAP1 SLOAD SWAP1 PUSH2 0x100 EXP SWAP1 DIV PUSH1 0xFF AND PUSH1 0xFF AND DUP2 SLOAD DUP2 LT PUSH2 0x1461 JUMPI PUSH2 0x1460 PUSH2 0x2955 JUMP JUMPDEST JUMPDEST SWAP1 PUSH1 0x0 MSTORE PUSH1 0x20 PUSH1 0x0 KECCAK256 ADD PUSH1 0x0 SWAP1 SLOAD SWAP1 PUSH2 0x100 EXP SWAP1 DIV PUSH20 0xFFFFFFFFFFFFFFFFFFFFFFFFFFFFFFFFFFFFFFFF AND PUSH20 0xFFFFFFFFFFFFFFFFFFFFFFFFFFFFFFFFFFFFFFFF AND EQ PUSH2 0x14AC JUMPI PUSH1 0x0 DUP1 REVERT JUMPDEST PUSH1 0x0 PUSH2 0x1500 DUP3 PUSH1 0xB ADD PUSH1 0x0 SWAP1 SLOAD SWAP1 PUSH2 0x100 EXP SWAP1 DIV PUSH1 0xFF AND PUSH1 0xFF AND DUP4 PUSH1 0x6 ADD SLOAD PUSH2 0x14D5 SWAP2 SWAP1 PUSH2 0x25C3 JUMP JUMPDEST PUSH1 0x40 MLOAD PUSH1 0x20 ADD PUSH2 0x14E5 SWAP2 SWAP1 PUSH2 0x239B JUMP JUMPDEST PUSH1 0x40 MLOAD PUSH1 0x20 DUP2 DUP4 SUB SUB DUP2 MSTORE SWAP1 PUSH1 0x40 MSTORE DUP1 MLOAD SWAP1 PUSH1 0x20 ADD KECCAK256 PUSH2 0x16EA JUMP JUMPDEST SWAP1 POP PUSH1 0x0 DUP1 PUSH1 0x0 PUSH2 0x1510 DUP9 PUSH2 0x171A JUMP JUMPDEST SWAP3 POP SWAP3 POP SWAP3 POP CALLER PUSH20 0xFFFFFFFFFFFFFFFFFFFFFFFFFFFFFFFFFFFFFFFF AND PUSH1 0x1 DUP6 DUP6 DUP6 DUP6 PUSH1 0x40 MLOAD PUSH1 0x0 DUP2 MSTORE PUSH1 0x20 ADD PUSH1 0x40 MSTORE PUSH1 0x40 MLOAD PUSH2 0x1550 SWAP5 SWAP4 SWAP3 SWAP2 SWAP1 PUSH2 0x23B6 JUMP JUMPDEST PUSH1 0x20 PUSH1 0x40 MLOAD PUSH1 0x20 DUP2 SUB SWAP1 DUP1 DUP5 SUB SWAP1 DUP6 GAS STATICCALL ISZERO DUP1 ISZERO PUSH2 0x1572 JUMPI RETURNDATASIZE PUSH1 0x0 DUP1 RETURNDATACOPY RETURNDATASIZE PUSH1 0x0 REVERT JUMPDEST POP POP POP PUSH1 0x20 PUSH1 0x40 MLOAD SUB MLOAD PUSH20 0xFFFFFFFFFFFFFFFFFFFFFFFFFFFFFFFFFFFFFFFF AND EQ PUSH2 0x15D2 JUMPI PUSH1 0x40 MLOAD PUSH32 0x8C379A000000000000000000000000000000000000000000000000000000000 DUP2 MSTORE PUSH1 0x4 ADD PUSH2 0x15C9 SWAP1 PUSH2 0x24FB JUMP JUMPDEST PUSH1 0x40 MLOAD DUP1 SWAP2 SUB SWAP1 REVERT JUMPDEST PUSH1 0x0 PUSH2 0x15DF DUP5 DUP5 DUP5 PUSH2 0x174C JUMP JUMPDEST SWAP1 POP PUSH2 0x15EB DUP9 DUP3 PUSH2 0x1823 JUMP JUMPDEST PUSH2 0x15F4 JUMPI PUSH1 0x0 DUP1 REVERT JUMPDEST PUSH2 0x15FE DUP9 DUP9 PUSH2 0x18D7 JUMP JUMPDEST PUSH2 0x1607 JUMPI PUSH1 0x0 DUP1 REVERT JUMPDEST PUSH2 0x1611 DUP9 DUP9 PUSH2 0x1A41 JUMP JUMPDEST DUP7 PUSH1 0x3 ADD DUP8 PUSH1 0xB ADD PUSH1 0x0 SWAP1 SLOAD SWAP1 PUSH2 0x100 EXP SWAP1 DIV PUSH1 0xFF AND PUSH1 0xFF AND DUP2 SLOAD DUP2 LT PUSH2 0x163B JUMPI PUSH2 0x163A PUSH2 0x2955 JUMP JUMPDEST JUMPDEST SWAP1 PUSH1 0x0 MSTORE PUSH1 0x20 PUSH1 0x0 KECCAK256 ADD DUP2 SWAP1 SSTORE POP PUSH1 0x2 PUSH1 0x1 DUP8 PUSH1 0xB ADD PUSH1 0x0 SWAP1 SLOAD SWAP1 PUSH2 0x100 EXP SWAP1 DIV PUSH1 0xFF AND PUSH2 0x1669 SWAP2 SWAP1 PUSH2 0x2619 JUMP JUMPDEST PUSH2 0x1673 SWAP2 SWAP1 PUSH2 0x28C6 JUMP JUMPDEST DUP7 PUSH1 0xB ADD PUSH1 0x0 PUSH2 0x100 EXP DUP2 SLOAD DUP2 PUSH1 0xFF MUL NOT AND SWAP1 DUP4 PUSH1 0xFF AND MUL OR SWAP1 SSTORE POP DUP6 PUSH1 0xB ADD PUSH1 0x2 SWAP1 SLOAD SWAP1 PUSH2 0x100 EXP SWAP1 DIV PUSH1 0xFF AND PUSH1 0xFF AND DUP7 PUSH1 0xB ADD PUSH1 0x0 SWAP1 SLOAD SWAP1 PUSH2 0x100 EXP SWAP1 DIV PUSH1 0xFF AND PUSH1 0xFF AND EQ ISZERO PUSH2 0x16DE JUMPI PUSH1 0x6 DUP7 PUSH1 0xB ADD PUSH1 0x3 PUSH2 0x100 EXP DUP2 SLOAD DUP2 PUSH1 0xFF MUL NOT AND SWAP1 DUP4 PUSH1 0xFF AND MUL OR SWAP1 SSTORE POP JUMPDEST POP POP POP POP POP POP POP POP POP POP JUMP JUMPDEST PUSH1 0x0 DUP2 PUSH1 0x40 MLOAD PUSH1 0x20 ADD PUSH2 0x16FD SWAP2 SWAP1 PUSH2 0x2375 JUMP JUMPDEST PUSH1 0x40 MLOAD PUSH1 0x20 DUP2 DUP4 SUB SUB DUP2 MSTORE SWAP1 PUSH1 0x40 MSTORE DUP1 MLOAD SWAP1 PUSH1 0x20 ADD KECCAK256 SWAP1 POP SWAP2 SWAP1 POP JUMP JUMPDEST PUSH1 0x0 DUP1 PUSH1 0x0 PUSH1 0x41 DUP5 MLOAD EQ PUSH2 0x172D JUMPI PUSH1 0x0 DUP1 REVERT JUMPDEST PUSH1 0x20 DUP5 ADD MLOAD SWAP2 POP PUSH1 0x40 DUP5 ADD MLOAD SWAP1 POP PUSH1 0x60 DUP5 ADD MLOAD PUSH1 0x0 BYTE SWAP3 POP SWAP2 SWAP4 SWAP1 SWAP3 POP JUMP JUMPDEST PUSH2 0x1754 PUSH2 0x1E32 JUMP JUMPDEST PUSH1 0x0 DUP5 PUSH1 0x7 PUSH2 0x1763 SWAP2 SWAP1 PUSH2 0x270C JUMP JUMPDEST PUSH1 0xFF AND DUP5 PUSH1 0x0 SHR PUSH1 0x5 PUSH2 0x1776 SWAP2 SWAP1 PUSH2 0x26B2 JUMP JUMPDEST DUP5 PUSH1 0x0 SHR PUSH1 0x3 PUSH2 0x1786 SWAP2 SWAP1 PUSH2 0x26B2 JUMP JUMPDEST PUSH2 0x1790 SWAP2 SWAP1 PUSH2 0x25C3 JUMP JUMPDEST PUSH2 0x179A SWAP2 SWAP1 PUSH2 0x25C3 JUMP JUMPDEST SWAP1 POP PUSH2 0x17A4 PUSH2 0x1E32 JUMP JUMPDEST PUSH1 0x0 JUMPDEST PUSH1 0x5 DUP2 PUSH1 0xFF AND LT ISZERO PUSH2 0x1816 JUMPI PUSH1 0x34 PUSH1 0xFF AND DUP4 PUSH2 0x17C3 SWAP2 SWAP1 PUSH2 0x2895 JUMP JUMPDEST DUP3 DUP3 PUSH1 0xFF AND PUSH1 0x5 DUP2 LT PUSH2 0x17D9 JUMPI PUSH2 0x17D8 PUSH2 0x2955 JUMP JUMPDEST JUMPDEST PUSH1 0x20 MUL ADD SWAP1 PUSH1 0xFF AND SWAP1 DUP2 PUSH1 0xFF AND DUP2 MSTORE POP POP PUSH1 0xD DUP4 PUSH1 0x1F PUSH2 0x17F9 SWAP2 SWAP1 PUSH2 0x26B2 JUMP JUMPDEST PUSH2 0x1803 SWAP2 SWAP1 PUSH2 0x25C3 JUMP JUMPDEST SWAP3 POP DUP1 PUSH2 0x180F SWAP1 PUSH2 0x2857 JUMP JUMPDEST SWAP1 POP PUSH2 0x17A7 JUMP JUMPDEST POP DUP1 SWAP3 POP POP POP SWAP4 SWAP3 POP POP POP JUMP JUMPDEST PUSH1 0x0 DUP1 PUSH1 0x0 SWAP1 POP JUMPDEST PUSH1 0x5 DUP2 LT ISZERO PUSH2 0x18CB JUMPI PUSH1 0x0 PUSH1 0x34 PUSH1 0xFF AND DUP6 PUSH2 0x1846 SWAP2 SWAP1 PUSH2 0x2895 JUMP JUMPDEST SWAP1 POP PUSH1 0x34 PUSH1 0xFF AND DUP6 PUSH2 0x1858 SWAP2 SWAP1 PUSH2 0x2650 JUMP JUMPDEST SWAP5 POP PUSH1 0x0 DUP1 JUMPDEST PUSH1 0x5 DUP2 LT ISZERO PUSH2 0x18A6 JUMPI DUP6 DUP2 PUSH1 0x5 DUP2 LT PUSH2 0x187A JUMPI PUSH2 0x1879 PUSH2 0x2955 JUMP JUMPDEST JUMPDEST PUSH1 0x20 MUL ADD MLOAD PUSH1 0xFF AND DUP4 PUSH1 0xFF AND EQ ISZERO PUSH2 0x1895 JUMPI PUSH1 0x1 SWAP2 POP PUSH2 0x18A6 JUMP JUMPDEST DUP1 PUSH2 0x189F SWAP1 PUSH2 0x280E JUMP JUMPDEST SWAP1 POP PUSH2 0x185E JUMP JUMPDEST POP DUP1 PUSH2 0x18B8 JUMPI PUSH1 0x0 SWAP4 POP POP POP POP PUSH2 0x18D1 JUMP JUMPDEST POP POP DUP1 PUSH2 0x18C4 SWAP1 PUSH2 0x280E JUMP JUMPDEST SWAP1 POP PUSH2 0x182B JUMP JUMPDEST POP PUSH1 0x1 SWAP1 POP JUMPDEST SWAP3 SWAP2 POP POP JUMP JUMPDEST PUSH1 0x0 DUP1 PUSH1 0xFF AND DUP3 PUSH1 0xFF AND EQ ISZERO PUSH2 0x18F0 JUMPI PUSH1 0x1 SWAP1 POP PUSH2 0x1A3B JUMP JUMPDEST PUSH1 0x1 PUSH1 0xFF AND DUP3 PUSH1 0xFF AND EQ ISZERO PUSH2 0x1913 JUMPI PUSH2 0x190C DUP4 PUSH1 0x2 PUSH1 0x0 PUSH2 0x1A69 JUMP JUMPDEST SWAP1 POP PUSH2 0x1A3B JUMP JUMPDEST PUSH1 0x2 PUSH1 0xFF AND DUP3 PUSH1 0xFF AND EQ ISZERO PUSH2 0x194A JUMPI PUSH2 0x192F DUP4 PUSH1 0x2 PUSH1 0x0 PUSH2 0x1A69 JUMP JUMPDEST DUP1 ISZERO PUSH2 0x1943 JUMPI POP PUSH2 0x1942 DUP4 PUSH1 0x2 DUP1 PUSH2 0x1A69 JUMP JUMPDEST JUMPDEST SWAP1 POP PUSH2 0x1A3B JUMP JUMPDEST PUSH1 0x3 PUSH1 0xFF AND DUP3 PUSH1 0xFF AND EQ ISZERO PUSH2 0x196D JUMPI PUSH2 0x1966 DUP4 PUSH1 0x3 PUSH1 0x0 PUSH2 0x1A69 JUMP JUMPDEST SWAP1 POP PUSH2 0x1A3B JUMP JUMPDEST PUSH1 0x4 PUSH1 0xFF AND DUP3 PUSH1 0xFF AND EQ ISZERO PUSH2 0x198C JUMPI PUSH2 0x1985 DUP4 PUSH2 0x1B2E JUMP JUMPDEST SWAP1 POP PUSH2 0x1A3B JUMP JUMPDEST PUSH1 0x5 PUSH1 0xFF AND DUP3 PUSH1 0xFF AND EQ ISZERO PUSH2 0x19AB JUMPI PUSH2 0x19A4 DUP4 PUSH2 0x1BCA JUMP JUMPDEST SWAP1 POP PUSH2 0x1A3B JUMP JUMPDEST PUSH1 0x6 PUSH1 0xFF AND DUP3 PUSH1 0xFF AND EQ ISZERO PUSH2 0x19E3 JUMPI PUSH2 0x19C7 DUP4 PUSH1 0x3 PUSH1 0x0 PUSH2 0x1A69 JUMP JUMPDEST DUP1 ISZERO PUSH2 0x19DC JUMPI POP PUSH2 0x19DB DUP4 PUSH1 0x2 PUSH1 0x3 PUSH2 0x1A69 JUMP JUMPDEST JUMPDEST SWAP1 POP PUSH2 0x1A3B JUMP JUMPDEST PUSH1 0x7 PUSH1 0xFF AND DUP3 PUSH1 0xFF AND EQ ISZERO PUSH2 0x1A06 JUMPI PUSH2 0x19FF DUP4 PUSH1 0x4 PUSH1 0x0 PUSH2 0x1A69 JUMP JUMPDEST SWAP1 POP PUSH2 0x1A3B JUMP JUMPDEST PUSH1 0x8 PUSH1 0xFF AND DUP3 PUSH1 0xFF AND EQ ISZERO PUSH2 0x1A36 JUMPI PUSH2 0x1A1E DUP4 PUSH2 0x1B2E JUMP JUMPDEST DUP1 ISZERO PUSH2 0x1A2F JUMPI POP PUSH2 0x1A2E DUP4 PUSH2 0x1BCA JUMP JUMPDEST JUMPDEST SWAP1 POP PUSH2 0x1A3B JUMP JUMPDEST PUSH1 0x0 SWAP1 POP JUMPDEST SWAP3 SWAP2 POP POP JUMP JUMPDEST PUSH1 0x0 DUP3 DUP3 PUSH1 0xFF AND PUSH4 0x16A97400 PUSH2 0x1A57 SWAP2 SWAP1 PUSH2 0x26B2 JUMP JUMPDEST PUSH2 0x1A61 SWAP2 SWAP1 PUSH2 0x25C3 JUMP JUMPDEST SWAP1 POP SWAP3 SWAP2 POP POP JUMP JUMPDEST PUSH1 0x0 DUP1 PUSH1 0x34 SWAP1 POP PUSH1 0x0 JUMPDEST PUSH1 0x5 DUP2 LT ISZERO PUSH2 0x1B20 JUMPI PUSH1 0x0 PUSH1 0x34 PUSH1 0xFF AND DUP8 PUSH2 0x1A8E SWAP2 SWAP1 PUSH2 0x2895 JUMP JUMPDEST SWAP1 POP PUSH1 0x0 PUSH1 0x4 DUP3 PUSH2 0x1A9F SWAP2 SWAP1 PUSH2 0x2681 JUMP JUMPDEST SWAP1 POP PUSH1 0x34 PUSH1 0xFF AND DUP9 PUSH2 0x1AB1 SWAP2 SWAP1 PUSH2 0x2650 JUMP JUMPDEST SWAP8 POP DUP6 PUSH1 0xFF AND DUP4 LT ISZERO DUP1 ISZERO PUSH2 0x1AD3 JUMPI POP DUP7 DUP7 PUSH2 0x1ACD SWAP2 SWAP1 PUSH2 0x2619 JUMP JUMPDEST PUSH1 0xFF AND DUP4 LT JUMPDEST ISZERO PUSH2 0x1B0C JUMPI PUSH1 0x34 PUSH1 0xFF AND DUP5 PUSH1 0xFF AND EQ ISZERO PUSH2 0x1AF1 JUMPI DUP1 SWAP4 POP POP POP PUSH2 0x1B0F JUMP JUMPDEST DUP1 PUSH1 0xFF AND DUP5 PUSH1 0xFF AND EQ PUSH2 0x1B0B JUMPI PUSH1 0x0 SWAP5 POP POP POP POP POP PUSH2 0x1B27 JUMP JUMPDEST JUMPDEST POP POP JUMPDEST DUP1 PUSH2 0x1B19 SWAP1 PUSH2 0x280E JUMP JUMPDEST SWAP1 POP PUSH2 0x1A73 JUMP JUMPDEST POP PUSH1 0x1 SWAP2 POP POP JUMPDEST SWAP4 SWAP3 POP POP POP JUMP JUMPDEST PUSH1 0x0 DUP1 PUSH1 0x34 SWAP1 POP PUSH1 0x0 JUMPDEST PUSH1 0x5 DUP2 LT ISZERO PUSH2 0x1BBE JUMPI PUSH1 0x0 PUSH1 0x34 PUSH1 0xFF AND DUP6 PUSH2 0x1B53 SWAP2 SWAP1 PUSH2 0x2895 JUMP JUMPDEST SWAP1 POP PUSH1 0x0 PUSH1 0x4 DUP3 PUSH2 0x1B64 SWAP2 SWAP1 PUSH2 0x2681 JUMP JUMPDEST SWAP1 POP PUSH1 0x34 PUSH1 0xFF AND DUP7 PUSH2 0x1B76 SWAP2 SWAP1 PUSH2 0x2650 JUMP JUMPDEST SWAP6 POP PUSH1 0x0 DUP4 GT ISZERO PUSH2 0x1BA8 JUMPI DUP4 PUSH1 0xFF AND PUSH1 0x1 DUP3 PUSH2 0x1B92 SWAP2 SWAP1 PUSH2 0x2619 JUMP JUMPDEST PUSH1 0xFF AND EQ PUSH2 0x1BA7 JUMPI PUSH1 0x0 SWAP5 POP POP POP POP POP PUSH2 0x1BC5 JUMP JUMPDEST JUMPDEST DUP1 SWAP4 POP POP POP DUP1 PUSH2 0x1BB7 SWAP1 PUSH2 0x280E JUMP JUMPDEST SWAP1 POP PUSH2 0x1B38 JUMP JUMPDEST POP PUSH1 0x1 SWAP2 POP POP JUMPDEST SWAP2 SWAP1 POP JUMP JUMPDEST PUSH1 0x0 DUP1 PUSH1 0x34 SWAP1 POP PUSH1 0x0 JUMPDEST PUSH1 0x5 DUP2 LT ISZERO PUSH2 0x1C5B JUMPI PUSH1 0x0 PUSH1 0x34 PUSH1 0xFF AND DUP6 PUSH2 0x1BEF SWAP2 SWAP1 PUSH2 0x2895 JUMP JUMPDEST SWAP1 POP PUSH1 0x0 PUSH1 0x4 DUP3 PUSH2 0x1C00 SWAP2 SWAP1 PUSH2 0x28C6 JUMP JUMPDEST SWAP1 POP PUSH1 0x34 PUSH1 0xFF AND DUP7 PUSH2 0x1C12 SWAP2 SWAP1 PUSH2 0x2650 JUMP JUMPDEST SWAP6 POP PUSH1 0x34 PUSH1 0xFF AND DUP5 PUSH1 0xFF AND EQ ISZERO PUSH2 0x1C2D JUMPI DUP1 SWAP4 POP POP POP PUSH2 0x1C4A JUMP JUMPDEST DUP1 PUSH1 0xFF AND DUP5 PUSH1 0xFF AND EQ PUSH2 0x1C47 JUMPI PUSH1 0x0 SWAP5 POP POP POP POP POP PUSH2 0x1C62 JUMP JUMPDEST POP POP JUMPDEST DUP1 PUSH2 0x1C54 SWAP1 PUSH2 0x280E JUMP JUMPDEST SWAP1 POP PUSH2 0x1BD4 JUMP JUMPDEST POP PUSH1 0x1 SWAP2 POP POP JUMPDEST SWAP2 SWAP1 POP JUMP JUMPDEST DUP3 DUP1 SLOAD DUP3 DUP3 SSTORE SWAP1 PUSH1 0x0 MSTORE PUSH1 0x20 PUSH1 0x0 KECCAK256 SWAP1 DUP2 ADD SWAP3 DUP3 ISZERO PUSH2 0x1CE0 JUMPI SWAP2 PUSH1 0x20 MUL DUP3 ADD JUMPDEST DUP3 DUP2 GT ISZERO PUSH2 0x1CDF JUMPI DUP3 MLOAD DUP3 PUSH1 0x0 PUSH2 0x100 EXP DUP2 SLOAD DUP2 PUSH20 0xFFFFFFFFFFFFFFFFFFFFFFFFFFFFFFFFFFFFFFFF MUL NOT AND SWAP1 DUP4 PUSH20 0xFFFFFFFFFFFFFFFFFFFFFFFFFFFFFFFFFFFFFFFF AND MUL OR SWAP1 SSTORE POP SWAP2 PUSH1 0x20 ADD SWAP2 SWAP1 PUSH1 0x1 ADD SWAP1 PUSH2 0x1C87 JUMP JUMPDEST JUMPDEST POP SWAP1 POP PUSH2 0x1CED SWAP2 SWAP1 PUSH2 0x1E54 JUMP JUMPDEST POP SWAP1 JUMP JUMPDEST DUP3 DUP1 SLOAD DUP3 DUP3 SSTORE SWAP1 PUSH1 0x0 MSTORE PUSH1 0x20 PUSH1 0x0 KECCAK256 SWAP1 DUP2 ADD SWAP3 DUP3 ISZERO PUSH2 0x1D2D JUMPI SWAP2 PUSH1 0x20 MUL DUP3 ADD JUMPDEST DUP3 DUP2 GT ISZERO PUSH2 0x1D2C JUMPI DUP3 MLOAD DUP3 SSTORE SWAP2 PUSH1 0x20 ADD SWAP2 SWAP1 PUSH1 0x1 ADD SWAP1 PUSH2 0x1D11 JUMP JUMPDEST JUMPDEST POP SWAP1 POP PUSH2 0x1D3A SWAP2 SWAP1 PUSH2 0x1E71 JUMP JUMPDEST POP SWAP1 JUMP JUMPDEST DUP3 DUP1 SLOAD DUP3 DUP3 SSTORE SWAP1 PUSH1 0x0 MSTORE PUSH1 0x20 PUSH1 0x0 KECCAK256 SWAP1 DUP2 ADD SWAP3 DUP3 ISZERO PUSH2 0x1D7A JUMPI SWAP2 PUSH1 0x20 MUL DUP3 ADD JUMPDEST DUP3 DUP2 GT ISZERO PUSH2 0x1D79 JUMPI DUP3 MLOAD DUP3 SSTORE SWAP2 PUSH1 0x20 ADD SWAP2 SWAP1 PUSH1 0x1 ADD SWAP1 PUSH2 0x1D5E JUMP JUMPDEST JUMPDEST POP SWAP1 POP PUSH2 0x1D87 SWAP2 SWAP1 PUSH2 0x1E54 JUMP JUMPDEST POP SWAP1 JUMP JUMPDEST DUP3 DUP1 SLOAD DUP3 DUP3 SSTORE SWAP1 PUSH1 0x0 MSTORE PUSH1 0x20 PUSH1 0x0 KECCAK256 SWAP1 PUSH1 0x1F ADD PUSH1 0x20 SWAP1 DIV DUP2 ADD SWAP3 DUP3 ISZERO PUSH2 0x1E21 JUMPI SWAP2 PUSH1 0x20 MUL DUP3 ADD PUSH1 0x0 JUMPDEST DUP4 DUP3 GT ISZERO PUSH2 0x1DF2 JUMPI DUP4 MLOAD DUP4 DUP3 PUSH2 0x100 EXP DUP2 SLOAD DUP2 PUSH1 0xFF MUL NOT AND SWAP1 DUP4 PUSH1 0xFF AND MUL OR SWAP1 SSTORE POP SWAP3 PUSH1 0x20 ADD SWAP3 PUSH1 0x1 ADD PUSH1 0x20 DUP2 PUSH1 0x0 ADD DIV SWAP3 DUP4 ADD SWAP3 PUSH1 0x1 SUB MUL PUSH2 0x1DB4 JUMP JUMPDEST DUP1 ISZERO PUSH2 0x1E1F JUMPI DUP3 DUP2 PUSH2 0x100 EXP DUP2 SLOAD SWAP1 PUSH1 0xFF MUL NOT AND SWAP1 SSTORE PUSH1 0x1 ADD PUSH1 0x20 DUP2 PUSH1 0x0 ADD DIV SWAP3 DUP4 ADD SWAP3 PUSH1 0x1 SUB MUL PUSH2 0x1DF2 JUMP JUMPDEST POP JUMPDEST POP SWAP1 POP PUSH2 0x1E2E SWAP2 SWAP1 PUSH2 0x1E54 JUMP JUMPDEST POP SWAP1 JUMP JUMPDEST PUSH1 0x40 MLOAD DUP1 PUSH1 0xA0 ADD PUSH1 0x40 MSTORE DUP1 PUSH1 0x5 SWAP1 PUSH1 0x20 DUP3 MUL DUP1 CALLDATASIZE DUP4 CALLDATACOPY DUP1 DUP3 ADD SWAP2 POP POP SWAP1 POP POP SWAP1 JUMP JUMPDEST JUMPDEST DUP1 DUP3 GT ISZERO PUSH2 0x1E6D JUMPI PUSH1 0x0 DUP2 PUSH1 0x0 SWAP1 SSTORE POP PUSH1 0x1 ADD PUSH2 0x1E55 JUMP JUMPDEST POP SWAP1 JUMP JUMPDEST JUMPDEST DUP1 DUP3 GT ISZERO PUSH2 0x1E8A JUMPI PUSH1 0x0 DUP2 PUSH1 0x0 SWAP1 SSTORE POP PUSH1 0x1 ADD PUSH2 0x1E72 JUMP JUMPDEST POP SWAP1 JUMP JUMPDEST PUSH1 0x0 PUSH2 0x1EA1 PUSH2 0x1E9C DUP5 PUSH2 0x2576 JUMP JUMPDEST PUSH2 0x2551 JUMP JUMPDEST SWAP1 POP DUP3 DUP2 MSTORE PUSH1 0x20 DUP2 ADD DUP5 DUP5 DUP5 ADD GT ISZERO PUSH2 0x1EBD JUMPI PUSH2 0x1EBC PUSH2 0x29B8 JUMP JUMPDEST JUMPDEST PUSH2 0x1EC8 DUP5 DUP3 DUP6 PUSH2 0x27CE JUMP JUMPDEST POP SWAP4 SWAP3 POP POP POP JUMP JUMPDEST PUSH1 0x0 DUP2 CALLDATALOAD SWAP1 POP PUSH2 0x1EDF DUP2 PUSH2 0x2BE4 JUMP JUMPDEST SWAP3 SWAP2 POP POP JUMP JUMPDEST PUSH1 0x0 DUP2 CALLDATALOAD SWAP1 POP PUSH2 0x1EF4 DUP2 PUSH2 0x2BFB JUMP JUMPDEST SWAP3 SWAP2 POP POP JUMP JUMPDEST PUSH1 0x0 DUP3 PUSH1 0x1F DUP4 ADD SLT PUSH2 0x1F0F JUMPI PUSH2 0x1F0E PUSH2 0x29B3 JUMP JUMPDEST JUMPDEST DUP2 CALLDATALOAD PUSH2 0x1F1F DUP5 DUP3 PUSH1 0x20 DUP7 ADD PUSH2 0x1E8E JUMP JUMPDEST SWAP2 POP POP SWAP3 SWAP2 POP POP JUMP JUMPDEST PUSH1 0x0 DUP2 CALLDATALOAD SWAP1 POP PUSH2 0x1F37 DUP2 PUSH2 0x2C12 JUMP JUMPDEST SWAP3 SWAP2 POP POP JUMP JUMPDEST PUSH1 0x0 DUP2 CALLDATALOAD SWAP1 POP PUSH2 0x1F4C DUP2 PUSH2 0x2C29 JUMP JUMPDEST SWAP3 SWAP2 POP POP JUMP JUMPDEST PUSH1 0x0 PUSH1 0x20 DUP3 DUP5 SUB SLT ISZERO PUSH2 0x1F68 JUMPI PUSH2 0x1F67 PUSH2 0x29C2 JUMP JUMPDEST JUMPDEST PUSH1 0x0 PUSH2 0x1F76 DUP5 DUP3 DUP6 ADD PUSH2 0x1ED0 JUMP JUMPDEST SWAP2 POP POP SWAP3 SWAP2 POP POP JUMP JUMPDEST PUSH1 0x0 PUSH1 0x20 DUP3 DUP5 SUB SLT ISZERO PUSH2 0x1F95 JUMPI PUSH2 0x1F94 PUSH2 0x29C2 JUMP JUMPDEST JUMPDEST PUSH1 0x0 PUSH2 0x1FA3 DUP5 DUP3 DUP6 ADD PUSH2 0x1F28 JUMP JUMPDEST SWAP2 POP POP SWAP3 SWAP2 POP POP JUMP JUMPDEST PUSH1 0x0 DUP1 PUSH1 0x40 DUP4 DUP6 SUB SLT ISZERO PUSH2 0x1FC3 JUMPI PUSH2 0x1FC2 PUSH2 0x29C2 JUMP JUMPDEST JUMPDEST PUSH1 0x0 PUSH2 0x1FD1 DUP6 DUP3 DUP7 ADD PUSH2 0x1F28 JUMP JUMPDEST SWAP3 POP POP PUSH1 0x20 PUSH2 0x1FE2 DUP6 DUP3 DUP7 ADD PUSH2 0x1EE5 JUMP JUMPDEST SWAP2 POP POP SWAP3 POP SWAP3 SWAP1 POP JUMP JUMPDEST PUSH1 0x0 DUP1 PUSH1 0x0 DUP1 PUSH1 0x80 DUP6 DUP8 SUB SLT ISZERO PUSH2 0x2006 JUMPI PUSH2 0x2005 PUSH2 0x29C2 JUMP JUMPDEST JUMPDEST PUSH1 0x0 PUSH2 0x2014 DUP8 DUP3 DUP9 ADD PUSH2 0x1F28 JUMP JUMPDEST SWAP5 POP POP PUSH1 0x20 PUSH2 0x2025 DUP8 DUP3 DUP9 ADD PUSH2 0x1EE5 JUMP JUMPDEST SWAP4 POP POP PUSH1 0x40 PUSH2 0x2036 DUP8 DUP3 DUP9 ADD PUSH2 0x1F3D JUMP JUMPDEST SWAP3 POP POP PUSH1 0x60 PUSH2 0x2047 DUP8 DUP3 DUP9 ADD PUSH2 0x1F3D JUMP JUMPDEST SWAP2 POP POP SWAP3 SWAP6 SWAP2 SWAP5 POP SWAP3 POP JUMP JUMPDEST PUSH1 0x0 DUP1 PUSH1 0x0 DUP1 PUSH1 0x80 DUP6 DUP8 SUB SLT ISZERO PUSH2 0x206D JUMPI PUSH2 0x206C PUSH2 0x29C2 JUMP JUMPDEST JUMPDEST PUSH1 0x0 PUSH2 0x207B DUP8 DUP3 DUP9 ADD PUSH2 0x1F28 JUMP JUMPDEST SWAP5 POP POP PUSH1 0x20 DUP6 ADD CALLDATALOAD PUSH8 0xFFFFFFFFFFFFFFFF DUP2 GT ISZERO PUSH2 0x209C JUMPI PUSH2 0x209B PUSH2 0x29BD JUMP JUMPDEST JUMPDEST PUSH2 0x20A8 DUP8 DUP3 DUP9 ADD PUSH2 0x1EFA JUMP JUMPDEST SWAP4 POP POP PUSH1 0x40 PUSH2 0x20B9 DUP8 DUP3 DUP9 ADD PUSH2 0x1F28 JUMP JUMPDEST SWAP3 POP POP PUSH1 0x60 PUSH2 0x20CA DUP8 DUP3 DUP9 ADD PUSH2 0x1F3D JUMP JUMPDEST SWAP2 POP POP SWAP3 SWAP6 SWAP2 SWAP5 POP SWAP3 POP JUMP JUMPDEST PUSH1 0x0 DUP1 PUSH1 0x40 DUP4 DUP6 SUB SLT ISZERO PUSH2 0x20ED JUMPI PUSH2 0x20EC PUSH2 0x29C2 JUMP JUMPDEST JUMPDEST PUSH1 0x0 PUSH2 0x20FB DUP6 DUP3 DUP7 ADD PUSH2 0x1F28 JUMP JUMPDEST SWAP3 POP POP PUSH1 0x20 PUSH2 0x210C DUP6 DUP3 DUP7 ADD PUSH2 0x1F28 JUMP JUMPDEST SWAP2 POP POP SWAP3 POP SWAP3 SWAP1 POP JUMP JUMPDEST PUSH1 0x0 DUP1 PUSH1 0x0 PUSH1 0x60 DUP5 DUP7 SUB SLT ISZERO PUSH2 0x212F JUMPI PUSH2 0x212E PUSH2 0x29C2 JUMP JUMPDEST JUMPDEST PUSH1 0x0 PUSH2 0x213D DUP7 DUP3 DUP8 ADD PUSH2 0x1F28 JUMP JUMPDEST SWAP4 POP POP PUSH1 0x20 PUSH2 0x214E DUP7 DUP3 DUP8 ADD PUSH2 0x1F28 JUMP JUMPDEST SWAP3 POP POP PUSH1 0x40 PUSH2 0x215F DUP7 DUP3 DUP8 ADD PUSH2 0x1EE5 JUMP JUMPDEST SWAP2 POP POP SWAP3 POP SWAP3 POP SWAP3 JUMP JUMPDEST PUSH1 0x0 DUP1 PUSH1 0x0 PUSH1 0x60 DUP5 DUP7 SUB SLT ISZERO PUSH2 0x2182 JUMPI PUSH2 0x2181 PUSH2 0x29C2 JUMP JUMPDEST JUMPDEST PUSH1 0x0 PUSH2 0x2190 DUP7 DUP3 DUP8 ADD PUSH2 0x1F28 JUMP JUMPDEST SWAP4 POP POP PUSH1 0x20 PUSH2 0x21A1 DUP7 DUP3 DUP8 ADD PUSH2 0x1F28 JUMP JUMPDEST SWAP3 POP POP PUSH1 0x40 PUSH2 0x21B2 DUP7 DUP3 DUP8 ADD PUSH2 0x1F3D JUMP JUMPDEST SWAP2 POP POP SWAP3 POP SWAP3 POP SWAP3 JUMP JUMPDEST PUSH2 0x21C5 DUP2 PUSH2 0x278D JUMP JUMPDEST DUP3 MSTORE POP POP JUMP JUMPDEST PUSH2 0x21DC PUSH2 0x21D7 DUP3 PUSH2 0x278D JUMP JUMPDEST PUSH2 0x2881 JUMP JUMPDEST DUP3 MSTORE POP POP JUMP JUMPDEST PUSH1 0x0 PUSH2 0x21EF PUSH1 0x2A DUP4 PUSH2 0x25A7 JUMP JUMPDEST SWAP2 POP PUSH2 0x21FA DUP3 PUSH2 0x29D8 JUMP JUMPDEST PUSH1 0x40 DUP3 ADD SWAP1 POP SWAP2 SWAP1 POP JUMP JUMPDEST PUSH1 0x0 PUSH2 0x2212 PUSH1 0x12 DUP4 PUSH2 0x25A7 JUMP JUMPDEST SWAP2 POP PUSH2 0x221D DUP3 PUSH2 0x2A27 JUMP JUMPDEST PUSH1 0x20 DUP3 ADD SWAP1 POP SWAP2 SWAP1 POP JUMP JUMPDEST PUSH1 0x0 PUSH2 0x2235 PUSH1 0x1C DUP4 PUSH2 0x25B8 JUMP JUMPDEST SWAP2 POP PUSH2 0x2240 DUP3 PUSH2 0x2A50 JUMP JUMPDEST PUSH1 0x1C DUP3 ADD SWAP1 POP SWAP2 SWAP1 POP JUMP JUMPDEST PUSH1 0x0 PUSH2 0x2258 PUSH1 0x13 DUP4 PUSH2 0x25A7 JUMP JUMPDEST SWAP2 POP PUSH2 0x2263 DUP3 PUSH2 0x2A79 JUMP JUMPDEST PUSH1 0x20 DUP3 ADD SWAP1 POP SWAP2 SWAP1 POP JUMP JUMPDEST PUSH1 0x0 PUSH2 0x227B PUSH1 0x1F DUP4 PUSH2 0x25A7 JUMP JUMPDEST SWAP2 POP PUSH2 0x2286 DUP3 PUSH2 0x2AA2 JUMP JUMPDEST PUSH1 0x20 DUP3 ADD SWAP1 POP SWAP2 SWAP1 POP JUMP JUMPDEST PUSH1 0x0 PUSH2 0x229E PUSH1 0x18 DUP4 PUSH2 0x25A7 JUMP JUMPDEST SWAP2 POP PUSH2 0x22A9 DUP3 PUSH2 0x2ACB JUMP JUMPDEST PUSH1 0x20 DUP3 ADD SWAP1 POP SWAP2 SWAP1 POP JUMP JUMPDEST PUSH1 0x0 PUSH2 0x22C1 PUSH1 0x2B DUP4 PUSH2 0x25A7 JUMP JUMPDEST SWAP2 POP PUSH2 0x22CC DUP3 PUSH2 0x2AF4 JUMP JUMPDEST PUSH1 0x40 DUP3 ADD SWAP1 POP SWAP2 SWAP1 POP JUMP JUMPDEST PUSH1 0x0 PUSH2 0x22E4 PUSH1 0x13 DUP4 PUSH2 0x25A7 JUMP JUMPDEST SWAP2 POP PUSH2 0x22EF DUP3 PUSH2 0x2B43 JUMP JUMPDEST PUSH1 0x20 DUP3 ADD SWAP1 POP SWAP2 SWAP1 POP JUMP JUMPDEST PUSH1 0x0 PUSH2 0x2307 PUSH1 0x2E DUP4 PUSH2 0x25A7 JUMP JUMPDEST SWAP2 POP PUSH2 0x2312 DUP3 PUSH2 0x2B6C JUMP JUMPDEST PUSH1 0x40 DUP3 ADD SWAP1 POP SWAP2 SWAP1 POP JUMP JUMPDEST PUSH1 0x0 PUSH2 0x232A PUSH1 0xA DUP4 PUSH2 0x25A7 JUMP JUMPDEST SWAP2 POP PUSH2 0x2335 DUP3 PUSH2 0x2BBB JUMP JUMPDEST PUSH1 0x20 DUP3 ADD SWAP1 POP SWAP2 SWAP1 POP JUMP JUMPDEST PUSH2 0x2349 DUP2 PUSH2 0x27B7 JUMP JUMPDEST DUP3 MSTORE POP POP JUMP JUMPDEST PUSH2 0x2360 PUSH2 0x235B DUP3 PUSH2 0x27B7 JUMP JUMPDEST PUSH2 0x288B JUMP JUMPDEST DUP3 MSTORE POP POP JUMP JUMPDEST PUSH2 0x236F DUP2 PUSH2 0x27C1 JUMP JUMPDEST DUP3 MSTORE POP POP JUMP JUMPDEST PUSH1 0x0 PUSH2 0x2380 DUP3 PUSH2 0x2228 JUMP JUMPDEST SWAP2 POP PUSH2 0x238C DUP3 DUP5 PUSH2 0x21CB JUMP JUMPDEST PUSH1 0x20 DUP3 ADD SWAP2 POP DUP2 SWAP1 POP SWAP3 SWAP2 POP POP JUMP JUMPDEST PUSH1 0x0 PUSH2 0x23A7 DUP3 DUP5 PUSH2 0x234F JUMP JUMPDEST PUSH1 0x20 DUP3 ADD SWAP2 POP DUP2 SWAP1 POP SWAP3 SWAP2 POP POP JUMP JUMPDEST PUSH1 0x0 PUSH1 0x80 DUP3 ADD SWAP1 POP PUSH2 0x23CB PUSH1 0x0 DUP4 ADD DUP8 PUSH2 0x21BC JUMP JUMPDEST PUSH2 0x23D8 PUSH1 0x20 DUP4 ADD DUP7 PUSH2 0x2366 JUMP JUMPDEST PUSH2 0x23E5 PUSH1 0x40 DUP4 ADD DUP6 PUSH2 0x21BC JUMP JUMPDEST PUSH2 0x23F2 PUSH1 0x60 DUP4 ADD DUP5 PUSH2 0x21BC JUMP JUMPDEST SWAP6 SWAP5 POP POP POP POP POP JUMP JUMPDEST PUSH1 0x0 PUSH1 0x20 DUP3 ADD SWAP1 POP DUP2 DUP2 SUB PUSH1 0x0 DUP4 ADD MSTORE PUSH2 0x2414 DUP2 PUSH2 0x21E2 JUMP JUMPDEST SWAP1 POP SWAP2 SWAP1 POP JUMP JUMPDEST PUSH1 0x0 PUSH1 0x20 DUP3 ADD SWAP1 POP DUP2 DUP2 SUB PUSH1 0x0 DUP4 ADD MSTORE PUSH2 0x2434 DUP2 PUSH2 0x2205 JUMP JUMPDEST SWAP1 POP SWAP2 SWAP1 POP JUMP JUMPDEST PUSH1 0x0 PUSH1 0x20 DUP3 ADD SWAP1 POP DUP2 DUP2 SUB PUSH1 0x0 DUP4 ADD MSTORE PUSH2 0x2454 DUP2 PUSH2 0x224B JUMP JUMPDEST SWAP1 POP SWAP2 SWAP1 POP JUMP JUMPDEST PUSH1 0x0 PUSH1 0x20 DUP3 ADD SWAP1 POP DUP2 DUP2 SUB PUSH1 0x0 DUP4 ADD MSTORE PUSH2 0x2474 DUP2 PUSH2 0x226E JUMP JUMPDEST SWAP1 POP SWAP2 SWAP1 POP JUMP JUMPDEST PUSH1 0x0 PUSH1 0x20 DUP3 ADD SWAP1 POP DUP2 DUP2 SUB PUSH1 0x0 DUP4 ADD MSTORE PUSH2 0x2494 DUP2 PUSH2 0x2291 JUMP JUMPDEST SWAP1 POP SWAP2 SWAP1 POP JUMP JUMPDEST PUSH1 0x0 PUSH1 0x20 DUP3 ADD SWAP1 POP DUP2 DUP2 SUB PUSH1 0x0 DUP4 ADD MSTORE PUSH2 0x24B4 DUP2 PUSH2 0x22B4 JUMP JUMPDEST SWAP1 POP SWAP2 SWAP1 POP JUMP JUMPDEST PUSH1 0x0 PUSH1 0x20 DUP3 ADD SWAP1 POP DUP2 DUP2 SUB PUSH1 0x0 DUP4 ADD MSTORE PUSH2 0x24D4 DUP2 PUSH2 0x22D7 JUMP JUMPDEST SWAP1 POP SWAP2 SWAP1 POP JUMP JUMPDEST PUSH1 0x0 PUSH1 0x20 DUP3 ADD SWAP1 POP DUP2 DUP2 SUB PUSH1 0x0 DUP4 ADD MSTORE PUSH2 0x24F4 DUP2 PUSH2 0x22FA JUMP JUMPDEST SWAP1 POP SWAP2 SWAP1 POP JUMP JUMPDEST PUSH1 0x0 PUSH1 0x20 DUP3 ADD SWAP1 POP DUP2 DUP2 SUB PUSH1 0x0 DUP4 ADD MSTORE PUSH2 0x2514 DUP2 PUSH2 0x231D JUMP JUMPDEST SWAP1 POP SWAP2 SWAP1 POP JUMP JUMPDEST PUSH1 0x0 PUSH1 0x20 DUP3 ADD SWAP1 POP PUSH2 0x2530 PUSH1 0x0 DUP4 ADD DUP5 PUSH2 0x2340 JUMP JUMPDEST SWAP3 SWAP2 POP POP JUMP JUMPDEST PUSH1 0x0 PUSH1 0x20 DUP3 ADD SWAP1 POP PUSH2 0x254B PUSH1 0x0 DUP4 ADD DUP5 PUSH2 0x2366 JUMP JUMPDEST SWAP3 SWAP2 POP POP JUMP JUMPDEST PUSH1 0x0 PUSH2 0x255B PUSH2 0x256C JUMP JUMPDEST SWAP1 POP PUSH2 0x2567 DUP3 DUP3 PUSH2 0x27DD JUMP JUMPDEST SWAP2 SWAP1 POP JUMP JUMPDEST PUSH1 0x0 PUSH1 0x40 MLOAD SWAP1 POP SWAP1 JUMP JUMPDEST PUSH1 0x0 PUSH8 0xFFFFFFFFFFFFFFFF DUP3 GT ISZERO PUSH2 0x2591 JUMPI PUSH2 0x2590 PUSH2 0x2984 JUMP JUMPDEST JUMPDEST PUSH2 0x259A DUP3 PUSH2 0x29C7 JUMP JUMPDEST SWAP1 POP PUSH1 0x20 DUP2 ADD SWAP1 POP SWAP2 SWAP1 POP JUMP JUMPDEST PUSH1 0x0 DUP3 DUP3 MSTORE PUSH1 0x20 DUP3 ADD SWAP1 POP SWAP3 SWAP2 POP POP JUMP JUMPDEST PUSH1 0x0 DUP2 SWAP1 POP SWAP3 SWAP2 POP POP JUMP JUMPDEST PUSH1 0x0 PUSH2 0x25CE DUP3 PUSH2 0x27B7 JUMP JUMPDEST SWAP2 POP PUSH2 0x25D9 DUP4 PUSH2 0x27B7 JUMP JUMPDEST SWAP3 POP DUP3 PUSH32 0xFFFFFFFFFFFFFFFFFFFFFFFFFFFFFFFFFFFFFFFFFFFFFFFFFFFFFFFFFFFFFFFF SUB DUP3 GT ISZERO PUSH2 0x260E JUMPI PUSH2 0x260D PUSH2 0x28F7 JUMP JUMPDEST JUMPDEST DUP3 DUP3 ADD SWAP1 POP SWAP3 SWAP2 POP POP JUMP JUMPDEST PUSH1 0x0 PUSH2 0x2624 DUP3 PUSH2 0x27C1 JUMP JUMPDEST SWAP2 POP PUSH2 0x262F DUP4 PUSH2 0x27C1 JUMP JUMPDEST SWAP3 POP DUP3 PUSH1 0xFF SUB DUP3 GT ISZERO PUSH2 0x2645 JUMPI PUSH2 0x2644 PUSH2 0x28F7 JUMP JUMPDEST JUMPDEST DUP3 DUP3 ADD SWAP1 POP SWAP3 SWAP2 POP POP JUMP JUMPDEST PUSH1 0x0 PUSH2 0x265B DUP3 PUSH2 0x27B7 JUMP JUMPDEST SWAP2 POP PUSH2 0x2666 DUP4 PUSH2 0x27B7 JUMP JUMPDEST SWAP3 POP DUP3 PUSH2 0x2676 JUMPI PUSH2 0x2675 PUSH2 0x2926 JUMP JUMPDEST JUMPDEST DUP3 DUP3 DIV SWAP1 POP SWAP3 SWAP2 POP POP JUMP JUMPDEST PUSH1 0x0 PUSH2 0x268C DUP3 PUSH2 0x27C1 JUMP JUMPDEST SWAP2 POP PUSH2 0x2697 DUP4 PUSH2 0x27C1 JUMP JUMPDEST SWAP3 POP DUP3 PUSH2 0x26A7 JUMPI PUSH2 0x26A6 PUSH2 0x2926 JUMP JUMPDEST JUMPDEST DUP3 DUP3 DIV SWAP1 POP SWAP3 SWAP2 POP POP JUMP JUMPDEST PUSH1 0x0 PUSH2 0x26BD DUP3 PUSH2 0x27B7 JUMP JUMPDEST SWAP2 POP PUSH2 0x26C8 DUP4 PUSH2 0x27B7 JUMP JUMPDEST SWAP3 POP DUP2 PUSH32 0xFFFFFFFFFFFFFFFFFFFFFFFFFFFFFFFFFFFFFFFFFFFFFFFFFFFFFFFFFFFFFFFF DIV DUP4 GT DUP3 ISZERO ISZERO AND ISZERO PUSH2 0x2701 JUMPI PUSH2 0x2700 PUSH2 0x28F7 JUMP JUMPDEST JUMPDEST DUP3 DUP3 MUL SWAP1 POP SWAP3 SWAP2 POP POP JUMP JUMPDEST PUSH1 0x0 PUSH2 0x2717 DUP3 PUSH2 0x27C1 JUMP JUMPDEST SWAP2 POP PUSH2 0x2722 DUP4 PUSH2 0x27C1 JUMP JUMPDEST SWAP3 POP DUP2 PUSH1 0xFF DIV DUP4 GT DUP3 ISZERO ISZERO AND ISZERO PUSH2 0x273C JUMPI PUSH2 0x273B PUSH2 0x28F7 JUMP JUMPDEST JUMPDEST DUP3 DUP3 MUL SWAP1 POP SWAP3 SWAP2 POP POP JUMP JUMPDEST PUSH1 0x0 PUSH2 0x2752 DUP3 PUSH2 0x27C1 JUMP JUMPDEST SWAP2 POP PUSH2 0x275D DUP4 PUSH2 0x27C1 JUMP JUMPDEST SWAP3 POP DUP3 DUP3 LT ISZERO PUSH2 0x2770 JUMPI PUSH2 0x276F PUSH2 0x28F7 JUMP JUMPDEST JUMPDEST DUP3 DUP3 SUB SWAP1 POP SWAP3 SWAP2 POP POP JUMP JUMPDEST PUSH1 0x0 PUSH2 0x2786 DUP3 PUSH2 0x2797 JUMP JUMPDEST SWAP1 POP SWAP2 SWAP1 POP JUMP JUMPDEST PUSH1 0x0 DUP2 SWAP1 POP SWAP2 SWAP1 POP JUMP JUMPDEST PUSH1 0x0 PUSH20 0xFFFFFFFFFFFFFFFFFFFFFFFFFFFFFFFFFFFFFFFF DUP3 AND SWAP1 POP SWAP2 SWAP1 POP JUMP JUMPDEST PUSH1 0x0 DUP2 SWAP1 POP SWAP2 SWAP1 POP JUMP JUMPDEST PUSH1 0x0 PUSH1 0xFF DUP3 AND SWAP1 POP SWAP2 SWAP1 POP JUMP JUMPDEST DUP3 DUP2 DUP4 CALLDATACOPY PUSH1 0x0 DUP4 DUP4 ADD MSTORE POP POP POP JUMP JUMPDEST PUSH2 0x27E6 DUP3 PUSH2 0x29C7 JUMP JUMPDEST DUP2 ADD DUP2 DUP2 LT PUSH8 0xFFFFFFFFFFFFFFFF DUP3 GT OR ISZERO PUSH2 0x2805 JUMPI PUSH2 0x2804 PUSH2 0x2984 JUMP JUMPDEST JUMPDEST DUP1 PUSH1 0x40 MSTORE POP POP POP JUMP JUMPDEST PUSH1 0x0 PUSH2 0x2819 DUP3 PUSH2 0x27B7 JUMP JUMPDEST SWAP2 POP PUSH32 0xFFFFFFFFFFFFFFFFFFFFFFFFFFFFFFFFFFFFFFFFFFFFFFFFFFFFFFFFFFFFFFFF DUP3 EQ ISZERO PUSH2 0x284C JUMPI PUSH2 0x284B PUSH2 0x28F7 JUMP JUMPDEST JUMPDEST PUSH1 0x1 DUP3 ADD SWAP1 POP SWAP2 SWAP1 POP JUMP JUMPDEST PUSH1 0x0 PUSH2 0x2862 DUP3 PUSH2 0x27C1 JUMP JUMPDEST SWAP2 POP PUSH1 0xFF DUP3 EQ ISZERO PUSH2 0x2876 JUMPI PUSH2 0x2875 PUSH2 0x28F7 JUMP JUMPDEST JUMPDEST PUSH1 0x1 DUP3 ADD SWAP1 POP SWAP2 SWAP1 POP JUMP JUMPDEST PUSH1 0x0 DUP2 SWAP1 POP SWAP2 SWAP1 POP JUMP JUMPDEST PUSH1 0x0 DUP2 SWAP1 POP SWAP2 SWAP1 POP JUMP JUMPDEST PUSH1 0x0 PUSH2 0x28A0 DUP3 PUSH2 0x27B7 JUMP JUMPDEST SWAP2 POP PUSH2 0x28AB DUP4 PUSH2 0x27B7 JUMP JUMPDEST SWAP3 POP DUP3 PUSH2 0x28BB JUMPI PUSH2 0x28BA PUSH2 0x2926 JUMP JUMPDEST JUMPDEST DUP3 DUP3 MOD SWAP1 POP SWAP3 SWAP2 POP POP JUMP JUMPDEST PUSH1 0x0 PUSH2 0x28D1 DUP3 PUSH2 0x27C1 JUMP JUMPDEST SWAP2 POP PUSH2 0x28DC DUP4 PUSH2 0x27C1 JUMP JUMPDEST SWAP3 POP DUP3 PUSH2 0x28EC JUMPI PUSH2 0x28EB PUSH2 0x2926 JUMP JUMPDEST JUMPDEST DUP3 DUP3 MOD SWAP1 POP SWAP3 SWAP2 POP POP JUMP JUMPDEST PUSH32 0x4E487B7100000000000000000000000000000000000000000000000000000000 PUSH1 0x0 MSTORE PUSH1 0x11 PUSH1 0x4 MSTORE PUSH1 0x24 PUSH1 0x0 REVERT JUMPDEST PUSH32 0x4E487B7100000000000000000000000000000000000000000000000000000000 PUSH1 0x0 MSTORE PUSH1 0x12 PUSH1 0x4 MSTORE PUSH1 0x24 PUSH1 0x0 REVERT JUMPDEST PUSH32 0x4E487B7100000000000000000000000000000000000000000000000000000000 PUSH1 0x0 MSTORE PUSH1 0x32 PUSH1 0x4 MSTORE PUSH1 0x24 PUSH1 0x0 REVERT JUMPDEST PUSH32 0x4E487B7100000000000000000000000000000000000000000000000000000000 PUSH1 0x0 MSTORE PUSH1 0x41 PUSH1 0x4 MSTORE PUSH1 0x24 PUSH1 0x0 REVERT JUMPDEST PUSH1 0x0 DUP1 REVERT JUMPDEST PUSH1 0x0 DUP1 REVERT JUMPDEST PUSH1 0x0 DUP1 REVERT JUMPDEST PUSH1 0x0 DUP1 REVERT JUMPDEST PUSH1 0x0 PUSH1 0x1F NOT PUSH1 0x1F DUP4 ADD AND SWAP1 POP SWAP2 SWAP1 POP JUMP JUMPDEST PUSH32 0x72657175697265206465706F736974206174206C6561737420626967202B2073 PUSH1 0x0 DUP3 ADD MSTORE PUSH32 0x6D616C6C20626C696E6400000000000000000000000000000000000000000000 PUSH1 0x20 DUP3 ADD MSTORE POP JUMP JUMPDEST PUSH32 0x65787065637420636C6561722073746167650000000000000000000000000000 PUSH1 0x0 DUP3 ADD MSTORE POP JUMP JUMPDEST PUSH32 0x19457468657265756D205369676E6564204D6573736167653A0A333200000000 PUSH1 0x0 DUP3 ADD MSTORE POP JUMP JUMPDEST PUSH32 0x43616C6C6572206973206E6F74206F776E657200000000000000000000000000 PUSH1 0x0 DUP3 ADD MSTORE POP JUMP JUMPDEST PUSH32 0x63616E2774206A6F696E20616C726561647920637265617465642067616D6500 PUSH1 0x0 DUP3 ADD MSTORE POP JUMP JUMPDEST PUSH32 0x63616E2774206A6F696E20746F2066756C6C207461626C650000000000000000 PUSH1 0x0 DUP3 ADD MSTORE POP JUMP JUMPDEST PUSH32 0x72657175697265206465706F73697420657175616C7320746F20626967202B20 PUSH1 0x0 DUP3 ADD MSTORE PUSH32 0x736D616C6C20626C696E64000000000000000000000000000000000000000000 PUSH1 0x20 DUP3 ADD MSTORE POP JUMP JUMPDEST PUSH32 0x6578706563742072657665616C20737461676500000000000000000000000000 PUSH1 0x0 DUP3 ADD MSTORE POP JUMP JUMPDEST PUSH32 0x73686F756C64206861766520737461746520737570706C792061667465722073 PUSH1 0x0 DUP3 ADD MSTORE PUSH32 0x74617274206F72206368616E6765000000000000000000000000000000000000 PUSH1 0x20 DUP3 ADD MSTORE POP JUMP JUMPDEST PUSH32 0x626164207369676E657200000000000000000000000000000000000000000000 PUSH1 0x0 DUP3 ADD MSTORE POP JUMP JUMPDEST PUSH2 0x2BED DUP2 PUSH2 0x277B JUMP JUMPDEST DUP2 EQ PUSH2 0x2BF8 JUMPI PUSH1 0x0 DUP1 REVERT JUMPDEST POP JUMP JUMPDEST PUSH2 0x2C04 DUP2 PUSH2 0x278D JUMP JUMPDEST DUP2 EQ PUSH2 0x2C0F JUMPI PUSH1 0x0 DUP1 REVERT JUMPDEST POP JUMP JUMPDEST PUSH2 0x2C1B DUP2 PUSH2 0x27B7 JUMP JUMPDEST DUP2 EQ PUSH2 0x2C26 JUMPI PUSH1 0x0 DUP1 REVERT JUMPDEST POP JUMP JUMPDEST PUSH2 0x2C32 DUP2 PUSH2 0x27C1 JUMP JUMPDEST DUP2 EQ PUSH2 0x2C3D JUMPI PUSH1 0x0 DUP1 REVERT JUMPDEST POP JUMP INVALID LOG2 PUSH5 0x6970667358 0x22 SLT KECCAK256 NUMBER PUSH7 0x76F548BA0D66A7 PUSH21 0x8A7D6A81AA92BEDE0933CA7721A538D709A274F99A 0x21 PUSH5 0x736F6C6343 STOP ADDMOD SMOD STOP CALLER "
		},
		"gasEstimates": {
			"creation": {
				"codeDepositCost": "2276400",
				"executionCost": "infinite",
				"totalCost": "infinite"
			},
			"external": {
				"changeOwner(address)": "26894",
				"createGame(uint256,uint256,bytes32)": "infinite",
				"joinGame(uint256,bytes32)": "infinite",
				"makeBet(uint256,uint256)": "infinite",
				"requestBank(uint256)": "infinite",
				"revealCards(uint256,bytes,uint256,uint8)": "infinite",
				"supplyRandomStateHash(uint256,bytes32,uint8,uint8)": "infinite",
				"verifyPlayerState(uint256,uint256,uint8)": "infinite"
			},
			"internal": {
				"parseCards(uint8,bytes32,bytes32)": "infinite",
				"prefixed(bytes32)": "infinite",
				"splitSignature(bytes memory)": "infinite"
			}
		},
		"methodIdentifiers": {
			"changeOwner(address)": "a6f9dae1",
			"createGame(uint256,uint256,bytes32)": "46ac2b99",
			"joinGame(uint256,bytes32)": "ac952671",
			"makeBet(uint256,uint256)": "df898e32",
			"requestBank(uint256)": "8124ce1d",
			"revealCards(uint256,bytes,uint256,uint8)": "e826f328",
			"supplyRandomStateHash(uint256,bytes32,uint8,uint8)": "17392fd6",
			"verifyPlayerState(uint256,uint256,uint8)": "0f6a565f"
		}
	},
	"abi": [
		{
			"inputs": [
				{
					"internalType": "uint256",
					"name": "_comission",
					"type": "uint256"
				}
			],
			"stateMutability": "nonpayable",
			"type": "constructor"
		},
		{
			"inputs": [
				{
					"internalType": "address",
					"name": "newOwner",
					"type": "address"
				}
			],
			"name": "changeOwner",
			"outputs": [],
			"stateMutability": "nonpayable",
			"type": "function"
		},
		{
			"inputs": [
				{
					"internalType": "uint256",
					"name": "smallBlind",
					"type": "uint256"
				},
				{
					"internalType": "uint256",
					"name": "limit",
					"type": "uint256"
				},
				{
					"internalType": "bytes32",
					"name": "randomStateHash",
					"type": "bytes32"
				}
			],
			"name": "createGame",
			"outputs": [
				{
					"internalType": "uint256",
					"name": "gameId",
					"type": "uint256"
				}
			],
			"stateMutability": "payable",
			"type": "function"
		},
		{
			"inputs": [
				{
					"internalType": "uint256",
					"name": "gameId",
					"type": "uint256"
				},
				{
					"internalType": "bytes32",
					"name": "randomStateHash",
					"type": "bytes32"
				}
			],
			"name": "joinGame",
			"outputs": [
				{
					"internalType": "uint8",
					"name": "playerId",
					"type": "uint8"
				}
			],
			"stateMutability": "payable",
			"type": "function"
		},
		{
			"inputs": [
				{
					"internalType": "uint256",
					"name": "gameId",
					"type": "uint256"
				},
				{
					"internalType": "uint256",
					"name": "playerId",
					"type": "uint256"
				}
			],
			"name": "makeBet",
			"outputs": [],
			"stateMutability": "payable",
			"type": "function"
		},
		{
			"inputs": [
				{
					"internalType": "uint256",
					"name": "gameId",
					"type": "uint256"
				}
			],
			"name": "requestBank",
			"outputs": [],
			"stateMutability": "payable",
			"type": "function"
		},
		{
			"inputs": [
				{
					"internalType": "uint256",
					"name": "gameId",
					"type": "uint256"
				},
				{
					"internalType": "bytes",
					"name": "signature",
					"type": "bytes"
				},
				{
					"internalType": "uint256",
					"name": "claimedHand",
					"type": "uint256"
				},
				{
					"internalType": "uint8",
					"name": "claimedCombination",
					"type": "uint8"
				}
			],
			"name": "revealCards",
			"outputs": [],
			"stateMutability": "nonpayable",
			"type": "function"
		},
		{
			"inputs": [
				{
					"internalType": "uint256",
					"name": "gameId",
					"type": "uint256"
				},
				{
					"internalType": "bytes32",
					"name": "randomStateHash",
					"type": "bytes32"
				},
				{
					"internalType": "uint8",
					"name": "playerId",
					"type": "uint8"
				},
				{
					"internalType": "uint8",
					"name": "cardMask",
					"type": "uint8"
				}
			],
			"name": "supplyRandomStateHash",
			"outputs": [],
			"stateMutability": "nonpayable",
			"type": "function"
		},
		{
			"inputs": [
				{
					"internalType": "uint256",
					"name": "gameId",
					"type": "uint256"
				},
				{
					"internalType": "uint256",
					"name": "randomState",
					"type": "uint256"
				},
				{
					"internalType": "uint8",
					"name": "playerId",
					"type": "uint8"
				}
			],
			"name": "verifyPlayerState",
			"outputs": [],
			"stateMutability": "nonpayable",
			"type": "function"
		}
	]
}