{
	"data": {
		"bytecode": {
			"linkReferences": {},
			"object": "608060405260006002553480156200001657600080fd5b5060405162001fc738038062001fc783398181016040528101906200003c9190620000a1565b336000806101000a81548173ffffffffffffffffffffffffffffffffffffffff021916908373ffffffffffffffffffffffffffffffffffffffff1602179055508060018190555050620000fc565b6000815190506200009b81620000e2565b92915050565b600060208284031215620000ba57620000b9620000dd565b5b6000620000ca848285016200008a565b91505092915050565b6000819050919050565b600080fd5b620000ed81620000d3565b8114620000f957600080fd5b50565b611ebb806200010c6000396000f3fe6080604052600436106100555760003560e01c8063143319301461005a57806346ac2b9914610083578063a6f9dae1146100b3578063ac952671146100dc578063c642ccfa1461010c578063e826f32814610128575b600080fd5b34801561006657600080fd5b50610081600480360381019061007c919061143e565b610151565b005b61009d6004803603810190610098919061147e565b61037d565b6040516100aa9190611830565b60405180910390f35b3480156100bf57600080fd5b506100da60048036038101906100d59190611321565b610657565b005b6100f660048036038101906100f1919061137b565b61072a565b6040516101039190611830565b60405180910390f35b6101266004803603810190610121919061134e565b61091b565b005b34801561013457600080fd5b5061014f600480360381019061014a91906113bb565b610a6e565b005b6000600360008481526020019081526020016000209050600260ff1681600a0160039054906101000a900460ff1660ff161461018c57600080fd5b60005b8160010180549050811015610335573373ffffffffffffffffffffffffffffffffffffffff168260010182815481106101cb576101ca611bc0565b5b9060005260206000200160009054906101000a900473ffffffffffffffffffffffffffffffffffffffff1673ffffffffffffffffffffffffffffffffffffffff161415610322578260405160200161022391906116b0565b6040516020818303038152906040528051906020012082600201828154811061024f5761024e611bc0565b5b90600052602060002001541461026457600080fd5b8282600601600082825461027891906118bd565b92505081905550600182600a0160028282829054906101000a900460ff166102a09190611913565b92506101000a81548160ff021916908360ff160217905550600282600a0160029054906101000a900460ff1660ff16141561031b57600082600a0160016101000a81548160ff021916908360ff160217905550428260070181905550600382600a0160036101000a81548160ff021916908360ff1602179055505b5050610379565b808061032d90611aa3565b91505061018f565b506000610377576040517f08c379a000000000000000000000000000000000000000000000000000000000815260040161036e90611750565b60405180910390fd5b505b5050565b60008284600261038d919061197b565b111561039857600080fd5b8360036103a5919061197b565b6001546103b291906118bd565b34146103f3576040517f08c379a00000000000000000000000000000000000000000000000000000000081526004016103ea906117d0565b60405180910390fd5b6002600081548092919061040690611aa3565b91905055905060608060608060606000604051806101c001604052803373ffffffffffffffffffffffffffffffffffffffff16815260200187815260200186815260200185815260200184815260200183815260200160008152602001600081526020018b81526020018a8152602001600060ff168152602001600060ff168152602001600060ff168152602001600160ff168152509050806003600089815260200190815260200160002060008201518160000160006101000a81548173ffffffffffffffffffffffffffffffffffffffff021916908373ffffffffffffffffffffffffffffffffffffffff1602179055506020820151816001019080519060200190610515929190611058565b5060408201518160020190805190602001906105329291906110e2565b50606082015181600301908051906020019061054f92919061112f565b50608082015181600401908051906020019061056c92919061117c565b5060a082015181600501908051906020019061058992919061117c565b5060c0820151816006015560e082015181600701556101008201518160080155610120820151816009015561014082015181600a0160006101000a81548160ff021916908360ff16021790555061016082015181600a0160016101000a81548160ff021916908360ff16021790555061018082015181600a0160026101000a81548160ff021916908360ff1602179055506101a082015181600a0160036101000a81548160ff021916908360ff160217905550905050610649878961072a565b505050505050509392505050565b60008054906101000a900473ffffffffffffffffffffffffffffffffffffffff168073ffffffffffffffffffffffffffffffffffffffff163373ffffffffffffffffffffffffffffffffffffffff16146106e6576040517f08c379a00000000000000000000000000000000000000000000000000000000081526004016106dd90611730565b60405180910390fd5b816000806101000a81548173ffffffffffffffffffffffffffffffffffffffff021916908373ffffffffffffffffffffffffffffffffffffffff1602179055505050565b600080600360008581526020019081526020016000209050600160ff1681600a0160039054906101000a900460ff1660ff161461079c576040517f08c379a000000000000000000000000000000000000000000000000000000000815260040161079390611770565b60405180910390fd5b806008015460036107ad919061197b565b6001546107ba91906118bd565b34146107fb576040517f08c379a00000000000000000000000000000000000000000000000000000000081526004016107f290611710565b60405180910390fd5b600260ff16816001018054905010610848576040517f08c379a000000000000000000000000000000000000000000000000000000000815260040161083f90611790565b60405180910390fd5b8060010180549050915080600101339080600181540180825580915050600190039060005260206000200160009091909190916101000a81548173ffffffffffffffffffffffffffffffffffffffff021916908373ffffffffffffffffffffffffffffffffffffffff16021790555080600201839080600181540180825580915050600190039060005260206000200160009091909190915055600260ff168160010180549050141561091457600281600a0160036101000a81548160ff021916908360ff1602179055505b5092915050565b6000600360008381526020019081526020016000209050600160ff1681600a0160039054906101000a900460ff1660ff161461098c576040517f08c379a0000000000000000000000000000000000000000000000000000000008152600401610983906117b0565b60405180910390fd5b3373ffffffffffffffffffffffffffffffffffffffff168160000160009054906101000a900473ffffffffffffffffffffffffffffffffffffffff1673ffffffffffffffffffffffffffffffffffffffff16146109e857600080fd5b3373ffffffffffffffffffffffffffffffffffffffff166108fc82600801546003610a13919061197b565b600154610a2091906118bd565b9081150290604051600060405180830381858888f19350505050158015610a4b573d6000803e3d6000fd5b50600681600a0160036101000a81548160ff021916908360ff1602179055505050565b6000600360008681526020019081526020016000209050600460ff1681600a0160039054906101000a900460ff1660ff1614610adf576040517f08c379a0000000000000000000000000000000000000000000000000000000008152600401610ad6906117f0565b60405180910390fd5b3373ffffffffffffffffffffffffffffffffffffffff168160010182600a0160019054906101000a900460ff1660ff1681548110610b2057610b1f611bc0565b5b9060005260206000200160009054906101000a900473ffffffffffffffffffffffffffffffffffffffff1673ffffffffffffffffffffffffffffffffffffffff1614610b6b57600080fd5b6000610bbf82600a0160019054906101000a900460ff1660ff168360060154610b9491906118bd565b604051602001610ba491906116b0565b60405160208183030381529060405280519060200120610e60565b90506000806000610bcf88610e90565b9250925092503373ffffffffffffffffffffffffffffffffffffffff1660018585858560405160008152602001604052604051610c0f94939291906116cb565b6020604051602081039080840390855afa158015610c31573d6000803e3d6000fd5b5050506020604051035173ffffffffffffffffffffffffffffffffffffffff1614610c91576040517f08c379a0000000000000000000000000000000000000000000000000000000008152600401610c8890611810565b60405180910390fd5b600080610c9f858585610ec2565b91509150610d278983838a600501805480602002602001604051908101604052809291908181526020018280548015610d1d57602002820191906000526020600020906000905b82829054906101000a900460ff1660ff1681526020019060010190602082600001049283019260010382029150808411610ce65790505b5050505050610f83565b610d3057600080fd5b888760030188600a0160019054906101000a900460ff1660ff1681548110610d5b57610d5a611bc0565b5b9060005260206000200181905550878760040188600a0160019054906101000a900460ff1660ff1681548110610d9457610d93611bc0565b5b90600052602060002090602091828204019190066101000a81548160ff021916908360ff1602179055506002600188600a0160019054906101000a900460ff16610dde9190611913565b610de89190611b31565b87600a0160016101000a81548160ff021916908360ff16021790555086600a0160009054906101000a900460ff1660ff1687600a0160019054906101000a900460ff1660ff161415610e5357600587600a0160036101000a81548160ff021916908360ff1602179055505b5050505050505050505050565b600081604051602001610e73919061168a565b604051602081830303815290604052805190602001209050919050565b60008060006041845114610ea357600080fd5b6020840151915060408401519050606084015160001a92509193909250565b6000806000603460ff16866007610ed991906119d5565b60ff168660001c6005610eec919061197b565b8660001c6003610efc919061197b565b610f0691906118bd565b610f1091906118bd565b610f1a9190611b00565b90506000603460ff16876011610f3091906119d5565b60ff168760001c600d610f43919061197b565b8760001c600b610f53919061197b565b610f5d91906118bd565b610f6791906118bd565b610f719190611b00565b90508181935093505050935093915050565b600080600090505b600581101561104a576000603487610fa39190611b00565b9050603487610fb2919061194a565b96508560ff168160ff1614158015610fd057508460ff168160ff1614155b15611038576000805b855181101561102457858181518110610ff557610ff4611bc0565b5b602002602001015160ff168360ff1614156110135760019150611024565b8061101d90611aa3565b9050610fd9565b50806110365760009350505050611050565b505b508061104390611aa3565b9050610f8b565b50600190505b949350505050565b8280548282559060005260206000209081019282156110d1579160200282015b828111156110d05782518260006101000a81548173ffffffffffffffffffffffffffffffffffffffff021916908373ffffffffffffffffffffffffffffffffffffffff16021790555091602001919060010190611078565b5b5090506110de9190611223565b5090565b82805482825590600052602060002090810192821561111e579160200282015b8281111561111d578251825591602001919060010190611102565b5b50905061112b9190611240565b5090565b82805482825590600052602060002090810192821561116b579160200282015b8281111561116a57825182559160200191906001019061114f565b5b5090506111789190611223565b5090565b82805482825590600052602060002090601f016020900481019282156112125791602002820160005b838211156111e357835183826101000a81548160ff021916908360ff16021790555092602001926001016020816000010492830192600103026111a5565b80156112105782816101000a81549060ff02191690556001016020816000010492830192600103026111e3565b505b50905061121f9190611223565b5090565b5b8082111561123c576000816000905550600101611224565b5090565b5b80821115611259576000816000905550600101611241565b5090565b600061127061126b84611870565b61184b565b90508281526020810184848401111561128c5761128b611c23565b5b611297848285611a63565b509392505050565b6000813590506112ae81611e29565b92915050565b6000813590506112c381611e40565b92915050565b600082601f8301126112de576112dd611c1e565b5b81356112ee84826020860161125d565b91505092915050565b60008135905061130681611e57565b92915050565b60008135905061131b81611e6e565b92915050565b60006020828403121561133757611336611c2d565b5b60006113458482850161129f565b91505092915050565b60006020828403121561136457611363611c2d565b5b6000611372848285016112f7565b91505092915050565b6000806040838503121561139257611391611c2d565b5b60006113a0858286016112f7565b92505060206113b1858286016112b4565b9150509250929050565b600080600080608085870312156113d5576113d4611c2d565b5b60006113e3878288016112f7565b945050602085013567ffffffffffffffff81111561140457611403611c28565b5b611410878288016112c9565b9350506040611421878288016112f7565b92505060606114328782880161130c565b91505092959194509250565b6000806040838503121561145557611454611c2d565b5b6000611463858286016112f7565b9250506020611474858286016112f7565b9150509250929050565b60008060006060848603121561149757611496611c2d565b5b60006114a5868287016112f7565b93505060206114b6868287016112f7565b92505060406114c7868287016112b4565b9150509250925092565b6114da81611a22565b82525050565b6114f16114ec82611a22565b611aec565b82525050565b6000611504602a836118a1565b915061150f82611c43565b604082019050919050565b6000611527601c836118b2565b915061153282611c92565b601c82019050919050565b600061154a6013836118a1565b915061155582611cbb565b602082019050919050565b600061156d6010836118a1565b915061157882611ce4565b602082019050919050565b6000611590601f836118a1565b915061159b82611d0d565b602082019050919050565b60006115b36018836118a1565b91506115be82611d36565b602082019050919050565b60006115d6601e836118a1565b91506115e182611d5f565b602082019050919050565b60006115f9602b836118a1565b915061160482611d88565b604082019050919050565b600061161c6013836118a1565b915061162782611dd7565b602082019050919050565b600061163f600a836118a1565b915061164a82611e00565b602082019050919050565b61165e81611a4c565b82525050565b61167561167082611a4c565b611af6565b82525050565b61168481611a56565b82525050565b60006116958261151a565b91506116a182846114e0565b60208201915081905092915050565b60006116bc8284611664565b60208201915081905092915050565b60006080820190506116e060008301876114d1565b6116ed602083018661167b565b6116fa60408301856114d1565b61170760608301846114d1565b95945050505050565b60006020820190508181036000830152611729816114f7565b9050919050565b600060208201905081810360008301526117498161153d565b9050919050565b6000602082019050818103600083015261176981611560565b9050919050565b6000602082019050818103600083015261178981611583565b9050919050565b600060208201905081810360008301526117a9816115a6565b9050919050565b600060208201905081810360008301526117c9816115c9565b9050919050565b600060208201905081810360008301526117e9816115ec565b9050919050565b600060208201905081810360008301526118098161160f565b9050919050565b6000602082019050818103600083015261182981611632565b9050919050565b60006020820190506118456000830184611655565b92915050565b6000611855611866565b90506118618282611a72565b919050565b6000604051905090565b600067ffffffffffffffff82111561188b5761188a611bef565b5b61189482611c32565b9050602081019050919050565b600082825260208201905092915050565b600081905092915050565b60006118c882611a4c565b91506118d383611a4c565b9250827fffffffffffffffffffffffffffffffffffffffffffffffffffffffffffffffff0382111561190857611907611b62565b5b828201905092915050565b600061191e82611a56565b915061192983611a56565b92508260ff0382111561193f5761193e611b62565b5b828201905092915050565b600061195582611a4c565b915061196083611a4c565b9250826119705761196f611b91565b5b828204905092915050565b600061198682611a4c565b915061199183611a4c565b9250817fffffffffffffffffffffffffffffffffffffffffffffffffffffffffffffffff04831182151516156119ca576119c9611b62565b5b828202905092915050565b60006119e082611a56565b91506119eb83611a56565b92508160ff0483118215151615611a0557611a04611b62565b5b828202905092915050565b6000611a1b82611a2c565b9050919050565b6000819050919050565b600073ffffffffffffffffffffffffffffffffffffffff82169050919050565b6000819050919050565b600060ff82169050919050565b82818337600083830152505050565b611a7b82611c32565b810181811067ffffffffffffffff82111715611a9a57611a99611bef565b5b80604052505050565b6000611aae82611a4c565b91507fffffffffffffffffffffffffffffffffffffffffffffffffffffffffffffffff821415611ae157611ae0611b62565b5b600182019050919050565b6000819050919050565b6000819050919050565b6000611b0b82611a4c565b9150611b1683611a4c565b925082611b2657611b25611b91565b5b828206905092915050565b6000611b3c82611a56565b9150611b4783611a56565b925082611b5757611b56611b91565b5b828206905092915050565b7f4e487b7100000000000000000000000000000000000000000000000000000000600052601160045260246000fd5b7f4e487b7100000000000000000000000000000000000000000000000000000000600052601260045260246000fd5b7f4e487b7100000000000000000000000000000000000000000000000000000000600052603260045260246000fd5b7f4e487b7100000000000000000000000000000000000000000000000000000000600052604160045260246000fd5b600080fd5b600080fd5b600080fd5b600080fd5b6000601f19601f8301169050919050565b7f72657175697265206465706f736974206174206c6561737420626967202b207360008201527f6d616c6c20626c696e6400000000000000000000000000000000000000000000602082015250565b7f19457468657265756d205369676e6564204d6573736167653a0a333200000000600082015250565b7f43616c6c6572206973206e6f74206f776e657200000000000000000000000000600082015250565b7f756e726561636861626c6520636f646500000000000000000000000000000000600082015250565b7f63616e2774206a6f696e20616c726561647920637265617465642067616d6500600082015250565b7f63616e2774206a6f696e20746f2066756c6c207461626c650000000000000000600082015250565b7f63616e2774206573636170652066726f6d20737461727465642067616d650000600082015250565b7f72657175697265206465706f73697420657175616c7320746f20626967202b2060008201527f736d616c6c20626c696e64000000000000000000000000000000000000000000602082015250565b7f6578706563742072657665616c20737461676500000000000000000000000000600082015250565b7f626164207369676e657200000000000000000000000000000000000000000000600082015250565b611e3281611a10565b8114611e3d57600080fd5b50565b611e4981611a22565b8114611e5457600080fd5b50565b611e6081611a4c565b8114611e6b57600080fd5b50565b611e7781611a56565b8114611e8257600080fd5b5056fea26469706673582212206de0fa2feed01d9be1e9da19a615bcd68b0ad9823d0730f1fb0483f0ecb9b11064736f6c63430008070033",
			"opcodes": "PUSH1 0x80 PUSH1 0x40 MSTORE PUSH1 0x0 PUSH1 0x2 SSTORE CALLVALUE DUP1 ISZERO PUSH3 0x16 JUMPI PUSH1 0x0 DUP1 REVERT JUMPDEST POP PUSH1 0x40 MLOAD PUSH3 0x1FC7 CODESIZE SUB DUP1 PUSH3 0x1FC7 DUP4 CODECOPY DUP2 DUP2 ADD PUSH1 0x40 MSTORE DUP2 ADD SWAP1 PUSH3 0x3C SWAP2 SWAP1 PUSH3 0xA1 JUMP JUMPDEST CALLER PUSH1 0x0 DUP1 PUSH2 0x100 EXP DUP2 SLOAD DUP2 PUSH20 0xFFFFFFFFFFFFFFFFFFFFFFFFFFFFFFFFFFFFFFFF MUL NOT AND SWAP1 DUP4 PUSH20 0xFFFFFFFFFFFFFFFFFFFFFFFFFFFFFFFFFFFFFFFF AND MUL OR SWAP1 SSTORE POP DUP1 PUSH1 0x1 DUP2 SWAP1 SSTORE POP POP PUSH3 0xFC JUMP JUMPDEST PUSH1 0x0 DUP2 MLOAD SWAP1 POP PUSH3 0x9B DUP2 PUSH3 0xE2 JUMP JUMPDEST SWAP3 SWAP2 POP POP JUMP JUMPDEST PUSH1 0x0 PUSH1 0x20 DUP3 DUP5 SUB SLT ISZERO PUSH3 0xBA JUMPI PUSH3 0xB9 PUSH3 0xDD JUMP JUMPDEST JUMPDEST PUSH1 0x0 PUSH3 0xCA DUP5 DUP3 DUP6 ADD PUSH3 0x8A JUMP JUMPDEST SWAP2 POP POP SWAP3 SWAP2 POP POP JUMP JUMPDEST PUSH1 0x0 DUP2 SWAP1 POP SWAP2 SWAP1 POP JUMP JUMPDEST PUSH1 0x0 DUP1 REVERT JUMPDEST PUSH3 0xED DUP2 PUSH3 0xD3 JUMP JUMPDEST DUP2 EQ PUSH3 0xF9 JUMPI PUSH1 0x0 DUP1 REVERT JUMPDEST POP JUMP JUMPDEST PUSH2 0x1EBB DUP1 PUSH3 0x10C PUSH1 0x0 CODECOPY PUSH1 0x0 RETURN INVALID PUSH1 0x80 PUSH1 0x40 MSTORE PUSH1 0x4 CALLDATASIZE LT PUSH2 0x55 JUMPI PUSH1 0x0 CALLDATALOAD PUSH1 0xE0 SHR DUP1 PUSH4 0x14331930 EQ PUSH2 0x5A JUMPI DUP1 PUSH4 0x46AC2B99 EQ PUSH2 0x83 JUMPI DUP1 PUSH4 0xA6F9DAE1 EQ PUSH2 0xB3 JUMPI DUP1 PUSH4 0xAC952671 EQ PUSH2 0xDC JUMPI DUP1 PUSH4 0xC642CCFA EQ PUSH2 0x10C JUMPI DUP1 PUSH4 0xE826F328 EQ PUSH2 0x128 JUMPI JUMPDEST PUSH1 0x0 DUP1 REVERT JUMPDEST CALLVALUE DUP1 ISZERO PUSH2 0x66 JUMPI PUSH1 0x0 DUP1 REVERT JUMPDEST POP PUSH2 0x81 PUSH1 0x4 DUP1 CALLDATASIZE SUB DUP2 ADD SWAP1 PUSH2 0x7C SWAP2 SWAP1 PUSH2 0x143E JUMP JUMPDEST PUSH2 0x151 JUMP JUMPDEST STOP JUMPDEST PUSH2 0x9D PUSH1 0x4 DUP1 CALLDATASIZE SUB DUP2 ADD SWAP1 PUSH2 0x98 SWAP2 SWAP1 PUSH2 0x147E JUMP JUMPDEST PUSH2 0x37D JUMP JUMPDEST PUSH1 0x40 MLOAD PUSH2 0xAA SWAP2 SWAP1 PUSH2 0x1830 JUMP JUMPDEST PUSH1 0x40 MLOAD DUP1 SWAP2 SUB SWAP1 RETURN JUMPDEST CALLVALUE DUP1 ISZERO PUSH2 0xBF JUMPI PUSH1 0x0 DUP1 REVERT JUMPDEST POP PUSH2 0xDA PUSH1 0x4 DUP1 CALLDATASIZE SUB DUP2 ADD SWAP1 PUSH2 0xD5 SWAP2 SWAP1 PUSH2 0x1321 JUMP JUMPDEST PUSH2 0x657 JUMP JUMPDEST STOP JUMPDEST PUSH2 0xF6 PUSH1 0x4 DUP1 CALLDATASIZE SUB DUP2 ADD SWAP1 PUSH2 0xF1 SWAP2 SWAP1 PUSH2 0x137B JUMP JUMPDEST PUSH2 0x72A JUMP JUMPDEST PUSH1 0x40 MLOAD PUSH2 0x103 SWAP2 SWAP1 PUSH2 0x1830 JUMP JUMPDEST PUSH1 0x40 MLOAD DUP1 SWAP2 SUB SWAP1 RETURN JUMPDEST PUSH2 0x126 PUSH1 0x4 DUP1 CALLDATASIZE SUB DUP2 ADD SWAP1 PUSH2 0x121 SWAP2 SWAP1 PUSH2 0x134E JUMP JUMPDEST PUSH2 0x91B JUMP JUMPDEST STOP JUMPDEST CALLVALUE DUP1 ISZERO PUSH2 0x134 JUMPI PUSH1 0x0 DUP1 REVERT JUMPDEST POP PUSH2 0x14F PUSH1 0x4 DUP1 CALLDATASIZE SUB DUP2 ADD SWAP1 PUSH2 0x14A SWAP2 SWAP1 PUSH2 0x13BB JUMP JUMPDEST PUSH2 0xA6E JUMP JUMPDEST STOP JUMPDEST PUSH1 0x0 PUSH1 0x3 PUSH1 0x0 DUP5 DUP2 MSTORE PUSH1 0x20 ADD SWAP1 DUP2 MSTORE PUSH1 0x20 ADD PUSH1 0x0 KECCAK256 SWAP1 POP PUSH1 0x2 PUSH1 0xFF AND DUP2 PUSH1 0xA ADD PUSH1 0x3 SWAP1 SLOAD SWAP1 PUSH2 0x100 EXP SWAP1 DIV PUSH1 0xFF AND PUSH1 0xFF AND EQ PUSH2 0x18C JUMPI PUSH1 0x0 DUP1 REVERT JUMPDEST PUSH1 0x0 JUMPDEST DUP2 PUSH1 0x1 ADD DUP1 SLOAD SWAP1 POP DUP2 LT ISZERO PUSH2 0x335 JUMPI CALLER PUSH20 0xFFFFFFFFFFFFFFFFFFFFFFFFFFFFFFFFFFFFFFFF AND DUP3 PUSH1 0x1 ADD DUP3 DUP2 SLOAD DUP2 LT PUSH2 0x1CB JUMPI PUSH2 0x1CA PUSH2 0x1BC0 JUMP JUMPDEST JUMPDEST SWAP1 PUSH1 0x0 MSTORE PUSH1 0x20 PUSH1 0x0 KECCAK256 ADD PUSH1 0x0 SWAP1 SLOAD SWAP1 PUSH2 0x100 EXP SWAP1 DIV PUSH20 0xFFFFFFFFFFFFFFFFFFFFFFFFFFFFFFFFFFFFFFFF AND PUSH20 0xFFFFFFFFFFFFFFFFFFFFFFFFFFFFFFFFFFFFFFFF AND EQ ISZERO PUSH2 0x322 JUMPI DUP3 PUSH1 0x40 MLOAD PUSH1 0x20 ADD PUSH2 0x223 SWAP2 SWAP1 PUSH2 0x16B0 JUMP JUMPDEST PUSH1 0x40 MLOAD PUSH1 0x20 DUP2 DUP4 SUB SUB DUP2 MSTORE SWAP1 PUSH1 0x40 MSTORE DUP1 MLOAD SWAP1 PUSH1 0x20 ADD KECCAK256 DUP3 PUSH1 0x2 ADD DUP3 DUP2 SLOAD DUP2 LT PUSH2 0x24F JUMPI PUSH2 0x24E PUSH2 0x1BC0 JUMP JUMPDEST JUMPDEST SWAP1 PUSH1 0x0 MSTORE PUSH1 0x20 PUSH1 0x0 KECCAK256 ADD SLOAD EQ PUSH2 0x264 JUMPI PUSH1 0x0 DUP1 REVERT JUMPDEST DUP3 DUP3 PUSH1 0x6 ADD PUSH1 0x0 DUP3 DUP3 SLOAD PUSH2 0x278 SWAP2 SWAP1 PUSH2 0x18BD JUMP JUMPDEST SWAP3 POP POP DUP2 SWAP1 SSTORE POP PUSH1 0x1 DUP3 PUSH1 0xA ADD PUSH1 0x2 DUP3 DUP3 DUP3 SWAP1 SLOAD SWAP1 PUSH2 0x100 EXP SWAP1 DIV PUSH1 0xFF AND PUSH2 0x2A0 SWAP2 SWAP1 PUSH2 0x1913 JUMP JUMPDEST SWAP3 POP PUSH2 0x100 EXP DUP2 SLOAD DUP2 PUSH1 0xFF MUL NOT AND SWAP1 DUP4 PUSH1 0xFF AND MUL OR SWAP1 SSTORE POP PUSH1 0x2 DUP3 PUSH1 0xA ADD PUSH1 0x2 SWAP1 SLOAD SWAP1 PUSH2 0x100 EXP SWAP1 DIV PUSH1 0xFF AND PUSH1 0xFF AND EQ ISZERO PUSH2 0x31B JUMPI PUSH1 0x0 DUP3 PUSH1 0xA ADD PUSH1 0x1 PUSH2 0x100 EXP DUP2 SLOAD DUP2 PUSH1 0xFF MUL NOT AND SWAP1 DUP4 PUSH1 0xFF AND MUL OR SWAP1 SSTORE POP TIMESTAMP DUP3 PUSH1 0x7 ADD DUP2 SWAP1 SSTORE POP PUSH1 0x3 DUP3 PUSH1 0xA ADD PUSH1 0x3 PUSH2 0x100 EXP DUP2 SLOAD DUP2 PUSH1 0xFF MUL NOT AND SWAP1 DUP4 PUSH1 0xFF AND MUL OR SWAP1 SSTORE POP JUMPDEST POP POP PUSH2 0x379 JUMP JUMPDEST DUP1 DUP1 PUSH2 0x32D SWAP1 PUSH2 0x1AA3 JUMP JUMPDEST SWAP2 POP POP PUSH2 0x18F JUMP JUMPDEST POP PUSH1 0x0 PUSH2 0x377 JUMPI PUSH1 0x40 MLOAD PUSH32 0x8C379A000000000000000000000000000000000000000000000000000000000 DUP2 MSTORE PUSH1 0x4 ADD PUSH2 0x36E SWAP1 PUSH2 0x1750 JUMP JUMPDEST PUSH1 0x40 MLOAD DUP1 SWAP2 SUB SWAP1 REVERT JUMPDEST POP JUMPDEST POP POP JUMP JUMPDEST PUSH1 0x0 DUP3 DUP5 PUSH1 0x2 PUSH2 0x38D SWAP2 SWAP1 PUSH2 0x197B JUMP JUMPDEST GT ISZERO PUSH2 0x398 JUMPI PUSH1 0x0 DUP1 REVERT JUMPDEST DUP4 PUSH1 0x3 PUSH2 0x3A5 SWAP2 SWAP1 PUSH2 0x197B JUMP JUMPDEST PUSH1 0x1 SLOAD PUSH2 0x3B2 SWAP2 SWAP1 PUSH2 0x18BD JUMP JUMPDEST CALLVALUE EQ PUSH2 0x3F3 JUMPI PUSH1 0x40 MLOAD PUSH32 0x8C379A000000000000000000000000000000000000000000000000000000000 DUP2 MSTORE PUSH1 0x4 ADD PUSH2 0x3EA SWAP1 PUSH2 0x17D0 JUMP JUMPDEST PUSH1 0x40 MLOAD DUP1 SWAP2 SUB SWAP1 REVERT JUMPDEST PUSH1 0x2 PUSH1 0x0 DUP2 SLOAD DUP1 SWAP3 SWAP2 SWAP1 PUSH2 0x406 SWAP1 PUSH2 0x1AA3 JUMP JUMPDEST SWAP2 SWAP1 POP SSTORE SWAP1 POP PUSH1 0x60 DUP1 PUSH1 0x60 DUP1 PUSH1 0x60 PUSH1 0x0 PUSH1 0x40 MLOAD DUP1 PUSH2 0x1C0 ADD PUSH1 0x40 MSTORE DUP1 CALLER PUSH20 0xFFFFFFFFFFFFFFFFFFFFFFFFFFFFFFFFFFFFFFFF AND DUP2 MSTORE PUSH1 0x20 ADD DUP8 DUP2 MSTORE PUSH1 0x20 ADD DUP7 DUP2 MSTORE PUSH1 0x20 ADD DUP6 DUP2 MSTORE PUSH1 0x20 ADD DUP5 DUP2 MSTORE PUSH1 0x20 ADD DUP4 DUP2 MSTORE PUSH1 0x20 ADD PUSH1 0x0 DUP2 MSTORE PUSH1 0x20 ADD PUSH1 0x0 DUP2 MSTORE PUSH1 0x20 ADD DUP12 DUP2 MSTORE PUSH1 0x20 ADD DUP11 DUP2 MSTORE PUSH1 0x20 ADD PUSH1 0x0 PUSH1 0xFF AND DUP2 MSTORE PUSH1 0x20 ADD PUSH1 0x0 PUSH1 0xFF AND DUP2 MSTORE PUSH1 0x20 ADD PUSH1 0x0 PUSH1 0xFF AND DUP2 MSTORE PUSH1 0x20 ADD PUSH1 0x1 PUSH1 0xFF AND DUP2 MSTORE POP SWAP1 POP DUP1 PUSH1 0x3 PUSH1 0x0 DUP10 DUP2 MSTORE PUSH1 0x20 ADD SWAP1 DUP2 MSTORE PUSH1 0x20 ADD PUSH1 0x0 KECCAK256 PUSH1 0x0 DUP3 ADD MLOAD DUP2 PUSH1 0x0 ADD PUSH1 0x0 PUSH2 0x100 EXP DUP2 SLOAD DUP2 PUSH20 0xFFFFFFFFFFFFFFFFFFFFFFFFFFFFFFFFFFFFFFFF MUL NOT AND SWAP1 DUP4 PUSH20 0xFFFFFFFFFFFFFFFFFFFFFFFFFFFFFFFFFFFFFFFF AND MUL OR SWAP1 SSTORE POP PUSH1 0x20 DUP3 ADD MLOAD DUP2 PUSH1 0x1 ADD SWAP1 DUP1 MLOAD SWAP1 PUSH1 0x20 ADD SWAP1 PUSH2 0x515 SWAP3 SWAP2 SWAP1 PUSH2 0x1058 JUMP JUMPDEST POP PUSH1 0x40 DUP3 ADD MLOAD DUP2 PUSH1 0x2 ADD SWAP1 DUP1 MLOAD SWAP1 PUSH1 0x20 ADD SWAP1 PUSH2 0x532 SWAP3 SWAP2 SWAP1 PUSH2 0x10E2 JUMP JUMPDEST POP PUSH1 0x60 DUP3 ADD MLOAD DUP2 PUSH1 0x3 ADD SWAP1 DUP1 MLOAD SWAP1 PUSH1 0x20 ADD SWAP1 PUSH2 0x54F SWAP3 SWAP2 SWAP1 PUSH2 0x112F JUMP JUMPDEST POP PUSH1 0x80 DUP3 ADD MLOAD DUP2 PUSH1 0x4 ADD SWAP1 DUP1 MLOAD SWAP1 PUSH1 0x20 ADD SWAP1 PUSH2 0x56C SWAP3 SWAP2 SWAP1 PUSH2 0x117C JUMP JUMPDEST POP PUSH1 0xA0 DUP3 ADD MLOAD DUP2 PUSH1 0x5 ADD SWAP1 DUP1 MLOAD SWAP1 PUSH1 0x20 ADD SWAP1 PUSH2 0x589 SWAP3 SWAP2 SWAP1 PUSH2 0x117C JUMP JUMPDEST POP PUSH1 0xC0 DUP3 ADD MLOAD DUP2 PUSH1 0x6 ADD SSTORE PUSH1 0xE0 DUP3 ADD MLOAD DUP2 PUSH1 0x7 ADD SSTORE PUSH2 0x100 DUP3 ADD MLOAD DUP2 PUSH1 0x8 ADD SSTORE PUSH2 0x120 DUP3 ADD MLOAD DUP2 PUSH1 0x9 ADD SSTORE PUSH2 0x140 DUP3 ADD MLOAD DUP2 PUSH1 0xA ADD PUSH1 0x0 PUSH2 0x100 EXP DUP2 SLOAD DUP2 PUSH1 0xFF MUL NOT AND SWAP1 DUP4 PUSH1 0xFF AND MUL OR SWAP1 SSTORE POP PUSH2 0x160 DUP3 ADD MLOAD DUP2 PUSH1 0xA ADD PUSH1 0x1 PUSH2 0x100 EXP DUP2 SLOAD DUP2 PUSH1 0xFF MUL NOT AND SWAP1 DUP4 PUSH1 0xFF AND MUL OR SWAP1 SSTORE POP PUSH2 0x180 DUP3 ADD MLOAD DUP2 PUSH1 0xA ADD PUSH1 0x2 PUSH2 0x100 EXP DUP2 SLOAD DUP2 PUSH1 0xFF MUL NOT AND SWAP1 DUP4 PUSH1 0xFF AND MUL OR SWAP1 SSTORE POP PUSH2 0x1A0 DUP3 ADD MLOAD DUP2 PUSH1 0xA ADD PUSH1 0x3 PUSH2 0x100 EXP DUP2 SLOAD DUP2 PUSH1 0xFF MUL NOT AND SWAP1 DUP4 PUSH1 0xFF AND MUL OR SWAP1 SSTORE POP SWAP1 POP POP PUSH2 0x649 DUP8 DUP10 PUSH2 0x72A JUMP JUMPDEST POP POP POP POP POP POP POP SWAP4 SWAP3 POP POP POP JUMP JUMPDEST PUSH1 0x0 DUP1 SLOAD SWAP1 PUSH2 0x100 EXP SWAP1 DIV PUSH20 0xFFFFFFFFFFFFFFFFFFFFFFFFFFFFFFFFFFFFFFFF AND DUP1 PUSH20 0xFFFFFFFFFFFFFFFFFFFFFFFFFFFFFFFFFFFFFFFF AND CALLER PUSH20 0xFFFFFFFFFFFFFFFFFFFFFFFFFFFFFFFFFFFFFFFF AND EQ PUSH2 0x6E6 JUMPI PUSH1 0x40 MLOAD PUSH32 0x8C379A000000000000000000000000000000000000000000000000000000000 DUP2 MSTORE PUSH1 0x4 ADD PUSH2 0x6DD SWAP1 PUSH2 0x1730 JUMP JUMPDEST PUSH1 0x40 MLOAD DUP1 SWAP2 SUB SWAP1 REVERT JUMPDEST DUP2 PUSH1 0x0 DUP1 PUSH2 0x100 EXP DUP2 SLOAD DUP2 PUSH20 0xFFFFFFFFFFFFFFFFFFFFFFFFFFFFFFFFFFFFFFFF MUL NOT AND SWAP1 DUP4 PUSH20 0xFFFFFFFFFFFFFFFFFFFFFFFFFFFFFFFFFFFFFFFF AND MUL OR SWAP1 SSTORE POP POP POP JUMP JUMPDEST PUSH1 0x0 DUP1 PUSH1 0x3 PUSH1 0x0 DUP6 DUP2 MSTORE PUSH1 0x20 ADD SWAP1 DUP2 MSTORE PUSH1 0x20 ADD PUSH1 0x0 KECCAK256 SWAP1 POP PUSH1 0x1 PUSH1 0xFF AND DUP2 PUSH1 0xA ADD PUSH1 0x3 SWAP1 SLOAD SWAP1 PUSH2 0x100 EXP SWAP1 DIV PUSH1 0xFF AND PUSH1 0xFF AND EQ PUSH2 0x79C JUMPI PUSH1 0x40 MLOAD PUSH32 0x8C379A000000000000000000000000000000000000000000000000000000000 DUP2 MSTORE PUSH1 0x4 ADD PUSH2 0x793 SWAP1 PUSH2 0x1770 JUMP JUMPDEST PUSH1 0x40 MLOAD DUP1 SWAP2 SUB SWAP1 REVERT JUMPDEST DUP1 PUSH1 0x8 ADD SLOAD PUSH1 0x3 PUSH2 0x7AD SWAP2 SWAP1 PUSH2 0x197B JUMP JUMPDEST PUSH1 0x1 SLOAD PUSH2 0x7BA SWAP2 SWAP1 PUSH2 0x18BD JUMP JUMPDEST CALLVALUE EQ PUSH2 0x7FB JUMPI PUSH1 0x40 MLOAD PUSH32 0x8C379A000000000000000000000000000000000000000000000000000000000 DUP2 MSTORE PUSH1 0x4 ADD PUSH2 0x7F2 SWAP1 PUSH2 0x1710 JUMP JUMPDEST PUSH1 0x40 MLOAD DUP1 SWAP2 SUB SWAP1 REVERT JUMPDEST PUSH1 0x2 PUSH1 0xFF AND DUP2 PUSH1 0x1 ADD DUP1 SLOAD SWAP1 POP LT PUSH2 0x848 JUMPI PUSH1 0x40 MLOAD PUSH32 0x8C379A000000000000000000000000000000000000000000000000000000000 DUP2 MSTORE PUSH1 0x4 ADD PUSH2 0x83F SWAP1 PUSH2 0x1790 JUMP JUMPDEST PUSH1 0x40 MLOAD DUP1 SWAP2 SUB SWAP1 REVERT JUMPDEST DUP1 PUSH1 0x1 ADD DUP1 SLOAD SWAP1 POP SWAP2 POP DUP1 PUSH1 0x1 ADD CALLER SWAP1 DUP1 PUSH1 0x1 DUP2 SLOAD ADD DUP1 DUP3 SSTORE DUP1 SWAP2 POP POP PUSH1 0x1 SWAP1 SUB SWAP1 PUSH1 0x0 MSTORE PUSH1 0x20 PUSH1 0x0 KECCAK256 ADD PUSH1 0x0 SWAP1 SWAP2 SWAP1 SWAP2 SWAP1 SWAP2 PUSH2 0x100 EXP DUP2 SLOAD DUP2 PUSH20 0xFFFFFFFFFFFFFFFFFFFFFFFFFFFFFFFFFFFFFFFF MUL NOT AND SWAP1 DUP4 PUSH20 0xFFFFFFFFFFFFFFFFFFFFFFFFFFFFFFFFFFFFFFFF AND MUL OR SWAP1 SSTORE POP DUP1 PUSH1 0x2 ADD DUP4 SWAP1 DUP1 PUSH1 0x1 DUP2 SLOAD ADD DUP1 DUP3 SSTORE DUP1 SWAP2 POP POP PUSH1 0x1 SWAP1 SUB SWAP1 PUSH1 0x0 MSTORE PUSH1 0x20 PUSH1 0x0 KECCAK256 ADD PUSH1 0x0 SWAP1 SWAP2 SWAP1 SWAP2 SWAP1 SWAP2 POP SSTORE PUSH1 0x2 PUSH1 0xFF AND DUP2 PUSH1 0x1 ADD DUP1 SLOAD SWAP1 POP EQ ISZERO PUSH2 0x914 JUMPI PUSH1 0x2 DUP2 PUSH1 0xA ADD PUSH1 0x3 PUSH2 0x100 EXP DUP2 SLOAD DUP2 PUSH1 0xFF MUL NOT AND SWAP1 DUP4 PUSH1 0xFF AND MUL OR SWAP1 SSTORE POP JUMPDEST POP SWAP3 SWAP2 POP POP JUMP JUMPDEST PUSH1 0x0 PUSH1 0x3 PUSH1 0x0 DUP4 DUP2 MSTORE PUSH1 0x20 ADD SWAP1 DUP2 MSTORE PUSH1 0x20 ADD PUSH1 0x0 KECCAK256 SWAP1 POP PUSH1 0x1 PUSH1 0xFF AND DUP2 PUSH1 0xA ADD PUSH1 0x3 SWAP1 SLOAD SWAP1 PUSH2 0x100 EXP SWAP1 DIV PUSH1 0xFF AND PUSH1 0xFF AND EQ PUSH2 0x98C JUMPI PUSH1 0x40 MLOAD PUSH32 0x8C379A000000000000000000000000000000000000000000000000000000000 DUP2 MSTORE PUSH1 0x4 ADD PUSH2 0x983 SWAP1 PUSH2 0x17B0 JUMP JUMPDEST PUSH1 0x40 MLOAD DUP1 SWAP2 SUB SWAP1 REVERT JUMPDEST CALLER PUSH20 0xFFFFFFFFFFFFFFFFFFFFFFFFFFFFFFFFFFFFFFFF AND DUP2 PUSH1 0x0 ADD PUSH1 0x0 SWAP1 SLOAD SWAP1 PUSH2 0x100 EXP SWAP1 DIV PUSH20 0xFFFFFFFFFFFFFFFFFFFFFFFFFFFFFFFFFFFFFFFF AND PUSH20 0xFFFFFFFFFFFFFFFFFFFFFFFFFFFFFFFFFFFFFFFF AND EQ PUSH2 0x9E8 JUMPI PUSH1 0x0 DUP1 REVERT JUMPDEST CALLER PUSH20 0xFFFFFFFFFFFFFFFFFFFFFFFFFFFFFFFFFFFFFFFF AND PUSH2 0x8FC DUP3 PUSH1 0x8 ADD SLOAD PUSH1 0x3 PUSH2 0xA13 SWAP2 SWAP1 PUSH2 0x197B JUMP JUMPDEST PUSH1 0x1 SLOAD PUSH2 0xA20 SWAP2 SWAP1 PUSH2 0x18BD JUMP JUMPDEST SWAP1 DUP2 ISZERO MUL SWAP1 PUSH1 0x40 MLOAD PUSH1 0x0 PUSH1 0x40 MLOAD DUP1 DUP4 SUB DUP2 DUP6 DUP9 DUP9 CALL SWAP4 POP POP POP POP ISZERO DUP1 ISZERO PUSH2 0xA4B JUMPI RETURNDATASIZE PUSH1 0x0 DUP1 RETURNDATACOPY RETURNDATASIZE PUSH1 0x0 REVERT JUMPDEST POP PUSH1 0x6 DUP2 PUSH1 0xA ADD PUSH1 0x3 PUSH2 0x100 EXP DUP2 SLOAD DUP2 PUSH1 0xFF MUL NOT AND SWAP1 DUP4 PUSH1 0xFF AND MUL OR SWAP1 SSTORE POP POP POP JUMP JUMPDEST PUSH1 0x0 PUSH1 0x3 PUSH1 0x0 DUP7 DUP2 MSTORE PUSH1 0x20 ADD SWAP1 DUP2 MSTORE PUSH1 0x20 ADD PUSH1 0x0 KECCAK256 SWAP1 POP PUSH1 0x4 PUSH1 0xFF AND DUP2 PUSH1 0xA ADD PUSH1 0x3 SWAP1 SLOAD SWAP1 PUSH2 0x100 EXP SWAP1 DIV PUSH1 0xFF AND PUSH1 0xFF AND EQ PUSH2 0xADF JUMPI PUSH1 0x40 MLOAD PUSH32 0x8C379A000000000000000000000000000000000000000000000000000000000 DUP2 MSTORE PUSH1 0x4 ADD PUSH2 0xAD6 SWAP1 PUSH2 0x17F0 JUMP JUMPDEST PUSH1 0x40 MLOAD DUP1 SWAP2 SUB SWAP1 REVERT JUMPDEST CALLER PUSH20 0xFFFFFFFFFFFFFFFFFFFFFFFFFFFFFFFFFFFFFFFF AND DUP2 PUSH1 0x1 ADD DUP3 PUSH1 0xA ADD PUSH1 0x1 SWAP1 SLOAD SWAP1 PUSH2 0x100 EXP SWAP1 DIV PUSH1 0xFF AND PUSH1 0xFF AND DUP2 SLOAD DUP2 LT PUSH2 0xB20 JUMPI PUSH2 0xB1F PUSH2 0x1BC0 JUMP JUMPDEST JUMPDEST SWAP1 PUSH1 0x0 MSTORE PUSH1 0x20 PUSH1 0x0 KECCAK256 ADD PUSH1 0x0 SWAP1 SLOAD SWAP1 PUSH2 0x100 EXP SWAP1 DIV PUSH20 0xFFFFFFFFFFFFFFFFFFFFFFFFFFFFFFFFFFFFFFFF AND PUSH20 0xFFFFFFFFFFFFFFFFFFFFFFFFFFFFFFFFFFFFFFFF AND EQ PUSH2 0xB6B JUMPI PUSH1 0x0 DUP1 REVERT JUMPDEST PUSH1 0x0 PUSH2 0xBBF DUP3 PUSH1 0xA ADD PUSH1 0x1 SWAP1 SLOAD SWAP1 PUSH2 0x100 EXP SWAP1 DIV PUSH1 0xFF AND PUSH1 0xFF AND DUP4 PUSH1 0x6 ADD SLOAD PUSH2 0xB94 SWAP2 SWAP1 PUSH2 0x18BD JUMP JUMPDEST PUSH1 0x40 MLOAD PUSH1 0x20 ADD PUSH2 0xBA4 SWAP2 SWAP1 PUSH2 0x16B0 JUMP JUMPDEST PUSH1 0x40 MLOAD PUSH1 0x20 DUP2 DUP4 SUB SUB DUP2 MSTORE SWAP1 PUSH1 0x40 MSTORE DUP1 MLOAD SWAP1 PUSH1 0x20 ADD KECCAK256 PUSH2 0xE60 JUMP JUMPDEST SWAP1 POP PUSH1 0x0 DUP1 PUSH1 0x0 PUSH2 0xBCF DUP9 PUSH2 0xE90 JUMP JUMPDEST SWAP3 POP SWAP3 POP SWAP3 POP CALLER PUSH20 0xFFFFFFFFFFFFFFFFFFFFFFFFFFFFFFFFFFFFFFFF AND PUSH1 0x1 DUP6 DUP6 DUP6 DUP6 PUSH1 0x40 MLOAD PUSH1 0x0 DUP2 MSTORE PUSH1 0x20 ADD PUSH1 0x40 MSTORE PUSH1 0x40 MLOAD PUSH2 0xC0F SWAP5 SWAP4 SWAP3 SWAP2 SWAP1 PUSH2 0x16CB JUMP JUMPDEST PUSH1 0x20 PUSH1 0x40 MLOAD PUSH1 0x20 DUP2 SUB SWAP1 DUP1 DUP5 SUB SWAP1 DUP6 GAS STATICCALL ISZERO DUP1 ISZERO PUSH2 0xC31 JUMPI RETURNDATASIZE PUSH1 0x0 DUP1 RETURNDATACOPY RETURNDATASIZE PUSH1 0x0 REVERT JUMPDEST POP POP POP PUSH1 0x20 PUSH1 0x40 MLOAD SUB MLOAD PUSH20 0xFFFFFFFFFFFFFFFFFFFFFFFFFFFFFFFFFFFFFFFF AND EQ PUSH2 0xC91 JUMPI PUSH1 0x40 MLOAD PUSH32 0x8C379A000000000000000000000000000000000000000000000000000000000 DUP2 MSTORE PUSH1 0x4 ADD PUSH2 0xC88 SWAP1 PUSH2 0x1810 JUMP JUMPDEST PUSH1 0x40 MLOAD DUP1 SWAP2 SUB SWAP1 REVERT JUMPDEST PUSH1 0x0 DUP1 PUSH2 0xC9F DUP6 DUP6 DUP6 PUSH2 0xEC2 JUMP JUMPDEST SWAP2 POP SWAP2 POP PUSH2 0xD27 DUP10 DUP4 DUP4 DUP11 PUSH1 0x5 ADD DUP1 SLOAD DUP1 PUSH1 0x20 MUL PUSH1 0x20 ADD PUSH1 0x40 MLOAD SWAP1 DUP2 ADD PUSH1 0x40 MSTORE DUP1 SWAP3 SWAP2 SWAP1 DUP2 DUP2 MSTORE PUSH1 0x20 ADD DUP3 DUP1 SLOAD DUP1 ISZERO PUSH2 0xD1D JUMPI PUSH1 0x20 MUL DUP3 ADD SWAP2 SWAP1 PUSH1 0x0 MSTORE PUSH1 0x20 PUSH1 0x0 KECCAK256 SWAP1 PUSH1 0x0 SWAP1 JUMPDEST DUP3 DUP3 SWAP1 SLOAD SWAP1 PUSH2 0x100 EXP SWAP1 DIV PUSH1 0xFF AND PUSH1 0xFF AND DUP2 MSTORE PUSH1 0x20 ADD SWAP1 PUSH1 0x1 ADD SWAP1 PUSH1 0x20 DUP3 PUSH1 0x0 ADD DIV SWAP3 DUP4 ADD SWAP3 PUSH1 0x1 SUB DUP3 MUL SWAP2 POP DUP1 DUP5 GT PUSH2 0xCE6 JUMPI SWAP1 POP JUMPDEST POP POP POP POP POP PUSH2 0xF83 JUMP JUMPDEST PUSH2 0xD30 JUMPI PUSH1 0x0 DUP1 REVERT JUMPDEST DUP9 DUP8 PUSH1 0x3 ADD DUP9 PUSH1 0xA ADD PUSH1 0x1 SWAP1 SLOAD SWAP1 PUSH2 0x100 EXP SWAP1 DIV PUSH1 0xFF AND PUSH1 0xFF AND DUP2 SLOAD DUP2 LT PUSH2 0xD5B JUMPI PUSH2 0xD5A PUSH2 0x1BC0 JUMP JUMPDEST JUMPDEST SWAP1 PUSH1 0x0 MSTORE PUSH1 0x20 PUSH1 0x0 KECCAK256 ADD DUP2 SWAP1 SSTORE POP DUP8 DUP8 PUSH1 0x4 ADD DUP9 PUSH1 0xA ADD PUSH1 0x1 SWAP1 SLOAD SWAP1 PUSH2 0x100 EXP SWAP1 DIV PUSH1 0xFF AND PUSH1 0xFF AND DUP2 SLOAD DUP2 LT PUSH2 0xD94 JUMPI PUSH2 0xD93 PUSH2 0x1BC0 JUMP JUMPDEST JUMPDEST SWAP1 PUSH1 0x0 MSTORE PUSH1 0x20 PUSH1 0x0 KECCAK256 SWAP1 PUSH1 0x20 SWAP2 DUP3 DUP3 DIV ADD SWAP2 SWAP1 MOD PUSH2 0x100 EXP DUP2 SLOAD DUP2 PUSH1 0xFF MUL NOT AND SWAP1 DUP4 PUSH1 0xFF AND MUL OR SWAP1 SSTORE POP PUSH1 0x2 PUSH1 0x1 DUP9 PUSH1 0xA ADD PUSH1 0x1 SWAP1 SLOAD SWAP1 PUSH2 0x100 EXP SWAP1 DIV PUSH1 0xFF AND PUSH2 0xDDE SWAP2 SWAP1 PUSH2 0x1913 JUMP JUMPDEST PUSH2 0xDE8 SWAP2 SWAP1 PUSH2 0x1B31 JUMP JUMPDEST DUP8 PUSH1 0xA ADD PUSH1 0x1 PUSH2 0x100 EXP DUP2 SLOAD DUP2 PUSH1 0xFF MUL NOT AND SWAP1 DUP4 PUSH1 0xFF AND MUL OR SWAP1 SSTORE POP DUP7 PUSH1 0xA ADD PUSH1 0x0 SWAP1 SLOAD SWAP1 PUSH2 0x100 EXP SWAP1 DIV PUSH1 0xFF AND PUSH1 0xFF AND DUP8 PUSH1 0xA ADD PUSH1 0x1 SWAP1 SLOAD SWAP1 PUSH2 0x100 EXP SWAP1 DIV PUSH1 0xFF AND PUSH1 0xFF AND EQ ISZERO PUSH2 0xE53 JUMPI PUSH1 0x5 DUP8 PUSH1 0xA ADD PUSH1 0x3 PUSH2 0x100 EXP DUP2 SLOAD DUP2 PUSH1 0xFF MUL NOT AND SWAP1 DUP4 PUSH1 0xFF AND MUL OR SWAP1 SSTORE POP JUMPDEST POP POP POP POP POP POP POP POP POP POP POP JUMP JUMPDEST PUSH1 0x0 DUP2 PUSH1 0x40 MLOAD PUSH1 0x20 ADD PUSH2 0xE73 SWAP2 SWAP1 PUSH2 0x168A JUMP JUMPDEST PUSH1 0x40 MLOAD PUSH1 0x20 DUP2 DUP4 SUB SUB DUP2 MSTORE SWAP1 PUSH1 0x40 MSTORE DUP1 MLOAD SWAP1 PUSH1 0x20 ADD KECCAK256 SWAP1 POP SWAP2 SWAP1 POP JUMP JUMPDEST PUSH1 0x0 DUP1 PUSH1 0x0 PUSH1 0x41 DUP5 MLOAD EQ PUSH2 0xEA3 JUMPI PUSH1 0x0 DUP1 REVERT JUMPDEST PUSH1 0x20 DUP5 ADD MLOAD SWAP2 POP PUSH1 0x40 DUP5 ADD MLOAD SWAP1 POP PUSH1 0x60 DUP5 ADD MLOAD PUSH1 0x0 BYTE SWAP3 POP SWAP2 SWAP4 SWAP1 SWAP3 POP JUMP JUMPDEST PUSH1 0x0 DUP1 PUSH1 0x0 PUSH1 0x34 PUSH1 0xFF AND DUP7 PUSH1 0x7 PUSH2 0xED9 SWAP2 SWAP1 PUSH2 0x19D5 JUMP JUMPDEST PUSH1 0xFF AND DUP7 PUSH1 0x0 SHR PUSH1 0x5 PUSH2 0xEEC SWAP2 SWAP1 PUSH2 0x197B JUMP JUMPDEST DUP7 PUSH1 0x0 SHR PUSH1 0x3 PUSH2 0xEFC SWAP2 SWAP1 PUSH2 0x197B JUMP JUMPDEST PUSH2 0xF06 SWAP2 SWAP1 PUSH2 0x18BD JUMP JUMPDEST PUSH2 0xF10 SWAP2 SWAP1 PUSH2 0x18BD JUMP JUMPDEST PUSH2 0xF1A SWAP2 SWAP1 PUSH2 0x1B00 JUMP JUMPDEST SWAP1 POP PUSH1 0x0 PUSH1 0x34 PUSH1 0xFF AND DUP8 PUSH1 0x11 PUSH2 0xF30 SWAP2 SWAP1 PUSH2 0x19D5 JUMP JUMPDEST PUSH1 0xFF AND DUP8 PUSH1 0x0 SHR PUSH1 0xD PUSH2 0xF43 SWAP2 SWAP1 PUSH2 0x197B JUMP JUMPDEST DUP8 PUSH1 0x0 SHR PUSH1 0xB PUSH2 0xF53 SWAP2 SWAP1 PUSH2 0x197B JUMP JUMPDEST PUSH2 0xF5D SWAP2 SWAP1 PUSH2 0x18BD JUMP JUMPDEST PUSH2 0xF67 SWAP2 SWAP1 PUSH2 0x18BD JUMP JUMPDEST PUSH2 0xF71 SWAP2 SWAP1 PUSH2 0x1B00 JUMP JUMPDEST SWAP1 POP DUP2 DUP2 SWAP4 POP SWAP4 POP POP POP SWAP4 POP SWAP4 SWAP2 POP POP JUMP JUMPDEST PUSH1 0x0 DUP1 PUSH1 0x0 SWAP1 POP JUMPDEST PUSH1 0x5 DUP2 LT ISZERO PUSH2 0x104A JUMPI PUSH1 0x0 PUSH1 0x34 DUP8 PUSH2 0xFA3 SWAP2 SWAP1 PUSH2 0x1B00 JUMP JUMPDEST SWAP1 POP PUSH1 0x34 DUP8 PUSH2 0xFB2 SWAP2 SWAP1 PUSH2 0x194A JUMP JUMPDEST SWAP7 POP DUP6 PUSH1 0xFF AND DUP2 PUSH1 0xFF AND EQ ISZERO DUP1 ISZERO PUSH2 0xFD0 JUMPI POP DUP5 PUSH1 0xFF AND DUP2 PUSH1 0xFF AND EQ ISZERO JUMPDEST ISZERO PUSH2 0x1038 JUMPI PUSH1 0x0 DUP1 JUMPDEST DUP6 MLOAD DUP2 LT ISZERO PUSH2 0x1024 JUMPI DUP6 DUP2 DUP2 MLOAD DUP2 LT PUSH2 0xFF5 JUMPI PUSH2 0xFF4 PUSH2 0x1BC0 JUMP JUMPDEST JUMPDEST PUSH1 0x20 MUL PUSH1 0x20 ADD ADD MLOAD PUSH1 0xFF AND DUP4 PUSH1 0xFF AND EQ ISZERO PUSH2 0x1013 JUMPI PUSH1 0x1 SWAP2 POP PUSH2 0x1024 JUMP JUMPDEST DUP1 PUSH2 0x101D SWAP1 PUSH2 0x1AA3 JUMP JUMPDEST SWAP1 POP PUSH2 0xFD9 JUMP JUMPDEST POP DUP1 PUSH2 0x1036 JUMPI PUSH1 0x0 SWAP4 POP POP POP POP PUSH2 0x1050 JUMP JUMPDEST POP JUMPDEST POP DUP1 PUSH2 0x1043 SWAP1 PUSH2 0x1AA3 JUMP JUMPDEST SWAP1 POP PUSH2 0xF8B JUMP JUMPDEST POP PUSH1 0x1 SWAP1 POP JUMPDEST SWAP5 SWAP4 POP POP POP POP JUMP JUMPDEST DUP3 DUP1 SLOAD DUP3 DUP3 SSTORE SWAP1 PUSH1 0x0 MSTORE PUSH1 0x20 PUSH1 0x0 KECCAK256 SWAP1 DUP2 ADD SWAP3 DUP3 ISZERO PUSH2 0x10D1 JUMPI SWAP2 PUSH1 0x20 MUL DUP3 ADD JUMPDEST DUP3 DUP2 GT ISZERO PUSH2 0x10D0 JUMPI DUP3 MLOAD DUP3 PUSH1 0x0 PUSH2 0x100 EXP DUP2 SLOAD DUP2 PUSH20 0xFFFFFFFFFFFFFFFFFFFFFFFFFFFFFFFFFFFFFFFF MUL NOT AND SWAP1 DUP4 PUSH20 0xFFFFFFFFFFFFFFFFFFFFFFFFFFFFFFFFFFFFFFFF AND MUL OR SWAP1 SSTORE POP SWAP2 PUSH1 0x20 ADD SWAP2 SWAP1 PUSH1 0x1 ADD SWAP1 PUSH2 0x1078 JUMP JUMPDEST JUMPDEST POP SWAP1 POP PUSH2 0x10DE SWAP2 SWAP1 PUSH2 0x1223 JUMP JUMPDEST POP SWAP1 JUMP JUMPDEST DUP3 DUP1 SLOAD DUP3 DUP3 SSTORE SWAP1 PUSH1 0x0 MSTORE PUSH1 0x20 PUSH1 0x0 KECCAK256 SWAP1 DUP2 ADD SWAP3 DUP3 ISZERO PUSH2 0x111E JUMPI SWAP2 PUSH1 0x20 MUL DUP3 ADD JUMPDEST DUP3 DUP2 GT ISZERO PUSH2 0x111D JUMPI DUP3 MLOAD DUP3 SSTORE SWAP2 PUSH1 0x20 ADD SWAP2 SWAP1 PUSH1 0x1 ADD SWAP1 PUSH2 0x1102 JUMP JUMPDEST JUMPDEST POP SWAP1 POP PUSH2 0x112B SWAP2 SWAP1 PUSH2 0x1240 JUMP JUMPDEST POP SWAP1 JUMP JUMPDEST DUP3 DUP1 SLOAD DUP3 DUP3 SSTORE SWAP1 PUSH1 0x0 MSTORE PUSH1 0x20 PUSH1 0x0 KECCAK256 SWAP1 DUP2 ADD SWAP3 DUP3 ISZERO PUSH2 0x116B JUMPI SWAP2 PUSH1 0x20 MUL DUP3 ADD JUMPDEST DUP3 DUP2 GT ISZERO PUSH2 0x116A JUMPI DUP3 MLOAD DUP3 SSTORE SWAP2 PUSH1 0x20 ADD SWAP2 SWAP1 PUSH1 0x1 ADD SWAP1 PUSH2 0x114F JUMP JUMPDEST JUMPDEST POP SWAP1 POP PUSH2 0x1178 SWAP2 SWAP1 PUSH2 0x1223 JUMP JUMPDEST POP SWAP1 JUMP JUMPDEST DUP3 DUP1 SLOAD DUP3 DUP3 SSTORE SWAP1 PUSH1 0x0 MSTORE PUSH1 0x20 PUSH1 0x0 KECCAK256 SWAP1 PUSH1 0x1F ADD PUSH1 0x20 SWAP1 DIV DUP2 ADD SWAP3 DUP3 ISZERO PUSH2 0x1212 JUMPI SWAP2 PUSH1 0x20 MUL DUP3 ADD PUSH1 0x0 JUMPDEST DUP4 DUP3 GT ISZERO PUSH2 0x11E3 JUMPI DUP4 MLOAD DUP4 DUP3 PUSH2 0x100 EXP DUP2 SLOAD DUP2 PUSH1 0xFF MUL NOT AND SWAP1 DUP4 PUSH1 0xFF AND MUL OR SWAP1 SSTORE POP SWAP3 PUSH1 0x20 ADD SWAP3 PUSH1 0x1 ADD PUSH1 0x20 DUP2 PUSH1 0x0 ADD DIV SWAP3 DUP4 ADD SWAP3 PUSH1 0x1 SUB MUL PUSH2 0x11A5 JUMP JUMPDEST DUP1 ISZERO PUSH2 0x1210 JUMPI DUP3 DUP2 PUSH2 0x100 EXP DUP2 SLOAD SWAP1 PUSH1 0xFF MUL NOT AND SWAP1 SSTORE PUSH1 0x1 ADD PUSH1 0x20 DUP2 PUSH1 0x0 ADD DIV SWAP3 DUP4 ADD SWAP3 PUSH1 0x1 SUB MUL PUSH2 0x11E3 JUMP JUMPDEST POP JUMPDEST POP SWAP1 POP PUSH2 0x121F SWAP2 SWAP1 PUSH2 0x1223 JUMP JUMPDEST POP SWAP1 JUMP JUMPDEST JUMPDEST DUP1 DUP3 GT ISZERO PUSH2 0x123C JUMPI PUSH1 0x0 DUP2 PUSH1 0x0 SWAP1 SSTORE POP PUSH1 0x1 ADD PUSH2 0x1224 JUMP JUMPDEST POP SWAP1 JUMP JUMPDEST JUMPDEST DUP1 DUP3 GT ISZERO PUSH2 0x1259 JUMPI PUSH1 0x0 DUP2 PUSH1 0x0 SWAP1 SSTORE POP PUSH1 0x1 ADD PUSH2 0x1241 JUMP JUMPDEST POP SWAP1 JUMP JUMPDEST PUSH1 0x0 PUSH2 0x1270 PUSH2 0x126B DUP5 PUSH2 0x1870 JUMP JUMPDEST PUSH2 0x184B JUMP JUMPDEST SWAP1 POP DUP3 DUP2 MSTORE PUSH1 0x20 DUP2 ADD DUP5 DUP5 DUP5 ADD GT ISZERO PUSH2 0x128C JUMPI PUSH2 0x128B PUSH2 0x1C23 JUMP JUMPDEST JUMPDEST PUSH2 0x1297 DUP5 DUP3 DUP6 PUSH2 0x1A63 JUMP JUMPDEST POP SWAP4 SWAP3 POP POP POP JUMP JUMPDEST PUSH1 0x0 DUP2 CALLDATALOAD SWAP1 POP PUSH2 0x12AE DUP2 PUSH2 0x1E29 JUMP JUMPDEST SWAP3 SWAP2 POP POP JUMP JUMPDEST PUSH1 0x0 DUP2 CALLDATALOAD SWAP1 POP PUSH2 0x12C3 DUP2 PUSH2 0x1E40 JUMP JUMPDEST SWAP3 SWAP2 POP POP JUMP JUMPDEST PUSH1 0x0 DUP3 PUSH1 0x1F DUP4 ADD SLT PUSH2 0x12DE JUMPI PUSH2 0x12DD PUSH2 0x1C1E JUMP JUMPDEST JUMPDEST DUP2 CALLDATALOAD PUSH2 0x12EE DUP5 DUP3 PUSH1 0x20 DUP7 ADD PUSH2 0x125D JUMP JUMPDEST SWAP2 POP POP SWAP3 SWAP2 POP POP JUMP JUMPDEST PUSH1 0x0 DUP2 CALLDATALOAD SWAP1 POP PUSH2 0x1306 DUP2 PUSH2 0x1E57 JUMP JUMPDEST SWAP3 SWAP2 POP POP JUMP JUMPDEST PUSH1 0x0 DUP2 CALLDATALOAD SWAP1 POP PUSH2 0x131B DUP2 PUSH2 0x1E6E JUMP JUMPDEST SWAP3 SWAP2 POP POP JUMP JUMPDEST PUSH1 0x0 PUSH1 0x20 DUP3 DUP5 SUB SLT ISZERO PUSH2 0x1337 JUMPI PUSH2 0x1336 PUSH2 0x1C2D JUMP JUMPDEST JUMPDEST PUSH1 0x0 PUSH2 0x1345 DUP5 DUP3 DUP6 ADD PUSH2 0x129F JUMP JUMPDEST SWAP2 POP POP SWAP3 SWAP2 POP POP JUMP JUMPDEST PUSH1 0x0 PUSH1 0x20 DUP3 DUP5 SUB SLT ISZERO PUSH2 0x1364 JUMPI PUSH2 0x1363 PUSH2 0x1C2D JUMP JUMPDEST JUMPDEST PUSH1 0x0 PUSH2 0x1372 DUP5 DUP3 DUP6 ADD PUSH2 0x12F7 JUMP JUMPDEST SWAP2 POP POP SWAP3 SWAP2 POP POP JUMP JUMPDEST PUSH1 0x0 DUP1 PUSH1 0x40 DUP4 DUP6 SUB SLT ISZERO PUSH2 0x1392 JUMPI PUSH2 0x1391 PUSH2 0x1C2D JUMP JUMPDEST JUMPDEST PUSH1 0x0 PUSH2 0x13A0 DUP6 DUP3 DUP7 ADD PUSH2 0x12F7 JUMP JUMPDEST SWAP3 POP POP PUSH1 0x20 PUSH2 0x13B1 DUP6 DUP3 DUP7 ADD PUSH2 0x12B4 JUMP JUMPDEST SWAP2 POP POP SWAP3 POP SWAP3 SWAP1 POP JUMP JUMPDEST PUSH1 0x0 DUP1 PUSH1 0x0 DUP1 PUSH1 0x80 DUP6 DUP8 SUB SLT ISZERO PUSH2 0x13D5 JUMPI PUSH2 0x13D4 PUSH2 0x1C2D JUMP JUMPDEST JUMPDEST PUSH1 0x0 PUSH2 0x13E3 DUP8 DUP3 DUP9 ADD PUSH2 0x12F7 JUMP JUMPDEST SWAP5 POP POP PUSH1 0x20 DUP6 ADD CALLDATALOAD PUSH8 0xFFFFFFFFFFFFFFFF DUP2 GT ISZERO PUSH2 0x1404 JUMPI PUSH2 0x1403 PUSH2 0x1C28 JUMP JUMPDEST JUMPDEST PUSH2 0x1410 DUP8 DUP3 DUP9 ADD PUSH2 0x12C9 JUMP JUMPDEST SWAP4 POP POP PUSH1 0x40 PUSH2 0x1421 DUP8 DUP3 DUP9 ADD PUSH2 0x12F7 JUMP JUMPDEST SWAP3 POP POP PUSH1 0x60 PUSH2 0x1432 DUP8 DUP3 DUP9 ADD PUSH2 0x130C JUMP JUMPDEST SWAP2 POP POP SWAP3 SWAP6 SWAP2 SWAP5 POP SWAP3 POP JUMP JUMPDEST PUSH1 0x0 DUP1 PUSH1 0x40 DUP4 DUP6 SUB SLT ISZERO PUSH2 0x1455 JUMPI PUSH2 0x1454 PUSH2 0x1C2D JUMP JUMPDEST JUMPDEST PUSH1 0x0 PUSH2 0x1463 DUP6 DUP3 DUP7 ADD PUSH2 0x12F7 JUMP JUMPDEST SWAP3 POP POP PUSH1 0x20 PUSH2 0x1474 DUP6 DUP3 DUP7 ADD PUSH2 0x12F7 JUMP JUMPDEST SWAP2 POP POP SWAP3 POP SWAP3 SWAP1 POP JUMP JUMPDEST PUSH1 0x0 DUP1 PUSH1 0x0 PUSH1 0x60 DUP5 DUP7 SUB SLT ISZERO PUSH2 0x1497 JUMPI PUSH2 0x1496 PUSH2 0x1C2D JUMP JUMPDEST JUMPDEST PUSH1 0x0 PUSH2 0x14A5 DUP7 DUP3 DUP8 ADD PUSH2 0x12F7 JUMP JUMPDEST SWAP4 POP POP PUSH1 0x20 PUSH2 0x14B6 DUP7 DUP3 DUP8 ADD PUSH2 0x12F7 JUMP JUMPDEST SWAP3 POP POP PUSH1 0x40 PUSH2 0x14C7 DUP7 DUP3 DUP8 ADD PUSH2 0x12B4 JUMP JUMPDEST SWAP2 POP POP SWAP3 POP SWAP3 POP SWAP3 JUMP JUMPDEST PUSH2 0x14DA DUP2 PUSH2 0x1A22 JUMP JUMPDEST DUP3 MSTORE POP POP JUMP JUMPDEST PUSH2 0x14F1 PUSH2 0x14EC DUP3 PUSH2 0x1A22 JUMP JUMPDEST PUSH2 0x1AEC JUMP JUMPDEST DUP3 MSTORE POP POP JUMP JUMPDEST PUSH1 0x0 PUSH2 0x1504 PUSH1 0x2A DUP4 PUSH2 0x18A1 JUMP JUMPDEST SWAP2 POP PUSH2 0x150F DUP3 PUSH2 0x1C43 JUMP JUMPDEST PUSH1 0x40 DUP3 ADD SWAP1 POP SWAP2 SWAP1 POP JUMP JUMPDEST PUSH1 0x0 PUSH2 0x1527 PUSH1 0x1C DUP4 PUSH2 0x18B2 JUMP JUMPDEST SWAP2 POP PUSH2 0x1532 DUP3 PUSH2 0x1C92 JUMP JUMPDEST PUSH1 0x1C DUP3 ADD SWAP1 POP SWAP2 SWAP1 POP JUMP JUMPDEST PUSH1 0x0 PUSH2 0x154A PUSH1 0x13 DUP4 PUSH2 0x18A1 JUMP JUMPDEST SWAP2 POP PUSH2 0x1555 DUP3 PUSH2 0x1CBB JUMP JUMPDEST PUSH1 0x20 DUP3 ADD SWAP1 POP SWAP2 SWAP1 POP JUMP JUMPDEST PUSH1 0x0 PUSH2 0x156D PUSH1 0x10 DUP4 PUSH2 0x18A1 JUMP JUMPDEST SWAP2 POP PUSH2 0x1578 DUP3 PUSH2 0x1CE4 JUMP JUMPDEST PUSH1 0x20 DUP3 ADD SWAP1 POP SWAP2 SWAP1 POP JUMP JUMPDEST PUSH1 0x0 PUSH2 0x1590 PUSH1 0x1F DUP4 PUSH2 0x18A1 JUMP JUMPDEST SWAP2 POP PUSH2 0x159B DUP3 PUSH2 0x1D0D JUMP JUMPDEST PUSH1 0x20 DUP3 ADD SWAP1 POP SWAP2 SWAP1 POP JUMP JUMPDEST PUSH1 0x0 PUSH2 0x15B3 PUSH1 0x18 DUP4 PUSH2 0x18A1 JUMP JUMPDEST SWAP2 POP PUSH2 0x15BE DUP3 PUSH2 0x1D36 JUMP JUMPDEST PUSH1 0x20 DUP3 ADD SWAP1 POP SWAP2 SWAP1 POP JUMP JUMPDEST PUSH1 0x0 PUSH2 0x15D6 PUSH1 0x1E DUP4 PUSH2 0x18A1 JUMP JUMPDEST SWAP2 POP PUSH2 0x15E1 DUP3 PUSH2 0x1D5F JUMP JUMPDEST PUSH1 0x20 DUP3 ADD SWAP1 POP SWAP2 SWAP1 POP JUMP JUMPDEST PUSH1 0x0 PUSH2 0x15F9 PUSH1 0x2B DUP4 PUSH2 0x18A1 JUMP JUMPDEST SWAP2 POP PUSH2 0x1604 DUP3 PUSH2 0x1D88 JUMP JUMPDEST PUSH1 0x40 DUP3 ADD SWAP1 POP SWAP2 SWAP1 POP JUMP JUMPDEST PUSH1 0x0 PUSH2 0x161C PUSH1 0x13 DUP4 PUSH2 0x18A1 JUMP JUMPDEST SWAP2 POP PUSH2 0x1627 DUP3 PUSH2 0x1DD7 JUMP JUMPDEST PUSH1 0x20 DUP3 ADD SWAP1 POP SWAP2 SWAP1 POP JUMP JUMPDEST PUSH1 0x0 PUSH2 0x163F PUSH1 0xA DUP4 PUSH2 0x18A1 JUMP JUMPDEST SWAP2 POP PUSH2 0x164A DUP3 PUSH2 0x1E00 JUMP JUMPDEST PUSH1 0x20 DUP3 ADD SWAP1 POP SWAP2 SWAP1 POP JUMP JUMPDEST PUSH2 0x165E DUP2 PUSH2 0x1A4C JUMP JUMPDEST DUP3 MSTORE POP POP JUMP JUMPDEST PUSH2 0x1675 PUSH2 0x1670 DUP3 PUSH2 0x1A4C JUMP JUMPDEST PUSH2 0x1AF6 JUMP JUMPDEST DUP3 MSTORE POP POP JUMP JUMPDEST PUSH2 0x1684 DUP2 PUSH2 0x1A56 JUMP JUMPDEST DUP3 MSTORE POP POP JUMP JUMPDEST PUSH1 0x0 PUSH2 0x1695 DUP3 PUSH2 0x151A JUMP JUMPDEST SWAP2 POP PUSH2 0x16A1 DUP3 DUP5 PUSH2 0x14E0 JUMP JUMPDEST PUSH1 0x20 DUP3 ADD SWAP2 POP DUP2 SWAP1 POP SWAP3 SWAP2 POP POP JUMP JUMPDEST PUSH1 0x0 PUSH2 0x16BC DUP3 DUP5 PUSH2 0x1664 JUMP JUMPDEST PUSH1 0x20 DUP3 ADD SWAP2 POP DUP2 SWAP1 POP SWAP3 SWAP2 POP POP JUMP JUMPDEST PUSH1 0x0 PUSH1 0x80 DUP3 ADD SWAP1 POP PUSH2 0x16E0 PUSH1 0x0 DUP4 ADD DUP8 PUSH2 0x14D1 JUMP JUMPDEST PUSH2 0x16ED PUSH1 0x20 DUP4 ADD DUP7 PUSH2 0x167B JUMP JUMPDEST PUSH2 0x16FA PUSH1 0x40 DUP4 ADD DUP6 PUSH2 0x14D1 JUMP JUMPDEST PUSH2 0x1707 PUSH1 0x60 DUP4 ADD DUP5 PUSH2 0x14D1 JUMP JUMPDEST SWAP6 SWAP5 POP POP POP POP POP JUMP JUMPDEST PUSH1 0x0 PUSH1 0x20 DUP3 ADD SWAP1 POP DUP2 DUP2 SUB PUSH1 0x0 DUP4 ADD MSTORE PUSH2 0x1729 DUP2 PUSH2 0x14F7 JUMP JUMPDEST SWAP1 POP SWAP2 SWAP1 POP JUMP JUMPDEST PUSH1 0x0 PUSH1 0x20 DUP3 ADD SWAP1 POP DUP2 DUP2 SUB PUSH1 0x0 DUP4 ADD MSTORE PUSH2 0x1749 DUP2 PUSH2 0x153D JUMP JUMPDEST SWAP1 POP SWAP2 SWAP1 POP JUMP JUMPDEST PUSH1 0x0 PUSH1 0x20 DUP3 ADD SWAP1 POP DUP2 DUP2 SUB PUSH1 0x0 DUP4 ADD MSTORE PUSH2 0x1769 DUP2 PUSH2 0x1560 JUMP JUMPDEST SWAP1 POP SWAP2 SWAP1 POP JUMP JUMPDEST PUSH1 0x0 PUSH1 0x20 DUP3 ADD SWAP1 POP DUP2 DUP2 SUB PUSH1 0x0 DUP4 ADD MSTORE PUSH2 0x1789 DUP2 PUSH2 0x1583 JUMP JUMPDEST SWAP1 POP SWAP2 SWAP1 POP JUMP JUMPDEST PUSH1 0x0 PUSH1 0x20 DUP3 ADD SWAP1 POP DUP2 DUP2 SUB PUSH1 0x0 DUP4 ADD MSTORE PUSH2 0x17A9 DUP2 PUSH2 0x15A6 JUMP JUMPDEST SWAP1 POP SWAP2 SWAP1 POP JUMP JUMPDEST PUSH1 0x0 PUSH1 0x20 DUP3 ADD SWAP1 POP DUP2 DUP2 SUB PUSH1 0x0 DUP4 ADD MSTORE PUSH2 0x17C9 DUP2 PUSH2 0x15C9 JUMP JUMPDEST SWAP1 POP SWAP2 SWAP1 POP JUMP JUMPDEST PUSH1 0x0 PUSH1 0x20 DUP3 ADD SWAP1 POP DUP2 DUP2 SUB PUSH1 0x0 DUP4 ADD MSTORE PUSH2 0x17E9 DUP2 PUSH2 0x15EC JUMP JUMPDEST SWAP1 POP SWAP2 SWAP1 POP JUMP JUMPDEST PUSH1 0x0 PUSH1 0x20 DUP3 ADD SWAP1 POP DUP2 DUP2 SUB PUSH1 0x0 DUP4 ADD MSTORE PUSH2 0x1809 DUP2 PUSH2 0x160F JUMP JUMPDEST SWAP1 POP SWAP2 SWAP1 POP JUMP JUMPDEST PUSH1 0x0 PUSH1 0x20 DUP3 ADD SWAP1 POP DUP2 DUP2 SUB PUSH1 0x0 DUP4 ADD MSTORE PUSH2 0x1829 DUP2 PUSH2 0x1632 JUMP JUMPDEST SWAP1 POP SWAP2 SWAP1 POP JUMP JUMPDEST PUSH1 0x0 PUSH1 0x20 DUP3 ADD SWAP1 POP PUSH2 0x1845 PUSH1 0x0 DUP4 ADD DUP5 PUSH2 0x1655 JUMP JUMPDEST SWAP3 SWAP2 POP POP JUMP JUMPDEST PUSH1 0x0 PUSH2 0x1855 PUSH2 0x1866 JUMP JUMPDEST SWAP1 POP PUSH2 0x1861 DUP3 DUP3 PUSH2 0x1A72 JUMP JUMPDEST SWAP2 SWAP1 POP JUMP JUMPDEST PUSH1 0x0 PUSH1 0x40 MLOAD SWAP1 POP SWAP1 JUMP JUMPDEST PUSH1 0x0 PUSH8 0xFFFFFFFFFFFFFFFF DUP3 GT ISZERO PUSH2 0x188B JUMPI PUSH2 0x188A PUSH2 0x1BEF JUMP JUMPDEST JUMPDEST PUSH2 0x1894 DUP3 PUSH2 0x1C32 JUMP JUMPDEST SWAP1 POP PUSH1 0x20 DUP2 ADD SWAP1 POP SWAP2 SWAP1 POP JUMP JUMPDEST PUSH1 0x0 DUP3 DUP3 MSTORE PUSH1 0x20 DUP3 ADD SWAP1 POP SWAP3 SWAP2 POP POP JUMP JUMPDEST PUSH1 0x0 DUP2 SWAP1 POP SWAP3 SWAP2 POP POP JUMP JUMPDEST PUSH1 0x0 PUSH2 0x18C8 DUP3 PUSH2 0x1A4C JUMP JUMPDEST SWAP2 POP PUSH2 0x18D3 DUP4 PUSH2 0x1A4C JUMP JUMPDEST SWAP3 POP DUP3 PUSH32 0xFFFFFFFFFFFFFFFFFFFFFFFFFFFFFFFFFFFFFFFFFFFFFFFFFFFFFFFFFFFFFFFF SUB DUP3 GT ISZERO PUSH2 0x1908 JUMPI PUSH2 0x1907 PUSH2 0x1B62 JUMP JUMPDEST JUMPDEST DUP3 DUP3 ADD SWAP1 POP SWAP3 SWAP2 POP POP JUMP JUMPDEST PUSH1 0x0 PUSH2 0x191E DUP3 PUSH2 0x1A56 JUMP JUMPDEST SWAP2 POP PUSH2 0x1929 DUP4 PUSH2 0x1A56 JUMP JUMPDEST SWAP3 POP DUP3 PUSH1 0xFF SUB DUP3 GT ISZERO PUSH2 0x193F JUMPI PUSH2 0x193E PUSH2 0x1B62 JUMP JUMPDEST JUMPDEST DUP3 DUP3 ADD SWAP1 POP SWAP3 SWAP2 POP POP JUMP JUMPDEST PUSH1 0x0 PUSH2 0x1955 DUP3 PUSH2 0x1A4C JUMP JUMPDEST SWAP2 POP PUSH2 0x1960 DUP4 PUSH2 0x1A4C JUMP JUMPDEST SWAP3 POP DUP3 PUSH2 0x1970 JUMPI PUSH2 0x196F PUSH2 0x1B91 JUMP JUMPDEST JUMPDEST DUP3 DUP3 DIV SWAP1 POP SWAP3 SWAP2 POP POP JUMP JUMPDEST PUSH1 0x0 PUSH2 0x1986 DUP3 PUSH2 0x1A4C JUMP JUMPDEST SWAP2 POP PUSH2 0x1991 DUP4 PUSH2 0x1A4C JUMP JUMPDEST SWAP3 POP DUP2 PUSH32 0xFFFFFFFFFFFFFFFFFFFFFFFFFFFFFFFFFFFFFFFFFFFFFFFFFFFFFFFFFFFFFFFF DIV DUP4 GT DUP3 ISZERO ISZERO AND ISZERO PUSH2 0x19CA JUMPI PUSH2 0x19C9 PUSH2 0x1B62 JUMP JUMPDEST JUMPDEST DUP3 DUP3 MUL SWAP1 POP SWAP3 SWAP2 POP POP JUMP JUMPDEST PUSH1 0x0 PUSH2 0x19E0 DUP3 PUSH2 0x1A56 JUMP JUMPDEST SWAP2 POP PUSH2 0x19EB DUP4 PUSH2 0x1A56 JUMP JUMPDEST SWAP3 POP DUP2 PUSH1 0xFF DIV DUP4 GT DUP3 ISZERO ISZERO AND ISZERO PUSH2 0x1A05 JUMPI PUSH2 0x1A04 PUSH2 0x1B62 JUMP JUMPDEST JUMPDEST DUP3 DUP3 MUL SWAP1 POP SWAP3 SWAP2 POP POP JUMP JUMPDEST PUSH1 0x0 PUSH2 0x1A1B DUP3 PUSH2 0x1A2C JUMP JUMPDEST SWAP1 POP SWAP2 SWAP1 POP JUMP JUMPDEST PUSH1 0x0 DUP2 SWAP1 POP SWAP2 SWAP1 POP JUMP JUMPDEST PUSH1 0x0 PUSH20 0xFFFFFFFFFFFFFFFFFFFFFFFFFFFFFFFFFFFFFFFF DUP3 AND SWAP1 POP SWAP2 SWAP1 POP JUMP JUMPDEST PUSH1 0x0 DUP2 SWAP1 POP SWAP2 SWAP1 POP JUMP JUMPDEST PUSH1 0x0 PUSH1 0xFF DUP3 AND SWAP1 POP SWAP2 SWAP1 POP JUMP JUMPDEST DUP3 DUP2 DUP4 CALLDATACOPY PUSH1 0x0 DUP4 DUP4 ADD MSTORE POP POP POP JUMP JUMPDEST PUSH2 0x1A7B DUP3 PUSH2 0x1C32 JUMP JUMPDEST DUP2 ADD DUP2 DUP2 LT PUSH8 0xFFFFFFFFFFFFFFFF DUP3 GT OR ISZERO PUSH2 0x1A9A JUMPI PUSH2 0x1A99 PUSH2 0x1BEF JUMP JUMPDEST JUMPDEST DUP1 PUSH1 0x40 MSTORE POP POP POP JUMP JUMPDEST PUSH1 0x0 PUSH2 0x1AAE DUP3 PUSH2 0x1A4C JUMP JUMPDEST SWAP2 POP PUSH32 0xFFFFFFFFFFFFFFFFFFFFFFFFFFFFFFFFFFFFFFFFFFFFFFFFFFFFFFFFFFFFFFFF DUP3 EQ ISZERO PUSH2 0x1AE1 JUMPI PUSH2 0x1AE0 PUSH2 0x1B62 JUMP JUMPDEST JUMPDEST PUSH1 0x1 DUP3 ADD SWAP1 POP SWAP2 SWAP1 POP JUMP JUMPDEST PUSH1 0x0 DUP2 SWAP1 POP SWAP2 SWAP1 POP JUMP JUMPDEST PUSH1 0x0 DUP2 SWAP1 POP SWAP2 SWAP1 POP JUMP JUMPDEST PUSH1 0x0 PUSH2 0x1B0B DUP3 PUSH2 0x1A4C JUMP JUMPDEST SWAP2 POP PUSH2 0x1B16 DUP4 PUSH2 0x1A4C JUMP JUMPDEST SWAP3 POP DUP3 PUSH2 0x1B26 JUMPI PUSH2 0x1B25 PUSH2 0x1B91 JUMP JUMPDEST JUMPDEST DUP3 DUP3 MOD SWAP1 POP SWAP3 SWAP2 POP POP JUMP JUMPDEST PUSH1 0x0 PUSH2 0x1B3C DUP3 PUSH2 0x1A56 JUMP JUMPDEST SWAP2 POP PUSH2 0x1B47 DUP4 PUSH2 0x1A56 JUMP JUMPDEST SWAP3 POP DUP3 PUSH2 0x1B57 JUMPI PUSH2 0x1B56 PUSH2 0x1B91 JUMP JUMPDEST JUMPDEST DUP3 DUP3 MOD SWAP1 POP SWAP3 SWAP2 POP POP JUMP JUMPDEST PUSH32 0x4E487B7100000000000000000000000000000000000000000000000000000000 PUSH1 0x0 MSTORE PUSH1 0x11 PUSH1 0x4 MSTORE PUSH1 0x24 PUSH1 0x0 REVERT JUMPDEST PUSH32 0x4E487B7100000000000000000000000000000000000000000000000000000000 PUSH1 0x0 MSTORE PUSH1 0x12 PUSH1 0x4 MSTORE PUSH1 0x24 PUSH1 0x0 REVERT JUMPDEST PUSH32 0x4E487B7100000000000000000000000000000000000000000000000000000000 PUSH1 0x0 MSTORE PUSH1 0x32 PUSH1 0x4 MSTORE PUSH1 0x24 PUSH1 0x0 REVERT JUMPDEST PUSH32 0x4E487B7100000000000000000000000000000000000000000000000000000000 PUSH1 0x0 MSTORE PUSH1 0x41 PUSH1 0x4 MSTORE PUSH1 0x24 PUSH1 0x0 REVERT JUMPDEST PUSH1 0x0 DUP1 REVERT JUMPDEST PUSH1 0x0 DUP1 REVERT JUMPDEST PUSH1 0x0 DUP1 REVERT JUMPDEST PUSH1 0x0 DUP1 REVERT JUMPDEST PUSH1 0x0 PUSH1 0x1F NOT PUSH1 0x1F DUP4 ADD AND SWAP1 POP SWAP2 SWAP1 POP JUMP JUMPDEST PUSH32 0x72657175697265206465706F736974206174206C6561737420626967202B2073 PUSH1 0x0 DUP3 ADD MSTORE PUSH32 0x6D616C6C20626C696E6400000000000000000000000000000000000000000000 PUSH1 0x20 DUP3 ADD MSTORE POP JUMP JUMPDEST PUSH32 0x19457468657265756D205369676E6564204D6573736167653A0A333200000000 PUSH1 0x0 DUP3 ADD MSTORE POP JUMP JUMPDEST PUSH32 0x43616C6C6572206973206E6F74206F776E657200000000000000000000000000 PUSH1 0x0 DUP3 ADD MSTORE POP JUMP JUMPDEST PUSH32 0x756E726561636861626C6520636F646500000000000000000000000000000000 PUSH1 0x0 DUP3 ADD MSTORE POP JUMP JUMPDEST PUSH32 0x63616E2774206A6F696E20616C726561647920637265617465642067616D6500 PUSH1 0x0 DUP3 ADD MSTORE POP JUMP JUMPDEST PUSH32 0x63616E2774206A6F696E20746F2066756C6C207461626C650000000000000000 PUSH1 0x0 DUP3 ADD MSTORE POP JUMP JUMPDEST PUSH32 0x63616E2774206573636170652066726F6D20737461727465642067616D650000 PUSH1 0x0 DUP3 ADD MSTORE POP JUMP JUMPDEST PUSH32 0x72657175697265206465706F73697420657175616C7320746F20626967202B20 PUSH1 0x0 DUP3 ADD MSTORE PUSH32 0x736D616C6C20626C696E64000000000000000000000000000000000000000000 PUSH1 0x20 DUP3 ADD MSTORE POP JUMP JUMPDEST PUSH32 0x6578706563742072657665616C20737461676500000000000000000000000000 PUSH1 0x0 DUP3 ADD MSTORE POP JUMP JUMPDEST PUSH32 0x626164207369676E657200000000000000000000000000000000000000000000 PUSH1 0x0 DUP3 ADD MSTORE POP JUMP JUMPDEST PUSH2 0x1E32 DUP2 PUSH2 0x1A10 JUMP JUMPDEST DUP2 EQ PUSH2 0x1E3D JUMPI PUSH1 0x0 DUP1 REVERT JUMPDEST POP JUMP JUMPDEST PUSH2 0x1E49 DUP2 PUSH2 0x1A22 JUMP JUMPDEST DUP2 EQ PUSH2 0x1E54 JUMPI PUSH1 0x0 DUP1 REVERT JUMPDEST POP JUMP JUMPDEST PUSH2 0x1E60 DUP2 PUSH2 0x1A4C JUMP JUMPDEST DUP2 EQ PUSH2 0x1E6B JUMPI PUSH1 0x0 DUP1 REVERT JUMPDEST POP JUMP JUMPDEST PUSH2 0x1E77 DUP2 PUSH2 0x1A56 JUMP JUMPDEST DUP2 EQ PUSH2 0x1E82 JUMPI PUSH1 0x0 DUP1 REVERT JUMPDEST POP JUMP INVALID LOG2 PUSH5 0x6970667358 0x22 SLT KECCAK256 PUSH14 0xE0FA2FEED01D9BE1E9DA19A615BC 0xD6 DUP12 EXP 0xD9 DUP3 RETURNDATASIZE SMOD ADDRESS CALL 0xFB DIV DUP4 CREATE 0xEC 0xB9 0xB1 LT PUSH5 0x736F6C6343 STOP ADDMOD SMOD STOP CALLER "
		},
		"gasEstimates": {
			"creation": {
				"codeDepositCost": "1573400",
				"executionCost": "infinite",
				"totalCost": "infinite"
			},
			"external": {
				"changeOwner(address)": "26916",
				"createGame(uint256,uint256,bytes32)": "infinite",
				"escapeGame(uint256)": "infinite",
				"joinGame(uint256,bytes32)": "infinite",
				"revealCards(uint256,bytes,uint256,uint8)": "infinite",
				"verifyPlayerState(uint256,uint256)": "infinite"
			},
			"internal": {
				"cardId2Obj(uint8)": "infinite",
				"checkClaimedHand(uint256,uint8,uint8,uint8[] memory)": "infinite",
				"parseCards(uint8,bytes32,bytes32)": "infinite",
				"prefixed(bytes32)": "infinite",
				"splitSignature(bytes memory)": "infinite"
			}
		},
		"methodIdentifiers": {
			"changeOwner(address)": "a6f9dae1",
			"createGame(uint256,uint256,bytes32)": "46ac2b99",
			"escapeGame(uint256)": "c642ccfa",
			"joinGame(uint256,bytes32)": "ac952671",
			"revealCards(uint256,bytes,uint256,uint8)": "e826f328",
			"verifyPlayerState(uint256,uint256)": "14331930"
		}
	},
	"abi": [
		{
			"inputs": [
				{
					"internalType": "uint256",
					"name": "_comission",
					"type": "uint256"
				}
			],
			"stateMutability": "nonpayable",
			"type": "constructor"
		},
		{
			"inputs": [
				{
					"internalType": "address",
					"name": "newOwner",
					"type": "address"
				}
			],
			"name": "changeOwner",
			"outputs": [],
			"stateMutability": "nonpayable",
			"type": "function"
		},
		{
			"inputs": [
				{
					"internalType": "uint256",
					"name": "smallBlind",
					"type": "uint256"
				},
				{
					"internalType": "uint256",
					"name": "limit",
					"type": "uint256"
				},
				{
					"internalType": "bytes32",
					"name": "randomStateHash",
					"type": "bytes32"
				}
			],
			"name": "createGame",
			"outputs": [
				{
					"internalType": "uint256",
					"name": "gameId",
					"type": "uint256"
				}
			],
			"stateMutability": "payable",
			"type": "function"
		},
		{
			"inputs": [
				{
					"internalType": "uint256",
					"name": "gameId",
					"type": "uint256"
				}
			],
			"name": "escapeGame",
			"outputs": [],
			"stateMutability": "payable",
			"type": "function"
		},
		{
			"inputs": [
				{
					"internalType": "uint256",
					"name": "gameId",
					"type": "uint256"
				},
				{
					"internalType": "bytes32",
					"name": "randomStateHash",
					"type": "bytes32"
				}
			],
			"name": "joinGame",
			"outputs": [
				{
					"internalType": "uint256",
					"name": "playerId",
					"type": "uint256"
				}
			],
			"stateMutability": "payable",
			"type": "function"
		},
		{
			"inputs": [
				{
					"internalType": "uint256",
					"name": "gameId",
					"type": "uint256"
				},
				{
					"internalType": "bytes",
					"name": "signature",
					"type": "bytes"
				},
				{
					"internalType": "uint256",
					"name": "claimedHand",
					"type": "uint256"
				},
				{
					"internalType": "uint8",
					"name": "claimedCombination",
					"type": "uint8"
				}
			],
			"name": "revealCards",
			"outputs": [],
			"stateMutability": "nonpayable",
			"type": "function"
		},
		{
			"inputs": [
				{
					"internalType": "uint256",
					"name": "gameId",
					"type": "uint256"
				},
				{
					"internalType": "uint256",
					"name": "randomState",
					"type": "uint256"
				}
			],
			"name": "verifyPlayerState",
			"outputs": [],
			"stateMutability": "nonpayable",
			"type": "function"
		}
	]
}